:020000040800F2
:10000000701700244103000889810008B1770008B7
:100010008581000831070008D3AD0008000000000A
:1000200000000000000000000000000031A10008F6
:100030006B0D0008000000008D830008BFA20008BF
:100040005B0300085B0300085B0300085B03000818
:100050005B0300085B0300085B0300085B03000808
:100060005B0300085B0300085B030008450A000807
:10007000550A0008650A00085B0300085B030008D6
:100080005B0300085B0300085B0300085B030008D8
:100090005B0300085B0300085B0300085B030008C8
:1000A0005B0300085B0300085B0300085B030008B8
:1000B0005B0300085B0300085B0300085B030008A8
:1000C0005B0300085B0300085B0300085B03000898
:1000D0005B0300085B0300085B0300085B03000888
:1000E0005B0300085B030008000000005B030008DE
:1000F0005B0300085B0300085B0300085B03000868
:100100005B0300089D8B00085B0300085B0300088D
:100110005B0300085B0300085B0300085B03000847
:100120005B0300085B0300085B0300085B03000837
:100130005B0300085B0300085B0300085B03000827
:1001400000000000000000000000000000000000AF
:100150005B0300085B0300085B0300085B03000807
:100160005B0300085B0300085B0300085B030008F7
:100170005B0300085B030008350A00085B03000806
:100180005B0300085B0300085B0300085B030008D7
:100190005B0300085B0300085B0300085B030008C7
:1001A0005B0300085B0300085B0300085B030008B7
:1001B0005B0300085B0300085B0300085B030008A7
:1001C0005B0300085B0300085B0300085B03000897
:1001D0005B0300085B0300085B0300085B03000887
:1001E0005B0300085B0300085B0300085B03000877
:1001F0005B0300085B0300085B0300085B03000867
:100200005B0300085B0300085B0300085B03000856
:100210005B0300085B0300085B0300085B03000846
:100220005B0300085B0300085B030008000000009C
:100230005B0300085B030008000000005B0300088C
:100240005B0300085B0300085B0300085B03000816
:100250005B0300085B0300085B0300085B03000806
:100260005B0300085B0300085B0300085B030008F6
:100270005B0300085B0300085B030008000000004C
:100280005B0300085B0300085B030008000000003C
:10029000000000005B03000800F002F800F041F8E5
:1002A0000AA090E8000C82448344AAF10107DA45D1
:1002B00001D100F036F8AFF2090EBAE80F0013F0E2
:1002C000010F18BFFB1A43F00103184728E900008B
:1002D00048E90000103A24BF78C878C1FAD852071C
:1002E00024BF30C830C144BF04680C6070470000B0
:1002F0000023002400250026103A28BF78C1FBD82F
:10030000520728BF30C148BF0B607047752900F005
:10031000F780002070471FB50BF038F81FBD10B5EF
:1003200010BD00F0D0F91146FFF7F5FF0AF074FE9A
:1003300000F0EEF903B4FFF7F2FF03BC00F0F2F9AE
:100340000948804709480047FEE7FEE7FEE7FEE769
:10035000FEE7FEE7FEE7FEE7FEE7FEE704480549A5
:10036000054A064B7047000001A4000899020008E6
:100370007007002470170024700F0024700F0024F1
:1003800053EA020C00F069802DE9F04B4FF00006B3
:10039000002B1FBFB3FA83F503FA05F424FA05F620
:1003A0005E4012BF1643B2FA82F502FA05F4C5F1B7
:1003B00020051EBF22FA05FC44EA0C04203556EA4B
:1003C000044C4FEA144418BF641C4FF000084FF06F
:1003D0000009904271EB030C39D3002919BFB1FA1F
:1003E00081F701FA07F6B0FA80F700FA07F6C7F1CD
:1003F00020071EBF20FA07FC46EA0C062037B6FB92
:10040000F4FCA7EB0507103F07F01F0BCBF120060C
:100410000CFA0BFB2CFA06F644BFB3460026202F3D
:10042000A4BF5E464FF0000B5BEA060C08BF4FF01E
:10043000010B19EB0B09ABFB027C48EB0608C01B58
:1004400006FB02CC0BFB03CC71EB0C01C1E70B46A6
:10045000024641464846BDE8F08B13B54FF0000018
:100460004FF00001AFF30080BDE81C407047000072
:100470000FB41CB5074B06AA7B446946009005984B
:1004800000F003F90020694600F012F91CBC5DF889
:1004900014FB0000350200002DE9F0410E46044631
:1004A000002020622046E168884730B3252805D027
:1004B000D4E901219047206A401CF2E7E168204618
:1004C00000278847050018D0A5F14100192802D857
:1004D00020354FF400673246294620462760FFF753
:1004E00015FF40B1012804D0F61D26F00706083696
:1004F000D8E7361DD6E72846DAE7206ABDE8F0815E
:100500002DE9F0410646002410687529314616A5EC
:1005100010D0AFF30080002802DA404213A507E0B4
:1005200031688A0701D512A502E0490704D511A553
:10053000012401E0AFF3008000210A2206F1240724
:1005400009E0B0FBF2FCB0FBF2F302FB1C00303020
:1005500078541846491C0028F3D123462A463046D1
:10056000BDE8F04100F032B8000000002D000000AE
:100570002B000000200000004FF0000200B51346E1
:1005800094469646203922BFA0E80C50A0E80C50B3
:10059000B1F12001BFF4F7AF090728BFA0E80C5064
:1005A00048BF0CC05DF804EB890028BF40F8042B5D
:1005B00008BF704748BF20F8022B11F0804F18BFCA
:1005C00000F8012B70477047704770472DE9F047DE
:1005D0000D4699469246044600F1240801688806B3
:1005E00004D5E06921F01001216000E00120A8425B
:1005F00001DD471B00E00027A1697A1902EB090021
:10060000081AA0612078C00602D42046AFF300800B
:10061000002608E0D4E901211AF806009047206A74
:10062000401C761C20624E45F4DB2078C0060AD5BB
:100630002046AFF3008006E0D4E901213020904746
:10064000206A401C2062381EA7F10107F4DC07E095
:10065000D4E9012118F805009047206A401C206267
:10066000281EA5F10105F3DC2046AFF300802078B9
:10067000000602D50220BDE8F0870120FBE700005C
:1006800001694A1C02610878704700B58FB0CDE956
:1006900001310021059105497944CDE90310114646
:1006A0006846FFF7F9FE0FB000BD0000E5FFFFFF51
:1006B0000A6802F8010B0A607047000000487047A2
:1006C0001007002470477546FFF7F8FFAE46050097
:1006D0006946534620F00700854618B020B5FFF75D
:1006E0003DFEBDE820404FF000064FF000074FF000
:1006F00000084FF0000B21F00701AC46ACE8C00940
:10070000ACE8C009ACE8C009ACE8C0098D46704748
:1007100010B50446AFF300802046BDE81040FFF757
:1007200009BE000001491820ABBEFEE7260002000A
:1007300000BFFEE700224FF4803105E00948406B1E
:1007400000F0800000B103E0081EA1F10101F5D125
:1007500000BF09B9032070470348024B9863104655
:10076000F9E7000000700052FF0FE01F024605E0AD
:100770001348416B01F0450000B100E0F8E700BF0D
:1007800001F0040030B104200D4B98630D489863CC
:100790000320704701F0010018B10120084B986355
:1007A000F7E707480069904201D01020F1E70548BB
:1007B000034B98631846406908231840C0B2E8E725
:1007C00000700052FF0FE01F10B500204FF4803280
:1007D00005E0134B596B01F0450303B103E0131E11
:1007E000A2F10102F5D100BF12B101F004033BB147
:1007F00003200B4B9B6B43F00403094CA36310BD18
:1008000001F0010333B10120054B9B6B43F0010361
:10081000034CA363034B024CA36300BFEFE700004C
:1008200000700052FF0FE01F05E00C48416B01F023
:10083000450000B100E0F8E700BF01F0040038B166
:100840000648806B40F00400044A90630320704720
:100850000348024A90630020F9E70000007000524C
:10086000FF0FE01F70B503460C46002505E0204849
:10087000426B02F0450000B100E0F8E700BF02F073
:10088000040038B11A48806B40F00400184EB06381
:10089000032070BD02F0010038B11548806B40F0B4
:1008A0000100134EB0630120F3E71148006998423C
:1008B00001D01020EDE70F480D4EB063304641697E
:1008C00001F4604018B9080C20802846E1E701F4E3
:1008D000005008B11320DCE701F4804008B110207B
:1008E000D7E701F4004008B10F20D2E72846D0E74F
:1008F00000700052FF0FE01F10B500204FF480324F
:1009000005E0114B596B01F0450303B103E0131EE1
:10091000A2F10102F5D100BF12B101F004033BB115
:100920000320094B9B6B43F00403074CA36310BDEA
:1009300001F0400333B10020034B9B6B43F04003B5
:10094000014CA36300BFF2E7007000522DE9F041B3
:1009500080460D4616461F46002419E004EB04109D
:100960000D4911F81000B04210D104EB041001EB56
:1009700040004078B84209D104EB04100A4602EB6B
:100980004000811C2A46404600F036F8601C84B2C4
:10099000382CE3DBBDE8F081A4E000082DE9F0414C
:1009A00080460D4616461F4600241FE004EB8400D7
:1009B00000EB44100F4911F81000B04214D104EBC1
:1009C000840000EB441001EB40004078B8420BD1AA
:1009D00004EB840000EB44100A4602EB4000811C4B
:1009E0002A46404600F008F8601C84B2092CDDDB82
:1009F000BDE8F0817AE8000810B5002304E011F8A2
:100A0000014B00F8014B5B1C9342F8D310BD70B54D
:100A10000546AC6BA06C406D022806D0012084F81E
:100A20003500E06C40F04000E064204600F0BAFD84
:100A300070BD000010B5024800F0C4FD10BD0000FC
:100A40006403002410B5024801F014FC10BD00003E
:100A50002C04002410B5024801F00CFC10BD00006D
:100A6000B403002410B5024801F004FC10BD0000DE
:100A7000880600240146374A0868904249D0354A22
:100A800018320868904244D0324A303208689042A6
:100A90003FD0304A4832086890423AD02D4A6032FE
:100AA0000868904235D02B4A78320868904230D09E
:100AB000284A9032086890422BD0264AA83208680B
:100AC000904226D0244A0868904222D0224A183206
:100AD000086890421DD0204A30320868904218D0F1
:100AE0001D4A48320868904213D01B4A6032086899
:100AF00090420ED0184A78320868904209D0164ABF
:100B000090320868904204D0134AA8320868904294
:100B100001D1012000E00020B0B10A78103A18237A
:100B2000B2FBF3F000F007020C4B9A5CCA65032895
:100B300005D90A686FF30902121D8A6503E00A6885
:100B40006FF309028A6503E0086820F0FF008865FA
:100B5000886D70471000024010040240A3C80008CE
:100B600010B502682B4C0368A34222D0294C1434E0
:100B70000368A3421DD0274C28340368A34218D031
:100B8000244C3C340368A34213D0224C50340368F5
:100B9000A3420ED01F4C64340368A34209D01D4CFD
:100BA00078340368A34204D01A4C8C340368A342FF
:100BB00001D1012300E000238BB10378083B14240A
:100BC000B3FBF4F1144B03EB81030366124B803348
:100BD000436601F01F040123A340836618E00378F5
:100BE000103B1824B3FBF4F10C4B9A4204D80B4B86
:100BF000A83B9A4200D30831094B03EB81030366FB
:100C0000074B8033436601F01F040123A340836632
:100C100010BD00000854025800580258B8040240A1
:100C2000000802400179A9B3082940D8204B026886
:100C30009A4222D01E4B143302689A421DD01C4B9C
:100C4000283302689A4218D0194B3C3302689A4202
:100C500013D0174B503302689A420ED0144B6433B2
:100C600002689A4209D0124B783302689A4204D043
:100C70000F4B8C3302689A4201D1012200E000221E
:100C80004AB14A1E0B4B03EB8202C266094A40324C
:100C9000026708E00BE04A1E074B03EB8202C266C4
:100CA000054A403202674A1E01239340436770475A
:100CB0000854025800590258000902400146002019
:100CC0008A69D2B98A6A32B1012A0DD0022A03D0C8
:100CD000032A10D10EE000BFCA6A02F08072B2F19E
:100CE000807F00D1012007E0CA6AB2F1C07F00D145
:100CF000012001E000E000BF36E08A69B2F5005F44
:100D00001BD18A6A32B1012A07D0022A03D0032AF2
:100D100011D10AE000BF01200EE0CA6A02F0807221
:100D2000B2F1807F00D1012006E0CA6AB2F1C07F33
:100D300000D1012000E000BF16E08A6A32B1012A2A
:100D400005D0022A04D0032A0CD103E000BF00BF63
:100D5000012008E0CA6A02F08072B2F1807F00D1FF
:100D6000012000E000BF00BF704770472DE9F0434D
:100D700085B004460D4617461E460E480088001BE7
:100D80001FFA80F80B484088401B1FFA80F90020AA
:100D90000949098810224B46CDE901270096CDE983
:100DA000031042462946204600F0B8FA05B0BDE8D7
:100DB000F083000000070024A20000242DE9FF4773
:100DC00004460D4616461F460B480088001B1FFAB6
:100DD00080F809484088401B1FFA80F90020102144
:100DE0004B464246CDE90071CDE9026029462046D6
:100DF00009F002FABDE8FF870007002472B600BFC1
:100E0000FEE700007CB506460D4600240020009059
:100E1000019008220121102008F0B8FA1020FFF7F5
:100E2000A5FC04460CB120467CBD320401213720CC
:100E300008F0ACFA3720FFF799FC04460CB12046C5
:100E4000F2E7012303220821101F08F0B1FA002263
:100E50000121332008F09AFA3320FFF787FC04467B
:100E60000CB12046E0E70DE03048406B00F4002074
:100E700040B92E488030006800902C48D0F880009F
:100E8000019006E02948406B40F22A5108400028B2
:100E9000EAD000BF2548406B00F0080038B1234875
:100EA000806B40F00800214988630420BCE71F489C
:100EB000406B00F0020038B11C48806B40F002002B
:100EC0001A4988630220AFE71848406B00F0200001
:100ED00038B11648806B40F0200014498863062022
:100EE000A2E713481149886300980006009901F4AD
:100EF0007F4140EA0120009901F47F0140EA11207E
:100F0000009940EA1160686001980006019901F4B7
:100F10007F4140EA0120019901F47F0140EA11205C
:100F2000019940EA1160286020467DE70070005278
:100F3000FF0FE01F2DE9F04106460C46174601223F
:100F40001103144802F0BCFA052000F050FA032007
:100F500006F0E6FDC4F3074006F0E2FDC4F3072007
:100F600006F0DEFDE0B206F0DBFD002505E0FF2027
:100F700006F0D6FD7055681C85B2BD42F7DB002235
:100F80004FF48051034802F09BFA052000F02FFA3D
:100F9000BDE8F081000402582DE9F0470746884675
:100FA00091461C463E78B9F1200F1ED009DCB9F1FC
:100FB0000C0F0DD0B9F1100F0FD0B9F1180F20D1CF
:100FC0000FE0B9F1300F14D0B9F1400F19D114E08E
:100FD00006FB04F000F5002515E00F4806FB0405AC
:100FE00011E00E4806FB04050DE00D4806FB040564
:100FF00009E00C4806FB040505E00B4806FB040568
:1010000001E0BDE8F08700BF224629464046FFF7D1
:1010100091FF00BFF5E7000000080800001208007B
:101020000026080000480800009208002DE9FF5F34
:1010300082460F4698469AF800900AF101008246CF
:101040000478B9F1810F06DB402C04DBFF2C02D0C1
:10105000B9F1FF0F0DD14FF0000B06E0002007F8AB
:10106000010B0BF101001FFA80FBC345F6DBBDE865
:10107000FF9F7F2C03DAA4F14000C4B202E0A4F188
:101080004100C4B2A9F1810000F0FF09BE2010FBAD
:10109000094000FB08F502980C2806D0102807D05C
:1010A000182808D020280CD108E00A482E1809E09A
:1010B00009482E1806E005F5ED1603E005F5601663
:1010C00000E0D4E700BF424631463846FFF732FF22
:1010D00000BFCCE70014090000DD110010B500F0DE
:1010E00001F810BD10B586B04FF6FF7006F062FB38
:1010F000002404E000200DF80400601CC4B2182C89
:10110000F8DB112200216846FFF714FF6B464FF40D
:10111000784210210846FFF729FE002404E0002051
:101120000DF80400601CC4B2182CF8DB082214214E
:101130006846FFF7FFFE6B464FF4784220211020EF
:10114000FFF714FE002404E000200DF80400601CEA
:10115000C4B2182CF8DB08221E216846FFF7EAFE0D
:101160006B464FF4784230211020FFF7FFFDC82076
:1011700002F08CF806B010BD2DE9FF4FC1B08046DB
:101180000D461C46AB462046E31704EB5373DB10B9
:1011900021464FEAE47C04EB5C7C4FEAEC0CA4EBC8
:1011A000CC0CBCF1000F02D04FF0010C01E04FF06D
:1011B000000C6344224604EBD27C4FEA6C0C03FB28
:1011C0000CF39FB20C2C0CD0102C0AD0182C08D089
:1011D000202C06D0302C04D0402C02D045B0BDE8E5
:1011E000F08F3B46224601A94398FFF7D5FE002623
:1011F0002FE001A810F806904FF0000A23E009F054
:10120000800028B1294640464E9A06F05BFB06E076
:10121000509820B9294640464F9A06F053FB4FEAB2
:1012200049604FEA1069681C85B2A5EB0B00A0422B
:1012300005D15D4608F101001FFA80F806E00AF1C9
:1012400001001FFA80FABAF1080FD8DB00BF701C4A
:1012500086B2BE42CDDB00BFC0E72DE9FF4FA1B093
:1012600080460D461C46AB462046E21704EB527200
:10127000D2102146E31704EB5373DB10A4EBC30336
:101280000BB1012300E000231A44624397B20C2CF7
:1012900008D0102C06D0182C04D0202C02D025B059
:1012A000BDE8F08F3B46224601A92398FFF7BEFE1A
:1012B00000262FE001A810F806904FF0000A23E066
:1012C00009F0800028B1294640462E9A06F0FAFA25
:1012D00006E0309820B9294640462F9A06F0F2FAE7
:1012E0004FEA49604FEA1069681C85B2A5EB0B0014
:1012F000A04205D15D4608F101001FFA80F806E022
:101300000AF1010000F0FF0ABAF1080FD8DB00BFB4
:10131000701CC6B2BE42CDDB00BFC0E72DE9F04F66
:1013200085B007460D4691469A46DDE90F4B0E9E65
:10133000B84604950020039052E0039888BB3078AB
:10134000802802DD012003904AE004EBD47108EB11
:101350000902A2EB6101B94202DA281985B24746B7
:1013600004985044001BA84200DA3CE030780D2875
:1013700004D1281985B24746761C0AE0DDE9111030
:1013800023463246CDE900B1029029463846FFF7A0
:10139000F3FE761C204604EBD07107EB61018FB29F
:1013A0001EE0FFE70020039008EB0900001BB84295
:1013B00002DA281985B2474604985044001BA84217
:1013C00000DA10E0DDE9110123463246CDE900B034
:1013D000029129463846FFF740FFB61C381987B2FC
:1013E00030780028A9D100BF05B0BDE8F08F0021FA
:1013F00007E0002201E0531CDAB2642AFBDB4B1C3D
:10140000D9B28142F5DB70472DE9F04705460C461D
:1014100090469A4695F80090681C05460778B9F101
:10142000810F06DB402F04DBFF2F02D0B9F1FF0F45
:101430000AD1002604E0002004F8010B701CC6B29B
:101440004645F8DBBDE8F087BAF10C0F06D0BAF1DB
:10145000100F04D0BAF1180F0FD107E00DE03B4692
:101460004A4641462046FFF771FA06E03B464A46A7
:1014700041462046FFF792FA00BF00BF00BFE1E7F8
:1014800070B503460C4600201F2104F001050DB97C
:10149000012022E000BF0D1EA1F1010106D001F0E4
:1014A0001F060125B5402540002DF4D08AB1082A39
:1014B0000BD0102A05D0182A0CD1072900D30120FF
:1014C0000AE0082900D3012006E0102900D30120FA
:1014D00002E001E0012000BF00BF40B91D686C615F
:1014E0001D68AD6825F0180515431E68B56070BD10
:1014F00010B504460CB9012010BD607F20B9002052
:101500002077204600F036F802206077207948B92D
:101510001748216848612068806820F01800216819
:10152000886007E02046D4E90212FFF7A9FF08B15E
:101530000120E1E7607920B94FF0FF3021680861B0
:1015400002E02168206908612068806820F060005E
:1015500061690843216888602068806820F0800005
:10156000A169084321688860012060770020C3E7F3
:10157000B71DC10408B5094A016891420DD100BFE9
:101580000749096841F40021054A116011460968BC
:1015900001F40021009100BF00BF08BD004C0258BB
:1015A000E04402587047000010B50446204600F0A1
:1015B000E5F9204600F09AF901200149087010BDB4
:1015C0005800002470B504462068056905F0040041
:1015D00004280ED121684861E06C40F00200E0640C
:1015E000042084F835002348A16C0865A06C00F045
:1015F00075FC05F0020002280ED121684861E06CFC
:1016000040F00100E064042084F835001948A16C22
:101610000865A06C00F062FC05F01000102804D1F1
:1016200021684861204600F077F805F00800082896
:1016300004D121684861204600F0E0F905F001007E
:10164000B8B12068006800F00200022805D12068C7
:10165000C06820F01E002168C8602068C06820F0C3
:1016600001002168C8600120216848612046FFF719
:101670009BFF70BD0F0A000810B504460CB901208D
:1016800010BD94F8350010B9204600F047F802204C
:1016900084F83500A06908B1002161622068006803
:1016A0001C49084021680860616960680843E16876
:1016B000084321690843A1680843A1690843216AD6
:1016C0000843616A0843A16A0843E16A0843216B41
:1016D0000843216809680843216808606068102889
:1016E0000BD1217F607F41EA0021A07F41EA0041C8
:1016F000E07F41EA0060216888612068C06840F0AE
:101700001E002168C8600020E064012084F83500D4
:101710000020B5E707F0E0FF7047000010B586B085
:101720000446142101A8FEF727FF67492068884274
:101730007ED100BF6548006840F001006349086041
:101740000846006800F00100009000BF00BF00BF25
:10175000081D006840F01000091D08600846006878
:1017600000F01000009000BF00BF00BF08460068F6
:1017700040F0010008600846006800F00100009099
:1017800000BF00BF00BF0846006840F004000860CA
:101790000846006800F00400009000BF00BF00BFD2
:1017A0000846006840F0080008600846006800F03D
:1017B0000800009000BF00BF00BF0846006840F06E
:1017C000020008600846006800F00200009000BFB8
:1017D00000BF73200190022002900120039003209B
:1017E00004900D20059001A9394801F063FD5020B7
:1017F00001900220029001200390032004900D200C
:10180000059001A9334801F055FDC0200190022048
:10181000029001200390032004900D20059001A95F
:101820002D4801F047FD082001900220029000E0C1
:1018300048E001200390032004900D20059001A9A9
:10184000264801F037FD80200190022002900120FF
:101850000390032004900D20059001A9204801F079
:1018600029FD202001F03EFE1E481F4908604B2044
:10187000486000211C488160C1604FF480610161B3
:1018800089004161890081618911C1614FF4403152
:10189000016204214162032181620021C16201636E
:1018A00001F064FA08B1FFF7A9FA00BF0E48A0647E
:1018B000846300BF002211464E2001F0BBFE4E2083
:1018C00001F0A4FE06B010BD00000248DC4402583E
:1018D000001002580000025800080258000C02587C
:1018E0000004025828000240B403002470B50446E6
:1018F00021480068C0084FF47A71B0FBF1F000FB9A
:1019000001F5002600BF94F83400012801D102201F
:1019100070BD012084F8340000BF022084F8350037
:101920002068006820F001002168086000BF6D1E7B
:101930002DB9E06C40F02000E064032605E020684B
:10194000006800F001000028F1D100BF20680068A5
:1019500020F4804021680860A06C00F051F8E06C31
:10196000E064012084F8350000BF002084F83400D2
:1019700000BF3046CCE700009800002410B50146B7
:101980001D480068C0084FF47A74B0FBF4F000FB07
:1019900004F2002300BF91F83400012801D1022095
:1019A00010BD012081F8340000BF91F835000228F5
:1019B0001BD1052081F835000868006820F001007F
:1019C0000C68206000BF521E42B9C86C40F0200075
:1019D000C864012081F83500032305E00868006829
:1019E00000F001000028EED100BF00BF002081F808
:1019F000340000BF1846D3E7980000247047000069
:101A00002DE9F041044601F067FD804614B901203C
:101A1000BDE8F08194F83500022808D08020606588
:101A200000BF002084F8340000BF0120F0E7FE4929
:101A30002068884249D0FC4918312068884244D047
:101A4000F9493031206888423FD0F7494831206851
:101A500088423AD0F44960312068884235D0F24952
:101A600078312068884230D0EF4990312068884230
:101A70002BD0ED49A8312068884226D0EB49206858
:101A8000884222D0E9491831206888421DD0E749B0
:101A900030312068884218D0E449483120688842B3
:101AA00013D0E2496031206888420ED0DF49783196
:101AB0002068884209D0DD4990312068884204D0EE
:101AC000DA49A8312068884201D1012000E00020D5
:101AD00068B12068006820F01E0021680860206856
:101AE000406920F0800021684861256806E0206890
:101AF000006820F00E00216808602568CA49206847
:101B0000884270D0C8491831206888426BD0C649D5
:101B100030312068884266D0C34948312068884205
:101B200061D0C1496031206888425CD0BE497831BB
:101B30002068884257D0BC4990312068884252D0F2
:101B4000B949A831206888424DD0B84920688842F8
:101B500049D0B64918312068884244D0B349303161
:101B6000206888423FD0B1494831206888423AD045
:101B7000AE4960312068884235D0AC497831206860
:101B8000884230D0A9499031206888422BD0A7499B
:101B9000A8312068884226D0A5492068884222D0F2
:101BA000A3491431206888421DD0A14928312068FA
:101BB000884218D09E493C312068884213D09C4905
:101BC0005031206888420ED099496431206888429B
:101BD00009D0974978312068884204D094498C31E3
:101BE0002068884201D1012000E0002028B1206E49
:101BF000006820F48070216E08608B49206888425C
:101C000049D0894918312068884244D0864930310A
:101C1000206888423FD084494831206888423AD0C1
:101C2000814960312068884235D07F497831206809
:101C3000884230D07C499031206888422BD07A4944
:101C4000A8312068884226D078492068884222D06E
:101C500076491831206888421DD074493031206897
:101C6000884218D0714948312068884213D06F49A2
:101C70006031206888420ED06C49783120688842F3
:101C800009D06A4990312068884204D06749A83158
:101C90002068884206D12068006820F00100216891
:101CA000086005E02068006820F0010021680860F5
:101CB00011E001F011FCA0EB080005280BD9202051
:101CC0006065032084F8350000BF002084F83400EC
:101CD00000BF01209CE6286800F001000028E8D140
:101CE00051492068884249D04F49183120688842BC
:101CF00044D04D493031206888423FD04A4948316C
:101D0000206888423AD0484960312068884235D0FE
:101D1000454978312068884230D043499031206865
:101D200088422BD04049A8312068884226D03F49BC
:101D30002068884222D03D491831206888421DD051
:101D40003A4930312068884218D0384948312068F3
:101D5000884213D035496031206888420ED033491B
:101D600078312068884209D0304990312068884213
:101D700004D02E49A8312068884201D1012000E01A
:101D8000002040B1A66D94F85C0000F01F013F20D8
:101D90008840B06007E0A76D94F85C0000F01F0178
:101DA00001208840786020492068884276D01E490A
:101DB00018312068884271D01B4930312068884230
:101DC0006CD0194948312068884267D01649603183
:101DD0002068884262D014497831206888425DD0FA
:101DE000114990312068884258D00F49A8312068A5
:101DF000884253D00D49206888424FD00B49183192
:101E0000206888424AD0094930312068884245D04C
:101E1000064948312068884240D004496031206832
:101E200088423BD0014905E0100002401004024006
:101E3000085402587831206888422FD025492068FC
:101E400088422BD0234918312068884226D0224965
:101E50002068884222D020491431206888421DD051
:101E60001D4928312068884218D01B493C31206820
:101E7000884213D018495031206888420ED0164944
:101E800064312068884209D013497831206888423B
:101E900004D011498C312068884201D1012000E032
:101EA000002068B1D4E919104860E06E40B1E06EDE
:101EB000006820F48070E16E0860D4E91C1048606E
:101EC000012084F8350000BF002084F8340000BFF2
:101ED00000BF9DE5A00402400854025870B50446B6
:101EE0000CB9012070BD94F83500022803D0802081
:101EF00060650120F6E7DC492068884249D0DA496C
:101F000018312068884244D0D7493031206888424F
:101F10003FD0D5494831206888423AD0D249603113
:101F20002068884235D0D04978312068884230D046
:101F3000CD499031206888422BD0CB49A831206808
:101F4000884226D0C9492068884222D0C749183122
:101F5000206888421DD0C54930312068884218D099
:101F6000C24948312068884213D0C0496031206896
:101F700088420ED0BD4978312068884209D0BB49DB
:101F800090312068884204D0B849A831206888423E
:101F900001D1012000E00020F0B3042084F83500D6
:101FA000B149206888424BD0AF4918312068884237
:101FB00046D0AD4930312068884241D0AA494831E5
:101FC000206888423CD0A84960312068884237D0D8
:101FD000A54978312068884232D0A34990312068E1
:101FE00088422DD0A049A8312068884228D09F4936
:101FF0002068884224D09D491831206888421FD02B
:102000009A493031206888421AD09849483120686E
:10201000884215D0954900E020E060312068884270
:102020000ED0924978312068884209D08F4990318A
:102030002068884204D08D49A8312068884206D1A2
:102040002068006820F001002168086009E120682C
:10205000006820F001002168086002E12068006843
:1020600020F00E00216808607F492068884249D02E
:102070007D4918312068884244D07B49303120683E
:1020800088423FD078494831206888423AD0764922
:1020900060312068884235D07349783120688842A1
:1020A00030D071499031206888422BD06E49A831D8
:1020B0002068884226D06D492068884222D06B492A
:1020C0001831206888421DD0684930312068884224
:1020D00018D0664948312068884213D0634960317E
:1020E000206888420ED0614978312068884209D042
:1020F0005E4990312068884204D05C49A83120684C
:10210000884206D12068006820F00100216808603C
:1021100005E02068006820F001002168086052494D
:102120002068884270D050491831206888426BD0AE
:102130004D4930312068884266D04B49483120688B
:10214000884261D048496031206888425CD0464965
:1021500078312068884257D04349903120688842BE
:1021600052D04149A831206888424DD03F4920686B
:10217000884249D03D4918312068884244D03B49C3
:102180003031206888423FD0384948312068884241
:102190003AD0364960312068884235D033497831A9
:1021A0002068884230D031499031206888422BD055
:1021B0002E49A8312068884226D02D4920688842BF
:1021C00022D02B491431206888421DD0284928315B
:1021D0002068884218D026493C312068884213D0B4
:1021E00023495031206888420ED02149643120684B
:1021F000884209D01E4978312068884204D01C49A1
:102200008C312068884201D1012000E00020D8B143
:10221000206E006820F48070216E0860A56D94F82F
:102220005C0000F01F01012088406860D4E91910AB
:102230004860E06E40B1E06E006820F48070E16EAE
:102240000860D4E91C104860012084F8350000BF04
:10225000002084F8340000BF206D10B12046216DAD
:10226000884700203EE600001000024010040240B3
:10227000085402582DE9F84F044600200090FE480B
:1022800000684FF41651B0FBF1FAA66DD4F85880EF
:102290003768D8F80090F9492068884249D0F74952
:1022A00018312068884244D0F4493031206888428F
:1022B0003FD0F2494831206888423AD0EF49603136
:1022C0002068884235D0ED4978312068884230D086
:1022D000EA499031206888422BD0E849A83120682B
:1022E000884226D0E6492068884222D0E449183145
:1022F000206888421DD0E24930312068884218D0D9
:10230000DF4948312068884213D0DD4960312068B8
:1023100088420ED0DA4978312068884209D0D849FD
:1023200090312068884204D0D549A831206888427D
:1023300001D1012000E0002000287DD094F85C004D
:1023400000F01F01082088403840002868D0CB49A1
:102350002068884249D0C94918312068884244D051
:10236000C6493031206888423FD0C449483120688E
:1023700088423AD0C14960312068884235D0BF498F
:1023800078312068884230D0BC499031206888423A
:102390002BD0BA49A8312068884226D0B849206895
:1023A000884222D0B6491831206888421DD0B449ED
:1023B00030312068884218D0B149483120688842BD
:1023C00013D0AF496031206888420ED0AC497831D3
:1023D0002068884209D0AA4990312068884204D0F8
:1023E000A749A8312068884204D12068006800F01D
:1023F000040003E02068006800F0080080B1206855
:10240000006820F004002168086094F85C0000F087
:102410001F0108208840B060606D40F001006065D9
:1024200094F85C0000F01F01012088403840E8B3B8
:1024300092492068884200E0B7E24BD08F491831BA
:102440002068884246D08D4930312068884241D08A
:102450008A494831206888423CD0884960312068E8
:10246000884237D0854978312068884232D0834904
:102470009031206888422DD08049A8312068884258
:1024800028D07F492068884224D07D4918312068AF
:1024900088421FD07A493031206888421AD0784962
:1024A00048312068884215D0754900E026E0603147
:1024B000206888420ED0724978312068884209D05D
:1024C0006F4990312068884204D06D49A831206856
:1024D000884204D12068406900F0800002E0206852
:1024E0000068002050B194F85C0000F01F0101204A
:1024F0008840B060606D40F00200606594F85C0058
:1025000000F01F01042088403840E8B35B49206890
:1025100088424BD0594918312068884246D05749E3
:1025200030312068884241D054494831206888427F
:102530003CD0524960312068884237D04F497831C9
:102540002068884232D04D499031206888422DD091
:102550004A49A8312068884228D0494920688842E1
:1025600024D047491831206888421FD0444930316F
:10257000206888421AD0424948312068884215D0E4
:102580003F496031206800E024E088420ED03C4999
:1025900078312068884209D03949903120688842D2
:1025A00004D03749A8312068884204D120680068E7
:1025B00000F0020002E020680068002050B194F8AA
:1025C0005C0000F01F0104208840B060606D40F0A6
:1025D0000400606594F85C0000F01F011020884042
:1025E0003840E8B325492068884251D02349183142
:1025F000206888424CD0214930312068884247D039
:102600001E4948312068884242D01C496031206808
:1026100088423DD0194978312068884238D017491E
:1026200090312068884233D01449A831206888420C
:102630002ED01349206888422AD0114918312068C9
:10264000884225D00E4930312068884220D00C497C
:102650004831206888421BD009496031206800E079
:102660004DE0884214D006497831206888420FD066
:1026700003499031206805E09800002410000240D2
:1026800010040240884203D0FE492068884204D1E9
:102690002068006800F0080003E02068006800F08F
:1026A000040060B394F85C0000F01F011020884023
:1026B000B0602068006800F4802080B12068006865
:1026C00000F4002028B9206CC8B12046216C88474E
:1026D00015E0A06C98B12046A16C88470FE02068F7
:1026E000006800F4807028B92068006820F00800B5
:1026F00021680860206C10B12046216C884794F84E
:102700005C0000F01F0120208840384000287DD068
:10271000DD492068884249D0DB4918312068884269
:1027200044D0D9493031206888423FD0D649483119
:10273000206888423AD0D44960312068884235D038
:10274000D14978312068884230D0CF499031206813
:1027500088422BD0CC49A8312068884226D0C9496C
:10276000A8392068884221D0C6499039206888421B
:102770001CD0C44978392068884217D0C1496039D3
:102780002068884212D0BF494839206888420DD05D
:10279000BC4930392068884208D0BA4918392068C5
:1027A000884203D0B7492068884204D12068006875
:1027B00000F0100003E02068006800F0020028B379
:1027C00094F85C0000F01F0120208840B06094F86D
:1027D000350004282DD12068006820F016002168FB
:1027E00008602068406920F0800021684861206C02
:1027F00008B9A06C28B12068006820F008002168A2
:10280000086094F85C0000F01F0100E03FE03F200A
:102810008840B060012084F8350000BF002084F8B3
:10282000340000BF206D10B12046216D8847BDE8FF
:10283000F88F2068006800F4802080B1206800686C
:1028400000F4002028B9606C08B32046616C88470A
:102850001DE0E06BD8B12046E16B884717E02068A7
:10286000006800F4807068B92068006820F01000EB
:1028700021680860012084F8350000BF002084F83A
:10288000340000BFE06B10B12046E16B8847606DFB
:1028900000287AD0606D00F00100E8B3042084F8CD
:1028A00035007949206888424BD077491831206833
:1028B000884246D0744930312068884241D07249FC
:1028C0004831206888423CD06F4960312068884296
:1028D00037D06D4978312068884232D06A499031CA
:1028E000206888422DD06849A8312068884228D0C5
:1028F0006449A8392068884223D062499039206809
:1029000088421ED05F4978392068884219D05D49D5
:1029100060392068884200E040E012D059494839C7
:10292000206888420DD0574930392068884208D045
:10293000544918392068884203D052492068884297
:1029400006D12068006820F001002168086005E0D9
:102950002068006820F001002168086000BF00982E
:10296000401C0090504500D905E02068006800F048
:1029700001000028F3D100BF2068006800F00100CA
:1029800020B1032084F8350003E00DE0012084F835
:10299000350000BF002084F8340000BFE06C002840
:1029A00002D02046E16C8847D9E138492068884246
:1029B00022D036491431206888421DD0334928314D
:1029C0002068884218D031493C312068884213D0B1
:1029D0002E495031206888420ED02C49643120683D
:1029E000884209D0294978312068884204D0274993
:1029F0008C312068884201D1012000E000200028AD
:102A0000D2D02068056894F85C0000F01F01042013
:102A1000884000EA0900D8B305F00400C0B394F878
:102A20005C0000F01F0104208840C8F8040005F491
:102A3000004080B105F4803030B9A06C0028B3D0DC
:102A40002046A16C88478AE1206C0028ACD0204643
:102A5000216C884783E105F02000E8BB0A49206823
:102A6000884253D008491831206888424ED0064920
:102A700030312068884249D0034948312068884273
:102A800044D006E0B8040240100002400854025846
:102A90004FE0B44960312068884237D0B14978317D
:102AA0002068884232D0AF499031206888422DD0CA
:102AB000AC49A8312068884228D0AB4920688842B8
:102AC00024D0A9491831206888421FD0A649303146
:102AD000206888421AD000E025E0A34948312068E8
:102AE000884213D0A0496031206888420ED09E49A8
:102AF00078312068884209D09B499031206888420B
:102B000004D09949A8312068884206D1206800681D
:102B100020F008002168086005E02068006820F0C7
:102B2000040021680860206C10B32046216C88479F
:102B300015E194F85C0000F01F010220884000EAD3
:102B40000900E8B305F00200D0B394F85C0000F08F
:102B50001F0102208840C8F8040005F4004070B14D
:102B600005F4803028B9606C10B12046616C88474C
:102B7000F5E0E06BF0B32046E16B8847EFE005F04D
:102B80002000C0BB7749206888424ED07549183173
:102B90002068884249D0734930312068884244D047
:102BA00070494831206888423FD06E4960312068C2
:102BB00088423AD06B4978312068884235D000E0AD
:102BC0004EE068499031206888422ED06549A8318E
:102BD0002068884229D064492068884225D062490B
:102BE00018312068884220D05F49303120688842FF
:102BF0001BD001E06EE02DE05B494831206888423F
:102C000013D059496031206888420ED05649783136
:102C10002068884209D0544990312068884204D005
:102C20005149A8312068884206D12068006820F008
:102C300014002168086005E02068006820F00A00A0
:102C400021680860012084F8350000BF002084F866
:102C5000340000BFE06BE8B32046E16B88477EE0BC
:102C600094F85C0000F01F010820884000EA090089
:102C700080B305F0080068B33A49206888424BD019
:102C8000384918312068884246D0364930312068AA
:102C9000884241D033494831206888423CD031498C
:102CA00060312068884237D02E49783120688842C8
:102CB00032D02C499031206888422DD02949A83142
:102CC0002068884228D028492068884224D0264994
:102CD000183100E043E0206888421DD0224930319D
:102CE0002068884218D0204948312068884213D093
:102CF0001D496031206888420ED01B497831206818
:102D0000884209D0184990312068884204D0164979
:102D1000A8312068884206D12068006820F01C0095
:102D20002168086005E02068006820F00E00216836
:102D3000086094F85C0000F01F0101208840C8F88A
:102D400004000120606584F8350000BF002084F88D
:102D5000340000BFE06C10B12046E16C884700BF32
:102D600065E5000010000240100402402DE9F0412A
:102D7000044600F0B1FB804614B90120BDE8F081A3
:102D8000FE492068884249D0FC49183120688842B1
:102D900044D0FA493031206888423FD0F749483161
:102DA000206888423AD0F54960312068884235D0A1
:102DB000F24978312068884230D0F049903120685B
:102DC00088422BD0ED49A8312068884226D0EC49B2
:102DD0002068884222D0EA491831206888421DD0F4
:102DE000E74930312068884218D0E54948312068E9
:102DF000884213D0E2496031206888420ED0E04911
:102E000078312068884209D0DD49903120688842B5
:102E100004D0DB49A8312068884201D1012000E0BC
:102E20000020002873D0606A00B100BF022084F83F
:102E3000350000BF002084F8340000BFCF4920686F
:102E4000884249D0CD4918312068884244D0CB49C6
:102E50003031206888423FD0C849483120688842D4
:102E60003AD0C64960312068884235D0C3497831AC
:102E70002068884230D0C1499031206888422BD0E8
:102E8000BE49A8312068884226D0BD4920688842C2
:102E900022D0BB491831206888421DD0B849303152
:102EA0002068884218D0B64948312068884213D03B
:102EB000B3496031206888420ED0B149783120682A
:102EC000884209D0AE4990312068884204D0AC498C
:102ED000A8312068884206D12068006820F00100EF
:102EE0002168086005E02068006820F00100216882
:102EF00008600DE000F0F0FAA0EB0800052807D903
:102F000020206065032084F83500012036E76AE060
:102F10002068006800F001000028EBD120680568F7
:102F200098480540D4E902010843216908436169D2
:102F30000843A1690843E1690843216A084305433E
:102F4000606A042803D1D4E90B01084305438E4885
:102F500000686FF30F00B0F1005F1DD3606829288F
:102F600002D360682E2811D960683F2802D36068B8
:102F700042280BD96068472802D36068482805D9E1
:102F800060684F2804D36068522801D8012000E00F
:102F9000002008B145F48015206805602068456967
:102FA00025F00705606A0543606A04280DD1A06A10
:102FB0000543E06A48B12046FDF780FE28B1402075
:102FC0006065012084F83500D8E620684561204618
:102FD000FDF750FD064694F85C0000F01F013F200D
:102FE0008840B0609EE069492068884222D06749E5
:102FF0001431206888421DD06449283120688842F5
:1030000018D062493C312068884213D05F49503162
:10301000206888420ED05D4964312068884209D01A
:103020005A4978312068884204D058498C31206848
:10303000884201D1012000E00020E0B3534920681C
:10304000884222D051491431206888421DD04F490E
:1030500028312068884218D04C493C312068884289
:1030600013D04A495031206888420ED04749643114
:103070002068884209D0454978312068884204D0C8
:1030800042498C312068884201D1012000E00020B3
:1030900000B100BF022084F8350000BF002084F892
:1030A000340000BF2068056839480540A068402802
:1030B00002D1102106E02EE0A068802801D1C101D4
:1030C00000E00021E06841EAD001206941EAD00136
:1030D000606941EAD001A06941EAD001E06941EAB2
:1030E000D001206A41EA1010054320680560274995
:1030F0002068401A1421B0FBF1F08000E065204602
:10310000FDF7B8FC074694F85C0000F01F010120B1
:103110008840786006E040206065032084F8350030
:1031200001202BE61549206888427FD013491831C9
:10313000206888427AD0114930312068884275D0A1
:103140000E4948312068884270D00C4960312068AF
:1031500088426BD0094978312068884266D0074997
:1031600090312068884261D00449A83120688842A3
:103170005CD003492068884258D00BE01000024020
:10318000100402403F8010FE0010005C08540258FA
:103190000F00FEFF3B4918312068884246D039496C
:1031A00030312068884241D0364948312068884211
:1031B0003CD0344960312068884237D03149783179
:1031C0002068884232D02F499031206888422DD023
:1031D0002C49A8312068884228D02B492068884291
:1031E00024D029491431206888421FD0264928312B
:1031F000206888421AD024493C312068884215D082
:10320000214950312068884210D01F49643120681C
:1032100088420BD01C4978312068884206D01A4970
:103220008C312068884200E000E001D1012000E0FC
:10323000002000B32046FDF793FCA068802801D150
:10324000002060602079216E0860D4E91910486080
:10325000606860B16068082809D82046FDF7E2FC84
:103260000020E16E0860D4E91C10486003E00020F3
:10327000E0662067606700206065012084F8350003
:1032800000207BE5100402400854025870B5044643
:1032900000F022F906462546681C10B10448007863
:1032A000054400BF00F018F9801BA842FAD370BD96
:1032B00094000024F8B502460B4600216F4DD7E07C
:1032C00001278F401E6806EA0704002C72D01E7981
:1032D00006F00306012E04D01E7906F00306022E26
:1032E00013D190684F000326BE40B0434F00DE6804
:1032F000BE4030439060506801268E40B0431E7936
:10330000C6F300168E40304350601E7906F0030667
:10331000032E09D0D0684F000326BE40B0434F00B3
:103320009E68BE403043D0601E7906F00306022E30
:1033300013D1CF0802F1200656F827004E07F70EEA
:103340000F26BE40B0434F07FF0E1E69BE403043FC
:10335000CF0802F1200646F8270010684F00032628
:10336000BE40B0431E7906F003064F00BE40304316
:1033700010605E6806F44036002E78D000BF404EE4
:10338000366846F002063E4F3E603E46366806F01E
:103390000206009600BF00BF3A4E8F0856F827007D
:1033A0008E07370F0F26BE40B043374EB24202D1D0
:1033B00000262EE05BE0354EB24201D1012628E026
:1033C000334EB24201D1022623E0324EB24201D145
:1033D00003261EE0304EB24201D1042619E02F4EE2
:1033E000B24201D1052614E02D4EB24201D106268B
:1033F0000FE02C4EB24201D107260AE02A4EB2421B
:1034000001D1082605E0294EB24201D1092600E08B
:103410000A268F073F0FBE4030431A4E8F0846F8EA
:1034200027004FF0B0463068A0435E6806F480166F
:1034300006B120434FF0B04630607068A0435E682C
:1034400006F4001606B120434FF0B046706068687D
:10345000A0435E6806F4003606B120436860286821
:10346000A0435E6806F4803606B120432860491CFC
:103470001E68CE40002E7FF423AFF8BD80000058B8
:10348000F44402580804005800000258000402588E
:1034900000080258000C025800100258001402588C
:1034A00000180258001C025800200258002402583C
:1034B000024613690B400BB1012000E00020704769
:1034C0000AB1816101E00B04836170470148006823
:1034D000000C70470010005C014800687047000055
:1034E0008C00002408B500BF0949096841F00201B9
:1034F000074A11601146096801F00201009100BFFE
:1035000000BF044909680143024A116008BD000078
:10351000F444025804040058034800680349097839
:1035200008440149086070478C000024940000247E
:1035300010B5032000F0BCF802F064FB10490968E4
:10354000C1F303210F4A515C01F01F0120FA01F47D
:103550000B48006800F00F001146085C00F01F00E7
:1035600024FA00F008490860084804600F2000F0C1
:103570000FF808B1012010BD00F036F80020FAE77E
:1035800018440258D4C800089C0000249800002465
:1035900070B504461148007808B9012070BD0F4885
:1035A00000784FF47A71B1FBF0F00D490968B1FB76
:1035B000F0F5284603F0AFFF08B10120EEE7102C2C
:1035C00007D200222146501E00F034F8054804605E
:1035D00001E00120E2E70020E0E700009400002481
:1035E000980000249000002408B500BF0648006839
:1035F00040F00200044908600846006800F002003C
:10360000009000BF00BF08BDF444025801460846C0
:1036100000280DDB00BF00BF00F01F0301229A400D
:1036200043099B0003F1E023C3F8002100BF00BF62
:1036300000BF70472DE9F05F80460D46164607F043
:10364000CFFC074639462A46334601F00700C0F151
:10365000070ABAF1040F02D94FF0040A01E0C0F1E1
:10366000070AD14600F1040ABAF1070F02D24FF05F
:10367000000A01E0A0F1030AD4464FF0010A0AFA59
:1036800009FAAAF1010A0AEA020A0AFA0CFA4FF048
:10369000010B0BFA0CFBABF1010B0BEA030B4AEA33
:1036A0000B042146404607F0A3FCBDE8F09F000054
:1036B00000BF00F00702064B19684FF6FF031940E0
:1036C000044B0B4343EA0221014B196000BF7047D2
:1036D0000CED00E00000FA0570B5044615480068DE
:1036E000C0F3800048B91348006800F00700A0420A
:1036F00001D0012070BD0020FCE70E48006820F0DA
:10370000070020430B490860FFF7E6FE054607E087
:10371000FFF7E2FE401BB0F57A7F01D90120E9E70F
:10372000044808380068C0F340300028F0D000207A
:10373000E0E700000C4802582DE9F84304460D4626
:103740001746FFF7C9FE8046A86900B100BFE869C7
:1037500000B100BF286A00B100BF00BF94F840006C
:10376000012802D10220BDE8F883012084F840003E
:1037700000BF94F84100012828D100206064022095
:1037800084F841004346002220212046009704F09F
:1037900041FF0646DEB900222946204604F0F7FD27
:1037A000686A78B94346012202212046009704F056
:1037B00031FF06465EB902202168C860012084F806
:1037C000410004E0012084F8410000E0022600BF2F
:1037D000002084F8400000BF3046C4E7F8B5044636
:1037E000FFF77AFE06460CB90120F8BD206A402892
:1037F00000D000BF94F8410038B9204600F046F8E8
:1038000041F28831204600F051F92068006820F428
:10381000F851A068401E41EA002021680860A06CB1
:103820003346002220210090204604F0F3FE054696
:1038300035BB2179E06840EA0160E1690843216A0B
:103840000843216809680F4A11400843216808604D
:10385000208A616941EA0040A169084321684968FA
:10386000094A11400843216848602068006840F018
:1038700001002168086000206064012084F8410094
:103880002846B2E72FFFFF00FEF8E0FF10B5B8B002
:103890000446142132A8FCF76FFEC02102A8FCF7F1
:1038A0006BFE4449206888427ED14FF000710020B1
:1038B000CDE90210159002A801F016F908B1FDF744
:1038C0009DFA00BF3C48006840F480403A490860D7
:1038D0000846006800F48040019000BF00BF00BFB0
:1038E00035480C30006840F0100033490C31086056
:1038F0000846006800F01000019000BF00BF00BF44
:103900000846006840F0020008600846006800F0C1
:103910000200019000BF00BF00BF0846006840F0F1
:10392000080008600846006800F00800019000BF29
:1039300000BF0420329002203390002034900320F6
:1039400035900920369032A91C48FFF7B3FC0420BB
:1039500032900220339001203490032035900920CA
:10396000369032A91648FFF7A5FC4FF4605032900C
:1039700002203390002034900320359009203690A7
:1039800032A91048FFF796FC402032900220339075
:1039900001203490032035900A20369032A908483F
:1039A000FFF788FC102000E001E0FFF79BFD38B036
:1039B00010BD000000500052D444025800100258BC
:1039C00000040258000C02582DE9F84F04460E4638
:1039D00017460025FFF780FD80462068D0F8189034
:1039E000206800F1200A00BF94F84000012802D1AD
:1039F0000220BDE8F88F012084F8400000BF94F851
:103A0000410001284AD100206064002E40D02220CD
:103A100084F8410020680069401CA06320680069A8
:103A2000401C606326632068406920F0406040F0DD
:103A30008060216848612068C0F8189013E0434610
:103A4000012206212046009704F0E4FD054605B159
:103A50000CE09AF80000216B0870206B401C20637A
:103A6000A06B401EA063A06B0028E8D100BF5DB929
:103A70004346012202212046009704F0CBFD054673
:103A800015B902202168C860012084F8410006E0D1
:103A9000606C40F008006064012500E0022500BF72
:103AA000002084F8400000BF2846A2E781647047E8
:103AB0002DE9F84304460E4617460025FFF70CFD96
:103AC0008046206800F1200900BF94F840000128DA
:103AD00002D10220BDE8F883012084F8400000BF35
:103AE00094F84100012845D100206064002E3BD0AD
:103AF000122084F8410020680069401CE0622068C0
:103B00000069401CA06266622068406920F0406045
:103B10002168486113E043460122042120460097B2
:103B200004F078FD054605B10CE0606A007889F87C
:103B30000000606A401C6062E06A401EE062E06A69
:103B40000028E8D100BF5DB943460122022120468A
:103B5000009704F05FFD054615B902202168C86092
:103B6000012084F8410006E0606C40F008006064C9
:103B7000012500E0022500BF002084F8400000BFBE
:103B80002846A7E710B501F0F3FF05490968C1F31E
:103B90000211044A515C01F01F01C84010BD000031
:103BA00020440258D4C8000870B50146844D2D68E1
:103BB00005F00303824D2D68C5F30510804D2D1DC2
:103BC0002D6805F001047E4D0C352D68C5F3CC053C
:103BD00015FB04F501EE105AB8EE411AF0EE410A59
:103BE00000286FD023B1012B4ED0022B6BD16BE09C
:103BF000734D283D2D68C5F340153DB3704D283DEC
:103C00002D68C5F3C1066F4D25FA06F201EE102AA4
:103C1000F8EE411A01EE100AB8EE411A81EE812A3F
:103C20009FED691AC0EE811A654D08352D68C5F300
:103C3000080501EE105AB8EE411A31EE811AF7EE7E
:103C4000001A31EE211A22EE010A1CE001EE100AE0
:103C5000B8EE411ADFED5D1A81EE812A9FED5A1A06
:103C6000C0EE811A564D08352D68C5F3080501EEE2
:103C7000105AB8EE411A31EE811AF7EE001A31EE01
:103C8000211A22EE010A5BE001EE100AB8EE411A99
:103C9000DFED4F1A81EE812A9FED4B1AC0EE811A9B
:103CA000474D08352D68C5F3080501EE105AB8EEEA
:103CB000411A31EE811AF7EE001A31EE211A22EE86
:103CC000010A3DE077E01DE001EE100AB8EE411A6E
:103CD0009FED402AC2EE011A9FED3B1A80EE812A29
:103CE000374D08352D68C5F3080501EE105AB8EEBA
:103CF000411A32EE011AB7EE002A31EE021A21EE15
:103D0000810A1DE001EE100AB8EE411ADFED2F1A0C
:103D100081EE812A9FED2C1AC0EE811A284D0835BC
:103D20002D68C5F3080501EE105AB8EE411A31EEC0
:103D3000811AF7EE001A31EE211A22EE010A00BFB5
:103D400000BF1F4D08352D68C5F3462501EE105AFA
:103D5000B8EE411AF7EE001A31EE211AC0EE011A40
:103D6000BCEEE11A81ED001A154D08352D68C5F33A
:103D7000064501EE105AB8EE411AF7EE001A31EE80
:103D8000211AC0EE011ABCEEE11A81ED011A0C4DA8
:103D900008352D68C5F3066501EE105AB8EE411AD4
:103DA000F7EE001A31EE211AC0EE011ABCEEE11A4C
:103DB00081ED021A03E000250D604D608D6070BD3D
:103DC000284402580090D003000000460024744CA0
:103DD0000024744A20BCBE4B70B50146844D2D684A
:103DE00005F00303824D2D68C5F30530804D2D1D70
:103DF0002D68C5F300147E4D14352D68C5F3CC0530
:103E000015FB04F501EE105AB8EE411AF0EE410A26
:103E100000286FD023B1012B4ED0022B6BD16BE069
:103E2000734D283D2D68C5F340153DB3704D283DB9
:103E30002D68C5F3C1066F4D25FA06F201EE102A72
:103E4000F8EE411A01EE100AB8EE411A81EE812A0D
:103E50009FED691AC0EE811A654D10352D68C5F3C6
:103E6000080501EE105AB8EE411A31EE811AF7EE4C
:103E7000001A31EE211A22EE010A1CE001EE100AAE
:103E8000B8EE411ADFED5D1A81EE812A9FED5A1AD4
:103E9000C0EE811A564D10352D68C5F3080501EEA8
:103EA000105AB8EE411A31EE811AF7EE001A31EECF
:103EB000211A22EE010A5BE001EE100AB8EE411A67
:103EC000DFED4F1A81EE812A9FED4B1AC0EE811A69
:103ED000474D10352D68C5F3080501EE105AB8EEB0
:103EE000411A31EE811AF7EE001A31EE211A22EE54
:103EF000010A3DE077E01DE001EE100AB8EE411A3C
:103F00009FED402AC2EE011A9FED3B1A80EE812AF6
:103F1000374D10352D68C5F3080501EE105AB8EE7F
:103F2000411A32EE011AB7EE002A31EE021A21EEE2
:103F3000810A1DE001EE100AB8EE411ADFED301AD9
:103F400081EE812A9FED2C1AC0EE811A284D103582
:103F50002D68C5F3080501EE105AB8EE411A31EE8E
:103F6000811AF7EE001A31EE211A22EE010A00BF83
:103F700000BF1F4D10352D68C5F3462501EE105AC0
:103F8000B8EE411AF7EE001A31EE211AC0EE011A0E
:103F9000BCEEE11A81ED001A154D10352D68C5F300
:103FA000064501EE105AB8EE411AF7EE001A31EE4E
:103FB000211AC0EE011ABCEEE11A81ED011A0C4D76
:103FC00010352D68C5F3066501EE105AB8EE411A9A
:103FD000F7EE001A31EE211AC0EE011ABCEEE11A1A
:103FE00081ED021A03E000250D604D608D6070BD0B
:103FF000284402580090D003000000460024744C6E
:104000000024744A20BCBE4B70B50146844D2D6817
:1040100005F00303824D2D68C5F30550804D2D1D1D
:104020002D68C5F300247E4D1C352D68C5F3CC05E5
:1040300015FB04F501EE105AB8EE411AF0EE410AF4
:1040400000286FD023B1012B4ED0022B6BD16BE037
:10405000734D283D2D68C5F340153DB3704D283D87
:104060002D68C5F3C1066F4D25FA06F201EE102A40
:10407000F8EE411A01EE100AB8EE411A81EE812ADB
:104080009FED691AC0EE811A654D18352D68C5F38C
:10409000080501EE105AB8EE411A31EE811AF7EE1A
:1040A000001A31EE211A22EE010A1CE001EE100A7C
:1040B000B8EE411ADFED5D1A81EE812A9FED5A1AA2
:1040C000C0EE811A564D18352D68C5F3080501EE6E
:1040D000105AB8EE411A31EE811AF7EE001A31EE9D
:1040E000211A22EE010A5BE001EE100AB8EE411A35
:1040F000DFED4F1A81EE812A9FED4B1AC0EE811A37
:10410000474D18352D68C5F3080501EE105AB8EE75
:10411000411A31EE811AF7EE001A31EE211A22EE21
:10412000010A3DE077E01DE001EE100AB8EE411A09
:104130009FED402AC2EE011A9FED3B1A80EE812AC4
:10414000374D18352D68C5F3080501EE105AB8EE45
:10415000411A32EE011AB7EE002A31EE021A21EEB0
:10416000810A1DE001EE100AB8EE411ADFED301AA7
:1041700081EE812A9FED2C1AC0EE811A284D183548
:104180002D68C5F3080501EE105AB8EE411A31EE5C
:10419000811AF7EE001A31EE211A22EE010A00BF51
:1041A00000BF1F4D18352D68C5F3462501EE105A86
:1041B000B8EE411AF7EE001A31EE211AC0EE011ADC
:1041C000BCEEE11A81ED001A154D18352D68C5F3C6
:1041D000064501EE105AB8EE411AF7EE001A31EE1C
:1041E000211AC0EE011ABCEEE11A81ED011A0C4D44
:1041F00018352D68C5F3066501EE105AB8EE411A60
:10420000F7EE001A31EE211AC0EE011ABCEEE11AE7
:1042100081ED021A03E000250D604D608D6070BDD8
:10422000284402580090D003000000460024744C3B
:104230000024744A20BCBE4B2DE9F04389B00646E9
:104240000F464FF4807186EA0100384370D1F74879
:10425000006800F00709B9F1050F65D2DFE809F041
:10426000031221623000F1485038006800F00070FD
:10427000B0F1007F04D106A8FFF796FC079C00E090
:10428000002453E0E9485038006800F00060B0F1C5
:10429000006F04D103A8FFF79FFD039C00E00024FA
:1042A00044E0E2485038006800F00050B0F1005F90
:1042B00004D16846FFF7A8FE009C00E0002435E02A
:1042C000DA48001F006800F04055D84850380068B0
:1042D00000F00400042809D145B9D44850380068DA
:1042E000C0F3C101D24820FA01F41AE0CF48503897
:1042F000006800F48070B0F5807F04D1B5F1805F74
:1043000001D1CC4C0DE0C9485038006800F40030B1
:10431000B0F5003F04D1B5F1005F01D1C64C00E01B
:10432000002403E0C54C01E0002400BFD4E3FFE714
:104330004FF4007186EA010038437AD1BB48006827
:1043400000F4E079B9F1800F2CD006DCB9F1000F50
:104350000AD0B9F1400F69D115E0B9F1C00F63D0AF
:10436000B9F5807F62D12CE0B0485038006800F089
:104370000070B0F1007F04D106A8FFF715FC079C80
:1043800000E0002454E0A9485038006800F00060C4
:10439000B0F1006F04D103A8FFF71EFD039C00E0FD
:1043A000002445E0A1485038006800F00050B0F10A
:1043B000005F04D16846FFF727FE009C00E0002460
:1043C00036E09A48001F006800F040559748503882
:1043D000006800F00400042809D145B9934850381A
:1043E0000068C0F3C101924820FA01F41BE08F4835
:1043F0005038006800F48070B0F5807F04D1B5F1CA
:10440000805F01D18B4C0EE088485038006800F482
:104410000030B0F5003F05D1B5F1005F02D1864C08
:1044200001E006E0002403E0844C01E0002400BF2A
:1044300052E34FF4806186EA010038437BD17B4828
:104440000830006800F46009B9F5800F2CD006DC54
:10445000B9F1000F0AD0B9F5001F69D115E0B9F51F
:10446000C00F63D0B9F5000F62D12CE06F4850380F
:10447000006800F00070B0F1007F04D106A8FFF7DB
:1044800093FB079C00E0002454E068485038006823
:1044900000F00060B0F1006F04D103A8FFF79CFCAE
:1044A000039C00E0002445E060485038006800F0BC
:1044B0000050B0F1005F04D16846FFF7A5FD009CF5
:1044C00000E0002436E05948001F006800F0405525
:1044D00056485038006800F00400042809D145B956
:1044E000524850380068C0F3C101514820FA01F425
:1044F0001BE04E485038006800F48070B0F5807FB3
:1045000004D1B5F1805F01D14A4C0EE047485038E4
:10451000006800F40030B0F5003F05D1B5F1005F50
:1045200002D1454C01E006E0002403E0434C01E0E9
:10453000002400BFD0E24FF4006186EA0100384356
:1045400073D13A480830006800F0E069B9F1007FA3
:104550002CD006DCB9F1000F0AD0B9F1807F75D1FB
:1045600015E0B9F1407F6FD0B9F1806F6ED12CE0CA
:104570002E485038006800F00070B0F1007F04D180
:1045800006A8FFF711FB079C00E0002460E0274825
:104590005038006800F00060B0F1006F04D103A84B
:1045A000FFF71AFC039C00E0002451E01F4850383C
:1045B000006800F00050B0F1005F04D16846FFF7DA
:1045C00023FD009C00E0002442E01848001F006822
:1045D00000F0405515485038006800F004000428E9
:1045E00009D145B9114850380068C0F3C1011048DD
:1045F00020FA01F427E00D485038006800F480707C
:10460000B0F5807F04D1B5F1805F01D1094C1AE08B
:1046100006485038006800F40030B0F5003F11D172
:10462000B5F1005F0ED1044C0DE012E05044025889
:104630000090D00300093D0040787D010080BB0060
:1046400004E001E0002403E0F74C01E0002400BF97
:1046500042E24FF4805186EA010038437AD1F348B0
:10466000006800F4E048B8F5005F2CD006DCB8F133
:10467000000F0AD0B8F5805F69D115E0B8F5405F4A
:1046800063D0B8F5804F62D12CE0E848503800681C
:1046900000F00070B0F1007F04D106A8FFF784FAA3
:1046A000079C00E0002454E0E0485038006800F027
:1046B0000060B0F1006F04D103A8FFF78DFB039CED
:1046C00000E0002445E0D9485038006800F0005070
:1046D000B0F1005F04D16846FFF796FC009C00E053
:1046E000002436E0D148001F006800F04055CF4854
:1046F0005038006800F00400042809D145B9CB48BF
:1047000050380068C0F3C101C94820FA01F41BE029
:10471000C6485038006800F48070B0F5807F04D13E
:10472000B5F1805F01D1C34C0EE0C048503800683D
:1047300000F40030B0F5003F05D1B5F1005F02D1C3
:10474000BD4C01E006E0002403E0B74C01E000248A
:1047500000BFC1E14FF4005186EA0100384367D140
:10476000B248006800F4E028B8F5403F33D009DCD7
:10477000B8F1000F0DD0B8F5803F0ED0B8F5003F6E
:1047800053D119E0B8F5802F37D0B8F5A02F4CD110
:104790003FE001F013FA044649E0A44850380068AD
:1047A00000F00060B0F1006F04D103A8FFF714FB24
:1047B000049C00E000243AE09C485038006800F077
:1047C0000050B0F1005F04D16846FFF71DFC019C6A
:1047D00000E000242BE095485038006800F0040009
:1047E000042808D1914850380068C0F3C1019048AE
:1047F00020FA01F400E0002419E08C4850380068E9
:1048000000F48070B0F5807F01D18A4C00E0002474
:104810000DE086485038006800F40030B0F5003FE5
:1048200001D1854C00E0002401E0002400BF53E1E9
:104830004FF4002186EA0100384361D17B480830FB
:10484000006800F44038B8F1000F06D0B8F5803F9A
:1048500012D0B8F5003F50D11DE0744850380068C0
:1048600000F00060B0F1006F04D103A8FFF7B4FAC4
:10487000039C00E0002442E06C485038006800F0DF
:104880000050B0F1005F04D16846FFF7BDFB029C09
:1048900000E0002433E06548001F006800F0405548
:1048A00062485038006800F00400042809D145B976
:1048B0005E4850380068C0F3C1015D4820FA01F439
:1048C0001AE05A485038006800F48070B0F5807FD4
:1048D00004D1B5F1805F01D1564C0DE053485038FA
:1048E000006800F40030B0F5003F04D1B5F1005F7E
:1048F00001D1514C00E0002401E0002400BFEBE0B6
:104900004FF4803186EA010038432CD14748001F1C
:10491000006800F48038B8F1000F03D0B8F5803F8C
:104920001ED10EE041485038006800F00070B0F130
:10493000007F04D106A8FFF737F9079C00E00024A8
:1049400010E03A485038006800F00060B0F1006FA5
:1049500004D103A8FFF740FA059C00E0002401E021
:10496000002400BFB8E04FF4804186EA01003843DC
:1049700072D12E480830006800F0E048B8F1405F7E
:1049800033D009DCB8F1000F0DD0B8F1805F0ED044
:10499000B8F1005F5DD119E0B8F1804F37D0B8F1C0
:1049A000A04F56D14AE0FFF7EDF8044653E01F4808
:1049B0005038006800F00060B0F1006F04D103A827
:1049C000FFF70AFA049C00E0002444E0174850383E
:1049D000006800F00050B0F1005F04D16846FFF7B6
:1049E00013FB019C00E0002435E0104850380068BB
:1049F00000F00400042808D10C4850380068C0F3C7
:104A0000C1010B4820FA01F400E0002423E007482C
:104A10005038006800F48070B0F5807F01D1054CFB
:104A200000E0002417E017E00080BB00504402586B
:104A30000090D00300093D0040787D0128480068BF
:104A400000F40030B0F5003F01D1264C00E0002416
:104A500001E0002400BF3FE04FF4004186EA01007E
:104A6000384338D11E485030006800F04058B8F143
:104A7000000F06D0B8F1805F0ED0B8F1005F27D1EB
:104A800018E01748006800F40030B0F5003F01D18D
:104A9000144C00E000241DE01148006800F0007094
:104AA000B0F1007F04D106A8FFF77EF8079C00E074
:104AB00000240FE00A48006800F00060B0F1006FC9
:104AC00004D103A8FFF788F9049C00E0002401E06A
:104AD000002400BF00E00024204609B0BDE8F083B8
:104AE0000044025840787D012DE9F041044600253C
:104AF000A8464FF00062D4E9001011400020134690
:104B000059404040014331D1A06E48B1B0F5801FFB
:104B10000DD0B0F5001F11D0B0F5401F16D114E034
:104B2000F948006840F40030F749086010E00221BD
:104B300004F1080003F094FD054609E0022104F1A8
:104B4000280003F03FFE054602E001E0012500BF1A
:104B500000BF55B9EC482430006820F44010A16E25
:104B60000843E9492431086000E0A8464FF4807307
:104B7000D4E90010194000205940404001432ED193
:104B8000A06D05281BD2DFE800F0030A11181900F8
:104B9000DD48006840F40030DB49086011E0002186
:104BA00004F1080003F05CFD05460AE0002104F171
:104BB000280003F007FE054603E002E001E00125BE
:104BC00000BF00BF55B9D0482430006820F007006E
:104BD000A16D0843CC492431086000E0A8464FF499
:104BE0000073D4E9001019400020594040400143AF
:104BF00034D1E06D802818D003DC40B140281DD1AD
:104C00000CE0C02818D0B0F5807F17D115E0BE4861
:104C1000006840F40030BC49086011E0002104F154
:104C2000080003F01DFD05460AE0002104F12800FC
:104C300003F0C8FD054603E002E001E0012500BFE6
:104C400000BF55B9B0482430006820F4E070E16D31
:104C50000843AD492431086000E0A8464FF4806362
:104C6000D4E900101940002059404040014339D197
:104C7000D4F8A800B0F5800F1AD004DC50B1B0F51C
:104C8000001F1ED10DE0B0F5C00F18D0B0F5000F19
:104C900017D115E09C48006840F400309A4908603C
:104CA00011E0002104F1080003F0DAFC05460AE0F7
:104CB000002104F1280003F085FD054603E002E031
:104CC00001E0012500BF00BF5DB98F482C300068AE
:104CD00020F46000D4F8A81008438B492C310860F8
:104CE00000E0A8464FF40062D4E900101140002013
:104CF000134659404040014339D1D4F8AC00B0F1DB
:104D0000007F1AD004DC50B1B0F1807F1ED10DE0DD
:104D1000B0F1407F18D0B0F1806F17D115E07A481C
:104D2000006840F400307849086011E0002104F187
:104D3000080003F095FC05460AE0002104F1280074
:104D400003F040FD054603E002E001E0012500BF5D
:104D500000BF5DB96C482C30006820F0E060D4F8EA
:104D6000AC10084368492C31086000E0A8464FF0B9
:104D70000073D4E90001184000215840494008431D
:104D800028D1E06CA8B1102804D0202809D0302800
:104D900010D10DE05C48006840F400305A490860CA
:104DA0000AE0022104F1080003F05AFC054603E082
:104DB00002E001E0012500BF00BF55B95248203094
:104DC000006820F03000E16C08434F492031086052
:104DD00000E0A8464FF48053D4E9001019400020A9
:104DE00059404040014337D1206EB0F5005F1AD0E2
:104DF00004DC50B1B0F5805F1ED10DE0B0F5405F2E
:104E000018D0B0F5804F17D115E03F48006840F446
:104E100000303D49086011E0002104F1080003F072
:104E20001FFC05460AE0002104F1280003F0CAFC3B
:104E3000054603E002E001E0012500BF00BF55B9CF
:104E400031482430006820F4E040216E08432E49A8
:104E50002431086000E0A8464FF40053D4E9001064
:104E60001940002059404040014335D1606EB0F5F3
:104E7000403F1ED007DC68B1B0F5803F0BD0B0F5E5
:104E8000003F19D10EE0B0F5802F13D0B0F5A02F60
:104E900012D110E012E0012104F1080003F0E0FB60
:104EA00005460BE0012104F1280003F08BFC0546C8
:104EB00004E003E002E001E0012500BF00BF55B9B6
:104EC00011482430006820F4E020616E08430E4948
:104ED0002431086000E0A8464FF48043D4E9000183
:104EE0001840002158404940084337D1D4F8B00059
:104EF000B0F1405F20D009DC78B1B0F1805F0DD017
:104F0000B0F1005F1BD110E02C440258B0F1804F8B
:104F100013D0B0F1A04F12D110E012E0012104F142
:104F2000080003F09DFB05460BE0012104F1280079
:104F300003F048FC054604E003E002E001E001253F
:104F400000BF00BF4DB9FE48006820F0E040D4F833
:104F5000B0100843FA49086000E0A8464FF4004248
:104F6000D4E900101140002013465940404001434D
:104F700029D1206FB0B1B0F1805F03D0B0F1005FF4
:104F800011D108E0EE482C38006840F40030EC49BC
:104F90002C39086009E0012104F1080003F060FBEE
:104FA000054602E001E0012500BF00BF55B9E44815
:104FB0000838006820F04050216F0843E049083964
:104FC000086000E0A8464FF08072D4E9001011405C
:104FD000002013465940404001432AD1A06CB8B18B
:104FE000012804D002280BD0032812D10FE0D448A6
:104FF0002C38006840F40030D1492C3908600AE0B0
:10500000022104F1080003F02BFB054603E002E057
:1050100001E0012500BF00BF55B9C9480C38006840
:1050200020F00300A16C0843C5490C39086000E07A
:10503000A8464FF48002D4E9000110400021134635
:105040005840494008437DD1BE48006840F4807014
:10505000BC490860FEF740FA064606E0FEF73CFA57
:10506000801B642801D9032505E0B648006800F4D8
:1050700080700028F2D000BF85BBB14818300068AE
:1050800000F44070B4F8B41001F44071884213D0B9
:10509000AB481830006820F44077A9481830006801
:1050A00040F48030A649183108600846006820F4B2
:1050B0008030086008460760D4F8B400B0F5807FFF
:1050C00015D1FEF709FA064609E0FEF705FA801B3E
:1050D00041F28831884202D9032507E038E0984838
:1050E00018300068C0F340000028EED000BF55BB68
:1050F00000BFB4F8B40000F44070B0F5407F0ED1AA
:105100008F484838006820F47C518F4AD4F8B400A6
:10511000104041EA10108A494839086007E0884881
:105120004838006820F47C50854948390860844834
:1051300018300068B4F8B410C1F30B01084380497B
:10514000183101E005E001E0086002E0A84600E057
:10515000A8460122D4E9000110400021134658401E
:105160004940084330D1E06F18281AD005DC48B117
:10517000082808D0102817D10CE0202812D02828A1
:1051800012D110E012E0012104F1080003F068FAE6
:1051900005460BE0012104F1280003F013FB05464E
:1051A00004E003E002E001E0012500BF00BF55B9C3
:1051B0006348001F006820F03800E16F0843604931
:1051C000091F086000E0A8460222D4E9000110404F
:1051D0000021134658404940084329D1A06F0628B2
:1051E00016D2DFE800F003040B12131412E00121C1
:1051F00004F1080003F034FA05460BE0012104F144
:10520000280003F0DFFA054604E003E002E001E0D5
:10521000012500BF00BF55B94948001F006820F0B4
:105220000700A16F08434649091F086000E0A8462F
:105230000423D4E9001019400020594040400143A4
:1052400029D1D4F89400062816D2DFE800F0030430
:105250000B12131412E0012104F1080003F000FA0C
:1052600005460BE0012104F1280003F0ABFA0546E6
:1052700004E003E002E001E0012500BF00BF4DB9FA
:105280002F48006820F00700D4F8941008432C49F8
:10529000086000E0A8462023D4E90001184000215E
:1052A00058404940084337D1D4F89000B0F1405FEE
:1052B0001ED007DC68B1B0F1805F0BD0B0F1005FA9
:1052C00019D10EE0B0F1804F13D0B0F1A04F12D140
:1052D00010E012E0002104F1080003F0C1F90546D6
:1052E0000BE0022104F1280003F06CFA054604E00B
:1052F00003E002E001E0012500BF00BF5DB91048F6
:10530000001F006820F0E040D4F8901008430C49DA
:10531000091F086000E0A8464023D4E900101940A6
:1053200000205940404001433CD1D4F89C00B0F5E6
:10533000406F25D00EDCA0B1B0F5806F12D005E033
:105340005844025800480258FFFCFF0FB0F5006FA8
:1053500019D10EE0B0F5805F13D0B0F5A05F12D187
:1053600010E012E0002104F1080003F079F905468D
:105370000BE0022104F1280003F024FA054604E0C2
:1053800003E002E001E0012500BF00BF4DB9FE4887
:10539000006820F4E050D4F89C100843FA490860F3
:1053A00000E0A8468023D4E90010194000205940AD
:1053B0004040014335D1D4F8A000B0F5C04F1ED015
:1053C00007DC68B1B0F5005F0BD0B0F5804F19D1A4
:1053D0000EE0B0F5004F13D0B0F5204F12D110E021
:1053E00012E0002104F1080003F03AF905460BE051
:1053F000022104F1280003F0E5F9054604E003E08A
:1054000002E001E0012500BF00BF4DB9DE480068A1
:1054100020F46040D4F8A0100843DB49086000E0A5
:10542000A8460823D4E90010194000205940404004
:10543000014317D1D4F88400B0F5805F07D1022171
:1054400004F1280003F0BEF908B14FF00108CE487E
:10545000001F006820F44050D4F884100843CA4963
:10546000091F08601023D4E900101940002059409A
:105470004040014315D1D4F89800B0F5807F07D1A2
:10548000022104F1280003F09DF908B14FF0010852
:10549000BD48006820F44070D4F898100843BA4919
:1054A00008604FF40022D4E90001104000211346A7
:1054B00058404940084327D1D4F8A40030B1B0F592
:1054C000803F0AD0B0F5003F0FD10DE0002104F17C
:1054D000080003F0C5F8054609E0022104F12800A0
:1054E00003F070F9054602E001E0012500BF00BFAE
:1054F0004DB9A548006820F44030D4F8A410084302
:10550000A149086000E0A8464FF48023D4E90001D7
:10551000184000215840494008432DD1D4F8880054
:10552000B0F5801F06D0B0F5001F0CD0B0F5401FBD
:1055300011D10FE094482C38006840F400309249B3
:105540002C39086009E0012104F1280003F03AF940
:10555000054602E001E0012500BF00BF5DB98A48B1
:10556000001F006820F44010D4F8881008438649D2
:10557000091F086000E0A8464FF48032D4E900011A
:1055800010400021134658404940084325D1206D62
:1055900018B1B0F5803F10D108E07B482C38006886
:1055A00040F4003078492C39086008E0022104F109
:1055B000080003F055F8054601E0012500BF00BFD3
:1055C00055B971480C38006820F48030216D0843CB
:1055D0006D490C39086000E0A8464FF00052D4E94C
:1055E000001011400020134659404040014307D1AC
:1055F000022104F1280003F0E5F808B14FF001089A
:105600004FF40033D4E900011840002158404940CC
:10561000084329D1D4F88000A0B1B0F5807F06D02E
:10562000B0F5007F0CD0B0F5407F0CD109E05648B2
:105630002C38006840F4003053492C39086004E0ED
:1056400003E002E001E0012500BF00BF5DB94E4864
:10565000001F006820F44070D4F8801008434A49C5
:10566000091F086000E0A8464FF48012D4E900103A
:1056700011400020134659404040014309D142489F
:105680000838006820F00040616F08433E4908393F
:1056900008604FF08052D4E90010114000201346FA
:1056A0005940404001430AD137484838006820F447
:1056B0008040D4F8B81008433349483908604FF4A3
:1056C0000012D4E900101140002013465940404018
:1056D000014309D12C480838006820F08070E16E41
:1056E00008432949083908604FF08042D4E9001086
:1056F00011400020134659404040014311D100BFE2
:1057000021484838006820F400401F4948390860A3
:1057100008460068D4F8BC1008431B4948390860A3
:1057200000BF4FF00042D4E90010114000201346A2
:1057300059404040014309D113480C38006820F01B
:105740004050616D084310490C3908604FF4000265
:10575000D4E9001011400020134659404040014355
:105760000AD10948001F006820F44000D4F88C10CA
:1057700008430549091F086001230021606818409B
:1057800001224940504001E058440258014306D1EB
:1057900004F1080002F064FF054605B1A8460222A4
:1057A00000216068104049405040014307D1012169
:1057B00004F1080002F054FF054605B1A846042391
:1057C000002061681940042240405140084307D13D
:1057D000022104F1080002F043FF054605B1A84686
:1057E00008230021606818400822494050400143C6
:1057F00006D104F1280002F0E5FF054605B1A846F0
:10580000102200216068104049405040014307D1F8
:10581000012104F1280002F0D5FF054605B1A84694
:10582000202200206168114040405140084307D1C8
:10583000022104F1280002F0C5FF054605B1A84683
:10584000B8F1000F02D10020BDE8F0810120FBE794
:105850002DE9F04104460D4614B90120BDE8F08160
:10586000BD48006800F00F00A8420ED2BA48006898
:1058700020F00F002843B84908600846006800F08F
:105880000F00A84201D00120E8E7207800F00400D2
:1058900004280ED1B1492069096801F070018842DD
:1058A00007D9AE48006820F0700021690843AB4971
:1058B0000860207800F00800082811D1A749091DC8
:1058C0006069096801F07001884209D9A348001D88
:1058D000006820F0700061690843A049091D086054
:1058E000207800F01000102811D19C49091DA069F2
:1058F000096801F4E061884209D99848001D0068F0
:1059000020F4E060A16908439449091D08602078EB
:1059100000F02000202811D190490831E069096881
:1059200001F07001884209D98C480830006820F0E5
:105930007000E1690843894908310860207800F067
:10594000020002280ED18549E068096801F00F01C4
:10595000884207D98148006820F00F00E1680843B9
:105960007E490860207800F00100002850D07B4874
:10597000006820F47060A168084378490860606896
:10598000022807D1754818380068C0F34040F8B9BC
:10599000012063E76068032807D170481838006861
:1059A000C0F34060A0B9012058E76068012807D122
:1059B0006A4818380068C0F3002048B901204DE754
:1059C000664818380068C0F3800008B9012045E730
:1059D00062480838006820F00700616808435F49A2
:1059E00008390860FDF778FD064608E0FDF774FD0C
:1059F000801B41F28831884201D903202EE75748A5
:105A00000838006800F038006168B0EBC10FEDD1D4
:105A1000207800F0020002280ED15049E0680968A1
:105A200001F00F01884207D24C48006820F00F00B7
:105A3000E1680843494908604748006800F00F00E2
:105A4000A8420ED94448006820F00F00284342497C
:105A500008600846006800F00F00A84201D001204D
:105A6000FCE6207800F0040004280ED13B492069B0
:105A7000096801F07001884207D23848006820F0B8
:105A800070002169084335490860207800F008005B
:105A9000082811D13149091D6069096801F07001B8
:105AA000884209D22D48001D006820F0700061690D
:105AB00008432A49091D0860207800F010001028CA
:105AC00011D12649091DA069096801F4E0618842E5
:105AD00009D22248001D006820F4E060A169084353
