:020000040800F2
:1000000038990024B1030008177B0008B76D000879
:10001000157B00088D0A000881AB00080000000075
:10002000000000000000000000000000BB9A000873
:1000300071140008000000008D810008619C000818
:10004000CB030008CB030008CB030008CB03000858
:10005000CB030008CB030008CB030008CB03000848
:10006000CB030008CB030008CB030008590F00089E
:10007000650F00088D0F0008CB030008CB030008B4
:10008000CB030008CB030008CB030008CB03000818
:10009000CB030008CB030008CB030008CB03000808
:1000A000CB030008CB030008CB030008CB030008F8
:1000B000CB030008CB030008CB030008CB030008E8
:1000C000CB030008CB030008CB030008CB030008D8
:1000D000CB030008CB030008CB030008CB030008C8
:1000E000CB030008CB03000800000000CB0300088E
:1000F000CB030008CB030008CB030008CB030008A8
:10010000CB030008F98A0008CB030008CB030008E2
:10011000CB030008CB030008CB030008CB03000887
:10012000CB030008CB030008CB030008CB03000877
:10013000CB030008CB030008CB030008CB03000867
:1001400000000000000000000000000000000000AF
:10015000CB030008CB030008CB030008CB03000847
:10016000CB030008CB030008CB030008CB03000837
:10017000CB030008CB0300084D0F0008CB03000899
:10018000CB030008CB030008CB030008CB03000817
:10019000CB030008CB030008CB030008CB03000807
:1001A000CB030008CB030008CB030008CB030008F7
:1001B000CB030008CB030008CB030008CB030008E7
:1001C000CB030008CB030008CB030008CB030008D7
:1001D000CB030008CB030008CB030008CB030008C7
:1001E000CB030008CB030008CB030008CB030008B7
:1001F000CB030008CB030008CB030008CB030008A7
:10020000CB030008CB030008CB030008CB03000896
:10021000CB030008CB030008CB030008CB03000886
:10022000CB030008CB030008CB030008000000004C
:10023000CB030008CB03000800000000CB0300083C
:10024000CB030008CB030008CB030008CB03000856
:10025000CB030008CB030008CB030008CB03000846
:10026000CB030008CB030008CB030008CB03000836
:10027000CB030008CB030008CB03000800000000FC
:10028000CB030008CB030008CB03000800000000EC
:1002900000000000CB03000800F002F800F078F83E
:1002A0000AA090E8000C82448344AAF10107DA45D1
:1002B00001D100F06DF8AFF2090EBAE80F0013F0AB
:1002C000010F18BFFB1A43F001031847E4080200AE
:1002D000140902000A444FF0000C10F8013B13F01F
:1002E000070408BF10F8014B1D1108BF10F8015B8F
:1002F000641E05D010F8016B641E01F8016BF9D182
:1003000013F0080F1EBF10F8014BAD1C0C1B09D1D8
:100310006D1E58BF01F801CBFAD505E014F8016B4A
:1003200001F8016B6D1EF9D59142D6D370470000DC
:10033000103A24BF78C878C1FAD8520724BF30C811
:1003400030C144BF04680C607047000000230024E3
:1003500000250026103A28BF78C1FBD8520728BFD5
:1003600030C148BF0B607047642900F04181752996
:1003700000F03E81782900F07781732900F04383F3
:10038000002070471FB513F054F81FBD10B510BD05
:1003900000F047FB1146FFF7F5FF0FF013FC00F0EC
:1003A00065FB03B4FFF7F2FF03BC00F069FB00003C
:1003B0000948804709480047FEE7FEE7FEE7FEE7F9
:1003C000FEE7FEE7FEE7FEE7FEE7FEE70448054935
:1003D000054A064B70470000419D0008990200083D
:1003E0003889002438990024389100243891002459
:1003F00053EA020C00F069802DE9F04B4FF0000643
:10040000002B1FBFB3FA83F503FA05F424FA05F6AF
:100410005E4012BF1643B2FA82F502FA05F4C5F146
:1004200020051EBF22FA05FC44EA0C04203556EADA
:10043000044C4FEA144418BF641C4FF000084FF0FE
:100440000009904271EB030C39D3002919BFB1FAAE
:1004500081F701FA07F6B0FA80F700FA07F6C7F15C
:1004600020071EBF20FA07FC46EA0C062037B6FB21
:10047000F4FCA7EB0507103F07F01F0BCBF120069C
:100480000CFA0BFB2CFA06F644BFB3460026202FCD
:10049000A4BF5E464FF0000B5BEA060C08BF4FF0AE
:1004A000010B19EB0B09ABFB027C48EB0608C01BE8
:1004B00006FB02CC0BFB03CC71EB0C01C1E70B4636
:1004C000024641464846BDE8F08B13B54FF00000A8
:1004D0004FF00001AFF30080BDE81C40704710B53D
:1004E0004C1084EA530404D54042C1F1000138BFE6
:1004F000491E1B4204D55242C3F1000338BF5B1EA4
:10050000FFF776FF14F0804F04D04042C1F10001A4
:1005100038BF491E14F0004F04D05242C3F100030B
:1005200038BF5B1E10BD00000FB41CB5074B06AAF8
:100530007B4469460090059800F03BFA002069462C
:1005400000F04AFA1CBC5DF814FB0000A504000092
:1005500070B5044685690068C10601D5302600E003
:100560002026C00707D070BDD4E90121304690474E
:10057000206A401C20626D1EF6D570BD70B5044621
:1005800085690078C00707D170BDD4E9012120201A
:100590009047206A401C20626D1EF6D570BD70B574
:1005A0000C460546012A05D02878800600D5EA6960
:1005B000002302E0012305E05B1C934202D2E05CD1
:1005C0000028F9D1A869E618C01AA861286A184459
:1005D00028622846FFF7BCFF04E0D5E9012114F8A2
:1005E000010B9047B442F8D32846FFF7C7FF70BD10
:1005F0002DE9F0410646002410687529314616A5FC
:1006000010D0AFF30080002802DA404213A507E0C3
:1006100031688A0701D512A502E0490704D511A562
:10062000012401E0AFF3008000210A2206F1240733
:1006300009E0B0FBF2FCB0FBF2F302FB1C0030302F
:1006400078541846491C0028F3D123462A463046E0
:10065000BDE8F04100F04EB9000000002D000000A0
:100660002B0000002000000070B504460D46214616
:100670001068AFF300802188090502D50F4A7A443B
:1006800002E00E4A7A440E32002104F1240305E010
:1006900000F00F060009965D5E54491C0028F7D152
:1006A00020780023000704D5702D02D009B1022361
:1006B00011322046BDE8704000F01CB96E03020004
:1006C0002DE9F0474FF0000A89460446C0F820A003
:1006D0002046E1688847002876D0252806D0D4E94E
:1006E00001219047206A401C2062F1E7E168204622
:1006F00000258847C4F81CA006460027C4F818A0A7
:100700002A2E09D030460AF0BDFF38B304EB870823
:10071000303EC8F8186019E059F8041B204604EB75
:1007200087029161E1688847012F064618D1E06988
:10073000002820DA25F020051DE0D8F8180000EB8D
:10074000800006EB40003038C8F818002046E16809
:10075000884706460AF096FF0028EED1012F0AD0FE
:100760002E2E08D12046E16888477F1C0646022FBE
:1007700045F02005C4DBA069002803DA404245F0BB
:100780000105A061E80701D025F01005B6B1A6F17A
:100790004100192802D8203645F400654A46314602
:1007A000204625604D46FFF7DFFD58B1012806D0F1
:1007B000ED1D25F0070000F1080989E704E005F1C7
:1007C000040985E730468AE7206ABDE8F08740EAF9
:1007D000010310B59B070FD1042A0DD310C808C917
:1007E000121F9C42F8D020BA19BA884201D90120C0
:1007F00010BD4FF0FF3010BD1AB1D30703D0521C0B
:1008000007E0002010BD10F8013B11F8014B1B1B45
:1008100007D110F8013B11F8014B1B1B01D1921EAF
:10082000F1D1184610BD10B5203AC0F00B80B1E8E8
:100830001850203AA0E81850B1E81850A0E8185015
:10084000BFF4F5AF5FEA027C24BFB1E81850A0E81E
:10085000185044BF18C918C0BDE810405FEA827C38
:1008600024BF51F8043B40F8043B08BF7047D2074F
:1008700028BF31F8023B48BF11F8012B28BF20F8F0
:10088000023B48BF00F8012B70474FF0000200B553
:10089000134694469646203922BFA0E80C50A0E8A3
:1008A0000C50B1F12001BFF4F7AF090728BFA0E851
:1008B0000C5048BF0CC05DF804EB890028BF40F81D
:1008C000042B08BF704748BF20F8022B11F0804F5F
:1008D00018BF00F8012B704770477047704710B57C
:1008E00000F09AF8006810BD10B5044600F094F8C6
:1008F000046010BD2DE9F0470D4699469246044626
:1009000000F124080168880604D5E06921F010018F
:10091000216000E00120A84201DD471B00E0002724
:10092000A1697A1902EB0900081AA0612078C006B3
:1009300002D42046FFF70CFE002608E0D4E901218E
:100940001AF806009047206A401C761C20624E452B
:10095000F4DB2078C0060AD52046FFF7F9FD06E053
:10096000D4E9012130209047206A401C2062381EC3
:10097000A7F10107F4DC07E0D4E9012118F805002C
:100980009047206A401C2062281EA5F10105F3DC77
:100990002046FFF7F3FD2078000602D50220BDE8CF
:1009A000F0870120FBE7000001694A1C026108781A
:1009B000704700B58FB0CDE901310021059105499F
:1009C0007944CDE9031011466846FFF779FE0FB070
:1009D00000BD0000E5FFFFFF0A6802F8010B0A6096
:1009E000704710B5436913B1AFF3008001E0FFF722
:1009F000D6FD012010BD127800F124010A700022FA
:100A00004A700122EDE711684FF0FF32E9E700007C
:100A100000487047D888002400487047D8880024D0
:100A200070477546FFF7F4FFAE460500694653462A
:100A300020F00700854618B020B5FFF7C7FCBDE8D9
:100A400020404FF000064FF000074FF000084FF035
:100A5000000B21F00701AC46ACE8C009ACE8C009C6
:100A6000ACE8C009ACE8C0098D46704710B5044633
:100A7000AFF300802046BDE81040FFF792BC0000B5
:100A800001491820ABBEFEE726000200FEE7000089
:100A90002DE9F04100240AF0C8FC050013D03648C7
:100AA000006840F25146721C0021C0F30A00012385
:100AB000A0F58067493F04D0B04207D141F0010161
:100AC00008E0194606E02046BDE8F081904201D1D9
:100AD000012000E00020014328494FF0180008D011
:100AE00088608868182843D18B6088680028FCD10A
:100AF0003DE0234E4FF00A47224AD6F800C0B7EB3C
:100B00004C5F08D110601068182831D1136010684C
:100B10000028FCD12BE0D6F800C0CCF30A0CACF5D1
:100B20008067833F0AD037684FF01042B2EB475FCF
:100B300012D188608868182809D019E01060106800
:100B4000182815D1136010680028FCD10FE08B60C5
:100B500088680028FCD10AE03268520508D1886014
:100B60008868182804D18B6088680028FCD101248B
:100B700028460AF0CDFCA6E7002004E00030024041
:100B80000010005C084C02582DE9F0410AF04DFCC1
:100B900035490B6840F251456C1C0021C3F30A0330
:100BA0000122A3F58066493E04D0AB4204D141F056
:100BB000010105E0114603E0A34201D1012300E059
:100BC00000232A4D2A4E19432A4908D08A608A6890
:100BD000002AFCD10D600968B14241D0FEE7264CE5
:100BE0004FF00A4C254BD4F800E0244F0837BCEBFB
:100BF0004E5F08D13A6039680029FCD11D60196840
:100C0000B1422DD0FEE7D4F800E0CEF30A0EAEF5E7
:100C1000806CBCF1830C0ED027684FF01043B3EB0F
:100C2000475F11D18A608A68002AFCD10D6009688B
:100C3000B14215D0FEE73A6039680029FCD11D6049
:100C40001968B1420CD0FEE723685B0508D18A60C1
:100C50008A68002AFCD10D600968B14200D0FEE725
:100C60000AF056FCBDE8F081002004E0C2A507F4BC
:100C7000CDB5E8B5003002400010005C004C0258D1
:100C8000084A00204FF4803102E0536B1B0602D467
:100C9000491EFAD200E011B1034991637047032065
:100CA0007047000000700052FF0FE01F0E4910B5A2
:100CB0004A6B12F0450FFBD00C4B540704D50420AF
:100CC00088638B63032010BDD20702D001208863A4
:100CD00010BD0A69824201D0102010BD8B634869A3
:100CE00000F0080010BD000000700052FF0FE01F70
:100CF0000F4900204FF4803210B50BE04B6B13F01E
:100D0000450F07D00AB15A0707D58A6B032042F076
:100D100004020AE0521EF1D2F5E7DA0704D08A6B2A
:100D2000012042F001028A63024A8A6310BD00007A
:100D300000700052FF0FE01F0849486B10F0450F8C
:100D4000FBD0400705D5886B40F004008863032082
:100D5000704703488863002070470000007000520D
:100D6000FF0FE01F30B5174A04460020536B13F005
:100D7000450FFBD05D0705D5906B40F004009063F4
:100D8000032030BDDB0705D0906B40F0010090637D
:100D9000012030BD1369A3420ED10B4B93635269FE
:100DA00012F4604F03D0910404D5132030BD120C0F
:100DB0000A8030BD510401D5102030BD1104FCD58E
:100DC0000F2030BD00700052FF0FE01F0E490020C1
:100DD0004FF4803210B50BE04B6B13F0450F07D08A
:100DE0000AB15A0707D58A6B032042F0040208E0D3
:100DF000521EF1D2F5E75A0604D58A6B002042F064
:100E000040028A6310BD0000007000522DE9F043DB
:100E10000D4D00241F4616468846814604EB0410FB
:100E200015F81010B14209D105EB40014878B842DD
:100E300004D1891C4246484600F02AF8641CA4B23A
:100E4000382CEBD3BDE8F083046201082DE9F043B0
:100E50000E4D00241F4616468846814604EB84004A
:100E600000EB441015F81010B14209D105EB400118
:100E70004878B84204D1891C4246484600F008F838
:100E8000641CA4B2092CE9D3BDE8F083DA69010837
:100E9000002310B505E000BF11F8014B5B1C00F802
:100EA000014B9342F8D310BD10B5806B816C496D36
:100EB000022906D0012180F83510C16C41F04001B3
:100EC000C16400F0F3FB10BD10B5816B0C468A6B5A
:100ED000886C0168CAB10A68A36B02F40022DB07C0
:100EE00006D12AB1C968E26B01EBC201002207E01A
:100EF0000A68120319D40969E26B01EBC2010122ED
:100F000000F020FEA06B401E0EE00868000302D532
:100F1000606CC86009E00868000306D4E26B606C8E
:100F200000EB82000861206CA063A06B216C8842FA
:100F30000BD12068C16841F00101C16020680068E0
:100F4000800702D5012084F8350010BD014800F06B
:100F5000BDBB0000447F0024014801F05BBC0000E1
:100F60000C800024074810B501F050FC054801F042
:100F70004BFC054807F014FCBDE81040014801F0A7
:100F800049BC0000947F0024447F0024014801F004
:100F900041BC0000B8840024294A016891423AD03B
:100FA000274A1832914236D0254A3032914232D007
:100FB000234A483291422ED0214A603291422AD0AF
:100FC0001F4A7832914226D01D4A9032914222D057
:100FD0001B4AA83291421ED01A4A91421BD0194A8C
:100FE0001832914217D0174A3032914213D0154A25
:100FF000483291420FD0134A603291420BD0114ACD
:101000007832914207D00F4A9032914203D00D4A74
:10101000A832914211D1CAB21823103AB2FBF3F2AE
:101020006FF30901032A02F00703074AD25CC26585
:1010300000D9091D81650846704721F0FF01F9E7D5
:101040001000024010040240044A010830B5224A50
:10105000012301689142CAB21BD01F4C1434A14233
:1010600017D01D4C2834A14213D01B4C3C34A14254
:101070000FD0194C5034A1420BD0174C6434A1420C
:1010800007D0154C7834A14203D0134C8C34A142C4
:101090000CD11421114C083AB2FBF1F10F4A803205
:1010A00001F01F0504EB8101AB4010E00C4D18244A
:1010B000103A0D44B2FBF4F1A82D00D80831094ACA
:1010C00001F01F0402EB8101064AA3408032603028
:1010D00080E80E0030BD0000085402580058025845
:1010E000F0FBFDBF0008024010B50279531E072B2C
:1010F0002DD8174C0168A1421BD0154C1434A142C5
:1011000017D0134C2834A14213D0114C3C34A142C7
:101110000FD00F4C5034A1420BD00D4C6434A1427F
:1011200007D00B4C7834A14203D0094C8C34A14237
:1011300003D10849074C443102E00749064C4431C9
:1011400004EB8202C0E91B2101219940416710BDD7
:1011500008540258FC580258FC08024010B5836934
:101160004FF0C074826A0146002053B1B3F5005FAE
:1011700015D072B1012A0CD0022A0AD0032A09D153
:1011800004E01AB1012A06D0022A03D1C96AC901B2
:1011900000D5012010BDC96AA142FAD010BD002AB5
:1011A000F7D0012AF2D0022AF3D0032AF3D010BDDF
:1011B00030B5254D0468AC4238D0234D1835AC42CB
:1011C00034D0214D3035AC4230D01F4D4835AC4283
:1011D0002CD01D4D6035AC4228D01B4D7835AC422B
:1011E00024D0194D9035AC4220D0174DA835AC42D3
:1011F0001CD0164DAC4219D0144D1835AC4215D048
:10120000124D3035AC4211D0104D4835AC420DD0A6
:101210000E4D6035AC4209D00C4D7835AC4205D04E
:101220000A4D9035AC4201D0084DA8356360836803
:10123000402B036803D099600068C26030BD9A609B
:101240000068C16030BD0000100002401004024080
:101250002DE9F04F804E804FDFF8FC911836DFF813
:10126000F8A148370468856D0AF1300ADFF8ECB15F
:101270004C45DFF8ECC1DFF8ECE16DD0B4426BD047
:10128000544569D0BC4267D0DFF8D081A8F1180876
:10129000444561D05C455FD064455DD074455BD00A
:1012A000DFF8C481444557D0DFF8BC8108F1180845
:1012B000444551D0DFF8B08108F1300844454BD0A7
:1012C000DFF8A48108F14808444545D0DFF898814B
:1012D00008F1600844453FD0DFF88C8108F17808B8
:1012E000444539D0DFF8808108F19008444533D077
:1012F000DFF8748108F1A80844452DD0DFF86C812F
:10130000444529D0DFF8648108F11408444523D00E
:10131000DFF8588108F1280844451DD0DFF84C81DA
:1013200008F13C08444517D0DFF8408108F1500827
:10133000444511D0DFF8348108F1640844450BD0EE
:10134000DFF8288108F17808444505D0DFF81C81D2
:1013500008F18C08444509D1D0E91948C4F8048043
:10136000C46E1CB1D0E91C48C4F8048004684C4524
:101370002ED0B4422CD054452AD0BC4228D0374E6F
:10138000183EB44224D05C4522D0644520D0744538
:101390001ED0354EB4421BD0334E1836B44217D04F
:1013A000314E3036B44213D02F4E4836B4420FD0AF
:1013B0002D4E6036B4420BD02B4E7836B44207D057
:1013C000294E9036B44203D0274EA836B44215D1E8
:1013D00090F85C603F2406F01F06B440AC600468DF
:1013E000256825F4802525602EE09A600068C1609C
:1013F000BDE8F08F99600068C260F9E71B4EB44207
:101400001BD01A4E1436B44217D0184E2836B442A8
:1014100013D0164E3C36B4420FD0144E5036B44260
:101420000BD0124E6436B44207D0104E7836B44218
:1014300003D00E4E8C36B442DAD190F85C600124B1
:1014400006F01F06B4406C60046863608368402B3C
:101450000368CFD1C9E700001000024088000240B5
:10146000A0000240B8000240100402400854025894
:10147000704700002DE9FF410A4C002610272588FF
:1014800064882D1AA4EB010CACB21FFA8CF5CDE9DF
:101490000037CDE902262B46224608F059FBBDE86D
:1014A000FF8100003085002472B6FEE7F0B500240D
:1014B0000E460822074601212546102007F042FE6D
:1014C0001020FFF7F3FB00282ED13A04012137202A
:1014D00007F038FE3720FFF7E9FB002824D101236D
:1014E00003220821401E07F039FE0022012133208B
:1014F00007F028FE3320FFF7D9FB002814D1174A44
:1015000040F22A51536B0B4206D1536B1B03F9D4A3
:10151000D2F88040D2F88050516B090705D5906B06
:1015200040F0080090630420F0BD516B890705D599
:10153000906B40F0020090630220F0BD516B890671
:1015400005D5906B40F0200090630620F0BD23BAD3
:10155000034C29BA9463C6E90013F0BD0070005231
:10156000FF0FE01F70B4154602781E464378812AAB
:101570000C4610D3402B0ED3FF2B0CD0FF2A0AD0E1
:101580000C2E11D0102E11D0182E0DD12946204628
:1015900070BCFFF75BBC0020014603E0401C04F870
:1015A000011BC0B2A842F9D370BC7047294620463F
:1015B00070BCFFF72BBCF0B50446C8074FF0000025
:1015C00010D01E23012603F01F0706FA07F50D426F
:1015D00001D15B1EF7D27AB1082A0BD0102A06D0AF
:1015E000182A01D00120F0BD072BFBD204E0082B04
:1015F000F8D201E0102BF5D22368596121688B687D
:1016000023F0180313438B60F0BD000010B50400F5
:1016100010D0607F20B900202077204600F032F8FB
:1016200021790220607739B1D4E902122046FFF710
:10163000C2FF48B1012010BD2168114848612068EF
:10164000816821F0180181606079A0B1216820696A
:101650000861012220686369816821F060011943F3
:1016600081602068A369816821F08001194381604D
:101670006277002010BD21684FF0FF30E8E70000DE
:10168000B71DC10408B500680649884208D106485C
:10169000016841F400210160006800F4002000901E
:1016A00008BD0000004C0258E0440258704700009A
:1016B00010B5044600F00EFA204600F0D1F90249B8
:1016C0000120487010BD0000000000242DE9F04109
:1016D00004460068234F0426056969070BD5466157
:1016E000E06C40F00200E06484F83560A06C0765AF
:1016F000A06C00F053FEA8070DD5216802204861B8
:10170000E06C40F00100E06484F83560A06C07658F
:10171000A06C00F043FEE80605D521681020486162
:10172000204600F06FF8280705D521680820486199
:10173000204600F005FAE80712D020680168890702
:1017400003D5C16821F01E01C16020680121C26873
:1017500022F00102C260206841612046FFF7A8FF25
:10176000BDE8F081A90E00082DE9F041040003D086
:1017700094F8350018B105E00120BDE8F08120465D
:1017800000F042F8A16902204FF0000E84F8350005
:1017900009B1C4F824E02068194A016811400160C9
:1017A000D4E90452E168D4E9010C29431043A26949
:1017B000084354F8201B40EA0C001043B4E8E8103A
:1017C0000A68184328433043384340EA0C0010436A
:1017D000086054F8300C343C102805D12268E17FB1
:1017E000E06961F31F60906120680121C26842F0E6
:1017F0001E02C260C4F84CE084F835100020BCE73B
:1018000007F0E0FF704700002DE9F04186B0804608
:1018100014216846FFF739F84D49D8F8000088428E
:101820007DD14C48016841F001010160006800F081
:10183000010005904748001D016841F0100101605A
:10184000016801F010010591016841F0010101609A
:10185000016801F001010591016841F00401016096
:10186000016801F004010591016841F0080101607F
:10187000016801F008010591016841F00201016071
:10188000006802240126694600F0020005907320DA
:101890000D278DE8510003252F48CDE9035701F0AE
:1018A000DFFF502069468DE851002C48CDE90357F1
:1018B00001F0D6FFC02069468DE851002848CDE9E7
:1018C000035701F0CDFF082069468DE851002548F7
:1018D000CDE9035701F0C4FF802069468DE851002F
:1018E0002148CDE9035701F0BBFF202002F0ECF8BE
:1018F0001E4C4B221E49002004F10C0E4FF0040C2C
:101900000B1521608E1462601F01A0608EE8C90073
:101910008915C4E90A502A042063204600E014E037
:1019200004F11C0383E8061001F0E8FA08B1FFF7A0
:10193000BBFD0022C8F848404E201146C4F838804C
:1019400002F048F94E2002F037F906B0BDE8F08108
:1019500000000248DC4402580010025800000258FF
:1019600000080258000C025800040258947F00241A
:10197000280002402DE9F843044690F8340001287D
:1019800033D0354802274FF0010884F83480002511
:1019900084F8357026684FF4803C6345376847F417
:1019A0008047376026684FF04009376827F0020704
:1019B00037602668376847EA01073760A16CC8635B
:1019C000A66C2649F164A16C0D65A5632564E563E9
:1019D00065640DD22168A06C283101F029FD80B327
:1019E000C4F84C9084F8358027E00220BDE8F883E5
:1019F000A16C46464864C4F83880E363626405E03D
:101A0000E06B4008E063A06B4000A063E06B6045C2
:101A1000F6D2A06B801EA063A36BE16BE06B236426
:101A2000009002EB81032168A06C283100F0D2F80D
:101A300038B1C4F84C9084F83560012084F83450F3
:101A4000D4E7FFE72068016841F001010160002050
:101A500084F83450CAE70000C90E0008A90E000837
:101A600070B51B4B04464FF4FA500025C21094F891
:101A700034101B680129B3FBF0F000FB02F01FD00B
:101A8000012684F83460022184F8351021680A6840
:101A900022F001020A602168401E13D00A68D207B2
:101AA000FAD1086820F480400860A06C343400F05B
:101AB000C5FAA1690020A16166702070284670BD3A
:101AC000022070BDE06C032540F02000E064E8E7F0
:101AD00080000024194A4FF4FA5130B5CC1090F828
:101AE000343015680022012BB5FBF1F101FB04F144
:101AF00007D090F83540012380F83430022C02D012
:101B00000FE0022030BD052480F8354004682568C8
:101B100025F001052560491E08D004682468E40703
:101B2000F9D1002180F83410104630BDC16C032279
:101B300041F02001C16480F83530F2E780000024D4
:101B4000704700000068214B984238D01F4B183373
:101B5000984234D01D4B3033984230D01B4B483321
:101B600098422CD0194B6033984228D0174B7833C9
:101B7000984224D0154B9033984220D0134BA83371
:101B800098421CD0124B984219D0114B18339842EE
:101B900015D00F4B3033984211D00D4B483398423B
:101BA0000DD00B4B6033984209D0094B78339842E3
:101BB00005D0074B9033984201D0054BA83312B1A2
:101BC000016100207047C160FBE700001000024087
:101BD000100402402DE9FF4F81B08168964604460B
:101BE00000200E9A8029009012D094F83400012829
:101BF00013D094F83500012184F8341001280ED058
:101C0000C902012000906165009805B0BDE8F08F21
:101C10004FF4807060650120F7E70220F5E7FE4D84
:101C200002272068002684F83570A842FB4D6665BF
:101C3000FB4EFC4FDFF8F093DFF8F0A3DFF8F0B3D2
:101C40003FD0A8423DD0B0423BD0B84239D0484501
:101C500037D0504535D0584533D0DFF8D4C30CF1D8
:101C6000180C60452DD0DFF8CCC3604529D0DFF8D3
:101C7000C4C30CF1180C604523D0DFF8B8C30CF1D5
:101C8000300C60451DD0DFF8ACC30CF1480C60454A
:101C900017D0DFF8A0C30CF1600C604511D0DFF85D
:101CA00094C30CF1780C60450BD0DFF888C30CF1BD
:101CB000900C604505D0DFF87CC30CF1A80C6045A2
:101CC00010D1D0F800C03F214CF4802CC0F800C0E7
:101CD0002068036194F85C30A06D03F01F03994005
:101CE000816010E0D0F800C048F220084CEA080CEF
:101CF000C0F800C02068036194F85C30A06D03F068
:101D00001F03994041601346029972462046FFF72F
:101D10004FFAC94AC84BDFF820E31432DFF8F882E3
:101D2000283320680EF13C0EC34940455FD0A842DD
:101D30005DD0B0425BD0B84259D0484557D05045ED
:101D400055D0584553D0DFF8E8C20CF1180C604567
:101D50004DD0DFF8E0C2604549D0DFF8D8C20CF1C1
:101D6000180C604543D0DFF8CCC20CF1300C604554
:101D70003DD0DFF8C0C20CF1480C604537D0DFF829
:101D8000B4C20CF1600C604531D0DFF8A8C20CF190
:101D9000780C60452BD0DFF89CC20CF1900C6045AC
:101DA00025D0DFF890C20CF1A80C60451FD0884206
:101DB0001DD090421BD0984219D0704517D0DFF843
:101DC00078C20CF1500C604511D0DFF86CC20CF1F8
:101DD000640C60450BD0DFF860C20CF1780C6045F4
:101DE00005D0DFF854C20CF18C0C604509D1D4E960
:101DF000190CC0F804C0E06E18B1D4E91C0CC0F88E
:101E000004C0C446206860453FD0A8423DD0B042DF
:101E10003BD0B84239D0484537D0504535D05845E9
:101E200033D0DFF80C8208F1180840452DD0DFF8D8
:101E30000482404529D0DFF8FC8108F118084045AC
:101E400023D0DFF8F08108F1300840451DD0DFF8DD
:101E5000E48108F14808404517D0DFF8D88108F13F
:101E60006008404511D0DFF8CC8108F17808404582
:101E70000BD0DFF8C08108F19008404505D0DFF8AD
:101E8000B48108F1A808404518D1D0F8008028F0A6
:101E90001E0848F01608C0F800802068D0F81480AA
:101EA00048F08008C0F81480206C08B9A06CC0B15C
:101EB0002068D0F8008048F0080810E0D0F80080D2
:101EC00028F00E0848F00A08C0F80080206C08B915
:101ED000A06C30B12068D0F8008048F00408C0F849
:101EE00000802068E046404557D0A84255D0B04217
:101EF00053D0B84251D048454FD050454DD05845A9
:101F00004BD0DFF82CC10CF1180C604545D0DFF840
:101F100024C1604541D0DFF81CC10CF1180C6045AC
:101F20003BD0DFF810C10CF1300C604535D0DFF844
:101F300004C10CF1480C60452FD0DFF8F8C00CF15B
:101F4000600C604529D0DFF8ECC00CF1780C6045DE
:101F500023D0DFF8E0C00CF1900C60451DD0DFF815
:101F6000D4C00CF1A80C604517D0884215D090421F
:101F700013D0984211D070450FD02F49503188426C
:101F80000BD02D496431884207D02B4978318842E3
:101F900003D029498C3188420DD1206E0168C903D4
:101FA00003D5016841F480710160E06E18B10168E9
:101FB00041F4807101602068404528D0A84226D0B5
:101FC000B04224D0B84222D0484520D050451ED03F
:101FD00058451CD016491831884218D015498842F6
:101FE00015D014491831884211D012493031884235
:101FF0000DD010494831884209D00E4960318842DD
:1020000005D00C497831884201D00A4990310168E5
:1020100041F001010160F7E5100002402800024094
:102020004000024058000240700002408800024018
:10203000A000024010040240085402582DE9F84F55
:10204000044601F03BFD00903CB194F835000228B5
:1020500006D0802161650020E4E00120BDE8F88F12
:10206000C74DC74EC649183520683036DFF814838F
:10207000DFF814938842DFF814A3DFF814B32ED0EE
:10208000A8422CD0B0422AD0404528D0484526D07E
:10209000504524D0584522D0BD4A183290421ED017
:1020A000BC4A90421BD0BB4A1832904217D0B94A62
:1020B0003032904213D0B74A483290420FD0B54ADE
:1020C000603290420BD0B34A7832904207D0B14A86
:1020D0009032904203D0AF4AA832904209D10268B0
:1020E00022F01E0202602068426922F080024261F2
:1020F00003E0026822F00E02026027688F42384631
:102100004DD0A8424BD0B04249D0404547D0484579
:1021100045D0504543D0584541D09D4A1832904251
:102120003DD09C4A90423AD09A4A1832904236D0DA
:10213000984A3032904232D0964A483290422ED05D
:10214000944A603290422AD0924A7832904226D005
:10215000904A9032904222D08E4AA83290421ED0AD
:102160008D4A90421BD08C4A1432904217D08A4A32
:102170002832904213D0884A3C3290420FD0864A8F
:10218000503290420BD0844A6432904207D0824A47
:102190007832904203D0804A8C32974204D1206E2C
:1021A000026822F48072026075492068884228D053
:1021B000A84226D0B04224D0404522D0484520D065
:1021C00050451ED058451CD071491831884218D04E
:1021D0007049884215D06F491831884211D06D4935
:1021E000303188420DD06B494831884209D0694965
:1021F0006031884205D067497831884201D065490D
:102200009031016821F0010101600EE001F056FCFF
:102210000099401A052808D9202262650321002070
:1022200084F8351084F8340017E73868C007EDD11A
:10223000534A0121206890422ED0A8422CD0B042AF
:102240002AD0404528D0484526D0504524D058456E
:1022500022D04F4B183398421ED04E4B98421BD081
:102260004C4B1833984217D04A4B3033984213D016
:10227000484B483398420FD0464B603398420BD0BE
:10228000444B7833984207D0424B9033984203D066
:10229000404BA833984208D194F85C703F23A06D5E
:1022A00007F01F07BB40836007E094F85C30A06D27
:1022B00003F01F0301FA03F34360206890424DD0FE
:1022C000A8424BD0B04249D0404547D0484545D0C0
:1022D000504543D0584541D02D4A183290423DD008
:1022E0002C4A90423AD02B4A1832904236D0294A92
:1022F0003032904232D0274A483290422ED0254A7E
:10230000603290422AD0234A7832904226D0214A25
:102310009032904222D01F4AA83290421ED01E4ACC
:1023200090421BD01C4A1432904217D01A4A2832CD
:10233000904213D0184A3C3290420FD0164A503285
:1023400090420BD0144A6432904207D0124A78323D
:10235000904203D0104A8C3290420BD1D4E919023A
:102360004260E06E30B1026822F480720260D4E90B
:102370001C024260002084F8351084F834006DE6B9
:1023800010000240580002407000024088000240E5
:10239000A000024010040240085402582DE9F05FEA
:1023A00028B190F83510022904D080214165012020
:1023B000BDE8F09F904C904B0168183C18338E4A52
:1023C000DFF83C92A1428D4CDFF838E28E4FDFF807
:1023D0003CB2DFF83CA28F4D8F4E31D091422FD0CE
:1023E00099422DD0A1422BD0494529D0714527D003
:1023F000B94225D0DFF810C20CF1180C61451FD08E
:10240000DFF808C2ACF1600C614519D0DFF8FCC1FF
:10241000ACF1480C614513D0DFF8F0C1ACF1300CE1
:1024200061450DD0DFF8E4C1ACF1180C614507D06F
:10243000594505D0514503D0A94201D0B1422CD114
:10244000DFF8B4C14FF0040880F83580ACF1180C07
:1024500061451DD091421BD0994219D0A14217D09D
:10246000494515D0714513D0B94211D0664818308E
:1024700081420DD065486038814209D063484838B0
:10248000814205D061483038814201D05F48183818
:10249000086820F001000860ABE0D1F800C02CF023
:1024A0000E08DFF854C1C1F80080ACF1180C0168C7
:1024B000614527D0914225D0994223D0A14221D015
:1024C00049451FD071451DD0B9421BD0DFF838C136
:1024D0000CF1180C614515D0DFF830C1ACF1600C7F
:1024E00061450FD0DFF824C1ACF1480C614509D03B
:1024F000DFF818C1ACF1300C614503D0DFF80CC136
:10250000ACF1180CD1F800C02CF0010CC1F800C0DF
:10251000DFF8E4804FF0010C0168A8F1180841458C
:1025200046D0914244D0994242D0A14240D0494540
:102530003ED071453CD0B9423AD0334A183291422C
:1025400036D0324A603A914232D0304A483A9142CB
:102550002ED02E4A303A91422AD02C4A183A914233
:1025600026D0594524D0514522D0A94220D0B1428D
:102570001ED02A4A91421BD0284A1432914217D0C9
:10258000264A2832914213D0244A3C3291420FD03D
:10259000224A503291420BD0204A6432914207D0F5
:1025A0001E4A7832914203D01C4A8C32914218D193
:1025B000016E0A6822F480720A6090F85C20816DD6
:1025C00002F01F020CFA02F24A60D0E919124A60C6
:1025D000C16E31B10A6822F480720A60D0E91C121F
:1025E0004A600022016D80F835C080F8342001B1C6
:1025F00088470020DCE60000280002405800024026
:102600007000024088000240A000024070040240B6
:1026100088040240A0040240B80402400854025852
:102620002DE9F05F04007DD06D4A6D4B6C49183286
:10263000206830336B4E6C4F8842DFF8B0C1DFF852
:10264000B081DFF8B091DFF8B0A1DFF8B0B1DFF80A
:10265000B0E121D090421FD098421DD0B0421BD093
:10266000B84219D0604517D0404515D0484513D021
:10267000504511D058450FD070450DD0604D1835DC
:10268000A84209D05E4D3035A84205D05C4D483592
:10269000A84201D05A4D6035056825F00105056056
:1026A00020680025884227D0904225D0984223D028
:1026B000B04221D0B8421FD060451DD040451BD04C
:1026C000484519D0504517D0584515D0704513D0FE
:1026D0004B49183188420FD04949303188420BD0DC
:1026E00047494831884207D045496031884203D084
:1026F00043497831884218D121210560206845601E
:10270000206885602068C560206805612068416197
:102710002046FEF741FC94F85C203F2102F01F02A6
:10272000914000E059E0816031E0364988421BD099
:1027300034491431884217D032492831884213D0A5
:1027400030493C3188420FD02E49503188420BD05D
:102750002C496431884207D02A497831884203D015
:1027600028498C31884238D105602068456020684E
:1027700085602068C560206805612046FEF70CFC76
:1027800094F85C20012102F01F0291404160204634
:10279000FEF75CFC206E18B10560D4E919014160B8
:1027A0006068401E072807D82046FEF79DFCE06EB3
:1027B0000560D4E91C014160E56625676567E5634E
:1027C00025646564A564E5642565656584F8355010
:1027D000002084F83450BDE8F09F0120FBE70000A2
:1027E0001000024058000240700002408800024081
:1027F000A0000240B8000240100402402804024039
:102800004004024008540258406D704790F835006B
:10281000704700002DE9FC5F0446F74E0020DFF80A
:10282000D88300904FF41652F44808F11808A56DAB
:10283000DFF8C493DFF8C0A3016809F1300920680C
:102840000AF1480AB1FBF2F1B04201912F68D5F8C4
:1028500000C0DFF8ACB335D04146884232D048459D
:1028600030D050452ED058452CD0E54918318842FB
:1028700028D0E3493031884224D0E14948318842A8
:1028800020D0E04988421DD0DE491831884219D055
:10289000DC493031884215D0DA494831884211D0BC
:1028A000DFF860E30EF1600E70450BD0D54A783248
:1028B000904207D0D34B9033984203D0D149A831EE
:1028C00088427DD194F85C20082102F01F0201FAB1
:1028D00002F23A424AD0B04232D0404530D0484568
:1028E0002ED050452CD058452AD0C54A1832904297
:1028F00026D0C34A3032904222D0C14A4832904258
:102900001ED0C04A90421BD0BE4A1832904217D007
:10291000BC4A3032904213D0BA4A483290420FD06B
:10292000B84A603290420BD0B64A7832904207D013
:10293000B44A9032904203D0B24AA832904203D1B6
:10294000026802F0040202E0026802F008026AB1C2
:10295000026822F00402026094F85C0000F01F009C
:102960008140A960606D40F00100606594F85C00F2
:10297000012100F01F008140394240D02068B04260
:1029800034D0404532D0484530D050452ED05845FF
:102990002CD09B4A1832904228D0994A303290422B
:1029A00024D0974A4832904220D0964A90421DD077
:1029B000944A1832904219D0924A3032904200E044
:1029C000AFE113D08F4A483290420FD08D4A603227
:1029D00090420BD08B4A7832904207D0894A90328D
:1029E000904203D0874AA83290427DD1406910F0CE
:1029F000800F04D0A960606D40F00200606594F81B
:102A00005C00042100F01F00814039423ED0206864
:102A1000B04232D0404530D048452ED050452CD021
:102A200058452AD0764A1832904226D0744A30321D
:102A3000904222D0724A483290421ED0714A90424F
:102A40001BD0704A1832904217D06E4A30329042F2
:102A500013D06C4A483290420FD06A4A603290429A
:102A60000BD0684A7832904207D0664A9032904242
:102A700003D0644AA83290424ED1006810F0020F91
:102A800004D0A960606D40F00400606594F85C00BB
:102A9000102100F01F008140394258D02068B04218
:102AA00034D0404532D0484530D050452ED05845DE
:102AB0002CD0534A1832904228D0514A303290429A
:102AC00024D04F4A4832904220D04E4A90421DD0E6
:102AD0004C4A1832904219D04A4A3032904215D0AE
:102AE000484A4832904200E014E00FD0454A603234
:102AF00090420BD0434A7832904207D0414A9032FC
:102B0000904203D03F4AA832904207D1006800F0BB
:102B1000080006E0006872E70068B7E7006800F0A8
:102B20000400A0B1A96020680168490304D50068C9
:102B3000000308D5A16C07E00168C90503D401684A
:102B400021F008010160216C09B12046884794F802
:102B50005C00202100F01F008140394279D02068BC
:102B6000B04232D0404530D048452ED050452CD0D0
:102B700058452AD0224A1832904226D0204A303274
:102B8000904222D01E4A483290421ED01D4A9042A6
:102B90001BD01C4A1832904217D01A4A3032904249
:102BA00013D0184A483290420FD0164A60329042F1
:102BB0000BD0144A7832904207D0124A9032904299
:102BC00003D0104AA832904203D1006800F01000F0
:102BD00002E0006800F00200B0B3A96094F835008C
:102BE0000428206801680FD049037ED500680003DF
:102BF0002BD4616C2AE00000100002408000002409
:102C0000700002401004024021F0160101602068AB
:102C1000416921F080014161206C08B9A06C20B1AC
:102C20002068016821F00801016094F85C303F21C0
:102C3000012003F01F0300229940A96084F83500A9
:102C400084F83420216D65E003E0E16B09B1204692
:102C50008847606D00287DD0606DC00759D020681E
:102C6000042184F83510B0422BD0404529D0484586
:102C700027D0504525D0584523D09D49884220D0A3
:102C80009B49183188421CD099493031884218D06C
:102C90009849884215D097491831884211D09549F2
:102CA000303188420DD093494831884209D091494A
:102CB0006031884205D08F497831884201D08D49F2
:102CC0009031016821F00101016020680099019AAA
:102CD000491C0091914202D80168C907F6D10068E9
:102CE000C00710D003200FE0FFE70168C905ACD48E
:102CF00003680121002223F01003036084F83510DB
:102D000084F83420A1E7012084F83500002084F8FD
:102D10003400E16C00291DD002B02046BDE8F05F10
:102D20000847754988421DD073491431884219D02B
:102D300071492831884215D06F493C31884211D001
:102D40006D49503188420DD06B496431884209D0B9
:102D5000694900E084E07831884203D066498C31CB
:102D600088427DD194F85C800427016808F01F0830
:102D700007FA08F717EA0C0F009746D04F0744D51B
:102D800000980F04686003D5C8033CD4A16CC1E768
:102D9000880638D42068B0422DD055496039884221
:102DA00029D0484527D0504525D0584523D05049F3
:102DB000884220D04E49183188421CD04C493031CD
:102DC000884218D04B49884215D04A491831884268
:102DD00011D04849303188420DD0464948318842A7
:102DE00009D0704507D0904205D0984203D04149A0
:102DF000A831884203D1016821F0080102E001688E
:102E000021F004010160216C84E7022707FA08F72A
:102E100017EA0C0F00974ED08F074CD500980F047F
:102E2000686003D5C80344D4616C73E7880640D456
:102E30002068B0422FD02E49603988422BD04845B7
:102E400029D0504527D0584525D02949884222D03D
:102E50002749183188421ED025493031884200E088
:102E600044E018D02349884215D0224918318842BD
:102E700011D02049303188420DD01E494831884256
:102E800009D0704507D0904205D0984203D0194927
:102E9000A831884203D1016821F0140102E00168E1
:102EA00021F00A010160012184F83510002084F826
:102EB0003400E16B2EE7082202FA08F212EA0C0F46
:102EC00014D0090712D5016821F00E01016094F8B1
:102ED0005C100120002201F01F0100FA01F169607D
:102EE000606584F8350084F8342012E7BDE8FC9F63
:102EF0008800024010040240085402582DE9F05F97
:102F0000044600F0DBFD002C07467DD0E34E022195
:102F100020684FF00308DFF888934FF00005DFF8D2
:102F200084A3B042DFF880B334D0DC4A1832904238
:102F300030D048452ED050452CD058452AD0DA4ABA
:102F40001832904226D0D84A3032904222D0D64A07
:102F5000483290421ED0D54A90421BD0D34A1832F4
:102F6000904217D0D14A3032904213D0CF4A4832E3
:102F700090420FD0CD4A603290420BD0CB4A78328B
:102F8000904207D0C94A9032904203D0C74AA83233
:102F900090427DD184F83510B04284F834502ED060
:102FA000BE49183188422AD0484528D0504526D0FD
:102FB000584524D0BC491831884220D0BA49303114
:102FC00088421CD0B8494831884218D0B749884255
:102FD00015D0B6491831884211D0B44930318842F1
:102FE0000DD0B2494831884209D0B0496031884299
:102FF00005D0AE497831884201D0AC4990310168A2
:1030000021F00101016008E027E100BF00F056FD5A
:10301000C01B052801D920211CE120680068C007D9
:10302000F4D104F108002168D4E9053C8E4685C836
:1030300009681043D4E907281F43636A38439C4F4B
:1030400040EA0C001043394040EA0800042B40EAF3
:10305000010003D1D4E90B121143084395490968D3
:103060006FF30F01B1F1005F0FD36168A1F1290285
:10307000052A08D9163A032A05D9083A012A02D99D
:103080004F39032901D840F48010CEF8000000E049
:1030900023E02068676A4069042F20F0070047EAB0
:1030A00000070DD1D4E90A01074349B12046FEF7D4
:1030B00055F828B140206065012184F83510CCE036
:1030C000206847612046FDF767FF94F85C203F21A8
:1030D00002F01F029140816054E0774A90421BD079
:1030E000754B1433984217D0734B2833984213D042
:1030F000714B3C3398420FD06F4B503398420BD0FA
:103100006D4B6433984207D06B4B7833984203D0B1
:10311000694B8C3398427DD184F8351084F8345053
:10312000664B0168A26801EA030E402A73D0802A28
:1031300072D00022D4E90378D4E9053142EAD702FB
:1031400042EAD8085C4AD4E9077C48EAD30848EA4E
:10315000D10141EAD701524241EA1C11142341EA4C
:103160000E01016020681044B0FBF3F08000E065C0
:103170002046FDF711FF94F85C20012102F01F02A8
:10318000914041602068B04257D04449183188428C
:1031900053D0484551D050454FD058454DD0424965
:1031A0001831884249D040493031884245D03E49A3
:1031B0004831884241D03D4988423ED03B49183190
:1031C00088423AD039493031884236D0374948317F
:1031D000884232D03549603188422ED03349783127
:1031E00088422AD031499031884226D02F49A831CF
:1031F000884222D0304988421FD02F49143188425A
:103200001BD02D492831884217D02B493C318842A8
:1032100013D002E01DE017E018E027495031884242
:103220000BD025496431884207D023497831884240
:1032300003D021498C31884229D12046FDF706FF71
:10324000A06880280CD00CE0102273E74FF4804275
:1032500070E74021616584F835800120BDE8F09F6A
:103260006560216E20790860D4E9190141606068C9
:10327000401E072808D82046FDF736FFE06E05609F
:10328000D4E91C01416002E0E5662567656701201D
:10329000656584F835000020E0E70000100002407A
:1032A00040000240580002407000024010040240FA
:1032B0003F8010FE0010005C085402580F00FEFF13
:1032C0002DE9F05F04004FF0000514D094F83400AD
:1032D000012812D094F8356001204FF0000C84F8DA
:1032E0003400012E0BD0C0026065012584F834C083
:1032F0002846BDE8F09F0120FBE70220F9E7454E94
:103300000227206884F83570B042434FC4F854C097
:10331000DFF80881DFF80891DFF808A1DFF808B1CD
:103320003BD0B84239D0404537D0484535D05045DC
:1033300033D0584531D0DFF8F0C00CF1180C60459F
:103340002BD0DFF8E4C00CF1300C604525D0DFF85D
:10335000DCC0604521D0DFF8D4C00CF1180C60450A
:103360001BD0DFF8C8C00CF1300C604515D0DFF879
:10337000BCC00CF1480C60450FD0DFF8B0C00CF1B8
:10338000600C604509D0DFF8A4C00CF1780C6045F2
:1033900003D0DFF898C00CF1900CD0F800C02CF0EE
:1033A000010CC0F800C02046FDF752FF2068B04273
:1033B0002AD0B84228D0404526D0484524D0504590
:1033C00022D0584520D01849183188421CD01649BF
:1033D0003031884218D01549884215D01349183128
:1033E000884211D01149303188420DD00F494831FF
:1033F000884209D00D496031884205D00B497831A7
:10340000884201D009499031016841F00101016011
:103410006EE7000010000240280002404000024019
:103420005800024070000240880002401004024030
:103430002DE9F84F04008C464FF00000009014D0A6
:1034400094F83400012812D094F83550012000215E
:1034500084F83400012D0CD0C0026065012000907A
:1034600084F834100098BDE8F88F0120FBE70220B3
:10347000F9E78C4D0226206884F83560A8428A4D11
:1034800061658A4E8A4FDFF82C82DFF82C92DFF8D4
:103490002CA2DFF82CB226D0A84224D0B04222D0F1
:1034A000B84220D040451ED048451CD050451AD0C7
:1034B000584518D08349884215D08249183188422E
:1034C00011D08049303188420DD07E494831884240
:1034D00009D07C496031884205D07A4978318842E8
:1034E00001D078499031016821F001010160614605
:1034F0002046FDF7ADFE6B49206888422CD0A842DB
:103500002AD0B04228D0B84226D0404524D04845E1
:1035100022D0504520D058451ED06A4A90421BD038
:10352000684A1832904217D0664A3032904213D01F
:10353000644A483290420FD0624A603290420BD0C7
:10354000604A7832904207D05E4A9032904203D06F
:103550005C4AA83290420CD1026822F01E0242F06E
:1035600016020260206C88B12068026842F00802EE
:103570000BE0026822F00E0242F00A020260206CA8
:1035800020B12068026842F004020260206888428C
:103590004BD0A84249D0B04247D0B84245D0404570
:1035A00043D0484541D050453FD058453DD0454A8D
:1035B00090423AD0434A1832904236D0414A303293
:1035C000904232D03F4A483290422ED03D4A60323B
:1035D00090422AD03B4A7832904226D0394A9032E3
:1035E000904222D0374AA83290421ED0364A9042AA
:1035F0001BD0354A1432904217D0334A28329042B9
:1036000013D0314A3C3290420FD02F4A5032904270
:103610000BD02D4A6432904207D02B4A7832904228
:1036200003D0294A8C3290420DD1206E0268D20319
:1036300003D5026842F480720260E06E18B102683D
:1036400042F4807202602068884226D0A84224D0CA
:10365000B04222D0B84220D040451ED048451CD0B0
:1036600050451AD0584518D01649884215D01549EA
:103670001831884211D01349303188420DD0114998
:103680004831884209D00F496031884205D00D4940
:103690007831884201D00B499031016841F0010135
:1036A0000160DFE6100002402800024040000240B6
:1036B000580002407000024088000240A000024012
:1036C000B8000240100402400854025870B5044685
:1036D00000F0F4F90546601C02D004480078044468
:1036E00000F0ECF9401BA042FAD370BD7400002436
:1036F0002DE9F04F4F4D00224FF0010A4FF00F0B14
:1037000092E000BF0AFA02F919EA01037ED022F022
:10371000030606F1B0469407D6F808C4270FDFF871
:1037200018810BFA07FE40450EEA0C0402D14FF057
:10373000000C40E0DFF804C1604502D14FF0010CFD
:1037400039E0DFF8FCC0604502D14FF0020C32E0F6
:10375000DFF8F0C0604502D14FF0030C2BE0DFF83A
:10376000E8C0604502D14FF0040C24E0DFF8DCC073
:10377000604502D14FF0050C1DE0DFF8D4C0604574
:1037800002D14FF0060C16E0DFF8C8C0604502D148
:103790004FF0070C0FE0DFF8C0C0604502D14FF0DA
:1037A000080C08E0DFF8B4C0604502D14FF0090C06
:1037B00001E04FF00A0C0CFA07FCA44513D12C6869
:1037C0009C432C606F684FF0B0449F436F60676804
:1037D0009F43676027689F432760D6F8084424EA20
:1037E0000E04C6F8084407680323D4084FEA4208C9
:1037F0004FEA427C03FA08F34FEADC6C1F43076090
:103800000BFA0CF600EB8404276A00E00BE0B743E8
:103810002762C4689C43C460446824EA0904446085
:1038200084689C438460521C31FA02F37FF46AAFCF
:10383000BDE8F08F800000580000025800040258D4
:1038400000080258000C02580010025800140258D8
:1038500000180258001C0258002002580024025888
:103860002DE9F84F03247D4D00234FF001094FF05F
:10387000B04B4FF00F0AE9E009FA03F73A4076D06F
:103880000E7906F00306012E01D0022E18D1D0F8D1
:1038900008C04FEA430ECE6804FA0EF82CEA080C72
:1038A00006FA0EF646EA0C068660D0F804C00E79D9
:1038B0002CEA070CC6F300169E4046EA0C0646604A
:1038C0000E79F643B6070BD0C6684FEA43088F68F7
:1038D00004FA08FC26EA0C0607FA08F73743C76023
:1038E0000E7906F00306022E12D1DE080F694FEAA8
:1038F000437C00EB8606B646366A4FEADC6C0AFA71
:103900000CF807FA0CF726EA08063743CEF82070C1
:103910000F7906684FEA430807F0030704FA08FC2A
:1039200007FA08F726EA0C06374307604E6816F4D4
:10393000403F1CD04A4E376847F002073760366870
:103940009F0706F00206009623F0030606F1B04634
:10395000B6463F0FD6F80864DFF808810AFA07FC7C
:10396000404526EA0C0603D14FF0000C41E06CE024
:10397000DFF8F4C0604502D14FF0010C39E0DFF808
:10398000ECC0604502D14FF0020C32E0DFF8E0C03D
:10399000604502D14FF0030C2BE0DFF8D8C0604542
:1039A00002D14FF0040C24E0DFF8CCC0604502D116
:1039B0004FF0050C1DE0DFF8C4C0604502D14FF0A8
:1039C000060C16E0DFF8B8C0604502D14FF0070CD6
:1039D0000FE0DFF8B0C0604502D14FF0080C08E0FE
:1039E000DFF8A4C0604502D14FF0090C01E04FF0B0
:1039F0000A0C0CFA07FC4CEA060CCEF808C44F6817
:103A0000DBF80060FF0226EA020600D516435F4697
:103A1000CBF80060D1F804C0DBF804605FEA8C2CBE
:103A200026EA020600D516437E606E684F6826EAD5
:103A30000206BF0300D516436E602E684F6826EA63
:103A40000206FF0300D516432E605B1C0A6832FA9B
:103A500003F67FF411AFBDE8F88F00008000005836
:103A6000F4440258000002580004025800080258AA
:103A7000000C025800100258001402580018025896
:103A8000001C025800200258002402580069084017
:103A900000D001207047426921EA02030A4043EA4C
:103AA0000241816170470AB1816170470904FBE7F7
:103AB00001480068000C70470010005C01488068F5
:103AC0007047000074000024074908B50A6842F0F6
:103AD00002020A60096801F00201009103490A68C4
:103AE00002430A6008BD0000F44402580404005870
:103AF0000248816802781144816070477400002494
:103B0000032010B500F086F801F042FC0F4A10497E
:103B100014681368C4F3032203F00F038A5CC95CC2
:103B200002F01F0201F01F01D0400A4A20FA01F101
:103B30001160094908600F2000F010F808B1012059
:103B400010BD00F02BF8002010BD000018440258F2
:103B5000344A0108840000248000002470B50D4D13
:103B600004462878A0B14FF47A71B1FBF0F00A490D
:103B70000968B1FBF0F002F02AFE48B9102C07D218
:103B800000222146501E00F025F800206C6070BD18
:103B9000012070BD7400002480000024054808B591
:103BA000016841F002010160006800F0020000902D
:103BB00008BD0000F4440258002809DB410900F068
:103BC0001F028900012001F1E0219040C1F80001AD
:103BD000704700000E4BF0B41B680D46C3F3022380
:103BE000C3F10706042E00D90426191D072901D2A6
:103BF000002300E0DB1E012404FA06F19C40491E6C
:103C00002940641E994014402143F0BC07F09FB83E
:103C10000CED00E0064900F0070210B54FF6FF0476
:103C20000868044B204040EA02201843086010BD99
:103C30000CED00E00000FA05134970B50A68D243A4
:103C4000520705D5096801F00701814213D118E038
:103C50000A6822F0070202430A60FFF72FFF0A4DAD
:103C60004FF47A760446083D07E000BFFFF726FFD1
:103C7000001BB04201D9012070BD2868C0438004F8
:103C8000F4D4002070BD00000C4802582DE9F84F14
:103C900017468B460446FFF711FF824694F8400012
:103CA00001280ED001264FF0000884F8406094F8F7
:103CB0004100012807D0022584F840802846BDE84D
:103CC000F88F0220FBE74FF00209C4F8448084F823
:103CD00041900022202153462046009704F06CFBBF
:103CE0000500E9D100225946204604F050FADBF8DD
:103CF000240058B90122534602212046009704F0BF
:103D00005BFB0500D8D12168C1F80C9084F84160B4
:103D1000D2E70000F8B50446FFF7D0FE05461CB117
:103D200094F8410010B107E00120F8BD204600F0F2
:103D300047F841F28830A06420686FF0FF02A16864
:103D4000036802EB012223F4F85111430160A06CD7
:103D5000002220212B460090204604F02DFB002855
:103D6000E3D12268D4E907352679E168176845EA86
:103D70000665DFF844C01943104B2943002501268E
:103D800007EA0C07394311602268D4E90517B4F833
:103D900010C0D2F804E039430EEA030E4EEA0C4399
:103DA0001943516021680A6842F001020A606564A3
:103DB00084F84160F8BD00002FFFFF00FEF8E0FF2F
:103DC0002DE9F043B7B00446142130A8FCF75DFD9F
:103DD000C0216846FCF759FD36492068884265D104
:103DE000002013904FF000710446CDE900106846A2
:103DF00000F084FC08B1FDF757FB2F48016841F43F
:103E000080410160006800F4804035902A480C3001
:103E1000016841F010010160016801F01001359165
:103E2000016841F002010160016801F00201359171
:103E3000016841F008010160006809274FF004089B
:103E4000CDF8C08000F00800022503263396CDE9A6
:103E500034701A4830A9CDE93154FFF701FDCDE99E
:103E60003085DFF85C804FF00109CDF8C89030A9AB
:103E7000CDE933674046FFF7F3FC4FF4605032AAB8
:103E8000CDE930050F4830A982E8D000FFF7E8FC03
:103E900030A840210A2280E82202CDE9336230A90D
:103EA0004046FFF7DDFC1020FFF70EFE37B0BDE8FF
:103EB000F083000000500052D44402580010025811
:103EC00000040258000C02582DE9F84F15460E4622
:103ED0000446FFF7F3FD82462068816994F840307C
:103EE00000F12009012B0DD001274FF0000884F8C4
:103EF000407094F84120012A06D0022084F84080C6
:103F0000BDE8F88F0220FBE7C4F84480A6B3222264
:103F100084F841200269521CA2630269521C626348
:103F20002663426922F0406242F08062426120686A
:103F300081610EE00621204604F03EFAC8B999F8E6
:103F40000000216B0870206B401C2063A06B401E9A
:103F5000A063A06B53464FF0010200950028E9D101
:103F60004FF00201204604F027FA10B9226802211E
:103F7000D16084F84170C1E7FFE7616C012041F036
:103F800008016164BAE700002DE9F84F15460E46B6
:103F90000446FFF793FD94F84010824620680129FB
:103FA00000F120090ED001274FF0000884F840707E
:103FB00094F84110012907D05FF0020084F8408096
:103FC000BDE8F88F0220FBE7C4F8448086B31221D5
:103FD00084F841100169491CE1620169491CA16230
:103FE0006662416921F0406141610EE00421204692
:103FF00004F0E2F9C8B9606A017889F80010606AD3
:10400000401C6062E06A401EE062E06A53464FF086
:10401000010200950028E9D14FF00201204604F08A
:10402000CBF910B922680221D16084F84170C5E74C
:10403000FFE7616C012041F008016164BEE7000008
:1040400010B501F05FF905490968054AC1F302118D
:10405000515C01F01F01C84010BD0000204402580F
:10406000344A01084A4930B5494C0B1D0A680C34E2
:1040700009681D68246802F0030305F00102C1F31A
:104080000511C4F3CC04002914FB02F200EE102A3F
:10409000F8EE400A76D0414A9FED3E1ADFED3E1A17
:1040A000B7EE000A23B1012B5AD0022B18D15CE0E5
:1040B000374C283C23689B0612D5394B246801EE07
:1040C000901A1168C4F3C104F8EE612AE34001EECE
:1040D000903AC1F30801F8EE611A81EEA22A07E0D6
:1040E00002EE101A1168F8EE422A81EEA22A45E08B
:1040F00001EE901A1168F8EE611A40EE811A71EE25
:10410000800A62EE200AC1F3462101EE101AB8EED1
:10411000411A31EE001AC0EE811ABCEEE11A80EDB0
:10412000001A1168C1F3064101EE101AB8EE411AE7
:1041300031EE001AC0EE811ABCEEE11A80ED011AD0
:104140001168C1F3066101EE101AB8EE411A31EEA2
:10415000000A80EE801ABCEEC10A80ED020A30BD72
:1041600001EE901ADFED0F2A03E001EE901ADFED69
:104170000E2A1168F8EE611A82EEA12AC1F3080135
:10418000B6E7FFE7002101604160816030BD0000BB
:1041900028440258000000390024744C304402586E
:1041A0000090D0030024744A20BCBE4B494930B56E
:1041B000484C0B1D0A68143409681D68246802F015
:1041C0000303C5F30012C1F30531C4F3CC04002985
:1041D00014FB02F200EE102AF8EE400A75D03F4AB6
:1041E0009FED3D1AB7EE000A6BB1DFED3D1A012BD2
:1041F00001D0022B64D002EE101A1168F8EE422AA8
:1042000081EEA22A21E0334C283C23689B0612D57C
:10421000344B246801EE901A1168C4F3C104F8EE1F
:10422000612AE34001EE903AC1F30801F8EE611A09
:1042300081EEA22A0BE001EE901ADFED2B2A00BFDF
:10424000F8EE611A116882EEA12AC1F3080101EEAD
:10425000901A1168F8EE611A40EE811A71EE800A28
:1042600062EE200AC1F3462101EE101AB8EE411A9F
:1042700031EE001AC0EE811ABCEEE11A80ED001A90
:104280001168C1F3064101EE101AB8EE411A31EE81
:10429000001AC0EE811ABCEEE11A80ED011A116815
:1042A000C1F3066101EE101AB8EE411A31EE000AB0
:1042B00080EE801ABCEEC10A80ED020A30BD04E037
:1042C00001EE901ADFED092ABAE700210160416092
:1042D0008160F3E72844025800000039384402584E
:1042E0000024744A0090D0030024744C20BCBE4BC0
:1042F000494930B5484C0B1D0A681C3409681D68D3
:10430000246802F00303C5F30022C1F30551C4F38E
:10431000CC04002914FB02F200EE102AF8EE400A49
:1043200075D03F4A9FED3D1AB7EE000A6BB1DFED45
:104330003D1A012B01D0022B64D002EE101A116835
:10434000F8EE422A81EEA22A21E0334C283C236871
:104350009B0612D5344B246801EE901A1168C4F301
:10436000C104F8EE612AE34001EE903AC1F308017E
:10437000F8EE611A81EEA22A0BE001EE901ADFED51
:104380002B2A00BFF8EE611A116882EEA12AC1F350
:10439000080101EE901A1168F8EE611A40EE811AD8
:1043A00071EE800A62EE200AC1F3462101EE101A76
:1043B000B8EE411A31EE001AC0EE811ABCEEE11AD5
:1043C00080ED001A1168C1F3064101EE101AB8EE33
:1043D000411A31EE001AC0EE811ABCEEE11A80EDEE
:1043E000011A1168C1F3066101EE101AB8EE411A04
:1043F00031EE000A80EE801ABCEEC10A80ED020A9E
:1044000030BD04E001EE901ADFED092ABAE7002181
:10441000016041608160F3E72844025800000039E0
:10442000404402580024744A0090D0030024744C85
:1044300020BCBE4B2DE9F04FAC4A0546DFF8A8A2E0
:1044400080F48070DFF8AC9289B01311AA4C084355
:10445000A748AAF104064FF0805C4FF000582CD01A
:1044600085F400770F4357D0DFF87CB285F480677E
:104470000F430BF1080B61D085F400670F4374D034
:1044800085F480570F436ED085F400570F434FF4E7
:1044900080394FF4003E67D085F400270F4371D078
:1044A00085F480370F436ED085F480460E436BD081
:1044B00085F400420A4368D02AE0DAF8001001F0DF
:1044C0000701052924D2DFE801F075BC7D25B10084
:1044D00006A8FFF7C7FD079809B0BDE8F08F68464A
:1044E000FFF764FE0098F7E703A8FFF701FF0398C2
:1044F000F2E72068C0F3C10022FA00F0ECE722687E
:10450000D20571D561456FD11846E5E74145E3D045
:104510000020E1E74846DFE7DAF8001001F4E07137
:1045200080294FD004DC002944D04029F0D188E014
:10453000C029EFD0B1F5807FEAD177E0DBF8001039
:1045400001F46001B1F5800F3CD004DC91B3B1F50A
:10455000001FDDD175E0B1F5C00FDBD0B1F5000F64
:10456000D6D163E001E018E030E0DBF8001001F0A4
:10457000E061B1F1007F25D008DCD9B1B1F1807FD5
:10458000C6D15EE049E06CE079E09CE0B1F1407FAB
:10459000C0D0B1F1806FBBD148E0DAF8001001F46F
:1045A000E041B1F5005F0DD005DC19B1B1F5805FD8
:1045B000AED146E094E0B1F5405FABD0B1F5804FAD
:1045C000A6D133E020688000A2D58DE7DAF800108C
:1045D00001F4E021B1F5403F6CD006DC61B1494502
:1045E0007AD0714594D157E037E0B1F5802F65D08E
:1045F000B1F5A02F8CD10CE000F0A6FE6CE7684668
:10460000FFF7D4FD019867E703A8FFF771FE049850
:1046100062E721688903F1D47AE7DBF8001011F42E
:1046200040310ED0494510D07145F5D1316825682B
:1046300001F040516D077FF562AF00297FF45FAF55
:1046400057E720680001E7D549E720688000E3D5F7
:1046500003A8FFF74DFE05983EE722689203DBD5DD
:1046600054E7306810F480303AD04845D4D12068FF
:104670000001D1D56846FFF799FD02982CE7DBF8D9
:10468000001001F0E041B1F1405F13D008DC71B1DE
:10469000614521D04145BFD120688000B4D437E7BF
:1046A000B1F1804F0AD0B1F1A04FB2D030E7FFF79F
:1046B000C7FC11E720684007AED51AE72068C0059F
:1046C000AAD521E708E0DAF8001011F04051A0D097
:1046D000614505D041459FD1206800018FD417E77F
:1046E0002068800198D5F3E6504402580090D0032A
:1046F00040787D010080BB00004402582DE9FE4F48
:104700000546DFF8E48350F8081B0024F64FC94340
:10471000019005F12800264608F1240800900801C0
:104720001DD4A86E50B1B0F5801F0CD0B0F5001F9D
:104730000ED0B0F5401F1ED001240FE0386840F4C1
:104740000030386017E00198022103F059FE03E0C1
:104750000098022103F0E4FE04000CD026462888CD
:10476000C043C00523D4A86D05281ED2DFE800F0A1
:104770000C11161B1B00AA6ED8F8001021F4401172
:104780001143C8F80010EAE7386840F40030386098
:1047900009E00198002103F033FE03E000980021B6
:1047A00003F0BEFE044674B100E0012426462888CA
:1047B000C043800528D4E86D80281ED00CDC90B161
:1047C00040280ED114E0AA6DD8F8001021F007019E
:1047D0001143C8F80010EAE7C02813D0B0F5807F75
:1047E00010D001240FE0386840F40030386009E050
:1047F0000198002103F004FE03E00098002103F07B
:104800008FFE04469CB126462888DFF8DC92C04320
:1048100009F12C0940052CD4D5F8A800B0F5800F7B
:1048200020D00DDCA0B1B0F5001F0FD115E0EA6D6E
:10483000D8F8001021F4E0711143C8F80010E3E744
:10484000B0F5C00F13D0B0F5000F10D001240FE069
:10485000386840F40030386009E00198002103F026
:10486000CFFD03E00098002103F05AFE04467CB11E
:1048700026462888C04300052DD4D5F8AC00B0F1F9
:10488000007F21D00EDCA8B1B0F1807F10D116E0FE
:10489000D5F8A820D9F8001021F460011143C9F817
:1048A0000010E6E7B0F1407F13D0B0F1806F10D078
:1048B00001240FE0386840F40030386009E00198C6
:1048C000002103F09DFD03E00098002103F028FE85
:1048D000044674B126462868C04380011FD4E86CA2
:1048E000D8B110280FD0202812D0302815D001249C
:1048F00014E0D5F8AC20D9F8001021F0E0611143A4
:10490000C9F80010E7E7386840F40030386004E088
:104910000198022103F074FD044674B126462888EC
:10492000C043C0042BD4286EB0F5005F20D00DDC4E
:10493000A0B1B0F5805F0FD115E06B48EA6C203074
:10494000016821F0300111430160E8E7B0F5405FF4
:1049500013D0B0F5804F10D001240FE0386840F438
:104960000030386009E00198002103F049FD03E0C0
:104970000098002103F0D4FD04468CB12646288817
:10498000C043800429D4686EB0F5403F23D010DCCA
:1049900008B3B0F5803F14D0B0F5003F0FD115E05B
:1049A0002A6ED8F8001021F4E0411143C8F8001035
:1049B000E5E7B0F5802F0ED0B0F5A02F0BD0012485
:1049C0000AE00198012103F01BFD03E0009801219A
:1049D00003F0A6FD044694B126462888C04340044F
:1049E0002AD4D5F8B000B0F1405F23D010DC08B372
:1049F000B0F1805F14D0B0F1005F0FD115E06A6EA6
:104A0000D8F8001021F4E0211143C8F80010E4E7C1
:104A1000B0F1804F0ED0B0F1A04F0BD001240AE0CE
:104A20000198012103F0ECFC03E00098012103F060
:104A300077FD044674B126462888C04300041FD47D
:104A4000286FD8B1B0F1805F0ED0B0F1005F10D008
:104A5000012414E0D5F8B020D9F8001021F0E0418D
:104A60001143C9F80010E7E7386840F400303860B7
:104A700004E00198012103F0C3FC044674B126460A
:104A80002868C043C0011ED4A86CD0B101280ED044
:104A9000022811D0032814D0012413E02A6FD8F87B
:104AA000001021F040511143C8F80010E8E73868C1
:104AB00040F40030386004E00198022103F0A0FCCB
:104AC0000446ACB126462868DFF81CB0C043ABF101
:104AD0001C0B400252D40548016841F4807101600A
:104AE000FEF7ECFF824611E02C44025800480258C1
:104AF000FA48AA6C016821F0030111430160E2E762
:104B0000FEF7DCFFA0EB0A00642835D8F448006803
:104B1000C005F5D58CBBDFF8C4A3B5F8B4100AF115
:104B2000240ADAF8000001F4407100F44070884271
:104B300011D0DAF80010DAF8002021F4407142F4C4
:104B40008032CAF80020DAF8002022F48032CAF855
:104B50000020CAF80010D5F8B400B0F5807F1AD153
:104B6000FEF7ACFF029012E0FEF7A8FF0299411A8F
:104B700041F2883081420AD9032426462878DFF89A
:104B80005CA3C0430AF1080AC00721D03CE0DAF870
:104B900000008007E8D5D5F8B410C1F30120032840
:104BA00058460DD0016821F47C510160B5F8B4205D
:104BB000DAF80010C2F30B021143CAF80010DDE767
:104BC000C84A036802EA111223F47C511143ECE74E
:104BD000E86F182816D005DCA0B1082808D01028E6
:104BE00004D10AE020280DD028280BD001240AE0A7
:104BF0000198012103F004FC03E00098012103F077
:104C00008FFC044664B126462878C04380071ED432
:104C1000A86F062819D2DFE800F0160C1116161638
:104C2000EA6FDAF8001021F038011143CAF80010D9
:104C3000EAE70198012103F0E3FB03E0009801217A
:104C400003F06EFC04467CB100E00124264628787F
:104C5000C04340071FD4D5F89400062819D2DFE8D6
:104C600000F0160C11161616AA6FDAF8001021F0D3
:104C700007011143CAF80010E9E70198012103F088
:104C8000BFFB03E00098012103F04AFC0446A4B1F5
:104C900000E0012426462878C04380062BD4D5F8AE
:104CA0009000B0F1405F24D011DC10B3B0F1805F10
:104CB00015D0B0F1005F10D116E0D5F89420D9F8E6
:104CC000001021F007011143C9F80010E3E7B0F12B
:104CD000804F0ED0B0F1A04F0BD001240AE0019814
:104CE000002103F08DFB03E00098022103F018FC83
:104CF000044694B126462878C04340062BD4D5F804
:104D00009C00B0F5406F24D011DC10B3B0F5806F7B
:104D100015D0B0F5006F10D116E0D5F89020DAF874
:104D2000001021F0E0411143CAF80010E3E7B0F5AC
:104D3000805F0ED0B0F5A05F0BD001240AE001988F
:104D4000002103F05DFB03E00098022103F0E8FB83
:104D5000044694B126462878C04300062BD4D5F8E3
:104D6000A000B0F5C04F24D011DC10B3B0F5005F47
:104D700015D0B0F5804F10D116E0D5F89C20D9F8A9
:104D8000001021F4E0511143C9F80010E3E7B0F539
:104D9000004F0ED0B0F5204F0BD001240AE001984F
:104DA000002103F02DFB03E00098022103F0B8FB83
:104DB000044654B126462878C04300071ED4D5F8CF
:104DC0008400B0F5805F0AD00FE0D5F8A020D9F8B4
:104DD000001021F460411143C9F80010EBE700987E
:104DE000022103F09DFB00B10126D5F88420DAF8FA
:104DF000001021F440511143CAF800102878C04334
:104E0000C00613D4D5F89800B0F5807F05D100987E
:104E1000022103F085FB00B10126D5F89820D9F8CE
:104E2000001021F440711143C9F800102868C043F4
:104E3000000316D4D5F8A40038B1B0F5803F09D0EE
:104E4000B0F5003F0BD001240AE00198002103F0E7
:104E5000D7FA03E00098022103F062FB04468CB10C
:104E600026462868C043400322D4D5F88800B0F510
:104E7000801F11D0B0F5001F13D0B0F5401F15D022
:104E8000012414E0D5F8A420D9F8001021F4403111
:104E90001143C9F80010E4E7386840F40030386086
:104EA00004E00098012103F03BFB04465CB1264678
:104EB0002868C043C00323D4286DA8B1B0F5803F53
:104EC00017D001241BE0D5F88820DAF8001021F46F
:104ED00040111143CAF80010EAE700004C440258A0
:104EE00000480258CFFFFF00386840F400303860B7
:104EF00004E00198022103F083FA0446E4B1264657
:104F00002868C043800005D40098022103F008FB04
:104F100000B101262868C04380031BD4D5F8800067
:104F2000B0B1B0F5807F0FD0B0F5007F10D0B0F5F4
:104F3000407F0DD001240CE05A482A6D016821F40D
:104F4000803111430160DBE7386840F4003038609D
:104F5000ECB326462868C043C00207D46A6FD8F86D
:104F6000001021F000411143C8F800102868C04328
:104F7000C00008D4D5F8B820DBF8001021F4804137
:104F80001143CBF800102868C043800207D4EA6EB2
:104F9000D8F8001021F080711143C8F8001028687B
:104FA000C04340000CD4DBF8001021F40041CBF8E2
:104FB0000010DBF80010D5F8BC201143CBF800102E
:104FC0002868C04308D437486A6D016800E018E0DB
:104FD00021F04051114301602868C043000208D409
:104FE000D5F88C20DAF8001021F440011143CAF8FA
:104FF000001028790024C04300F0010020430AD0AB
:105000000FE0D5F88020DAF8001021F44071114348
:10501000CAF800109EE70198002103F0F1F900B1F1
:1050200006462879C04300F00200204305D10198CC
:10503000012103F0E5F900B106462879C04300F0EC
:105040000400204305D10198022103F0D9F900B1F1
:1050500006462879C04300F00800204305D1009897
:10506000002103F05DFA00B106462879C04300F044
:105070001000204305D10098012103F051FA00B13E
:1050800006462879C04300F02000044304D100986C
:10509000022103F045FA00B916B10120BDE8FE8FE8
:1050A0000020FBE74C4402582DE9F05F04000F4656
:1050B0007ED0DFF83882D8F8000000F00F00B84248
:1050C0000CD2D8F8001021F00F013943C8F80010B5
:1050D000D8F8000000F00F00B84269D12078844D64
:1050E00040070AD52069296801F07001884204D977
:1050F000296821F070010143296020787C4E361D1B
:1051000000070AD56069316801F07001884204D94E
:10511000316821F07001014331602078C0060AD562
:10512000A069316801F4E061884204D9316821F452
:10513000E061014331602078DFF8B4B180060BF103
:10514000080B0CD5E1695846DBF8002002F070022C
:10515000914204D9026822F070020A43026020786A
:1051600080070AD5E068296801F00F01884204D958
:10517000296821F00F01014329602078C0073ED043
:105180005B49A2682868183920F4706010432860D1
:105190006068022818D0032819D00968012819D09E
:1051A000490700294ADADFF848A1AAF1080A00E015
:1051B00044E0DAF8002022F007020243CAF8002097
:1051C000FEF77CFC814612E009688903E9E709687B
:1051D0008901E6E7C905E4E7FEF770FCA0EB0901E9
:1051E00041F28830814202D90320BDE8F09F616816
:1051F000DAF8000000F03800B0EBC10FECD12078F5
:1052000080070AD5E068296801F00F01884204D2BE
:10521000296821F00F0101432960D8F800104046A9
:1052200001F00F01B9420BD9016821F00F01394398
:105230000160006800F00F00B84201D00120D4E7FF
:10524000207840070AD52069296801F0700188425A
:1052500004D2296821F070010143296020780007F9
:105260000AD56069316801F07001884204D2316862
:1052700021F07001014331602078C0060AD5A06991
:10528000316801F4E061884204D2316821F4E061C0
:1052900001433160207880060CD5E1695846DBF87F
:1052A000002002F07002914204D2026822F07002E3
:1052B0000A43026000F06CF80E492A682B68C2F3BA
:1052C000032203F00F038A5CC95C02F01F0201F0A5
:1052D0001F01D040084A20FA01F111600749086017
:1052E00007480068BDE8F05FFEF738BC00200052B8
:1052F00018440258344A0108840000248000002425
:105300007800002430B500F043F80B4A0B490C4BF1
:1053100015681468C5F3032204F00F048A5C095D64
:1053200002F01F0201F01F01D040064A20FA01F1ED
:1053300019601060084630BD18440258344A01080C
:10534000840000248000002400B5FFF7DBFF05493E
:105350000968054AC1F30211515C01F01F01C84000
:1053600000BD00001C440258344A010800B5FFF794
:10537000C9FF05490968054AC1F30221515C01F0E2
:105380001F01C84000BD00001C440258344A0108F7
:10539000454970B545480968434B103B11F0380248
:1053A00008D00111082A03D0102A0BD0182A0BD0DC
:1053B000084670BD19688906FBD51968C1F3C1019B
:1053C000C84070BD3A4870BD3749374D18310C1D83
:1053D00024350A68096826682D6802F0030406F07F
:1053E0000102C1F30511C5F3CC0515FB02F200EE75
:1053F000102AB8EE400AE9B32F4ADFED2E0AB7EEC5
:10540000001A6CB1DFED2D1A012C01D0022C43D013
:1054100002EE101A1068F8EE422A81EEA22A1EE06F
:105420001C68A40611D51B6801EE901A1168C3F31D
:10543000C103F8EE612AD84001EE900AC1F30800DA
:10544000F8EE611A81EEA22A0BE001EE901ADFED70
:105450001C2A00BFF8EE611A106882EEA12AC0F380
:10546000080001EE900AF8EE611A40EE201A31EEC3
:10547000810A00E015E022EE000A1068C0F3462021
:10548000401C00EE900AF8EE600A80EE201ABCEE96
:10549000C10A10EE100A70BD01EE901ADFED092A64
:1054A000D8E7002070BD0000104402580090D003DF
:1054B00040787D0100000039304402580024744ACD
:1054C0000024744C20BCBE4B2DE9F05F04007DD05D
:1054D000FF4F2078FE4D1837DFF8F493103DC007DA
:1054E00048D0D9F80000396800F03800102815D0ED
:1054F000182803D101F0030002280FD06068B0F52E
:10550000803F12D010B1B0F5A02F18D0286820F439
:1055100080302860286820F4802009E02868800313
:1055200028D560680028D2D024E0286840F4803074
:105530002860606888B1FEF7C1FA064609E028686D
:1055400040F480202860F0E7FEF7B8FA801B64285A
:105550006FD828688003F7D50CE0FEF7AFFA06464F
:1055600005E000BFFEF7AAFA801B6428F0D828687F
:105570008003F7D4207841F20308D54E0C3E800713
:1055800069D5D9F80000396810F038000ED0182815
:1055900001D188070AD0E06890B3296821F0190189
:1055A00001432960FEF78AFA824631E02868400705
:1055B00002D5E06800288AD0E168286820F0190048
:1055C00008432860FEF77AFA824607E0DFE000BF72
:1055D000FEF774FAA0EB0A000228B9D82868400741
:1055E000F6D500BFFEF764FA40451BD82069402875
:1055F00012D0316821F47C3141EA003030602AE079
:1056000018E000BFFEF75AFAA0EB0A0002289FD864
:1056100028684007F6D5E5E7306820F47C3040F490
:105620000030EBE7207C316821F0FE4141EA006068
:10563000E4E70DE1286820F001002860FEF73EFA5B
:10564000824605E0FEF73AFAA0EB0A0002288DD860
:1056500028684007F6D42078C0065DD5D9F8000048
:10566000DFF86CB2396800F03800ABF1040B0828A1
:1056700010D0182803D101F0030001280AD0E069F6
:105680000028286838D040F080002860FEF716FA1D
:10569000824623E02868C00523D5E069802876D1BA
:1056A0001FE0206A202821D0316821F0F84141EA2A
:1056B0008060306030E000BF94F82010DBF80020FC
:1056C00022F07C5242EA0161CBF8001024E000BFD6
:1056D000FEF7F4F9A0EB0A00022898D82868C00564
:1056E000F6D5FEF7E5F94045E6D8DAE7306820F070
:1056F000F84040F08040DCE720F080002860FEF7B2
:10570000DDF9064605E000BFFEF7D8F9801B022848
:105710009DD82868C005F7D42078000729D56C48A3
:105720006169643000298046016811D041F00101AF
:105730000160FEF7C3F9064605E000BFFEF7BEF9BB
:10574000801B0228C9D8D8F800008007F6D510E0E1
:1057500021F001010160FEF7B1F9064605E000BF46
:10576000FEF7ACF9801B022872D8D8F80000800739
:10577000F6D42078800623D5A0690028286810D0A8
:1057800040F480502860FEF799F9064605E036E1BE
:10579000FEF794F9801B02285AD828688004F7D5B0
:1057A0000EE020F480502860FEF788F9064604E0F9
:1057B000FEF784F9801B02284AD828688004F7D4B1
:1057C000207840074FD5DFF80C81D8F8001041F45D
:1057D0008071C8F80010FEF771F9064605E000BFB9
:1057E000FEF76CF9801B642832D8D8F80000C00599
:1057F000F6D5374EA068603601280AD008B10528D2
:1058000013D0306820F001003060306820F00400D0
:1058100002E0306840F001003060A06841F2883A50
:1058200090B1FEF74BF980460AE0306840F0040082
:105830003060EEE7FEF742F9A0EB0801514507D8CA
:1058400030688007F6D50EE0FEF738F9804607E0AD
:1058500084E000BFFEF732F9A0EB080151457DD886
:1058600030688007F6D4606AB0B3DFF86480D9F896
:10587000001008F120084FF6F87B08F10409C1F385
:10588000C2010329A8F1040A69D00228286820F07F
:105890008070286003D0FEF711F9044684E0FEF71B
:1058A0000DF9064605E000BFFEF708F9801B022847
:1058B00077D828688001F7D4E26A40F2F33138687B
:1058C00054F8283F884340EA02101843386004E047
:1058D0001044025800480258B5E0217B4346228913
:1058E0004FF4FE0C208A4FF0FE474902267D521EDF
:1058F000401EA1F50071C2F308088AB2761E0CEAB8
:10590000004042EA08020243504607EA06610A43A1
:105910001A60DAF8002022F00102CAF80020D9F853
:105920000020266A22EA0B0242EAC602C9F80020D9
:10593000DAF80010A26921F00C011143CAF8001036
:105940000168E26921F0020111430160016841F43C
:1059500080310160016841F4003101E021E027E07D
:105960000160016841F480210160016841F001019A
:105970000160286840F080702860FEF79FF80446B8
:1059800005E000BFFEF79AF8001B022809D8286836
:105990008001F7D557E000BFFEF790F8001B022802
:1059A00002D90320BDE8F09F28688001F4D44AE0C2
:1059B00039680128D8F8000021D0A26A01F0030359
:1059C00093421CD1E26AC1F305118A4217D1216BBF
:1059D000C0F30802491E8A4211D1616BC0F346220E
:1059E000491E91420BD1A16BC0F30642491E914260
:1059F00005D1E16BC0F30660491E814201D0012050
:105A0000D0E7A16C4E46D9F80000C0F3CC0081422B
:105A100019D0DAF80000554620F00100CAF800005D
:105A2000FEF74CF84FEA0007FEF748F8B842FBD003
:105A3000A26C306820EA0B0040EAC200306028689F
:105A400040F0010028600020ACE700002DE9F041A3
:105A500004001D4616460F4603D0D4F8880018B13E
:105A600008E00120BDE8F081002084F88400204691
:105A700001F002F82420C4F888002068016821F0B1
:105A800001010160204604F09BFD0128EAD0A06AD4
:105A900010B1204604F0E4F9206871050D4A41EA8E
:105AA0000541836843F4804383602068836823F45E
:105AB00000433B4383602068036813400B4303604B
:105AC0002068016841F0010101602046BDE8F04115
:105AD00004F02ABAFFFF00FC704770477047704718
