:020000040800F2
:10000000A817002455030008E99B0008BF8E0008CC
:10001000E59B00080D090008E9D800080000000071
:10002000000000000000000000000000C1C2000845
:100030006D13000800000000FDA20008FDC40008C8
:100040006F0300086F0300086F0300086F030008C8
:100050006F0300086F0300086F0300086F030008B8
:100060006F0300086F0300086F030008E50C000829
:10007000F50C0008050D00086F0300086F03000869
:100080006F0300086F0300086F0300086F03000888
:100090006F0300086F0300086F0300086F03000878
:1000A0006F0300086F0300086F0300086F03000868
:1000B0006F0300086F0300086F0300086F03000858
:1000C0006F0300086F0300086F0300086F03000848
:1000D0006F0300086F0300086F0300086F03000838
:1000E0006F0300086F030008000000006F030008A2
:1000F0006F0300086F0300086F0300086F03000818
:100100006F0300082DAD00086F0300086F0300089F
:100110006F0300086F0300086F0300086F030008F7
:100120006F0300086F0300086F0300086F030008E7
:100130006F0300086F0300086F0300086F030008D7
:1001400000000000000000000000000000000000AF
:100150006F0300086F0300086F0300086F030008B7
:100160006F0300086F0300086F0300086F030008A7
:100170006F0300086F030008D50C00086F03000828
:100180006F0300086F0300086F0300086F03000887
:100190006F0300086F0300086F0300086F03000877
:1001A0006F0300086F0300086F0300086F03000867
:1001B0006F0300086F0300086F0300086F03000857
:1001C0006F0300086F0300086F0300086F03000847
:1001D0006F0300086F0300086F0300086F03000837
:1001E0006F0300086F0300086F0300086F03000827
:1001F0006F0300086F0300086F0300086F03000817
:100200006F0300086F0300086F0300086F03000806
:100210006F0300086F0300086F0300086F030008F6
:100220006F0300086F0300086F0300080000000060
:100230006F0300086F030008000000006F03000850
:100240006F0300086F0300086F0300086F030008C6
:100250006F0300086F0300086F0300086F030008B6
:100260006F0300086F0300086F0300086F030008A6
:100270006F0300086F0300086F0300080000000010
:100280006F0300086F0300086F0300080000000000
:10029000000000006F03000800F002F800F04AF8C8
:1002A0000AA090E8000C82448344AAF10107DA45D1
:1002B00001D100F03FF8AFF2090EBAE80F0013F0D9
:1002C000010F18BFFB1A43F0010318473415010052
:1002D00054150100103A24BF78C878C1FAD85207E3
:1002E00024BF30C830C144BF04680C6070470000B0
:1002F0000023002400250026103A28BF78C1FBD82F
:10030000520728BF30C148BF0B607047642900F016
:100310001D81752900F01A81782900F05381732915
:1003200000F0B582002070471FB50DF009FE1FBD1B
:1003300010B510BD00F0B5FA1146FFF7F5FF0DF04E
:10034000FDFB00F0D3FA03B4FFF7F2FF03BC00F0AB
:10035000D7FA00000948804709480047FEE7FEE752
:10036000FEE7FEE7FEE7FEE7FEE7FEE7FEE7FEE765
:1003700004480549054A064B704700003DC6000881
:1003800099020008A8070024A8170024A80F002439
:10039000A80F002453EA020C00F069802DE9F04B0D
:1003A0004FF00006002B1FBFB3FA83F503FA05F4E4
:1003B00024FA05F65E4012BF1643B2FA82F502FA3D
:1003C00005F4C5F120051EBF22FA05FC44EA0C0421
:1003D000203556EA044C4FEA144418BF641C4FF011
:1003E00000084FF00009904271EB030C39D300294B
:1003F00019BFB1FA81F701FA07F6B0FA80F700FAEF
:1004000007F6C7F120071EBF20FA07FC46EA0C06D4
:100410002037B6FBF4FCA7EB0507103F07F01F0BD6
:10042000CBF120060CFA0BFB2CFA06F644BFB346C0
:100430000026202FA4BF5E464FF0000B5BEA060C9F
:1004400008BF4FF0010B19EB0B09ABFB027C48EB2B
:100450000608C01B06FB02CC0BFB03CC71EB0C01A6
:10046000C1E70B46024641464846BDE8F08B13B54E
:100470004FF000004FF00001AFF30080BDE81C40DA
:10048000704700000FB41CB5074B06AA7B446946B1
:100490000090059800F0D1F90020694600F0E0F9DD
:1004A0001CBC5DF814FB0000D103000070B50446CD
:1004B00085690068C10601D5302600E02026C00706
:1004C00007D070BDD4E9012130469047206A401C16
:1004D00020626D1EF6D570BD70B504468569007842
:1004E000C00707D170BDD4E9012120209047206AC0
:1004F000401C20626D1EF6D570BD70B50C460546D9
:10050000012A05D02878800600D5EA69002302E098
:10051000012305E05B1C934202D2E05C0028F9D184
:10052000A869E618C01AA861286A184428622846F3
:10053000FFF7BCFF04E0D5E9012114F8010B904757
:10054000B442F8D32846FFF7C7FF70BD2DE9F0414C
:100550000646002410687529314616A510D0AFF361
:100560000080002802DA404213A507E031688A07BC
:1005700001D512A502E0490704D511A5012401E027
:10058000AFF3008000210A2206F1240709E0B0FB46
:10059000F2FCB0FBF2F302FB1C003030785418463A
:1005A000491C0028F3D123462A463046BDE8F041D5
:1005B00000F0E5B8000000002D0000002B00000056
:1005C0002000000070B504460D4621461068AFF3C8
:1005D00000802188090502D50F4A7A4402E00E4ABC
:1005E0007A440E32002104F1240305E000F00F06E6
:1005F0000009965D5E54491C0028F7D1207800233D
:10060000000704D5702D02D009B102231132204613
:10061000BDE8704000F0B3B8641101002DE9F04767
:100620004FF0000A89460446C0F820A02046E16841
:100630008847002876D0252806D0D4E901219047A4
:10064000206A401C2062F1E7E168204600258847C7
:10065000C4F81CA006460027C4F818A02A2E09D00A
:1006600030460DF063FA38B304EB8708303EC8F823
:10067000186019E059F8041B204604EB87029161C9
:10068000E1688847012F064618D1E069002820DA82
:1006900025F020051DE0D8F8180000EB800006EBDF
:1006A00040003038C8F818002046E1688847064600
:1006B0000DF03CFA0028EED1012F0AD02E2E08D1E1
:1006C0002046E16888477F1C0646022F45F020053A
:1006D000C4DBA069002803DA404245F00105A061AF
:1006E000E80701D025F01005B6B1A6F141001928A0
:1006F00002D8203645F400654A463146204625603A
:100700004D46FFF703FE58B1012806D0ED1D25F038
:10071000070000F1080989E704E005F1040985E70D
:1007200030468AE7206ABDE8F0874FF0000200B546
:10073000134694469646203922BFA0E80C50A0E804
:100740000C50B1F12001BFF4F7AF090728BFA0E8B2
:100750000C5048BF0CC05DF804EB890028BF40F87E
:10076000042B08BF704748BF20F8022B11F0804FC0
:1007700018BF00F8012B70477047704770472DE98C
:10078000F0470D4699469246044600F12408016858
:10079000880604D5E06921F01001216000E0012005
:1007A000A84201DD471B00E00027A1697A1902EB8E
:1007B0000900081AA0612078C00602D42046FFF77D
:1007C00075FE002608E0D4E901211AF806009047DA
:1007D000206A401C761C20624E45F4DB2078C0065F
:1007E0000AD52046FFF762FE06E0D4E90121302059
:1007F0009047206A401C2062381EA7F10107F4DCF4
:1008000007E0D4E9012118F805009047206A401C50
:100810002062281EA5F10105F3DC2046FFF75CFEEF
:100820002078000602D50220BDE8F0870120FBE712
:1008300001694A1C02610878704700B58FB0CDE9A4
:1008400001310021059105497944CDE90310114694
:100850006846FFF7E3FE0FB000BD0000E5FFFFFFB5
:100860000A6802F8010B0A60704710B5436913B1BA
:10087000AFF3008001E0FFF740FE012010BD1278C9
:1008800000F124010A7000224A700122EDE711688C
:100890004FF0FF32E9E700000048704748070024A6
:1008A00070477546FFF7F8FFAE46050069465346A8
:1008B00020F00700854618B020B5FFF759FDBDE8C8
:1008C00020404FF000064FF000074FF000084FF0B7
:1008D000000B21F00701AC46ACE8C009ACE8C00948
:1008E000ACE8C009ACE8C0098D46704710B50446B5
:1008F000AFF300802046BDE81040FFF724BD0000A4
:1009000001491820ABBEFEE72600020000BFFEE74B
:1009100000224FF4803105E00948406B00F0800070
:1009200000B103E0081EA1F10101F5D100BF09B932
:10093000032070470348024B98631046F9E7000014
:1009400000700052FF0FE01F024605E01348416BA4
:1009500001F0450000B100E0F8E700BF01F004003D
:1009600030B104200D4B98630D4898630320704705
:1009700001F0010018B10120084B9863F7E7074820
:100980000069904201D01020F1E70548034B9863BD
:100990001846406908231840C0B2E8E700700052CA
:1009A000FF0FE01F10B500204FF4803205E0134B1D
:1009B000596B01F0450303B103E0131EA2F10102DC
:1009C000F5D100BF12B101F004033BB103200B4B82
:1009D0009B6B43F00403094CA36310BD01F00103BA
:1009E00033B10120054B9B6B43F00103034CA36320
:1009F000034B024CA36300BFEFE7000000700052FE
:100A0000FF0FE01F05E00C48416B01F0450000B10D
:100A100000E0F8E700BF01F0040038B10648806B41
:100A200040F00400044A9063032070470348024AE0
:100A300090630020F9E7000000700052FF0FE01FF4
:100A400070B503460C46002505E02048426B02F0D5
:100A5000450000B100E0F8E700BF02F0040038B143
:100A60001A48806B40F00400184EB063032070BD3C
:100A700002F0010038B11548806B40F00100134EC0
:100A8000B0630120F3E711480069984201D01020BB
:100A9000EDE70F480D4EB0633046416901F4604008
:100AA00018B9080C20802846E1E701F4005008B18D
:100AB0001320DCE701F4804008B11020D7E701F4EF
:100AC000004008B10F20D2E72846D0E7007000525E
:100AD000FF0FE01F10B500204FF4803205E0114BEE
:100AE000596B01F0450303B103E0131EA2F10102AB
:100AF000F5D100BF12B101F004033BB10320094B53
:100B00009B6B43F00403074CA36310BD01F040034B
:100B100033B10020034B9B6B43F04003014CA363B4
:100B200000BFF2E7007000522DE9F04180460D460B
:100B300016461F46002419E004EB04100D4911F875
:100B40001000B04210D104EB041001EB40004078DB
:100B5000B84209D104EB04100A4602EB4000811CA4
:100B60002A46404600F036F8601C84B2382CE3DB9D
:100B7000BDE8F081880C01082DE9F04180460D4662
:100B800016461F4600241FE004EB840000EB4410CF
:100B90000F4911F81000B04214D104EB840000EBAF
:100BA000441001EB40004078B8420BD104EB8400C4
:100BB00000EB44100A4602EB4000811C2A464046E6
:100BC00000F008F8601C84B2092CDDDBBDE8F08180
:100BD0005E14010810B5002304E011F8014B00F881
:100BE000014B5B1C9342F8D310BD70B50546AC6B4E
:100BF000A06C406D022806D0012084F83500E06C1E
:100C000040F04000E064204600F0CEFF70BD70B5BB
:100C10000646B46BA06B68B3A06C0068006800F473
:100C20000025A06B00F0010078B975B1A06C0068D8
:100C3000C568E26B082303FB02510022A06C01F09F
:100C400071FAA06B401EA0632FE0A06C00680068E2
:100C500000F4002048BBA06C00680569E26B082323
:100C600003FB02510122A06C01F05CFAA06B401E54
:100C7000A0631AE0A06C0068006800F4002020B1B6
:100C8000D4E911010968C8600FE0A06C0068006831
:100C900000F4002048B9656CE06B042101FB0050B2
:100CA000A16C09680861206CA063A06B216C88426C
:100CB0000ED12068C06840F001002168C86020683B
:100CC000006800F00200022802D1012084F83500FB
:100CD00070BD000010B5024800F076FF10BD0000A6
:100CE0009C03002410B5024802F0A0FA10BD0000D9
:100CF0006404002410B5024802F098FA10BD000008
:100D0000EC03002410B5024802F090FA10BD000078
:100D1000C00600240146374A0868904249D0354A47
:100D200018320868904244D0324A30320868904203
:100D30003FD0304A4832086890423AD02D4A60325B
:100D40000868904235D02B4A78320868904230D0FB
:100D5000284A9032086890422BD0264AA832086868
:100D6000904226D0244A0868904222D0224A183263
:100D7000086890421DD0204A30320868904218D04E
:100D80001D4A48320868904213D01B4A60320868F6
:100D900090420ED0184A78320868904209D0164A1C
:100DA00090320868904204D0134AA83208689042F2
:100DB00001D1012000E00020B0B10A78103A1823D8
:100DC000B2FBF3F000F007020C4B9A5CCA650328F3
:100DD00005D90A686FF30902121D8A6503E00A68E3
:100DE0006FF309028A6503E0086820F0FF00886558
:100DF000886D7047100002401004024087F400081C
:100E000010B502682B4C0368A34222D0294C14343D
:100E10000368A3421DD0274C28340368A34218D08E
:100E2000244C3C340368A34213D0224C5034036852
:100E3000A3420ED01F4C64340368A34209D01D4C5A
:100E400078340368A34204D01A4C8C340368A3425C
:100E500001D1012300E000238BB10378083B142467
:100E6000B3FBF4F1144B03EB81030366124B8033A5
:100E7000436601F01F040123A340836618E0037852
:100E8000103B1824B3FBF4F10C4B9A4204D80B4BE3
:100E9000A83B9A4200D30831094B03EB8103036658
:100EA000074B8033436601F01F040123A340836690
:100EB00010BD00000854025800580258B8040240FF
:100EC000000802400179A9B3082940D8204B0268E4
:100ED0009A4222D01E4B143302689A421DD01C4BFA
:100EE000283302689A4218D0194B3C3302689A4260
:100EF00013D0174B503302689A420ED0144B643310
:100F000002689A4209D0124B783302689A4204D0A0
:100F10000F4B8C3302689A4201D1012200E000227B
:100F20004AB14A1E0B4B03EB8202C266094A4032A9
:100F3000026708E00BE04A1E074B03EB8202C26621
:100F4000054A403202674A1E0123934043677047B7
:100F50000854025800590258000902400146002076
:100F60008A69D2B98A6A32B1012A0DD0022A03D025
:100F7000032A10D10EE000BFCA6A02F08072B2F1FB
:100F8000807F00D1012007E0CA6AB2F1C07F00D1A2
:100F9000012001E000E000BF36E08A69B2F5005FA1
:100FA0001BD18A6A32B1012A07D0022A03D0032A50
:100FB00011D10AE000BF01200EE0CA6A02F080727F
:100FC000B2F1807F00D1012006E0CA6AB2F1C07F91
:100FD00000D1012000E000BF16E08A6A32B1012A88
:100FE00005D0022A04D0032A0CD103E000BF00BFC1
:100FF000012008E0CA6A02F08072B2F1807F00D15D
:10100000012000E000BF00BF7047000030B5384D40
:101010000468AC4249D0364D18350468AC4244D01F
:10102000334D30350468AC423FD0314D483504680B
:10103000AC423AD02E4D60350468AC4235D02C4DD0
:1010400078350468AC4230D0294D90350468AC4204
:101050002BD0274DA8350468AC4226D0254D046816
:10106000AC4222D0234D18350468AC421DD0214D2E
:1010700030350468AC4218D01E4D48350468AC4287
:1010800013D01C4D60350468AC420ED0194D783534
:101090000468AC4209D0174D90350468AC4204D0C6
:1010A000144DA8350468AC4201D1012400E00024AD
:1010B00074B1046863608468402C04D10468A26041
:1010C0000468E16012E00468A1600468E2600DE079
:1010D000046863608468402C04D10468A2600468DA
:1010E000E16003E00468A1600468E26030BD0000D4
:1010F0001000024010040240F0B5856D846D984FD9
:101100000668BE4270D0964F18370668BE426BD054
:10111000934F30370668BE4266D0914F4837066815
:10112000BE4261D08E4F60370668BE425CD08C4FA5
:1011300078370668BE4257D0894F90370668BE425E
:1011400052D0874FA8370668BE424DD0854F0668FB
:10115000BE4249D0834F18370668BE4244D0814F03
:1011600030370668BE423FD07E4F48370668BE42E1
:101170003AD07C4F60370668BE4235D0794F783719
:101180000668BE4230D0774F90370668BE422BD0FB
:10119000744FA8370668BE4226D0734F0668BE4219
:1011A00022D0714F14370668BE421DD06E4F2837CB
:1011B0000668BE4218D06C4F3C370668BE4213D05A
:1011C000694F50370668BE420ED0674F64370668D5
:1011D000BE4209D0644F78370668BE4204D0624FE1
:1011E0008C370668BE4201D1012600E000263EB1E0
:1011F000D0E919767E60C66E16B1D0E91C767E60A5
:10120000574F0668BE4249D0554F18370668BE4250
:1012100044D0534F30370668BE423FD0504F483716
:101220000668BE423AD04E4F60370668BE4235D09F
:101230004B4F78370668BE4230D0494F903706682A
:10124000BE422BD0464FA8370668BE4226D0454F37
:101250000668BE4222D0434F18370668BE421DD0F2
:10126000404F30370668BE4218D03E4F48370668B8
:10127000BE4213D03B4F60370668BE420ED0394F96
:1012800078370668BE4209D0364F90370668BE42AE
:1012900004D0344FA8370668BE4201D1012600E0D1
:1012A0000026DEB190F85C6006F01F073F26BE40C6
:1012B000AE600668366826F4802607683E600668D9
:1012C00073608668402E04D10668B2600668F160DB
:1012D00044E00668B1600668F2603FE0224F0668AD
:1012E000BE4222D0204F14370668BE421DD01E4F8A
:1012F00028370668BE4218D01B4F3C370668BE42EE
:1013000013D0194F50370668BE420ED0164F6437BF
:101310000668BE4209D0144F78370668BE4204D032
:10132000114F8C370668BE4201D1012600E000262D
:10133000A6B190F85C6006F01F070126BE4066600B
:10134000066873608668402E04D10668B26006683D
:10135000F16003E00668B1600668F260F0BD00006D
:101360001000024010040240085402587047000068
:101370002DE9F04385B004460D4617461E460E483B
:101380000088001B1FFA80F80B484088401B1FFA9A
:1013900080F900200949098810224B46CDE9012730
:1013A0000096CDE9031042462946204600F0B8FADF
:1013B00005B0BDE8F083000038070024AA0000242F
:1013C0002DE9FF4704460D4616461F460B48008888
:1013D000001B1FFA80F809484088401B1FFA80F95B
:1013E000002010214B464246CDE90071CDE9026054
:1013F000294620460AF0C8FFBDE8FF8738070024C9
:1014000072B600BFFEE700007CB506460D4600241C
:101410000020009001900822012110200AF07EF89F
:101420001020FFF791FA04460CB120467CBD32042F
:10143000012137200AF072F83720FFF785FA0446B9
:101440000CB12046F2E7012303220821101F0AF005
:1014500077F80022012133200AF060F83320FFF7EB
:1014600073FA04460CB12046E0E70DE03048406BCB
:1014700000F4002040B92E488030006800902C48CD
:10148000D0F88000019006E02948406B40F22A51D4
:1014900008400028EAD000BF2548406B00F0080053
:1014A00038B12348806B40F008002149886304204C
:1014B000BCE71F48406B00F0020038B11C48806B4D
:1014C00040F002001A4988630220AFE71848406BD9
:1014D00000F0200038B11648806B40F0200014491D
:1014E00088630620A2E71348114988630098000624
:1014F000009901F47F4140EA0120009901F47F0145
:1015000040EA1120009940EA1160686001980006E5
:10151000019901F47F4140EA0120019901F47F0122
:1015200040EA1120019940EA1160286020467DE7D9
:1015300000700052FF0FE01F2DE9F04106460C46F7
:10154000174601221103144803F04CFA052000F05D
:1015500050FA032008F010F8C4F3074008F00CF824
:10156000C4F3072008F008F8E0B208F005F80025F9
:1015700005E0FF2008F000F87055681C85B2BD42F8
:10158000F7DB00224FF48051034803F02BFA0520CB
:1015900000F02FFABDE8F081000402582DE9F04771
:1015A0000746884691461C463E78B9F1200F1ED06A
:1015B00009DCB9F10C0F0DD0B9F1100F0FD0B9F152
:1015C000180F20D10FE0B9F1300F14D0B9F1400F4E
:1015D00019D114E006FB04F000F5002515E00F48D2
:1015E00006FB040511E00E4806FB04050DE00D485E
:1015F00006FB040509E00C4806FB040505E00B4862
:1016000006FB040501E0BDE8F08700BF224629463D
:101610004046FFF791FF00BFF5E700000008080013
:101620000012080000260800004808000092080088
:101630002DE9FF5F82460F4698469AF800900AF11E
:10164000010082460478B9F1810F06DB402C04DBEF
:10165000FF2C02D0B9F1FF0F0DD14FF0000B06E0C7
:10166000002007F8010B0BF101001FFA80FBC345B6
:10167000F6DBBDE8FF9F7F2C03DAA4F14000C4B283
:1016800002E0A4F14100C4B2A9F1810000F0FF0919
:10169000BE2010FB094000FB08F502980C2806D07C
:1016A000102807D0182808D020280CD108E00A48B4
:1016B0002E1809E009482E1806E005F5ED1603E09E
:1016C00005F5601600E0D4E700BF424631463846D3
:1016D000FFF732FF00BFCCE70014090000DD110066
:1016E00010B500F001F810BD10B586B04FF6FF70D0
:1016F00007F08CFD002404E000200DF80400601CBD
:10170000C4B2182CF8DB112200216846FFF714FF41
:101710006B464FF4784210210846FFF729FE00245B
:1017200004E000200DF80400601CC4B2182CF8DBA3
:10173000082214216846FFF7FFFE6B464FF47842FB
:1017400020211020FFF714FE002404E000200DF8F3
:101750000400601CC4B2182CF8DB08221E21684665
:10176000FFF7EAFE6B464FF4784230211020FFF776
:10177000FFFDC82002F056FF06B010BD2DE9FF4F57
:10178000C1B080460D461C46AB462046E31704EB2D
:101790005373DB1021464FEAE47C04EB5C7C4FEA98
:1017A000EC0CA4EBCC0CBCF1000F02D04FF0010C00
:1017B00001E04FF0000C6344224604EBD27C4FEA78
:1017C0006C0C03FB0CF39FB20C2C0CD0102C0AD029
:1017D000182C08D0202C06D0302C04D0402C02D05D
:1017E00045B0BDE8F08F3B46224601A94398FFF77C
:1017F000D5FE00262FE001A810F806904FF0000A51
:1018000023E009F0800028B1294640464E9A07F0AF
:1018100085FD06E0509820B9294640464F9A07F0CA
:101820007DFD4FEA49604FEA1069681C85B2A5EB5F
:101830000B00A04205D15D4608F101001FFA80F8B7
:1018400006E00AF101001FFA80FABAF1080FD8DBAE
:1018500000BF701C86B2BE42CDDB00BFC0E72DE9E1
:10186000FF4FA1B080460D461C46AB462046E2170E
:1018700004EB5272D2102146E31704EB5373DB10D2
:10188000A4EBC3030BB1012300E000231A4462431D
:1018900097B20C2C08D0102C06D0182C04D0202C79
:1018A00002D025B0BDE8F08F3B46224601A923981F
:1018B000FFF7BEFE00262FE001A810F806904FF0BB
:1018C000000A23E009F0800028B1294640462E9AFC
:1018D00007F024FD06E0309820B9294640462F9AAB
:1018E00007F01CFD4FEA49604FEA1069681C85B299
:1018F000A5EB0B00A04205D15D4608F101001FFADF
:1019000080F806E00AF1010000F0FF0ABAF1080FC2
:10191000D8DB00BF701CC6B2BE42CDDB00BFC0E743
:101920002DE9F04F85B007460D4691469A46DDE910
:101930000F4B0E9EB84604950020039052E003988A
:1019400088BB3078802802DD012003904AE004EB58
:10195000D47108EB0902A2EB6101B94202DA28193D
:1019600085B2474604985044001BA84200DA3CE088
:1019700030780D2804D1281985B24746761C0AE034
:10198000DDE9111023463246CDE900B10290294627
:101990003846FFF7F3FE761C204604EBD07107EBC8
:1019A00061018FB21EE0FFE70020039008EB090001
:1019B000001BB84202DA281985B247460498504401
:1019C000001BA84200DA10E0DDE91101234632468F
:1019D000CDE900B0029129463846FFF740FFB61C1A
:1019E000381987B230780028A9D100BF05B0BDE80A
:1019F000F08F002107E0002201E0531CDAB2642AD4
:101A0000FBDB4B1CD9B28142F5DB70472DE9F04777
:101A100005460C4690469A4695F80090681C054687
:101A20000778B9F1810F06DB402F04DBFF2F02D0CE
:101A3000B9F1FF0F0AD1002604E0002004F8010BE1
:101A4000701CC6B24645F8DBBDE8F087BAF10C0F52
:101A500006D0BAF1100F04D0BAF1180F0FD107E079
:101A60000DE03B464A4641462046FFF75DF806E05A
:101A70003B464A4641462046FFF77EF800BF00BF7E
:101A800000BFE1E770B503460C4600201F2104F0BB
:101A900001050DB9012022E000BF0D1EA1F10101D9
:101AA00006D001F01F060125B5402540002DF4D0D9
:101AB0008AB1082A0BD0102A05D0182A0CD1072980
:101AC00000D301200AE0082900D3012006E01029F4
:101AD00000D3012002E001E0012000BF00BF40B9B7
:101AE0001D686C611D68AD6825F0180515431E68FA
:101AF000B56070BD10B504460CB9012010BD607F03
:101B000020B900202077204600F036F802206077C8
:101B1000207948B91748216848612068806820F01A
:101B200018002168886007E02046D4E90212FFF718
:101B3000A9FF08B10120E1E7607920B94FF0FF303B
:101B40002168086102E021682069086120688068D6
:101B500020F060006169084321688860206880681F
:101B600020F08000A1690843216888600120607727
:101B70000020C3E7B71DC10408B5094A01689142B6
:101B80000DD100BF0749096841F40021054A1160E1
:101B90001146096801F40021009100BF00BF08BD93
:101BA000004C0258E04402587047000010B504464B
:101BB000204600F075FA204600F02AFA012001497B
:101BC000087010BD5800002470B5044620680569EF
:101BD00005F0040004280ED121684861E06C40F053
:101BE0000200E064042084F835002348A16C0865F5
:101BF000A06C01F009F805F0020002280ED121685E
:101C00004861E06C40F00100E064042084F8350095
:101C10001948A16C0865A06C00F0F6FF05F01000F3
:101C2000102804D121684861204600F077F805F0BB
:101C30000800082804D121684861204600F070FAA5
:101C400005F00100B8B12068006800F00200022829
:101C500005D12068C06820F01E002168C860206897
:101C6000C06820F001002168C86001202168486137
:101C70002046FFF79BFF70BDEB0B000810B5044634
:101C80000CB9012010BD94F8350010B9204600F0C1
:101C900047F8022084F83500A06908B1002161628C
:101CA000206800681C490840216808606169606814
:101CB0000843E168084321690843A1680843A16912
:101CC0000843216A0843616A0843A16A0843E16A3C
:101CD0000843216B084321680968084321680860AC
:101CE000606810280BD1217F607F41EA0021A07F2E
:101CF00041EA0041E07F41EA006021688861206894
:101D0000C06840F01E002168C8600020E064012027
:101D100084F835000020B5E707F0E0FF70470000C9
:101D200010B586B00446142101A8FEF7FEFC6749F1
:101D3000206888427ED100BF6548006840F00100FD
:101D4000634908600846006800F00100009000BF89
:101D500000BF00BF081D006840F01000091D0860AA
:101D60000846006800F01000009000BF00BF00BFF0
:101D70000846006840F0010008600846006800F06E
:101D80000100009000BF00BF00BF0846006840F09F
:101D9000040008600846006800F00400009000BFDE
:101DA00000BF00BF0846006840F008000860084611
:101DB000006800F00800009000BF00BF00BF0846A8
:101DC000006840F0020008600846006800F0020069
:101DD000009000BF00BF73200190022002900120FC
:101DE0000390032004900D20059001A9394802F0CA
:101DF000E9FC502001900220029001200390032072
:101E000004900D20059001A9334802F0DBFCC020AE
:101E100001900220029001200390032004900D20E5
:101E2000059001A92D4802F0CDFC08200190022068
:101E3000029000E048E001200390032004900D2070
:101E4000059001A9264802F0BDFC802001900220E7
:101E5000029001200390032004900D20059001A919
:101E6000204802F0AFFC202002F0CEFD1E481F49A2
:101E700008604B20486000211C488160C1604FF41D
:101E80008061016189004161890081618911C161BD
:101E90004FF440310162042141620321816200213B
:101EA000C162016301F03EFF08B1FFF7A9FA00BF6C
:101EB0000E48A064846300BF002211464E2002F049
:101EC0004BFE4E2002F034FE06B010BD000002486A
:101ED000DC44025800100258000002580008025862
:101EE000000C02580004025828000240EC030024B1
:101EF0002DE9F84304460F4615461E4600BF94F8E8
:101F00003400012802D10220BDE8F883012084F8C2
:101F1000340000BF022084F835002068006840F4D7
:101F20008040216808602068006820F00200216875
:101F30000860206800683843216808603248A16C56
:101F4000C8633248A16CC8640020A16C0865A06316
:101F50002064E0636064B6F5803F15D2226802F128
:101F6000280133462A46A06C02F06CF900283DD0C7
:101F70004020E064012084F8350000BF002084F890
:101F8000340000BF0120BFE71F48A16C4864012056
:101F9000A063E663656405E0E06B4008E063A06B66
:101FA0004000A063E06BB0F5803FF5D2A06B801ECF
:101FB000A063A06B2064E06B042101FB0058E06B80
:101FC0000090226802F1280143462A46A06C00F0E6
:101FD00011F958B14020E064012084F8350000BFB9
:101FE000002084F8340000BF01208DE720680068DD
:101FF00040F001002168086000BF002084F8340030
:1020000000BF00BF80E700000F0C0008EB0B0008CA
:1020100070B5044621480068C0084FF47A71B0FBDF
:10202000F1F000FB01F5002600BF94F83400012810
:1020300001D1022070BD012084F8340000BF0220CD
:1020400084F835002068006820F0010021680860ED
:1020500000BF6D1E2DB9E06C40F02000E064032647
:1020600005E02068006800F001000028F1D100BF01
:102070002068006820F4804021680860A06C00F0AF
:1020800055FBE06CE064012084F8350000BF0020BF
:1020900084F8340000BF3046CCE70000A0000024E4
:1020A00010B501461D480068C0084FF47A74B0FBB3
:1020B000F4F000FB04F2002300BF91F83400012883
:1020C00001D1022010BD012081F8340000BF91F839
:1020D000350002281BD1052081F83500086800680A
:1020E00020F001000C68206000BF521E42B9C86C8D
:1020F00040F02000C864012081F83500032305E08A
:102100000868006800F001000028EED100BF00BFA1
:10211000002081F8340000BF1846D3E7A000002457
:102120007047000010B50346304C1868A04249D0F3
:102130002E4C18341868A04244D02C4C3034186807
:10214000A0423FD0294C48341868A0423AD0274CCE
:1021500060341868A04235D0244C78341868A04206
:1021600030D0224C90341868A0422BD01F4CA83499
:102170001868A04226D01E4C1868A04222D01C4CE1
:1021800018341868A0421DD0194C30341868A04289
:1021900018D0174C48341868A04213D0144C60343F
:1021A0001868A0420ED0124C78341868A04209D0AA
:1021B0000F4C90341868A04204D00D4CA834186815
:1021C000A04201D1012000E0002030B112B918680E
:1021D000C16008E01868016105E012B91868C160C3
:1021E00001E018680161002010BD000010000240ED
:1021F000100402402DE9F04704460F4690461E4663
:10220000DDF820904FF0000AA068802804D140003B
:1022100060650120BDE8F08700BF94F83400012814
:1022200001D10220F6E7012084F8340000BF94F8C1
:10223000350001287ED1022084F835000020606539
:10224000F9492068884249D0F74918312068884206
:1022500044D0F5493031206888423FD0F2494831B6
:10226000206888423AD0F04960312068884235D0F1
:10227000ED4978312068884230D0EB4990312068B0
:1022800088422BD0E849A8312068884226D0E74907
:102290002068884222D0E5491831206888421DD044
:1022A000E24930312068884218D0E049483120683E
:1022B000884213D0DD496031206888420ED0DB4966
:1022C00078312068884209D0D84990312068884206
:1022D00004D0D649A8312068884201D1012000E00D
:1022E000002090B12068006840F4802021680860D8
:1022F00020680661A06D00F1080594F85C0000F00C
:102300001F013F208840286011E02068006848F2E3
:10231000200108432168086020680661A06D051D42
:1023200094F85C0000F01F010120884028604B46B3
:10233000424600E0EFE139462046FEF767FEBA4923
:102340002068884270D0B8491831206888426BD024
:10235000B54930312068884266D0B3494831206899
:10236000884261D0B0496031206888425CD0AE4973
:1023700078312068884257D0AB4990312068884234
:1023800052D0A949A831206888424DD0A749206879
:10239000884249D0A54918312068884244D0A349D1
:1023A0003031206888423FD0A049483120688842B7
:1023B0003AD09E4960312068884235D09B497831B7
:1023C0002068884230D099499031206888422BD0CB
:1023D0009649A8312068884226D0954920688842CD
:1023E00022D093491431206888421DD09049283169
:1023F0002068884218D08E493C312068884213D02A
:102400008B495031206888420ED089496431206858
:10241000884209D0864978312068884204D08449AE
:102420008C312068884201D1012000E0002038B1C1
:10243000D4E919104860E06E10B1D4E91C1048606E
:1024400079492068884249D0774918312068884204
:1024500044D075493031206888423FD072494831B4
:10246000206888423AD0704960312068884235D06F
:102470006D4978312068884230D06B4990312068AE
:1024800088422BD06849A8312068884226D0674905
:102490002068884222D065491831206888421DD0C2
:1024A000624930312068884218D06049483120683C
:1024B000884213D05D496031206888420ED05B4964
:1024C00078312068884209D0584990312068884284
:1024D00004D05649A8312068884201D1012000E08B
:1024E0000020C0B12068006820F01E0040F01600F7
:1024F000216808602068406940F0800021684861D8
:10250000206C08B9A06CC0B12068006840F00800D9
:102510002168086011E02068006820F00E0040F09B
:102520000A0021680860206C08B9A06C28B12068F6
:10253000006840F00400216808603B492068884238
:1025400070D039491831206888426BD03649303113
:102550002068884266D0344948312068884261D07A
:1025600031496031206888425CD02F497831206839
:10257000884257D02C4990312068884252D02A494D
:10258000A831206888424DD028492068884249D027
:10259000264918312068884244D0244930312068C7
:1025A00088423FD021494831206888423AD01F49AB
:1025B00060312068884235D01C49783120688842D3
:1025C00030D01A499031206888422BD01749A83161
:1025D0002068884226D016492068884222D01449B3
:1025E0001431206888421DD0114928312068884262
:1025F00018D00F493C312068884213D00C49503123
:10260000206888420ED00A4964312068884209D087
:10261000074978312068884204D005498C31206808
:10262000884207D1012006E0100002401004024059
:1026300008540258002090B1206E006800F48030E9
:1026400028B1206E006840F48070216E0860E06E52
:1026500028B1E06E006840F48070E16E0860314996
:102660002068884249D02F4918312068884244D0D8
:102670002C493031206888423FD02A4948312068AF
:1026800088423AD0274960312068884235D02549B0
:1026900078312068884230D02249903120688842C1
:1026A0002BD02049A8312068884226D01E492068B6
:1026B000884222D01C491831206888421DD01A490E
:1026C00030312068884218D0174948312068884244
:1026D00013D015496031206888420ED012497831F4
:1026E0002068884209D0104990312068884204D07F
:1026F0000D49A8312068884206D12068006840F062
:102700000100216808600BE02068006840F00100CB
:102710002168086004E04FF4006060654FF0010A32
:10272000504677E510000240100402402DE9F041C8
:10273000044602F063F9804614B90120BDE8F08137
:1027400094F83500022808D08020606500BF002082
:1027500084F8340000BF0120F0E7FE492068884279
:1027600049D0FC4918312068884244D0F9493031B9
:10277000206888423FD0F7494831206888423AD0E3
:10278000F44960312068884235D0F24978312068B8
:10279000884230D0EF499031206888422BD0ED49F3
:1027A000A8312068884226D0EB492068884222D090
:1027B000E9491831206888421DD0E7493031206846
:1027C000884218D0E44948312068884213D0E24951
:1027D0006031206888420ED0DF4978312068884215
:1027E00009D0DD4990312068884204D0DA49A83107
:1027F0002068884201D1012000E0002068B12068F3
:10280000006820F01E00216808602068406920F000
:10281000800021684861256806E02068006820F093
:102820000E00216808602568CA492068884270D077
:10283000C8491831206888426BD0C64930312068B9
:10284000884266D0C34948312068884261D0C14976
:102850006031206888425CD0BE4978312068884267
:1028600057D0BC4990312068884252D0B949A8312C
:10287000206888424DD0B8492068884249D0B6497E
:1028800018312068884244D0B349303120688842EA
:102890003FD0B1494831206888423AD0AE496031D2
:1028A0002068884235D0AC4978312068884230D0E1
:1028B000A9499031206888422BD0A749A8312068C7
:1028C000884226D0A5492068884222D0A3491431E5
:1028D000206888421DD0A14928312068884218D03C
:1028E0009E493C312068884213D09C495031206871
:1028F00088420ED0994964312068884209D09749AE
:1029000078312068884204D094498C31206888420C
:1029100001D1012000E0002028B1206E006820F4E1
:102920008070216E08608B492068884249D08949AF
:1029300018312068884244D0864930312068884266
:102940003FD084494831206888423AD0814960317B
:102950002068884235D07F4978312068884230D05D
:102960007C499031206888422BD07A49A831206870
:10297000884226D078492068884222D0764918318A
:10298000206888421DD0744930312068884218D0B0
:10299000714948312068884213D06F4960312068FE
:1029A00088420ED06C4978312068884209D06A4943
:1029B00090312068884204D06749A8312068884255
:1029C00006D12068006820F001002168086005E059
:1029D0002068006820F001002168086011E002F022
:1029E0000DF8A0EB080005280BD920206065032016
:1029F00084F8350000BF002084F8340000BF0120B7
:102A00009CE6286800F001000028E8D151492068C0
:102A1000884249D04F4918312068884244D04D49F6
:102A20003031206888423FD04A4948312068884286
:102A30003AD0484960312068884235D045497831DC
:102A40002068884230D043499031206888422BD09A
:102A50004049A8312068884226D03F4920688842F2
:102A600022D03D491831206888421DD03A49303182
:102A70002068884218D0384948312068884213D0ED
:102A800035496031206888420ED03349783120685A
:102A9000884209D0304990312068884204D02E49BC
:102AA000A8312068884201D1012000E0002040B117
:102AB000A66D94F85C0000F01F013F208840B060D4
:102AC00007E0A76D94F85C0000F01F01012088402A
:102AD000786020492068884276D01E4918312068E5
:102AE000884271D01B493031206888426CD0194926
:102AF00048312068884267D0164960312068884292
:102B000062D014497831206888425DD011499031F3
:102B10002068884258D00F49A8312068884253D095
:102B20000D49206888424FD00B49183120688842EF
:102B30004AD0094930312068884245D00649483199
:102B40002068884240D004496031206888423BD0E8
:102B5000014905E0100002401004024008540258E8
:102B60007831206888422FD02549206888422BD0B0
:102B7000234918312068884226D02249206888429B
:102B800022D020491431206888421DD01D492831A7
:102B90002068884218D01B493C312068884213D0F5
:102BA00018495031206888420ED016496431206897
:102BB000884209D0134978312068884204D01149ED
:102BC0008C312068884201D1012000E0002068B1EA
:102BD000D4E919104860E06E40B1E06E006820F45E
:102BE0008070E16E0860D4E91C104860012084F810
:102BF000350000BF002084F8340000BF00BF9DE511
:102C0000A00402400854025870B504460CB90120D3
:102C100070BD94F83500022803D080206065012043
:102C2000F6E7DC492068884249D0DA491831206843
:102C3000884244D0D7493031206888423FD0D549B6
:102C40004831206888423AD0D249603120688842B1
:102C500035D0D04978312068884230D0CD49903184
:102C6000206888422BD0CB49A8312068884226D0E2
:102C7000C9492068884222D0C74918312068884253
:102C80001DD0C54930312068884218D0C24948312A
:102C90002068884213D0C0496031206888420ED035
:102CA000BD4978312068884209D0BB4990312068FD
:102CB000884204D0B849A8312068884201D1012057
:102CC00000E00020F0B3042084F83500B14920680A
:102CD00088424BD0AF4918312068884246D0AD4970
:102CE00030312068884241D0AA4948312068884262
:102CF0003CD0A84960312068884237D0A549783156
:102D00002068884232D0A3499031206888422DD073
:102D1000A049A8312068884228D09F49206888426D
:102D200024D09D491831206888421FD09A493031FB
:102D3000206888421AD0984948312068884215D0C6
:102D4000954900E020E06031206888420ED0924929
:102D500078312068884209D08F49903120688842B4
:102D600004D08D49A8312068884206D120680068C7
:102D700020F001002168086009E12068006820F067
:102D800001002168086002E12068006820F00E0060
:102D9000216808607F492068884249D07D49183100
:102DA0002068884244D07B493031206888423FD037
:102DB00078494831206888423AD0764960312068A5
:102DC000884235D0734978312068884230D07149C3
:102DD0009031206888422BD06E49A8312068884203
:102DE00026D06D492068884222D06B49183120686E
:102DF00088421DD0684930312068884218D0664921
:102E000048312068884213D0634960312068884285
:102E10000ED0614978312068884209D05E499031EE
:102E20002068884204D05C49A8312068884206D1D5
:102E30002068006820F001002168086005E0206833
:102E4000006820F00100216808605249206888422B
:102E500070D050491831206888426BD04D493031CC
:102E60002068884266D04B4948312068884261D04A
:102E700048496031206888425CD0464978312068F2
:102E8000884257D0434990312068884252D0414906
:102E9000A831206888424DD03F492068884249D0F7
:102EA0003D4918312068884244D03B493031206880
:102EB00088423FD038494831206888423AD0364964
:102EC00060312068884235D03349783120688842A3
:102ED00030D031499031206888422BD02E49A8311A
:102EE0002068884226D02D492068884222D02B496C
:102EF0001431206888421DD0284928312068884232
:102F000018D026493C312068884213D023495031DB
:102F1000206888420ED0214964312068884209D057
:102F20001E4978312068884204D01C498C312068C1
:102F3000884201D1012000E00020D8B1206E006855
:102F400020F48070216E0860A56D94F85C0000F09C
:102F50001F01012088406860D4E919104860E06EC4
:102F600040B1E06E006820F48070E16E0860D4E942
:102F70001C104860012084F8350000BF002084F850
:102F8000340000BF206D10B12046216D884700201D
:102F90003EE60000100002401004024008540258AF
:102FA00070B504460CB9012070BD9B492068884269
:102FB00049D0994918312068884244D09649303127
:102FC000206888423FD094494831206888423AD0EE
:102FD000914960312068884235D08F497831206826
:102FE000884230D08C499031206888422BD08A4961
:102FF000A8312068884226D088492068884222D09B
:1030000086491831206888421DD0844930312068B3
:10301000884218D0814948312068884213D07F49BE
:103020006031206888420ED07C497831206888421F
:1030300009D07A4990312068884204D07749A83174
:103040002068884206D12068006820F001002168CD
:10305000086005E02068006820F001002168086031
:103060006D492068884249D06B49183120688842F0
:1030700044D069493031206888423FD066494831A0
:10308000206888423AD0644960312068884235D04F
:10309000614978312068884230D05F49903120689A
:1030A00088422BD05C49A8312068884226D05B49F1
:1030B0002068884222D059491831206888421DD0A2
:1030C000564930312068884218D054494831206828
:1030D000884213D051496031206888420ED04F4950
:1030E00078312068884209D04C4990312068884264
:1030F00004D04A49A8312068884201D1012000E06B
:103100000020C8B10020216808602168486021685B
:1031100088602168C86021680861212021684861B1
:103120002046FDF7F7FD064694F85C0000F01F010D
:103130003F208840B06043E039492068884222D06F
:1031400037491431206888421DD03549283120681C
:10315000884218D032493C312068884213D0304927
:103160005031206888420ED02D4964312068884251
:1031700009D02B4978312068884204D028498C3105
:103180002068884201D1012000E00020B0B1002079
:103190002168086021684860216888602168C860EB
:1031A000216808612046FDF7B5FD054694F85C00EE
:1031B00000F01F0101208840686001E00120F3E673
:1031C0002046FDF71DFE206E28B10020216E08600C
:1031D000D4E919104860606858B16068082808D8B8
:1031E0002046FDF76FFE0020E16E0860D4E91C1058
:1031F00048600020E06620676067E06320646064E8
:10320000A064E0642065606584F8350000BF84F840
:10321000340000BF00BFC7E61000024010040240A7
:1032200008540258014691F8350070472DE9F84FCF
:10323000044600200090FE4800684FF41651B0FB91
:10324000F1FAA66DD4F858803768D8F80090F9499B
:103250002068884249D0F74918312068884244D014
:10326000F4493031206888423FD0F2494831206823
:1032700088423AD0EF4960312068884235D0ED4924
:1032800078312068884230D0EA49903120688842FD
:103290002BD0E849A8312068884226D0E64920682A
:1032A000884222D0E4491831206888421DD0E24982
:1032B00030312068884218D0DF4948312068884280
:1032C00013D0DD496031206888420ED0DA49783168
:1032D0002068884209D0D84990312068884204D0BB
:1032E000D549A8312068884201D1012000E00020A2
:1032F00000287DD094F85C0000F01F010820884071
:103300003840002868D0CB492068884249D0C94954
:1033100018312068884244D0C6493031206888423C
:103320003FD0C4494831206888423AD0C149603111
:103330002068884235D0BF4978312068884230D033
:10334000BC499031206888422BD0BA49A831206806
:10335000884226D0B8492068884222D0B649183120
:10336000206888421DD0B44930312068884218D086
:10337000B14948312068884213D0AF496031206894
:1033800088420ED0AC4978312068884209D0AA49D9
:1033900090312068884204D0A749A831206888422B
:1033A00004D12068006800F0040003E02068006891
:1033B00000F0080080B12068006820F00400216857
:1033C000086094F85C0000F01F0108208840B0609D
:1033D000606D40F00100606594F85C0000F01F0132
:1033E000012088403840E8B392492068884200E0D4
:1033F000B7E24BD08F4918312068884246D08D49BA
:1034000030312068884241D08A494831206888425A
:103410003CD0884960312068884237D0854978316E
:103420002068884232D083499031206888422DD06C
:103430008049A8312068884228D07F492068884286
:1034400024D07D491831206888421FD07A49303114
:10345000206888421AD0784948312068884215D0BF
:10346000754900E026E06031206888420ED072493C
:1034700078312068884209D06F49903120688842AD
:1034800004D06D49A8312068884204D12068406981
:1034900000F0800002E020680068002050B194F83D
:1034A0005C0000F01F0101208840B060606D40F0BA
:1034B0000200606594F85C0000F01F010420884061
:1034C0003840E8B35B49206888424BD059491831ED
:1034D0002068884246D0574930312068884241D020
:1034E00054494831206888423CD0524960312068B4
:1034F000884237D04F4978312068884232D04D49D0
:103500009031206888422DD04A49A83120688842ED
:1035100028D049492068884224D04749183120687A
:1035200088421FD044493031206888421AD042492D
:1035300048312068884215D03F496031206800E05A
:1035400024E088420ED03C4978312068884209D076
:10355000394990312068884204D03749A831206821
:10356000884204D12068006800F0020002E0206870
:103570000068002050B194F85C0000F01F010420A6
:103580008840B060606D40F00400606594F85C00B5
:1035900000F01F01102088403840E8B3254920681A
:1035A000884251D023491831206888424CD02149A3
:1035B00030312068884247D01E494831206888420F
:1035C00042D01C496031206888423DD01949783189
:1035D0002068884238D0174990312068884233D01B
:1035E0001449A831206888422ED0134920688842A7
:1035F0002AD0114918312068884225D00E4930312F
:103600002068884220D00C494831206888421BD06D
:1036100009496031206800E04DE0884214D0064935
:103620007831206888420FD003499031206805E046
:10363000A00000241000024010040240884203D081
:10364000FE492068884204D12068006800F0080024
:1036500003E02068006800F0040060B394F85C00A8
:1036600000F01F0110208840B0602068006800F45E
:10367000802080B12068006800F4002028B9206C08
:10368000C8B12046216C884715E0A06C98B120464F
:10369000A16C88470FE02068006800F4807028B9AA
:1036A0002068006820F0080021680860206C10B1D4
:1036B0002046216C884794F85C0000F01F01202010
:1036C0008840384000287DD0DD492068884249D0B4
:1036D000DB4918312068884244D0D949303120680C
:1036E00088423FD0D6494831206888423AD0D449F0
:1036F00060312068884235D0D149783120688842CD
:1037000030D0CF499031206888422BD0CC49A831A5
:103710002068884226D0C949A8392068884221D02B
:10372000C6499039206888421CD0C449783920683D
:10373000884217D0C14960392068884212D0BF49F9
:103740004839206888420DD0BC4930392068884209
:1037500008D0BA4918392068884203D0B749206890
:10376000884204D12068006800F0100003E020685F
:10377000006800F0020028B394F85C0000F01F011C
:1037800020208840B06094F8350004282DD12068AE
:10379000006820F01600216808602068406920F069
:1037A000800021684861206C08B9A06C28B12068AD
:1037B000006820F008002168086094F85C0000F0C0
:1037C0001F0100E03FE03F208840B060012084F806
:1037D000350000BF002084F8340000BF206D10B118
:1037E0002046216D8847BDE8F88F2068006800F406
:1037F000802080B12068006800F4002028B9606C47
:1038000008B32046616C88471DE0E06BD8B12046C4
:10381000E16B884717E02068006800F4807068B9A1
:103820002068006820F0100021680860012084F8FA
:10383000350000BF002084F8340000BFE06B10B1F9
:103840002046E16B8847606D00287AD0606D00F0FB
:103850000100E8B3042084F83500794920688842E3
:103860004BD0774918312068884246D074493031AE
:103870002068884241D072494831206888423CD053
:103880006F4960312068884237D06D4978312068AF
:10389000884232D06A499031206888422DD06849E8
:1038A000A8312068884228D06449A8392068884215
:1038B00023D062499039206888421ED05F49783908
:1038C0002068884219D05D4960392068884200E04C
:1038D00040E012D059494839206888420DD05749F4
:1038E00030392068884208D0544918392068884205
:1038F00003D052492068884206D12068006820F031
:1039000001002168086005E02068006820F00100DF
:103910002168086000BF0098401C0090504500D905
:1039200005E02068006800F001000028F3D100BF26
:103930002068006800F0010020B1032084F8350001
:1039400003E00DE0012084F8350000BF002084F87A
:10395000340000BFE06C002802D02046E16C8847AC
:10396000D9E138492068884222D03649143120688C
:1039700088421DD0334928312068884218D0314907
:103980003C312068884213D02E495031206888424B
:103990000ED02C4964312068884209D029497831F9
:1039A0002068884204D027498C312068884201D1A0
:1039B000012000E000200028D2D02068056894F89B
:1039C0005C0000F01F010420884000EA0900D8B321
:1039D00005F00400C0B394F85C0000F01F0104205F
:1039E0008840C8F8040005F4004080B105F4803038
:1039F00030B9A06C0028B3D02046A16C88478AE17A
:103A0000206C0028ACD02046216C884783E105F06B
:103A10002000E8BB0A492068884253D00849183181
:103A2000206888424ED0064930312068884249D00B
:103A3000034948312068884244D006E0B804024077
:103A400010000240085402584FE0B4496031206829
:103A5000884237D0B14978312068884232D0AF49A6
:103A60009031206888422DD0AC49A8312068884226
:103A700028D0AB492068884224D0A9491831206851
:103A800088421FD0A6493031206888421AD000E011
:103A900025E0A34948312068884213D0A04960310D
:103AA000206888420ED09E4978312068884209D02B
:103AB0009B4990312068884204D09949A8312068F8
:103AC000884206D12068006820F00800216808605C
:103AD00005E02068006820F0040021680860206C80
:103AE00010B32046216C884715E194F85C0000F083
:103AF0001F010220884000EA0900E8B305F0020037
:103B0000D0B394F85C0000F01F0102208840C8F890
:103B1000040005F4004070B105F4803028B9606CF1
:103B200010B12046616C8847F5E0E06BF0B32046A9
:103B3000E16B8847EFE005F02000C0BB77492068C3
:103B400088424ED0754918312068884249D073495F
:103B500030312068884244D070494831206888421A
:103B60003FD06E496031206888423AD06B49783145
:103B70002068884235D000E04EE0684990312068E6
:103B800088422ED06549A8312068884229D06449EE
:103B90002068884225D0624918312068884220D0A8
:103BA0005F493031206888421BD001E06EE02DE093
:103BB0005B4948312068884213D0594960312068F8
:103BC00088420ED0564978312068884209D054493D
:103BD00090312068884204D05149A8312068884239
:103BE00006D12068006820F014002168086005E014
:103BF0002068006820F00A0021680860012084F82D
:103C0000350000BF002084F8340000BFE06BE8B34B
:103C10002046E16B88477EE094F85C0000F01F01CD
:103C20000820884000EA090080B305F0080068B366
:103C30003A49206888424BD0384918312068884278
:103C400046D0364930312068884241D03349483126
:103C5000206888423CD0314960312068884237D0A2
:103C60002E4978312068884232D02C499031206822
:103C700088422DD02949A8312068884228D0284977
:103C80002068884224D02649183100E043E02068AB
:103C900088421DD0224930312068884218D02049FE
:103CA00048312068884213D01D496031206888421D
:103CB0000ED01B4978312068884209D018499031CC
:103CC0002068884204D01649A8312068884206D16D
:103CD0002068006820F01C002168086005E020686A
:103CE000006820F00E002168086094F85C0000F085
:103CF0001F0101208840C8F804000120606584F895
:103D0000350000BF002084F8340000BFE06C10B123
:103D10002046E16C884700BF65E5000010000240C6
:103D2000100402402DE9F041044600F067FE804691
:103D300014B90120BDE8F081FE492068884249D0CD
:103D4000FC4918312068884244D0FA493031206853
:103D500088423FD0F7494831206888423AD0F54937
:103D600060312068884235D0F24978312068884235
:103D700030D0F0499031206888422BD0ED49A831ED
:103D80002068884226D0EC492068884222D0EA493F
:103D90001831206888421DD0E749303120688842B8
:103DA00018D0E54948312068884213D0E249603193
:103DB000206888420ED0E04978312068884209D0D6
:103DC000DD4990312068884204D0DB49A831206861
:103DD000884201D1012000E00020002873D0606AF1
:103DE00000B100BF022084F8350000BF002084F835
:103DF000340000BFCF492068884249D0CD491831EE
:103E00002068884244D0CB493031206888423FD076
:103E1000C8494831206888423AD0C6496031206894
:103E2000884235D0C34978312068884230D0C149B2
:103E30009031206888422BD0BE49A8312068884242
:103E400026D0BD492068884222D0BB49183120685D
:103E500088421DD0B84930312068884218D0B64910
:103E600048312068884213D0B349603120688842C5
:103E70000ED0B14978312068884209D0AE499031DE
:103E80002068884204D0AC49A8312068884206D115
:103E90002068006820F001002168086005E02068C3
:103EA000006820F00100216808600DE000F0A6FD28
:103EB000A0EB0800052807D920206065032084F8BE
:103EC0003500012036E76AE02068006800F0010054
:103ED0000028EBD12068056898480540D4E9020124
:103EE00008432169084361690843A1690843E169FE
:103EF0000843216A08430543606A042803D1D4E9D2
:103F00000B01084305438E4800686FF30F00B0F1C2
:103F1000005F1DD36068292802D360682E2811D95C
:103F200060683F2802D3606842280BD96068472840
:103F300002D36068482805D960684F2804D36068B8
:103F4000522801D8012000E0002008B145F4801576
:103F5000206805602068456925F00705606A05430B
:103F6000606A04280DD1A06A0543E06A48B1204682
:103F7000FCF7F4FF28B140206065012084F835008B
:103F8000D8E6206845612046FCF7C4FE064694F852
:103F90005C0000F01F013F208840B0609EE069494E
:103FA0002068884222D067491431206888421DD099
:103FB000644928312068884218D062493C31206821
:103FC000884213D05F495031206888420ED05D4945
:103FD00064312068884209D05A4978312068884283
:103FE00004D058498C312068884201D1012000E07A
:103FF0000020E0B353492068884222D0514914314F
:10400000206888421DD04F4928312068884218D046
:104010004C493C312068884213D04A4950312068CD
:1040200088420ED0474964312068884209D045490A
:1040300078312068884204D042498C312068884217
:1040400001D1012000E0002000B100BF022084F86F
:10405000350000BF002084F8340000BF20680568E8
:1040600039480540A068402802D1102106E02EE022
:10407000A068802801D1C10100E00021E06841EA88
:10408000D001206941EAD001606941EAD001A0690C
:1040900041EAD001E06941EAD001206A41EA10100A
:1040A00005432068056027492068401A1421B0FBA9
:1040B000F1F08000E0652046FCF72CFE074694F8FE
:1040C0005C0000F01F0101208840786006E040207D
:1040D0006065032084F8350001202BE6154920682F
:1040E00088427FD013491831206888427AD011491C
:1040F00030312068884275D00E49483120688842A6
:1041000070D00C496031206888426BD00949783101
:104110002068884266D0074990312068884261D083
:104120000449A831206888425CD00349206888424D
:1041300058D00BE010000240100402403F8010FEF7
:104140000010005C085402580F00FEFF3B49183174
:104150002068884246D0394930312068884241D0B1
:1041600036494831206888423CD034496031206863
:10417000884237D0314978312068884232D02F497F
:104180009031206888422DD02C49A831206888427F
:1041900028D02B492068884224D02949143120682E
:1041A00088421FD026492831206888421AD02449E5
:1041B0003C312068884215D021495031206888421E
:1041C00010D01F496431206888420BD01C497831D7
:1041D0002068884206D01A498C312068884200E065
:1041E00000E001D1012000E0002000B32046FCF7F0
:1041F00007FEA068802801D1002060602079216E30
:104200000860D4E919104860606860B160680828E7
:1042100009D82046FCF756FE0020E16E0860D4E97C
:104220001C10486003E00020E06620676067002003
:104230006065012084F8350000207BE51004024011
:10424000085402582DE9F04104460D4616461F4613
:104250004FF0000814B90120BDE8F08100BF94F8C8
:104260003400012801D10220F6E7012084F834004F
:1042700000BF94F8350001287ED1022084F8350073
:1042800000206065E4492068884249D0E24918313D
:104290002068884244D0E0493031206888423FD0CD
:1042A000DD494831206888423AD0DB4960312068D6
:1042B000884235D0D84978312068884230D0D649F4
:1042C0009031206888422BD0D349A8312068884299
:1042D00026D0D2492068884222D0D049183120689F
:1042E00088421DD0CD4930312068884218D0CB4952
:1042F00048312068884213D0C8496031206888421C
:104300000ED0C64978312068884209D0C34990311F
:104310002068884204D0C149A8312068884206D16B
:104320002068006820F001002168086005E020682E
:10433000006820F00100216808603B4632462946AB
:104340002046FCF7D9FEB449206888424BD0B249D8
:1043500018312068884246D0AF4930312068884201
:1043600041D0AD494831206888423CD0AA496031EB
:104370002068884237D000E042E1A74978312068C0
:10438000884230D0A4499031206888422BD0A2497D
:10439000A8312068884226D0A0492068884222D0CF
:1043A0009E491831206888421DD09C4930312068D0
:1043B000884218D0994948312068884213D09749DB
:1043C0006031206888420ED0944978312068884254
:1043D00009D0924990312068884204D08F49A83191
:1043E0002068884201D1012000E0002080B12068CF
:1043F000006820F01E0040F0160021680860206C64
:10440000B0B12068006840F00800216808600FE043
:104410002068006820F00E0040F00A002168086063
:10442000206C28B12068006840F004002168086012
:1044300079492068884270D07749183120688842CD
:104440006BD0754930312068884266D07249483156
:104450002068884261D070496031206888425CD011
:104460006D4978312068884257D06B499031206877
:10447000884252D06849A831206888424DD06749A7
:104480002068884249D0654918312068884244D064
:1044900062493031206888423FD060494831206805
:1044A00088423AD05D4960312068884235D05B4906
:1044B00078312068884230D058499031206888424D
:1044C0002BD05649A8312068884226D0544920680C
:1044D000884222D052491431206888421DD0504968
:1044E00028312068884218D04D493C3120688842E4
:1044F00013D04B495031206888420ED0484964316E
:104500002068884209D0464978312068884204D022
:1045100043498C312068884201D1012000E000200D
:1045200090B1206E006800F4803028B1206E0068E1
:1045300040F48070216E0860E06E28B1E06E006883
:1045400040F48070E16E086033492068884249D0A9
:10455000314918312068884244D02F4930312068D1
:1045600088423FD02C494831206888423AD02A49B5
:1045700060312068884235D02749783120688842E8
:1045800030D025499031206888422BD02249A8316B
:104590002068884226D021492068884222D01F49BD
:1045A0001831206888421DD01C493031206888426B
:1045B00018D01A4948312068884213D01749603111
:1045C000206888420ED0154978312068884209D089
:1045D000124990312068884204D01049A8312068DF
:1045E000884206D12068006840F001002168086018
:1045F00010E02068006840F001002168086009E0D0
:104600004FF40060606500BF002084F8340000BFF4
:104610004FF0010840461FE610000240100402401F
:104620000854025870B5044600F0E8F906462546DD
:10463000681C10B104480078054400BF00F0DEF9A2
:10464000801BA842FAD370BD9C000024F0B50C4634
:104650000021504B98E001268E4006EA0402002A11
:104660007ED04D4E8F0856F827508E07370F0F26F5
:10467000BE403540494EB04201D100262DE0484EA3
:10468000B04201D1012628E0464EB04201D10226B7
:1046900023E0454EB04201D103261EE0434EB04216
:1046A00001D1042619E0424EB04201D1052614E0A2
:1046B000404EB04201D106260FE03F4EB04201D13C
:1046C00007260AE03D4EB04201D1082605E03C4EE7
:1046D000B04201D1092600E00A268F073F0FBE40F5
:1046E000AE421FD11E6896431E605E6896435E60B0
:1046F0004FF0B046766896434FF0B0477E603E4636
:10470000366896433E608E07370F0F2606FA07F588
:10471000214E8F0856F82760AE431F4F4FEA910C89
:1047200047F82C6006684FEA410C032707FA0CF79C
:104730003E430660CF0800F1200656F827604F0779
:104740004FEAD76C0F2707FA0CF7BE434FEAD10C9C
:1047500000F1200747F82C60C6684FEA410C00E0E2
:1047600011E0032707FA0CF7BE43C660476801262D
:104770008E40B743476086684FEA410C032707FA2B
:104780000CF7BE438660491C24FA01F6002E7FF424
:1047900062AFF0BD800000580804005800000258C5
:1047A0000004025800080258000C02580010025879
:1047B0000014025800180258001C02580020025829
:1047C00000240258F8B502460B4600216F4DD7E091
:1047D00001278F401E6806EA0704002C72D01E795C
:1047E00006F00306012E04D01E7906F00306022E01
:1047F00013D190684F000326BE40B0434F00DE68DF
:10480000BE4030439060506801268E40B0431E7910
:10481000C6F300168E40304350601E7906F0030642
:10482000032E09D0D0684F000326BE40B0434F008E
:104830009E68BE403043D0601E7906F00306022E0B
:1048400013D1CF0802F1200656F827004E07F70EC5
:104850000F26BE40B0434F07FF0E1E69BE403043D7
:10486000CF0802F1200646F8270010684F00032603
:10487000BE40B0431E7906F003064F00BE403043F1
:1048800010605E6806F44036002E78D000BF404EBF
:10489000366846F002063E4F3E603E46366806F0F9
:1048A0000206009600BF00BF3A4E8F0856F8270058
:1048B0008E07370F0F26BE40B043374EB24202D1AB
:1048C00000262EE05BE0354EB24201D1012628E001
:1048D000334EB24201D1022623E0324EB24201D120
:1048E00003261EE0304EB24201D1042619E02F4EBD
:1048F000B24201D1052614E02D4EB24201D1062666
:104900000FE02C4EB24201D107260AE02A4EB242F5
:1049100001D1082605E0294EB24201D1092600E066
:104920000A268F073F0FBE4030431A4E8F0846F8C5
:1049300027004FF0B0463068A0435E6806F480164A
:1049400006B120434FF0B04630607068A0435E6807
:1049500006F4001606B120434FF0B0467060686858
:10496000A0435E6806F4003606B1204368602868FC
:10497000A0435E6806F4803606B120432860491CD7
:104980001E68CE40002E7FF423AFF8BD8000005893
:10499000F444025808040058000002580004025869
:1049A00000080258000C0258001002580014025867
:1049B00000180258001C0258002002580024025817
:1049C000024613690B400BB1012000E00020704744
:1049D00010B5426921EA020302EA010443EA0443F2
:1049E000836110BD0AB1816101E00B0483617047EE
:1049F00001480068000C70470010005C0148006826
:104A0000704700009400002408B500BF09490968F8
:104A100041F00201074A11601146096801F00201E4
:104A2000009100BF00BF044909680143024A1160B8
:104A300008BD0000F444025804040058034800680C
:104A4000034909780844014908607047940000242C
:104A50009C00002410B5032000F0BCF802F064FBB9
:104A600010490968C1F303210F4A515C01F01F018D
:104A700020FA01F40B48006800F00F001146085CB2
:104A800000F01F0024FA00F008490860084804609C
:104A90000F2000F00FF808B1012010BD00F036F82B
:104AA0000020FAE718440258B8F40008A4000024D3
:104AB000A000002470B504461148007808B9012010
:104AC00070BD0F4800784FF47A71B1FBF0F00D49DA
:104AD0000968B1FBF0F5284603F0AFFF08B10120EB
:104AE000EEE7102C07D200222146501E00F034F8C9
:104AF0000548046001E00120E2E70020E0E7000053
:104B00009C000024A00000249800002408B500BFE9
:104B10000648006840F00200044908600846006842
:104B200000F00200009000BF00BF08BDF44402582E
:104B30000146084600280DDB00BF00BF00F01F0340
:104B400001229A4043099B0003F1E023C3F80021AE
:104B500000BF00BF00BF70472DE9F05F80460D46E3
:104B6000164608F0C7FF074639462A46334601F085
:104B70000700C0F1070ABAF1040F02D94FF0040A86
:104B800001E0C0F1070AD14600F1040ABAF1070FAB
:104B900002D24FF0000A01E0A0F1030AD4464FF020
:104BA000010A0AFA09FAAAF1010A0AEA020A0AFA49
:104BB0000CFA4FF0010B0BFA0CFBABF1010B0BEAFB
:104BC000030B4AEA0B042146404608F09BFFBDE870
:104BD000F09F000000BF00F00702064B19684FF677
:104BE000FF031940044B0B4343EA0221014B1960B8
:104BF00000BF70470CED00E00000FA0570B50446F8
:104C000015480068C0F3800048B91348006800F0F8
:104C10000700A04201D0012070BD0020FCE70E4833
:104C2000006820F0070020430B490860FFF7E6FE0C
:104C3000054607E0FFF7E2FE401BB0F57A7F01D999
:104C40000120E9E7044808380068C0F34030002834
:104C5000F0D00020E0E700000C4802582DE9F843AE
:104C600004460D461746FFF7C9FE8046A86900B105
:104C700000BFE86900B100BF286A00B100BF00BFF3
:104C800094F84000012802D10220BDE8F8830120F9
:104C900084F8400000BF94F84100012828D100208A
:104CA0006064022084F8410043460022202120460F
:104CB000009705F067FC0646DEB90022294620462B
:104CC00005F01DFB686A78B943460122022120469F
:104CD000009705F057FC06465EB902202168C860BF
:104CE000012084F8410004E0012084F8410000E044
:104CF000022600BF002084F8400000BF3046C4E711
:104D0000F8B50446FFF77AFE06460CB90120F8BD57
:104D1000206A402800D000BF94F8410038B92046EE
:104D200000F046F841F28831204600F051F9206841
:104D3000006820F4F851A068401E41EA0020216874
:104D40000860A06C3346002220210090204605F028
:104D500019FC054635BB2179E06840EA0160E1694C
:104D60000843216A0843216809680F4A1140084333
:104D700021680860208A616941EA0040A16908430E
:104D800021684968094A1140084321684860206841
:104D9000006840F001002168086000206064012084
:104DA00084F841002846B2E72FFFFF00FEF8E0FF3D
:104DB00010B5B8B00446142132A8FBF7B6FCC021E8
:104DC00002A8FBF7B2FC4449206888427ED14FF02C
:104DD00000710020CDE90210159002A801F016F92B
:104DE00008B1FCF70DFB00BF3C48006840F4804070
:104DF0003A4908600846006800F48040019000BF0E
:104E000000BF00BF35480C30006840F01000334947
:104E10000C3108600846006800F01000019000BFE7
:104E200000BF00BF0846006840F002000860084666
:104E3000006800F00200019000BF00BF00BF0846FC
:104E4000006840F0080008600846006800F00800AC
:104E5000019000BF00BF0420329002203390002058
:104E60003490032035900920369032A91C48FFF772
:104E7000A9FC0420329002203390012034900320BA
:104E800035900920369032A91648FFF79BFC4FF465
:104E900060503290022033900020349003203590EF
:104EA0000920369032A91048FFF78CFC4020329040
:104EB0000220339001203490032035900A20369050
:104EC00032A90848FFF77EFC102000E001E0FFF760
:104ED0009BFD38B010BD000000500052D444025871
:104EE0000010025800040258000C02582DE9F84F37
:104EF00004460E4617460025FFF780FD80462068D1
:104F0000D0F81890206800F1200A00BF94F8400003
:104F1000012802D10220BDE8F88F012084F840006A
:104F200000BF94F8410001284AD100206064002E9F
:104F300040D0222084F8410020680069401CA06312
:104F400020680069401C606326632068406920F087
:104F5000406040F08060216848612068C0F8189087
:104F600013E04346012206212046009705F00AFB84
:104F7000054605B10CE09AF80000216B0870206B23
:104F8000401C2063A06B401EA063A06B0028E8D1EA
:104F900000BF5DB94346012202212046009705F07B
:104FA000F1FA054615B902202168C860012084F88D
:104FB000410006E0606C40F008006064012500E0FC
:104FC000022500BF002084F8400000BF2846A2E769
:104FD000816470472DE9F84304460E4617460025C4
:104FE000FFF70CFD8046206800F1200900BF94F80F
:104FF0004000012802D10220BDE8F883012084F896
:10500000400000BF94F84100012845D100206064B1
:10501000002E3BD0122084F8410020680069401C1B
:10502000E06220680069401CA062666220684069F6
:1050300020F040602168486113E0434601220421CA
:105040002046009705F09EFA054605B10CE0606A1F
:10505000007889F80000606A401C6062E06A401EC7
:10506000E062E06A0028E8D100BF5DB94346012252
:1050700002212046009705F085FA054615B9022061
:105080002168C860012084F8410006E0606C40F0AF
:1050900008006064012500E0022500BF002084F8BC
:1050A000400000BF2846A7E710B501F0F3FF05490F
:1050B0000968C1F30211044A515C01F01F01C840A4
:1050C00010BD000020440258B8F4000870B5014635
:1050D000844D2D6805F00303824D2D68C5F305103E
:1050E000804D2D1D2D6805F001047E4D0C352D6879
:1050F000C5F3CC0515FB04F501EE105AB8EE411AC4
:10510000F0EE410A00286FD023B1012B4ED0022BC4
:105110006BD16BE0734D283D2D68C5F340153DB351
:10512000704D283D2D68C5F3C1066F4D25FA06F276
:1051300001EE102AF8EE411A01EE100AB8EE411AFB
:1051400081EE812A9FED691AC0EE811A654D0835FE
:105150002D68C5F3080501EE105AB8EE411A31EE7C
:10516000811AF7EE001A31EE211A22EE010A1CE034
:1051700001EE100AB8EE411ADFED5D1A81EE812AC8
:105180009FED5A1AC0EE811A564D08352D68C5F3A9
:10519000080501EE105AB8EE411A31EE811AF7EE09
:1051A000001A31EE211A22EE010A5BE001EE100A2C
:1051B000B8EE411ADFED4F1A81EE812A9FED4B1AAE
:1051C000C0EE811A474D08352D68C5F3080501EE7C
:1051D000105AB8EE411A31EE811AF7EE001A31EE8C
:1051E000211A22EE010A3DE077E01DE001EE100AEF
:1051F000B8EE411A9FED402AC2EE011A9FED3B1A0C
:1052000080EE812A374D08352D68C5F3080501EE7B
:10521000105AB8EE411A32EE011AB7EE002A31EEFA
:10522000021A21EE810A1DE001EE100AB8EE411AC1
:10523000DFED2F1A81EE812A9FED2C1AC0EE811A24
:10524000284D08352D68C5F3080501EE105AB8EE53
:10525000411A31EE811AF7EE001A31EE211A22EED0
:10526000010A00BF00BF1F4D08352D68C5F3462554
:1052700001EE105AB8EE411AF7EE001A31EE211A7B
:10528000C0EE011ABCEEE11A81ED001A154D083589
:105290002D68C5F3064501EE105AB8EE411AF7EE37
:1052A000001A31EE211AC0EE011ABCEEE11A81EDAE
:1052B000011A0C4D08352D68C5F3066501EE105A2C
:1052C000B8EE411AF7EE001A31EE211AC0EE011ABB
:1052D000BCEEE11A81ED021A03E000250D604D607D
:1052E0008D6070BD284402580090D0030000004635
:1052F0000024744C0024744A20BCBE4B70B5014697
:10530000844D2D6805F00303824D2D68C5F30530EB
:10531000804D2D1D2D68C5F300147E4D14352D686C
:10532000C5F3CC0515FB04F501EE105AB8EE411A91
:10533000F0EE410A00286FD023B1012B4ED0022B92
:105340006BD16BE0734D283D2D68C5F340153DB31F
:10535000704D283D2D68C5F3C1066F4D25FA06F244
:1053600001EE102AF8EE411A01EE100AB8EE411AC9
:1053700081EE812A9FED691AC0EE811A654D1035C4
:105380002D68C5F3080501EE105AB8EE411A31EE4A
:10539000811AF7EE001A31EE211A22EE010A1CE002
:1053A00001EE100AB8EE411ADFED5D1A81EE812A96
:1053B0009FED5A1AC0EE811A564D10352D68C5F36F
:1053C000080501EE105AB8EE411A31EE811AF7EED7
:1053D000001A31EE211A22EE010A5BE001EE100AFA
:1053E000B8EE411ADFED4F1A81EE812A9FED4B1A7C
:1053F000C0EE811A474D10352D68C5F3080501EE42
:10540000105AB8EE411A31EE811AF7EE001A31EE59
:10541000211A22EE010A3DE077E01DE001EE100ABC
:10542000B8EE411A9FED402AC2EE011A9FED3B1AD9
:1054300080EE812A374D10352D68C5F3080501EE41
:10544000105AB8EE411A32EE011AB7EE002A31EEC8
:10545000021A21EE810A1DE001EE100AB8EE411A8F
:10546000DFED301A81EE812A9FED2C1AC0EE811AF1
:10547000284D10352D68C5F3080501EE105AB8EE19
:10548000411A31EE811AF7EE001A31EE211A22EE9E
:10549000010A00BF00BF1F4D10352D68C5F346251A
:1054A00001EE105AB8EE411AF7EE001A31EE211A49
:1054B000C0EE011ABCEEE11A81ED001A154D10354F
:1054C0002D68C5F3064501EE105AB8EE411AF7EE05
:1054D000001A31EE211AC0EE011ABCEEE11A81ED7C
:1054E000011A0C4D10352D68C5F3066501EE105AF2
:1054F000B8EE411AF7EE001A31EE211AC0EE011A89
:10550000BCEEE11A81ED021A03E000250D604D604A
:105510008D6070BD284402580090D0030000004602
:105520000024744C0024744A20BCBE4B70B5014664
:10553000844D2D6805F00303824D2D68C5F3055099
:10554000804D2D1D2D68C5F300247E4D1C352D6822
:10555000C5F3CC0515FB04F501EE105AB8EE411A5F
:10556000F0EE410A00286FD023B1012B4ED0022B60
:105570006BD16BE0734D283D2D68C5F340153DB3ED
:10558000704D283D2D68C5F3C1066F4D25FA06F212
:1055900001EE102AF8EE411A01EE100AB8EE411A97
:1055A00081EE812A9FED691AC0EE811A654D18358A
:1055B0002D68C5F3080501EE105AB8EE411A31EE18
:1055C000811AF7EE001A31EE211A22EE010A1CE0D0
:1055D00001EE100AB8EE411ADFED5D1A81EE812A64
:1055E0009FED5A1AC0EE811A564D18352D68C5F335
:1055F000080501EE105AB8EE411A31EE811AF7EEA5
:10560000001A31EE211A22EE010A5BE001EE100AC7
:10561000B8EE411ADFED4F1A81EE812A9FED4B1A49
:10562000C0EE811A474D18352D68C5F3080501EE07
:10563000105AB8EE411A31EE811AF7EE001A31EE27
:10564000211A22EE010A3DE077E01DE001EE100A8A
:10565000B8EE411A9FED402AC2EE011A9FED3B1AA7
:1056600080EE812A374D18352D68C5F3080501EE07
:10567000105AB8EE411A32EE011AB7EE002A31EE96
:10568000021A21EE810A1DE001EE100AB8EE411A5D
:10569000DFED301A81EE812A9FED2C1AC0EE811ABF
:1056A000284D18352D68C5F3080501EE105AB8EEDF
:1056B000411A31EE811AF7EE001A31EE211A22EE6C
:1056C000010A00BF00BF1F4D18352D68C5F34625E0
:1056D00001EE105AB8EE411AF7EE001A31EE211A17
:1056E000C0EE011ABCEEE11A81ED001A154D183515
:1056F0002D68C5F3064501EE105AB8EE411AF7EED3
:10570000001A31EE211AC0EE011ABCEEE11A81ED49
:10571000011A0C4D18352D68C5F3066501EE105AB7
:10572000B8EE411AF7EE001A31EE211AC0EE011A56
:10573000BCEEE11A81ED021A03E000250D604D6018
:105740008D6070BD284402580090D00300000046D0
:105750000024744C0024744A20BCBE4B2DE9F04355
:1057600089B006460F464FF4807186EA010038433F
:1057700070D1F748006800F00709B9F1050F65D24C
:10578000DFE809F0031221623000F1485038006868
:1057900000F00070B0F1007F04D106A8FFF796FC7E
:1057A000079C00E0002453E0E9485038006800F00E
:1057B0000060B0F1006F04D103A8FFF79FFD039CC8
:1057C00000E0002444E0E2485038006800F0005057
:1057D000B0F1005F04D16846FFF7A8FE009C00E02E
:1057E000002435E0DA48001F006800F04055D84832
:1057F0005038006800F00400042809D145B9D448A5
:1058000050380068C0F3C101D24820FA01F41AE010
:10581000CF485038006800F48070B0F5807F04D124
:10582000B5F1805F01D1CC4C0DE0C948503800681B
:1058300000F40030B0F5003F04D1B5F1005F01D1B4
:10584000C64C00E0002403E0C54C01E0002400BF8A
:10585000D4E3FFE74FF4007186EA010038437AD1C0
:10586000BB48006800F4E079B9F1800F2CD006DC69
:10587000B9F1000F0AD0B9F1400F69D115E0B9F1C3
:10588000C00F63D0B9F5807F62D12CE0B0485038AA
:10589000006800F00070B0F1007F04D106A8FFF7A7
:1058A00015FC079C00E0002454E0A948503800682B
:1058B00000F00060B0F1006F04D103A8FFF71EFDF7
:1058C000039C00E0002445E0A1485038006800F047
:1058D0000050B0F1005F04D16846FFF727FE009C3E
:1058E00000E0002436E09A48001F006800F04055B0
:1058F00097485038006800F00400042809D145B9E1
:10590000934850380068C0F3C101924820FA01F46E
:105910001BE08F485038006800F48070B0F5807F3D
:1059200004D1B5F1805F01D18B4C0EE0884850382E
:10593000006800F40030B0F5003F05D1B5F1005F1C
:1059400002D1864C01E006E0002403E0844C01E033
:10595000002400BF52E34FF4806186EA010038431F
:105960007BD17B480830006800F46009B9F5800FEE
:105970002CD006DCB9F1000F0AD0B9F5001F69D1AF
:1059800015E0B9F5C00F63D0B9F5000F62D12CE076
:105990006F485038006800F00070B0F1007F04D10B
:1059A00006A8FFF793FB079C00E0002454E068483A
:1059B0005038006800F00060B0F1006F04D103A817
:1059C000FFF79CFC039C00E0002445E06048503851
:1059D000006800F00050B0F1005F04D16846FFF7A6
:1059E000A5FD009C00E0002436E05948001F006837
:1059F00000F0405556485038006800F00400042874
:105A000009D145B9524850380068C0F3C101514826
:105A100020FA01F41BE04E485038006800F4807012
:105A2000B0F5807F04D1B5F1805F01D14A4C0EE022
:105A300047485038006800F40030B0F5003F05D109
:105A4000B5F1005F02D1454C01E006E0002403E01F
:105A5000434C01E0002400BFD0E24FF4006186EA2D
:105A60000100384373D13A480830006800F0E0691B
:105A7000B9F1007F2CD006DCB9F1000F0AD0B9F1E2
:105A8000807F75D115E0B9F1407F6FD0B9F1806F9B
:105A90006ED12CE02E485038006800F00070B0F154
:105AA000007F04D106A8FFF711FB079C00E000244B
:105AB00060E027485038006800F00060B0F1006FE7
:105AC00004D103A8FFF71AFC039C00E0002451E076
:105AD0001F485038006800F00050B0F1005F04D15A
