:020000040800F2
:1000000028910024AD020008B5820008F9740008A8
:1000100069820008F7040008B9B600080000000073
:100020000000000000000000000000004FA40008D5
:10003000550F0008000000005189000821A60008A3
:10004000C7020008C7020008C7020008C70200086C
:10005000C7020008C7020008C7020008C70200085C
:10006000C7020008C7020008C7020008D10900083B
:10007000DD090008C7020008C7020008C70200081F
:10008000C7020008C7020008C7020008C70200082C
:10009000C7020008C7020008C7020008C70200081C
:1000A000C7020008C7020008C7020008C70200080C
:1000B000C7020008C7020008C7020008C7020008FC
:1000C000C7020008C7020008C7020008C7020008EC
:1000D000C702000895B60008A1B60008ADB6000832
:1000E000C7020008C702000800000000C70200089D
:1000F000C7020008C7020008C7020008C7020008BC
:10010000C7020008E9920008C7020008C7020008F9
:10011000DDA70008C7020008C7020008C7020008E0
:10012000C7020008C7020008C7020008C70200088B
:10013000C7020008C7020008C7020008C70200087B
:1001400000000000000000000000000000000000AF
:10015000C7020008C7020008C7020008C70200085B
:10016000C7020008C7020008C7020008C70200084B
:10017000C7020008C7020008C5090008C702000836
:10018000C7020008C7020008E9A70008C702000864
:10019000C7020008C7020008C7020008C70200081B
:1001A000C7020008C7020008C7020008C70200080B
:1001B000C7020008C7020008C7020008C7020008FB
:1001C000C7020008C7020008C7020008C7020008EB
:1001D000C7020008C7020008C7020008C7020008DB
:1001E000C7020008C7020008C7020008C7020008CB
:1001F000C7020008C7020008C7020008C7020008BB
:10020000C7020008C7020008C7020008C7020008AA
:10021000C7020008C7020008C7020008C70200089A
:10022000C7020008C7020008C7020008000000005B
:10023000C7020008C702000800000000C70200084B
:10024000C7020008C7020008C7020008C70200086A
:10025000C7020008C7020008C7020008C70200085A
:10026000C7020008C7020008C7020008C70200084A
:10027000C7020008C7020008C7020008000000000B
:10028000C7020008C7020008C702000800000000FB
:1002900000000000C7020008DFF80CD000F0EEF804
:1002A00000480047050C01082891002406488047B3
:1002B00006480047FEE7FEE7FEE7FEE7FEE7FEE74B
:1002C000FEE7FEE7FEE7FEE701A700089902000847
:1002D0002DE9F05F0546002092469B46884606467B
:1002E000814640241BE0284641464746224600F00E
:1002F000B2F853465A46C01A914110D311461846D7
:10030000224600F099F82D1A67EB01084F46224665
:100310000120002100F090F817EB00094E41201E4B
:10032000A4F10104DFDC484631462A464346BDE8D5
:10033000F09F2DE9F0410024061B254671F10006CF
:1003400005DA01240027D0EB070067EB0101161E38
:1003500073F1000605DA0027D2EB0702012567EBEF
:100360000303FFF7B5FF86460E4617469C46AC4290
:1003700004D00025D0EB050E65EB010624B100206A
:10038000D2EB000760EB030C704631463A466346F9
:10039000BDE8F08140EA01039B0703D009E008C9EA
:1003A000121F08C0042AFAD203E011F8013B00F83A
:1003B000013B521EF9D27047D2B201E000F8012B86
:1003C000491EFBD270470022F6E710B513460A46D5
:1003D00004461946FFF7F0FF204610BD30B504462D
:1003E0000020034600E05B1C934203D2E05CCD5C3E
:1003F000401BF8D030BD10B500F0004420F00040A4
:10040000C20DC0F3160040F400007F2A02DA00207B
:10041000014610BD0021962A03DCC2F19602D040AD
:1004200002E0963A00F008F8002CF2D00023D0EB5E
:10043000030063EB010110BD202A04DB203A00FA1F
:1004400002F1002070479140C2F1200320FA03F32B
:10045000194390407047202A04DB203A21FA02F029
:100460000021704721FA02F3D040C2F120029140EE
:10047000084319467047002070470000064C074D9E
:1004800006E0E06840F0010394E807009847103464
:10049000AC42F6D3FFF704FF1C1C02084C1C0208F8
:1004A00070B58C1810F8015B15F0070301D110F836
:1004B000013B2A1106D110F8012B03E010F8016B63
:1004C00001F8016B5B1EF9D12B0705D40023521EE6
:1004D0000DD401F8013BFAE710F8013BCB1A921C4E
:1004E00003E013F8015B01F8015B521EF9D5A1424C
:1004F000D8D3002070BDFEE72DE9F04100240BF0B9
:1005000078FD050013D03648006840F25146721C51
:100510000021C0F30A000123A0F58067493F04D001
:10052000B04207D141F0010108E0194606E020463B
:10053000BDE8F081904201D1012000E0002001439C
:1005400028494FF0180008D088608868182843D1DF
:100550008B6088680028FCD13DE0234E4FF00A47AD
:10056000224AD6F800C0B7EB4C5F08D11060106883
:10057000182831D1136010680028FCD12BE0D6F880
:1005800000C0CCF30A0CACF58067833F0AD0376813
:100590004FF01042B2EB475F12D18860886818288C
:1005A00009D019E010601068182815D11360106880
:1005B0000028FCD10FE08B6088680028FCD10AE09D
:1005C0003268520508D188608868182804D18B6089
:1005D00088680028FCD1012428460BF07DFDA6E7A1
:1005E000002004E0003002400010005C084C02587B
:1005F0002DE9F0410BF0FDFC35490B6840F2514507
:100600006C1C0021C3F30A030122A3F58066493E56
:1006100004D0AB4204D141F0010105E0114603E0F2
:10062000A34201D1012300E000232A4D2A4E1943A1
:100630002A4908D08A608A68002AFCD10D600968BE
:10064000B14241D0FEE7264C4FF00A4C254BD4F87E
:1006500000E0244F0837BCEB4E5F08D13A603968A0
:100660000029FCD11D601968B1422DD0FEE7D4F8F5
:1006700000E0CEF30A0EAEF5806CBCF1830C0ED018
:1006800027684FF01043B3EB475F11D18A608A6847
:10069000002AFCD10D600968B14215D0FEE73A602E
:1006A00039680029FCD11D601968B1420CD0FEE701
:1006B00023685B0508D18A608A68002AFCD10D6036
:1006C0000968B14200D0FEE70BF006FDBDE8F081FD
:1006D000002004E0C2A507F4CDB5E8B50030024023
:1006E0000010005C004C025800204FF48031074A93
:1006F00002E0536B1B0602D4491E4B1CF9D111B109
:100700000349916370470320704700000070005256
:10071000FF0FE01F10B50E4A516B11F0450FFBD0D3
:100720000C4B4C0704D5042090639363032010BD49
:10073000C90702D00120906310BD1169814201D028
:10074000102010BD9363506900F0080010BD000038
:1007500000700052FF0FE01F10B500204FF48032F0
:100760000D4C03E0616B11F0450F02D1521E531C7A
:10077000F8D10AB14A0705D50320A16B41F0040165
:10078000A16310BDC90704D00120A16B41F0010194
:10079000A1630249A16310BD00700052FF0FE01F6A
:1007A0000849486B10F0450FFBD0400705D5886B12
:1007B00040F00400886303207047034888630020EA
:1007C0007047000000700052FF0FE01F30B5054673
:1007D0000020174B5A6B12F0450FFBD0540705D57C
:1007E000986B40F004009863032030BDD20705D019
:1007F000986B40F001009863012030BD1A69AA424D
:1008000001D0102030BD0B4A9A635A6912F4604F30
:1008100003D0910404D5132030BD120C0A8030BDE2
:10082000510401D5102030BD1104FCD50F2030BD7E
:1008300000700052FF0FE01F10B500204FF480320F
:100840000C4B03E0596B11F0450F02D1521E541CA2
:10085000F8D10AB14A0705D50320996B41F004018C
:10086000996310BD4906FCD50020996B41F0400109
:10087000996310BD007000522DE9F043814688460F
:1008800015461E4600240B4F04EB041117F8110007
:10089000A84209D107EB41014878B04204D1891C34
:1008A0004246484600F02AF8641CA4B2382CEBD328
:1008B000BDE8F083987201082DE9F043814688462F
:1008C00015461E4600240C4F04EB840000EB441038
:1008D00017F81010A94209D107EB40014878B0423F
:1008E00004D1891C4246484600F008F8641CA4B2B2
:1008F000092CE9D3BDE8F0836E7A010810B5002316
:1009000004E011F8014B00F8014B5B1C9342F8D353
:1009100010BD10B5806B816C496D022906D0012194
:1009200080F83510C16C41F04001C16400F05AFC00
:1009300010BD10B5846BA26B806B002A806C0168BF
:100940001FD00A6802F40022A36BDB070BD152B15F
:10095000C968E26B01EBC201002200F08DFEA06BC2
:10096000401EA0631DE00A6812031AD40969E26BF5
:1009700001EBC201012200F07FFEA06B401EA063CC
:100980000FE00868000302D5606CC86009E00868E1
:10099000000306D4606CE26B00EB82000861206CFF
:1009A000A063A06B216C88420BD12068C16841F024
:1009B0000101C16020680068800702D5012084F829
:1009C000350010BD014800F01DBC00000880002467
:1009D000014801F0B3BB0000D080002410B50748E7
:1009E00001F0A8FB054801F0A3FB054808F0CAFA8E
:1009F000BDE81040014801F0A1BB00005880002470
:100A00000880002410B52C4A016891423AD02A4A45
:100A10001832914236D0284A3032914232D0264A9A
:100A2000483291422ED0244A603291422AD0224A42
:100A30007832914226D0204A9032914222D01E4AEA
:100A4000A83291421ED01D4A91421BD01B4A183237
:100A5000914217D0194A3032914213D0174A483286
:100A600091420FD0154A603291420BD0134A78322E
:100A7000914207D0114A9032914203D00F4AA832D6
:100A8000914214D1CAB2103A1823B2FBF3F20C4CC3
:100A900002F00703E35CC365032A04D96FF309017D
:100AA000091D816506E06FF30901816502E021F00F
:100AB000FF018165806D10BD1000024010040240EE
:100AC000985A010810B501680123224CCAB2A1420C
:100AD0001BD0204C1434A14217D01E4C2834A14204
:100AE00013D01C4C3C34A1420FD01A4C5034A142BC
:100AF0000BD0184C6434A14207D0164C7834A14274
:100B000003D0144C8C34A1420FD1083A1421B2FB0B
:100B1000F1F1114A02EB810202660F4A803242660D
:100B200001F01F018B40836610BD103A1824B2FB00
:100B3000F4F20A4C2144A82900D80832084901EBF4
:100B40008201016606498031416602F01F018B4037
:100B5000836610BD0854025800580258F0FBFDBFD0
:100B6000000802400279521E072A31D8194B016849
:100B700099421BD0174B1433994217D0154B283389
:100B8000994213D0134B3C3399420FD0114B503341
:100B900099420BD00F4B6433994207D00D4B7833F9
:100BA000994203D00B4B8C33994207D10A4901EB90
:100BB0008201C16608494031016706E0074901EB3F
:100BC0008201C166054940310167012191404167B9
:100BD00070470000085402580059025800090240AA
:100BE000014610B500208B694FF0C0748A6A002B53
:100BF0000ED0B3F5005F1AD062B3012A2AD0022AC0
:100C000028D0032A03D1C96AC90100D5012010BD2B
:100C10001AB1012A06D0022AF9D1C96AC901F6D54A
:100C2000012010BDC96AA142FBD1012010BD52B103
:100C3000012A0AD0022A06D0032AF7D1C96AA142A2
:100C4000F4D1012010BD012010BDC96AC901FBD536
:100C5000012010BD012010BD30B52D4D0468AC42FF
:100C60003AD02B4D1835AC4236D0294D3035AC42F8
:100C700032D0274D4835AC422ED0254D6035AC42A0
:100C80002AD0234D7835AC4226D0214D9035AC4248
:100C900022D01F4DA835AC421ED01E4DAC421BD0F9
:100CA0001C4D1835AC4217D01A4D3035AC4213D01C
:100CB000184D4835AC420FD0164D6035AC420BD0C4
:100CC000144D7835AC4207D0124D9035AC4203D06C
:100CD000104DA835AC420DD163608368402B04D021
:100CE000036899600068C26030BD03689A6000685C
:100CF000C16030BD63608368402B04D00368996095
:100D00000068C26030BD03689A600068C16030BD91
:100D100010000240100402402DE9F04F856D8A4E0C
:100D2000894FDFF824C2A836DFF81C82DFF818925A
:100D30000CF1180CDFF810A208F13008DFF808B247
:100D400009F1480904680AF1600A0BF1780BBC420A
:100D50006DD064456BD0444569D04C4567D054454F
:100D600065D05C4563D0DFF8E0E10EF1900E74458C
:100D70005DD0B4425BD0DFF8D4E1744557D0DFF8E2
:100D8000CCE10EF1180E744551D0DFF8C0E10EF140
:100D9000300E74454BD0DFF8B4E10EF1480E7445C7
:100DA00045D0DFF8A8E10EF1600E74453FD0DFF8C2
:100DB0009CE10EF1780E744539D0DFF890E10EF128
:100DC000900E744533D0DFF884E10EF1A80E74451F
:100DD0002DD0DFF87CE1744529D0DFF874E10EF105
:100DE000140E744523D0DFF868E10EF1280E744527
:100DF0001DD0DFF85CE10EF13C0E744517D0DFF832
:100E000050E10EF1500E744511D0DFF844E10EF1BF
:100E1000640E74450BD0DFF838E10EF1780E74459E
:100E200005D0DFF82CE10EF18C0E744509D1D0E924
:100E300019E4CEF80440C46E1CB1D0E91CE4CEF82D
:100E400004400468BC422ED064452CD044452AD0CE
:100E50004C4528D0544526D05C4524D03A4F903795
:100E6000BC4220D0B4421ED0384EB4421BD0374EC4
:100E70001836B44217D0354E3036B44213D0334E04
:100E80004836B4420FD0314E6036B4420BD02F4EAC
:100E90007836B44207D02D4E9036B44203D02B4E54
:100EA000A836B4421BD190F85C4004F01F063F24E2
:100EB000B440AC600468256825F48025256004688A
:100EC00063608368402B05D0036899600068C26046
:100ED000BDE8F08F03689A600068C160F8E71C4EB7
:100EE000B4421BD01A4E1436B44217D0184E2836CE
:100EF000B44213D0164E3C36B4420FD0144E503686
:100F0000B4420BD0124E6436B44207D0104E78363D
:100F1000B44203D00E4E8C36B442D9D190F85C4026
:100F200004F01F060124B4406C60046863608368A9
:100F3000402B04D0036899600068C260C8E703686A
:100F40009A600068C160C3E71000024010040240CC
:100F500008540258704700002DE9FF4114461D4611
:100F6000084B1A88121A92B25B885B1A9BB2002651
:100F70001027CDE90246CDE9005709F0BDFABDE8DA
:100F8000FF8100007C85002472B6FEE73CB5044674
:100F90000D4600200090019008220121102008F049
:100FA000DBFC1020FFF7B6FB002832D12204012120
:100FB000372008F0D1FC3720FFF7ACFB002828D100
:100FC000012303220821401E08F0D2FC0022012147
:100FD000332008F0C1FC3320FFF79CFB002818D118
:100FE000274A40F22A5309E0546B210306D4D2F871
:100FF00080100091D2F88010019102E0546B1C42E5
:10100000F2D0516B090705D5906B40F00800906352
:1010100004203CBD516B890705D5906B40F0020060
:10102000906302203CBD516B890605D5906B40F062
:101030002000906306203CBD124991630099009AFC
:1010400002F47F42090641EA0221009A02F47F027B
:1010500041EA1221009A41EA126169600199019AFC
:1010600002F47F42090641EA0221019A02F47F025A
:1010700041EA1221019A41EA126129603CBD000057
:1010800000700052FF0FE01F30B4054608461446BA
:1010900019462A786B78812A0FD3402B0DD3FF2B6A
:1010A0000BD0FF2A09D00C2910D0102910D01829F4
:1010B0000CD1214630BCFFF7FFBB0021002203E02A
:1010C00000F8012B491CC9B2A142F9D330BC7047CA
:1010D000214630BCFFF7D0BBF0B5054600201F23EA
:1010E000CC071CD001275B1E5C1C05D003F01F063B
:1010F00007FA06F40C42F6D032B1082A19D0102AA9
:1011000013D0182A0DD00120002807D12B6859616F
:1011100029688B6823F0180313438B60F0BD01200E
:10112000F2E7072BF0D30120EEE7082BECD30120E8
:10113000EAE7102BE8D30120E6E7000010B50446EB
:10114000002C02D0607F10B106E0012010BD00200D
:101150002077204600F032F802206077207938B1FD
:10116000D4E902122046FFF7B7FF48B1012010BDB5
:101170002168114848612068816821F01801816068
:101180006079A0B12168206908612068816862697E
:1011900021F060011143816020688168A26921F01B
:1011A00080011143816001206077002010BD21681B
:1011B0004FF0FF300861E8E7B71DC10408B50068CB
:1011C0000649884208D10648016841F400210160BF
:1011D000006800F40020009008BD0000004C025898
:1011E000E04402587047000010B50446204600F065
:1011F0000BFA204600F0CEF901490120487010BDDD
:10120000000000242DE9F0410446206805694FF0F4
:101210000406234F69070BD54661E06C40F00200DD
:10122000E06484F83560A06C0765A06C00F028FECF
:10123000A8070DD5216802204861E06C40F001004C
:10124000E06484F83560A06C0765A06C00F018FEBF
:10125000E80605D5216810204861204600F070F8A6
:10126000280705D5216808204861204600F002FAC9
:10127000E80712D020680168890703D5C16821F00A
:101280001E01C1602068C16821F00101C1602168B0
:10129000012048612046FFF7A7FFBDE8F08100006C
:1012A0001309000810B50446002C03D094F835004B
:1012B00010B104E0012010BD204600F043F80220E8
:1012C00084F83500A069002200B1626220680168DC
:1012D0001A4B19400160616860690143D4E9030356
:1012E00018430143A0680143A0690143206A0143F8
:1012F000606A0143A06A0143E06A0143206B014335
:101300002068036819430160606810280BD1617F71
:10131000207FE37F40EA0120A17F090441EA0361C5
:101320000843216888612068C16841F01E01C160DE
:10133000E264012084F83500002010BD07F0E0FFD2
:10134000704700002DE9F04186B08046142101A8C5
:10135000FFF739F84F49D8F8000088427ED14E484F
:10136000016841F001010160006800F00100009097
:101370004949091D086840F010000860086800F03D
:1013800010000090086840F001000860086800F054
:1013900001000090086840F004000860086800F050
:1013A00004000090086840F008000860086800F039
:1013B00008000090086840F002000860086800F02B
:1013C00002000090732001900224029401260396EB
:1013D000032504950D270597304801A901F07CFFEE
:1013E00050200190029403960495059701A92C487A
:1013F00001F072FFC02001900294039604950597B6
:1014000001A9284801F068FF082001900294039682
:101410000495059701A9244801F05EFF8020019002
:10142000029403960495059701A9204801F054FF02
:10143000202002F085F81F4C1D4820604B20606082
:101440000020A060E060B102216189006161890033
:10145000A1618911E1612904216200E016E0042103
:101460006162A562E0622063204601F03BFA08B1A8
:10147000FFF78AFDC8F84840C4F8388000224E20A3
:10148000114602F0F9F84E2002F0E9F806B0BDE886
:10149000F081000000000248DC44025800100258AD
:1014A0000000025800080258000C025800040258BC
:1014B0002800024058800024F8B5044694F834000F
:1014C000012830D0012684F83460022084F83500E9
:1014D0002068056845F4804505602068056825F0AA
:1014E00002050560206805680D430560A16C27486A
:1014F000C863A56C2649E9640025A16C0D65A56348
:101500002564E5636564310440278B420DD2216870
:10151000A06C283101F0B4FC70B33434A76166705C
:1015200025700120F8BD0220F8BDD4F848C0CCF8E1
:101530004400A663E363626405E0E06B4008E06397
:10154000A06B4000A063E06B8842F6D2A06B801EC7
:10155000A063A06B2064E06B02EB8003E06B009063
:101560002168A06C283100F0D5F828B13434A76187
:10157000667025700120F8BD2068016841F0010106
:10158000016084F834500020F8BD000033090008E1
:101590001309000870B504461A484FF4FA51006860
:1015A000B0FBF1F0C9104843002594F8341001292C
:1015B0001FD0012684F83460022184F83510216898
:1015C0000A6822F001020A602168401E98B10A6888
:1015D000D207FAD1086820F480400860343460698A
:1015E00000F090FAA069A061667000202070284683
:1015F00070BD022070BDE06C40F02000E064032567
:10160000E8E70000D800002430B519494FF4FA5239
:101610000968B1FBF2F1D2105143002390F8342055
:10162000012A07D0012480F8344090F83520022A9E
:1016300002D00FE0022030BD052280F8352002687C
:10164000156825F001051560491E41B10268126850
:10165000D207F9D1002180F83410184630BDC16C92
:1016600041F02001C16480F835400323F2E7000017
:10167000D8000024704700000068244B98423AD0FC
:10168000224B1833984236D0204B3033984232D018
:101690001E4B483398422ED01C4B603398422AD0C0
:1016A0001A4B7833984226D0184B9033984222D068
:1016B000164BA83398421ED0154B98421BD0144BA2
:1016C0001833984217D0124B3033984213D0104B36
:1016D000483398420FD00E4B603398420BD00C4BDE
:1016E0007833984207D00A4B9033984203D0084B86
:1016F000A833984204D10AB1016103E0C16001E05E
:1017000012B1016100207047C160FBE71000024088
:10171000100402402DE9FF4F81B00446DDF838E0A7
:1017200000200090A068802812D094F8340001288E
:1017300013D0012184F8341094F8350001280ED01C
:10174000C802606501200090009805B0BDE8F08FE8
:101750004FF4807060650120F7E70220F5E7022072
:1017600084F8350000206065E34DE34EE24F183504
:10177000E14A3036DFF880834837DFF87C93DFF8C2
:1017800078A308F16008DFF870B309F178092068E0
:101790000AF1900A0BF1A80B90422CD0A8422AD053
:1017A000B04228D0B84226D0404524D0484522D067
:1017B000504520D058451ED0D04A90421BD0CF4A29
:1017C0001832904217D0CD4A3032904213D0CB4AD3
:1017D000483290420FD0C94A603290420BD0C74A7B
:1017E0007832904207D0C54A9032904203D0C34A23
:1017F000A83290420ED1016841F480210160206836
:101800000361A06D94F85C1001F01F023F2191402C
:1018100081600EE0026848F2200C42EA0C0202608D
:1018200020680361A06D94F85C2002F01F029140D3
:1018300041607346DDE902122046FFF70DFAB04A17
:10184000DFF8B4C2DFF8B8E23C322068AC490EF1F0
:10185000140E604546D0A84244D0B04242D0B842AF
:1018600040D040453ED048453CD050453AD0584500
:1018700038D0A24B984235D0A04B1833984231D083
:101880009E4B303398422DD09C4B4833984229D000
:101890009A4B6033984225D0984B7833984221D0A8
:1018A000964B903398421DD0944BA833984219D050
:1018B000884217D0704515D0914B2833984211D0EB
:1018C00090420FD08E4B503398420BD08C4B6433E8
:1018D000984207D08A4B7833984203D0884B8C3398
:1018E000984207D1D4E919305860E06E10B1D4E9BC
:1018F0001C3058606346206898423BD0A84239D0DB
:10190000B04237D0B84235D0404533D0484531D0C9
:1019100050452FD058452DD0DFF8E0C1604529D083
:10192000DFF8D8C10CF1180C604523D0DFF8CCC12A
:101930000CF1300C60451DD0DFF8C0C10CF1480C33
:10194000604517D0DFF8B4C10CF1600C604511D0D0
:10195000DFF8A8C10CF1780C60450BD0DFF89CC112
:101960000CF1900C604505D0DFF890C10CF1A80C8B
:1019700060451AD1D0F800C02CF01E0C4CF0160CAB
:10198000C0F800C02068D0F814C04CF0800CC0F83B
:1019900014C0206C08B9A06CD0B12068D0F800C089
:1019A0004CF0080CC0F800C012E0D0F800C02CF0D9
:1019B0000E0C4CF00A0CC0F800C0206C08B9A06CEA
:1019C00030B12068D0F800C04CF0040CC0F800C062
:1019D00020689C46984246D0A84244D0B04242D0AB
:1019E000B84240D040453ED048453CD050453AD022
:1019F000584538D0414B984235D0404B1833984227
:101A000031D03E4B303398422DD03C4B4833984236
:101A100029D03A4B6033984225D0384B78339842DE
:101A200021D0364B903398421DD0344BA833984286
:101A300019D0884217D0704515D0314928318842D5
:101A400011D090420FD02E49503188420BD02C49F2
:101A50006431884207D02A497831884203D0284926
:101A60008C3188420DD1206E0168C90303D501680D
:101A700041F480710160E06E18B1016841F4807139
:101A80000160206860452CD0A8422AD0B04228D0FE
:101A9000B84226D0404524D0484522D0504520D0D9
:101AA00058451ED0154988421BD014491831884228
:101AB00017D012493031884213D01049483188423A
:101AC0000FD00E49603188420BD00C4978318842E2
:101AD00007D00A499031884203D00849A83188428A
:101AE00004D1016841F0010101602DE6016841F077
:101AF0000101016028E600001000024010040240CD
:101B0000085402582DE9F84F044601F013FD0090E7
:101B10005CB194F83500022809D08020606500206F
:101B200084F834000120BDE8F88F0120FBE7D14E96
:101B3000D04FD0491836DFF83C833037DFF8349384
:101B4000DFF830A308F14808DFF828B309F160098D
:101B500020680AF1780A0BF1900B88422ED0B0422F
:101B60002CD0B8422AD0404528D0484526D05045F0
:101B700024D0584522D0BF4AA83290421ED0BE4A37
:101B800090421BD0BC4A1832904217D0BA4A303229
:101B9000904213D0B84A483290420FD0B64A6032D1
:101BA00090420BD0B44A7832904207D0B24A903279
:101BB000904203D0B04AA83290420AD1026822F083
:101BC0001E0202602068426922F08002426125689C
:101BD00004E0026822F00E02026025682068884254
:101BE0004DD0B0424BD0B84249D0404547D048458F
:101BF00045D0504543D0584541D09E4AA8329042E6
:101C00003DD09D4A90423AD09B4A1832904236D0FD
:101C1000994A3032904232D0974A483290422ED080
:101C2000954A603290422AD0934A7832904226D028
:101C3000914A9032904222D08F4AA83290421ED0D0
:101C40008E4A90421BD08D4A1432904217D08B4A54
:101C50002832904213D0894A3C3290420FD0874AB2
:101C6000503290420BD0854A6432904207D0834A6A
:101C70007832904203D0814A8C32904204D1206E57
:101C8000026822F4807202607A49206888422ED06D
:101C9000B0422CD0B8422AD0404528D0484526D062
:101CA000504524D0584522D07249A83188421ED0D0
:101CB000714988421BD070491831884217D06E494B
:101CC0003031884213D06C49483188420FD06A497C
:101CD000603188420BD068497831884207D0664924
:101CE0009031884203D06449A831884204D1016808
:101CF00021F00101016013E0016821F001010160A0
:101D00000EE001F017FC0099401A052808D92020A0
:101D1000343420620320607000202070012002E72C
:101D20002868C007EDD1534A0121206890422ED087
:101D3000B0422CD0B8422AD0404528D0484526D0C1
:101D4000504524D0584522D04A4BA83398421ED043
:101D5000494B98421BD0484B1833984217D0464BFA
:101D60003033984213D0444B483398420FD0424B03
:101D7000603398420BD0404B7833984207D03E4BAB
:101D80009033984203D03C4BA833984208D1A06DC1
:101D900094F85C3003F01F053F23AB40836007E0FD
:101DA000A06D94F85C3003F01F0301FA03F3436065
:101DB000206890424DD0B0424BD0B84249D0404507
:101DC00047D0484545D0504543D0584541D0294A91
:101DD000A83290423DD0284A90423AD0264A183242
:101DE000904236D0244A3032904232D0224A483291
:101DF00090422ED0204A603290422AD01E4A783239
:101E0000904226D01C4A9032904222D01A4AA832E0
:101E100090421ED0194A90421BD0184A1432904268
:101E200017D0164A2832904213D0144A3C329042BE
:101E30000FD0124A503290420BD0104A6432904276
:101E400007D00E4A7832904203D00C4A8C3290422E
:101E50000BD1D4E919205060E06E30B1026822F451
:101E600080720260D4E91C2050603434617000201C
:101E7000207058E610000240100402400854025836
:101E80002DE9F05F002808D090F83510022906D01F
:101E9000802141650120BDE8F09F0120FBE7A14AB8
:101EA000A04BA04C18329F4D30339E4E4834DFF883
:101EB00074B26035DFF870C27836DFF86C82DFF814
:101EC00068920CF1300CDFF860A208F1600801683C
:101ED00009F17809944F0AF1900A594531D091429D
:101EE0002FD099422DD0A1422BD0A94229D0B14266
:101EF00027D0DFF830E20EF1900E714521D0DFF8E7
:101F000024E20EF1A80E71451BD0DFF81CE2AEF101
:101F1000180E714515D0B94213D0DFF80CE20EF15E
:101F2000180E71450DD061450BD0DFF8FCE10EF1C4
:101F3000480E714505D0414503D0494501D0514572
:101F400037D14FF0040E80F835E0594527D0914243
:101F500025D0994223D0A14221D0A9421FD0B1421D
:101F60001DD070489030814219D06E48A83081420F
:101F700015D06D481838814211D0B9420FD06A4847
:101F8000183081420BD0614509D067484830814202
:101F900005D0414503D0494501D0514504D10868D9
:101FA00020F001000860BAE0086820F00100086035
:101FB000B5E0D1F800E02EF00E0EC1F800E00168A7
:101FC000DE46594531D091422FD099422DD0A142C1
:101FD0002BD0A94229D0B14227D0DFF848B10BF16C
:101FE000900B594521D0DFF83CB10BF1A80B5945B6
:101FF0001BD0DFF834B1ABF1180B594515D0B942FD
:1020000013D0DFF824B10BF1180B59450DD0614501
:102010000BD0DFF814B10BF1480B594505D0414501
:1020200003D0494501D0514506D1D1F800B02BF07D
:10203000010BC1F800B005E0D1F800B02BF0010BA6
:10204000C1F800B001684FF0010B714546D09142D4
:1020500044D0994242D0A14240D0A9423ED0B142A0
:102060003CD0304A9032914238D02E4AA832914228
:1020700034D02D4A183A914230D0B9422ED02A4A53
:10208000183291422AD0614528D0274A48329142DD
:1020900024D0414522D0494520D051451ED0234A65
:1020A00091421BD0214A1432914217D01F4A283244
:1020B000914213D01D4A3C3291420FD01B4A5032FC
:1020C00091420BD0194A6432914207D0174A7832B4
:1020D000914203D0154A8C32914218D1016E0A68A0
:1020E00022F480720A60816D90F85C2002F01F0279
:1020F0000BFA02F24A60D0E919215160C16E31B188
:102100000A6822F480720A60D0E91C21516080F8CC
:1021100035B0002180F83410016D01B188470020EE
:10212000B9E600001000024028040240085402589A
:10213000406D704790F83500704700002DE9FF5F53
:102140000446002001904FF41651FD480068B0FB92
:10215000F1F00090A56D2E682968FA4FDFF8E4B31E
:10216000DFF8E083DFF8DC930BF1180BDFF8D4A382
:1021700008F13008206809F148090AF1600AB842FC
:102180003BD05A46904238D0404536D0484534D0AE
:10219000504532D0EB4A783290422ED0E94A903204
:1021A00090422AD0E74AA832904226D0E64A90428E
:1021B00023D0E54A183290421FD0E34B3033984287
:1021C0001BD0E14B4833984217D0DFF87CC30CF1A9
:1021D000600C604511D0DFF870C30CF1780C6045DD
:1021E0000BD0DFF864C30CF1900C604505D0DFF82C
:1021F00058E30EF1A80E70457ED194F85C100823C8
:1022000001F01F0103FA01F232424BD0B84232D042
:10221000584530D040452ED048452CD050452AD086
:10222000C8497831884226D0C6499031884222D0A8
:10223000C449A83188421ED0C34988421BD0C24934
:102240001831884217D0C0493031884213D0BE4976
:10225000483188420FD0BC49603188420BD0BA491E
:102260007831884207D0B8499031884203D0B649C6
:10227000A831884203D1016801F0040102E001683D
:1022800001F0080171B1016821F00401016094F8C6
:102290005C0000F01F0003FA00F2AA60606D40F0DD
:1022A0000100606594F85C00012100F01F0081408E
:1022B000314240D02068B84234D0584532D04045F1
:1022C00030D048452ED050452CD09E4A783290428E
:1022D00028D09C4A9032904224D09A4AA832904208
:1022E00020D0994A90421DD0974A1832904219D076
:1022F000954A3032904200E0D2E113D0924A4832FF
:1023000090420FD0904A603290420BD08E4A783281
:10231000904207D08C4A9032904203D08A4AA83229
:1023200090427DD1406910F0800F04D0A960606DAB
:1023300040F00200606594F85C00042100F01F008A
:10234000814031423ED02068B84232D0584530D02A
:1023500040452ED048452CD050452AD0794A783275
:10236000904226D0774A9032904222D0754AA832C5
:1023700090421ED0744A90421BD0734A1832904249
:1023800017D0714A3032904213D06F4A483290428F
:102390000FD06D4A603290420BD06B4A7832904237
:1023A00007D0694A9032904203D0674AA8329042DF
:1023B0004ED1006810F0020F04D0A960606D40F0AB
:1023C0000400606594F85C00102100F01F0081405B
:1023D000314260D02068B84234D0584532D04045B0
:1023E00030D048452ED050452CD0564A78329042B5
:1023F00028D0544A9032904224D0524AA832904277
:1024000020D0514A90421DD04F4A1832904219D0E4
:102410004D4A3032904215D04B4A4832904200E04B
:1024200014E00FD0484A603290420BD0464A7832CE
:10243000904207D0444A9032904203D0424AA83298
:10244000904207D1006800F0080006E0006872E7DB
:102450000068B7E7006800F0040058B1A960206880
:10246000016849030CD50068000304D4216C09B14C
:10247000204688470FE0A16C69B1204688470AE0F2
:102480000168C90503D4016821F008010160216CCD
:1024900009B12046884794F85C00202100F01F0015
:1024A000814031427BD02068B84232D0584530D08C
:1024B00040452ED048452CD050452AD0214A78326C
:1024C000904226D01F4A9032904222D01D4AA83214
:1024D00090421ED01C4A90421BD01B4A1832904298
:1024E00017D0194A3032904213D0174A48329042DE
:1024F0000FD0154A603290420BD0134A7832904286
:1025000007D0114A9032904203D00F4AA83290422D
:1025100003D1006800F0100002E0006800F0020043
:10252000E8B3A96094F83500042812D02068016847
:1025300049033DD50068000335D4616C79B305E0EB
:10254000D8000024100002401004024020468847B2
:102550003FE02068016821F01601016020684169B0
:1025600021F080014161206C08B9A06C20B1206885
:10257000016821F00801016094F85C0000F01F017F
:102580003F208840A860012084F83500002084F8AE
:102590003400216D002974D004B0204600E018E01A
:1025A000BDE8F05F0847E16B99B12046884710E02D
:1025B0000168C90509D4016821F0100101600120FA
:1025C00084F83500002084F83400E16B09B120461E
:1025D0008847606D002854D0606DC00758D0042033
:1025E00084F835002068B84231D058452FD0404596
:1025F0002DD048452BD0504529D0B749884226D008
:10260000B5491831884222D0B349303188421ED0B2
:10261000B24988421BD0B1491831884217D0AF491E
:102620003031884213D0AD49483188420FD0AB4990
:10263000603188420BD0A9497831884207D0A74938
:102640009031884203D0A549A831884204D101685D
:1026500021F00101016003E0016821F00101016046
:1026600021680198009A401C0190904202D80868A5
:10267000C007F6D10868C00704D0032084F83500ED
:1026800003E087E0012084F83500002084F834005E
:10269000E16C00297ED004B02046BDE8F05F084719
:1026A0008F4EB0421BD08E4E1436B04217D08C4E97
:1026B0002836B04213D08A4E3C36B0420FD0884EF6
:1026C0005036B0420BD0864E6436B04207D0844EAE
:1026D0007836B04203D0824E8C36B0425AD106686A
:1026E0004FF0040E94F85CB00BF01F0B0EFA0BFECB
:1026F0001EEA010FCDF80CE05ED05FEA467E5BD5A6
:1027000003986860300411D5F00307D4A16C002948
:1027100040D004B02046BDE8F05F0847216C002996
:1027200038D004B02046BDE8F05F0847B0063BD47F
:102730002068B8422DD068496039884229D0404588
:1027400027D0484525D0504523D06349884220D022
:102750006149183188421CD05F493031884218D015
:102760005E49884215D0904213D05C49303188428E
:102770000FD098420DD059496031884209D057494D
:102780007831884205D0604503D05449A831884249
:1027900006D100E07CE0016821F00801016003E05F
:1027A000016821F004010160216C002970D004B09F
:1027B0002046BDE8F05F08474FF0020E0EFA0BFE10
:1027C0001EEA010FCDF808E063D05FEA867E60D58F
:1027D00002986860300411D5F00307D4616C0029B9
:1027E00078D004B02046BDE8F05F0847E16B0029CF
:1027F00070D004B02046BDE8F05F0847B0063FD473
:102800002068B8422DD034496039884229D04045EB
:1028100027D0484525D0504523D02F49884220D085
:102820002D49183188421CD02B493031884218D0AC
:102830002A49884215D0904213D028493031884225
:102840000FD098420DD025496031884209D02349E4
:102850007831884205D0604503D02049A8318842AC
:1028600004D1016821F01401016003E0016821F046
:102870000A010160012084F83500002084F834004A
:10288000E16B002926D004B02046BDE8F05F084780
:1028900020E0082202FA0BF20A421BD0310719D5B8
:1028A000016821F00E01016094F85C0000F01F0146
:1028B000012000FA01F16960606584F835000020AC
:1028C00084F83400E16C002904D004B02046BDE84F
:1028D000F05F0847BDE8FF9F8800024010040240F7
:1028E000085402582DE9F05F044600F023FE064626
:1028F000002C7DD0F44F0222DFF8CC830025DFF8D6
:10290000C893DFF8C4A308F13008DFF8BCB309F1BD
:10291000480920680AF1600A0BF1780BB84232D0FE
:10292000E949183188422ED040452CD048452AD05C
:10293000504528D0584526D0E3499031884222D0CE
:10294000E149A83188421ED0E04988421BD0DF49C6
:102950001831884217D0DD493031884213D0DB4925
:10296000483188420FD0D949603188420BD0D749CD
:102970007831884207D0D5499031884203D0D34975
:10298000A83188427ED184F8352084F83450B8428A
:1029900034D0CD491831884230D040452ED04845FA
:1029A0002CD050452AD0584528D0C749903188426C
:1029B00024D0C549A831884220D0C44988421DD0BE
:1029C000C2491831884219D0C0493031884215D0E7
:1029D000BE494831884211D0BC49603188420DD08F
:1029E000BA497831884209D0B8499031884200E02C
:1029F00009E003D0B549A831884207D1016821F028
:102A00000101016013E00120BDE8F09F016821F0A1
:102A1000010101600BE000F08DFD801B052806D947
:102A200020206065032084F835000120ECE7206851
:102A30000068C007EFD122681168A5480140D4E9B9
:102A400002031843D4E9043633431843A3691843F7
:102A5000E3691843236A18430843616A042903D1D0
:102A6000D4E90B13194308439A4909686FF30F011E
:102A7000B1F1005F11D36168A1F12903052B0AD9D7
:102A8000163B00E02EE0032B05D9083B012B02D9B1
:102A90004F39032901D840F4801010602068406944
:102AA00020F00701606A40EA010604280DD1A06AFF
:102AB0000643E06A48B12046FEF792F828B140206C
:102AC0006065012084F835009EE720684661204655
:102AD000FDF798FF94F85C1001F01F023F21914030
:102AE000816066E07C4988421BD07B4B143398425E
:102AF00017D0794B2833984213D0774B3C33984208
:102B00000FD0754B503398420BD0734B64339842BF
:102B100007D0714B7833984203D06F4B8C33984277
:102B20007ED1884211D06C49143188420DD06A4957
:102B30002831884209D068493C31884205D066492D
:102B40005031884201D06449643184F8352084F8DA
:102B50003450026861490A40A16840297ED080292A
:102B60007DD00021E36841EAD301236941EAD30122
:102B7000636941EAD301A36941EAD301E36941EA08
:102B8000D301236A41EA13111143016052492068BD
:102B9000494208441421B0FBF1F08000E065204672
:102BA000FDF730FF94F85C1001F01F020121914005
:102BB00041602068B84256D043491831884252D00B
:102BC000404550D048454ED050454CD058454AD04D
:102BD0003D499031884246D03B49A831884242D095
:102BE0003A4988423FD03949183188423BD0374969
:102BF0003031884237D035494831884233D0334963
:102C0000603188422FD03149783188422BD02F490A
:102C10009031884227D02D49A831884223D000E046
:102C20002DE02D4988421ED02B49143188421AD0FC
:102C300029492831884216D027493C31884212D090
:102C40002549503188420ED02349643188420AD048
:102C500021497831884206D01F4901E00AE00BE0A3
:102C60008C31884229D12046FDF72CFFA0688028AE
:102C70000CD00CE0102175E74FF4804172E7402042
:102C80006065032084F835000120BDE66560216E93
:102C900020790860D4E9191048606068401E072850
:102CA00008D82046FDF75EFFE06E0560D4E91C10F1
:102CB000486002E0E566256765676565012084F880
:102CC00035000020A0E60000100002401004024081
:102CD0003F8010FE0010005C085402580F00FEFFF9
:102CE0002DE9F05F04460025002C14D094F8340040
:102CF000012812D0012084F8340094F835600020B7
:102D0000012E0CD04FF40061616584F83400012578
:102D10002846BDE8F09F0120FBE70220F9E70226E4
:102D200084F835606065544F534EDFF84C81183796
:102D3000DFF84491DFF840A108F13008DFF838B13E
:102D400009F1480920680AF1600A0BF1780BB042DA
:102D500043D0B84241D040453FD048453DD0504592
:102D60003BD0584539D0DFF810C10CF1900C6045CC
:102D700033D0DFF804C10CF1A80C60452DD0DFF88A
:102D8000FCC0604529D0DFF8F4C00CF1180C604598
:102D900023D0DFF8E8C00CF1300C60451DD0DFF81F
:102DA000DCC00CF1480C604517D0DFF8D0C00CF146
:102DB000600C604511D0DFF8C4C00CF1780C6045A0
:102DC0000BD0DFF8B8C00CF1900C604505D0DFF8EF
:102DD000ACC00CF1A80C604506D1D0F800C02CF0B6
:102DE000010CC0F800C005E0D0F800C02CF0010CC8
:102DF000C0F800C02046FDF78FFF2068B04230D0F9
:102E0000B8422ED040452CD048452AD0504528D035
:102E1000584526D018499031884222D01649A83109
:102E200088421ED0154988421BD014491831884267
:102E300017D012493031884213D0104948318842A6
:102E40000FD00E49603188420BD00C49783188424E
:102E500007D00A499031884203D00849A8318842F6
:102E600004D1016841F00101016051E7016841F0BE
:102E7000010101604CE70000100002401004024014
:102E80002DE9F84F044600200090002C15D094F84E
:102E90003400012813D0012084F8340094F8355010
:102EA0000020012D0DD04FF40061616584F83400DD
:102EB000012000900098BDE8F88F0120FBE7022078
:102EC000F9E7022584F835506065A54DA44EA44F5E
:102ED0001835DFF88CC23036DFF884824837DFF8E7
:102EE0008092DFF87CA208F16008DFF874B209F183
:102EF000780920680AF1900A0BF1A80B60453BD0D5
:102F0000A84239D0B04237D0B84235D0404533D04E
:102F1000484531D050452FD058452DD0DFF844C218
:102F2000604529D0DFF83CC20CF1180C604523D075
:102F3000DFF830C20CF1300C60451DD0DFF824C240
:102F40000CF1480C604517D0DFF818C20CF1600C8A
:102F5000604511D0DFF80CC20CF1780C60450BD045
:102F6000DFF800C20CF1900C604505D0DFF8F4C129
:102F70000CF1A80C604506D1D0F800C02CF0010C73
:102F8000C0F800C005E0D0F800C02CF0010CC0F87B
:102F900000C02046FDF7C0FE7149206888422CD051
:102FA000A8422AD0B04228D0B84226D0404524D0EA
:102FB000484522D0504520D058451ED0694A9042FD
:102FC0001BD0684A1832904217D0664A303290427D
:102FD00013D0644A483290420FD0624A6032904225
:102FE0000BD0604A7832904207D05E4A90329042CD
:102FF00003D05C4AA83290420DD1026822F01E0232
:1030000042F016020260206C90B12068026842F023
:10301000080202600CE0026822F00E0242F00A028E
:103020000260206C20B12068026842F00402026055
:10303000206888424BD0A84249D0B04247D0B8421D
:1030400045D0404543D0484541D050453FD05845F4
:103050003DD0444A90423AD0424A1832904236D04B
:10306000404A3032904232D03E4A483290422ED0CE
:103070003C4A603290422AD03A4A7832904226D076
:10308000384A9032904222D0364AA83290421ED01E
:10309000354A90421BD0344A1432904217D0324AFB
:1030A0002832904213D0304A3C3290420FD02E4A00
:1030B000503290420BD02C4A6432904207D02A4AB8
:1030C0007832904203D0284A8C3290420DD1206E43
:1030D0000268D20303D5026842F480720260E06E97
:1030E00018B1026842F480720260206888422CD0D5
:1030F000A8422AD0B04228D0B84226D0404524D099
:10310000484522D0504520D058451ED01549884208
:103110001BD014491831884217D0124930318842E7
:1031200013D01049483188420FD00E49603188428F
:103130000BD00C497831884207D00A499031884237
:1031400003D00849A831884204D1016841F0010147
:103150000160AFE6016841F001010160AAE60000EC
:1031600010000240100402400854025870B5044692
:1031700000F0E0F90546601C02D0044800780444E1
:1031800000F0D8F9401BA042FAD370BDCC00002457
:103190002DE9F04F0023454D4FF001084FF00F0C83
:1031A0007EE008FA03F4A1460C40002C77D023F00F
:1031B000030606F1B046D6F808249F074FEA177AAF
:1031C0000CFA0AF707EA020B394A904201D10022B1
:1031D0002DE0384A904201D1012228E0364A90423F
:1031E00001D1022223E0354A904201D103221EE0A0
:1031F000334A904201D1042219E0324A904201D16F
:10320000052214E0304A904201D106220FE02F4AF5
:10321000904201D107220AE02D4A904201D10822B2
:1032200005E02C4A904201D1092200E00A2202FA6C
:103230000AF25A4518D12A68A2432A606A68A24352
:103240006A604FF0B042D2F804A02AEA040AC2F839
:1032500004A0D2F800A02AEA040AC2F800A0D6F816
:103260000824BA43C6F8082404685E000322B2406A
:1032700014430460DC0800EB8404276A5E074FEA0D
:10328000D66A0CFA0AF6B7432762C4689443C4604E
:10329000446824EA090444608468944384605B1CA5
:1032A00031FA03F27FF47DAFBDE8F08F8000005863
:1032B000000002580004025800080258000C02588E
:1032C000001002580014025800180258001C02583E
:1032D00000200258002402582DE9F84F00227B4DAF
:1032E00003264FF001080F274FF0B04CE6E008FA34
:1032F00002F31C409A46002C7ED00B7903F00303A6
:10330000012B01D0022B1BD1D0F80890530006FAF4
:1033100003FB29EA0B09D1F80CB00BFA03FB4BEACB
:10332000090BC0F808B0436823EA0A0391F8049037
:10333000C9F3001909FA02F949EA0309C0F804902F
:103340000B79DB439B070ED0D0F80C90530006FAA4
:1033500003FA29EA0A09D1F808A00AFA03FA4AEAA4
:10336000090AC0F80CA00B7903F00303022B14D157
:10337000D30800EB8303D3F820A04FEA42794FEA49
:10338000D96907FA09FB2AEA0B0AD1F810B00BFA3F
:1033900009FB4BEA0A0BC3F820B0D0F800905300A9
:1033A00006FA03FA29EA0A0991F804A00AF0030AC6
:1033B0000AFA03FA4AEA090AC0F800A04B6813F4B3
:1033C000403F7AD0424BD3F8009049F00209C3F84D
:1033D00000901B6803F00203009322F0030909F137
:1033E000B049D9F808B493074FEA137A07FA0AF3F9
:1033F0002BEA030B374B00E05FE0984201D100233A
:103400002DE0354B984201D1012328E0334B9842FF
:1034100001D1022323E0324B984201D103231EE065
:10342000304B984201D1042319E02F4B984201D12F
:10343000052314E02D4B984201D106230FE02C4BBD
:10344000984201D107230AE02A4B984201D1082370
:1034500005E0294B984201D1092300E00A2303FA31
:103460000AF343EA0B03C9F80834DCF80030A3433D
:10347000D1F804905FEAC92900D52343CCF8003085
:10348000DCF80430A343D1F804905FEA892900D521
:103490002343CCF804306B68A343D1F804905FEA6F
:1034A000893900D523436B602B68A343D1F804907E
:1034B0005FEAC93900D523432B60521C0C6834FAEB
:1034C00002F37FF414AFBDE8F88F000080000058CD
:1034D000F444025800000258000402580008025840
:1034E000000C02580010025800140258001802582C
:1034F000001C0258002002580024025800690842AB
:1035000001D00120704700207047426921EA020380
:103510000A4043EA024181617047002A01D081617B
:10352000704709048161704701480068000C7047CA
:103530000010005C0148806870470000CC00002447
:1035400008B507490A6842F002020A60096801F0FA
:103550000201009103490A6802430A6008BD0000A5
:10356000F444025804040058024881680278114467
:1035700081607047CC00002410B5032000F09CF857
:1035800001F0F6FE0F490A68C2F303230E4AD35C2A
:1035900003F01F03D840096801F00F01515C0B4A8A
:1035A00001F01F0120FA01F11160094908600F20A4
:1035B00000F010F808B1012010BD00F031F8002033
:1035C00010BD000018440258C85A0108DC0000244D
:1035D000D800002470B504460F4D2A78002A0CD07C
:1035E0004FF47A700D49B0FBF2F00968B1FBF0F0CE
:1035F00003F07EF918B1012070BD012070BD102CC0
:1036000007D200222146501E00F036F86C600020E0
:1036100070BD012070BD0000CC000024D800002443
:1036200008B50548016841F002010160006800F03A
:103630000200009008BD0000F444025800280DDB91
:10364000012100F01F0291404009800000F1E020BC
:10365000C0F88011BFF34F8FBFF36F8F7047002802
:1036600009DB012100F01F0291404009800000F1B8
:10367000E020C0F800117047F0B40D460D4B1B68F8
:10368000C3F30223C3F10704042C00D90424191D39
:10369000072901D2002300E0DB1E012606FA04F10F
:1036A000491E294099409E40761E16403143F0BC89
:1036B00008F01BB90CED00E000F00701054A1068A6
:1036C0004FF6FF03184040EA012003490843106009
:1036D000704700000CED00E00000FA0570B51449D9
:1036E0000A68D243520708D5096801F007018142F0
:1036F00001D0012070BD002070BD0A6822F00702D1
:1037000002430A60FFF716FF0446094D4FF47A762C
:10371000083D06E0FFF70EFF001BB04201D9012073
:1037200070BD2868C0438004F4D4002070BD000040
:103730000C4802582DE9F84F04460E469046FFF714
:10374000F9FE834694F8400001280ED0012784F842
:10375000407094F841004FF00009012807D002257D
:1037600084F840902846BDE8F88F0220FBE7C4F8B3
:1037700044904FF0020A84F841A0002220215B46C9
:103780002046CDF8008005F0FBF90546002DE7D175
:1037900000223146204605F0DCF8706A10B184F84A
:1037A0004170DDE701225B4602212046CDF8008012
:1037B00005F0E6F90546002DD2D12068C0F80CA02E
:1037C00084F84170CCE7000038B50446FFF7B2FE3C
:1037D00005461CB194F8410010B109E0012038BD44
:1037E000204600F041F841F28831204600F02AF9E5
:1037F0002068016821F4F852A168491E42EA0121BB
:103800000160A06C002220212B460090204605F08C
:10381000B7F90028E3D1E268E16923790A43216A14
:1038200041EA03610A4321680B680D4D2B401A439E
:103830000A60D4E905210A4321684B68094D2B40F1
:10384000258A43EA05431A434A6021680A6842F020
:1038500001020A6000216164012184F8411038BD31
:103860002FFFFF00FEF8E0FF2DE9F043B7B004465C
:10387000142132A8FCF7A7FDC02102A8FCF7A3FD84
:1038800037492068884267D100204FF00071CDE9A8
:1038900002100027159702A800F0E4FE08B1FDF71A
:1038A00073FB3048016841F480410160006800F416
:1038B000804001902B480C30016841F010010160FC
:1038C000016801F010010191016841F002010160FD
:1038D000016801F002010191016841F008010160F5
:1038E000006800F0080001904FF00408CDF8C8808F
:1038F000022433943497032535950926369632A948
:103900001948FFF7E9FCCDF8C88033944FF001085F
:10391000CDF8D0803595369632A9DFF850904846DC
:10392000FFF7DAFC4FF460503290339434973595BA
:10393000369632A90E48FFF7CFFC402032903394E0
:10394000CDF8D08035950A20369032A94846FFF749
:10395000C3FC1020FFF7F4FD37B0BDE8F083000092
:1039600000500052D444025800100258000402587B
:10397000000C02582DE9F84F0446884617460025EA
:10398000FFF7D8FD83462068816900F1200694F88E
:103990004020012A0ED04FF0010984F8409094F89D
:1039A0004120AA46012A07D0022584F840A02846D3
:1039B000BDE8F88F0220FBE7C4F844A0B8F1000F7F
:1039C0003AD0222284F841200269521CA263026983
:1039D000521C6263C4F83080426922F0406242F0B7
:1039E000806242612068816112E001225B4606210B
:1039F0002046009705F0C4F8054628000BD1307822
:103A0000216B0870206B401C2063A06B401EA063DC
:103A1000A06B0028E9D165B901225B46022120464E
:103A2000009705F0ADF80546280002D12168022074
:103A3000C86084F84190B8E7606C40F008006064AA
:103A40000125B2E7816470472DE9F84F04468846A6
:103A500017460025FFF76EFD8346206800F120061B
:103A600094F8401001290ED04FF0010984F84090DD
:103A700094F84110AA46012907D0022584F840A0F5
:103A80002846BDE8F88F0220FBE7C4F844A0B8F14F
:103A9000000F36D0122184F841100169491CE162FF
:103AA0000169491CA162C4F82480416921F0406188
:103AB000416112E001225B4604212046009705F097
:103AC0005FF8054628000BD1606A00783070606AA4
:103AD000401C6062E06A401EE062E06A0028E9D1B2
:103AE00065B901225B4602212046009705F048F89F
:103AF0000546280002D121680220C86084F8419060
:103B0000BCE7606C40F0080060640125B6E7000087
:103B100010B501F0E7FB05490968054AC1F3021138
:103B2000515C01F01F01C84010BD00002044025844
:103B3000C85A010810B569490A6802F00302096809
:103B4000C1F30511654B1B1D1B6803F00103634C9A
:103B50000C342468C4F3CC0414FB03F300EE103AD5
:103B6000B8EE400A002971D09FED5D1A9FED5D2AE5
:103B70005A4BF7EE000A0833F2B3012A7DD0022A2D
:103B80007AD001EE901A1968F8EE611AC2EE212A75
:103B9000C1F3080101EE901AF8EE611A40EE011A25
:103BA00031EEA00A22EE800A1968C1F3462101EE27
:103BB000101AB8EE411A31EE201AC0EE011ABCEE0E
:103BC000E11A80ED001A1968C1F3064101EE101ADE
:103BD000B8EE411A31EE201AC0EE011ABCEEE11A1D
:103BE00080ED011A1968C1F3066101EE101AB8EEF2
:103BF000411A71EE200A00E006E080EE201ABCEEC9
:103C0000C10A80ED020A10BD344A283A1468A4069D
:103C10001ED51268C2F3C104334AE24001EE902A75
:103C2000F8EE612A01EE901A1968F8EE611A82EE38
:103C3000A12AC1F3080101EE901AF8EE611A40EED4
:103C4000011A31EEA00A22EE000AADE741E014E0CD
:103C500001EE901A1968F8EE611AC2EE212AC1F33A
:103C6000080101EE901AF8EE611A40EE011A31EEE9
:103C7000A00A22EE800A97E715E001EE901ADFED28
:103C80001B2A1968F8EE611A82EEA12AC1F3080115
:103C900001EE901AF8EE611A40EE011A31EEA00A18
:103CA00022EE000A80E701EE901ADFED112A196872
:103CB000F8EE611A82EEA12AC1F3080101EE901A12
:103CC000F8EE611A40EE011A31EEA00A22EE000A67
:103CD0006AE7002101604160816010BD28440258FC
:103CE000000000390024744C0090D0030024744A72
:103CF00020BCBE4B10B569490A6802F0030209688E
:103D0000C1F30531654B1B1D1B68C3F30013634CE6
:103D100014342468C4F3CC0414FB03F300EE103A0B
:103D2000B8EE400A002971D09FED5D1A5B4BF7EEAB
:103D3000000A1033F2B39FED5B2A012A7FD0022ADA
:103D40007CD001EE901A1968F8EE611AC2EE212AB1
:103D5000C1F3080101EE901AF8EE611A40EE011A63
:103D600031EEA00A22EE800A1968C1F3462101EE65
:103D7000101AB8EE411A31EE201AC0EE011ABCEE4C
:103D8000E11A80ED001A1968C1F3064101EE101A1C
:103D9000B8EE411A31EE201AC0EE011ABCEEE11A5B
:103DA00080ED011A1968C1F3066101EE101AB8EE30
:103DB000411A00E008E071EE200A80EE201ABCEE05
:103DC000C10A80ED020A10BD344A283A1468A406DC
:103DD0001ED51268C2F3C104334AE24001EE902AB4
:103DE000F8EE612A01EE901A1968F8EE611A82EE77
:103DF000A12AC1F3080101EE901AF8EE611A40EE13
:103E0000011A31EEA00A22EE000AADE741E016E009
:103E100001EE901ADFED252A1968F8EE611A82EE9C
:103E2000A12AC1F3080101EE901AF8EE611A40EEE2
:103E3000011A31EEA00A22EE000A95E713E001EE26
:103E4000901A1968F8EE611AC2EE212AC1F308012E
:103E500001EE901AF8EE611A40EE011A31EEA00A56
:103E600022EE800A80E701EE901ADFED112A196830
:103E7000F8EE611A82EEA12AC1F3080101EE901A50
:103E8000F8EE611A40EE011A31EEA00A22EE000AA5
:103E90006AE7002101604160816010BD284402583A
:103EA000000000390024744A0090D0030024744CB0
:103EB00020BCBE4B10B569490A6802F003020968CC
:103EC000C1F30551654B1B1D1B68C3F30023634CF5
:103ED0001C342468C4F3CC0414FB03F300EE103A42
:103EE000B8EE400A002971D09FED5D1A5B4BF7EEEA
:103EF000000A1833F2B39FED5B2A012A7FD0022A11
:103F00007CD001EE901A1968F8EE611AC2EE212AEF
:103F1000C1F3080101EE901AF8EE611A40EE011AA1
:103F200031EEA00A22EE800A1968C1F3462101EEA3
:103F3000101AB8EE411A31EE201AC0EE011ABCEE8A
:103F4000E11A80ED001A1968C1F3064101EE101A5A
:103F5000B8EE411A31EE201AC0EE011ABCEEE11A99
:103F600080ED011A1968C1F3066101EE101AB8EE6E
:103F7000411A00E008E071EE200A80EE201ABCEE43
:103F8000C10A80ED020A10BD344A283A1468A4061A
:103F90001ED51268C2F3C104334AE24001EE902AF2
:103FA000F8EE612A01EE901A1968F8EE611A82EEB5
:103FB000A12AC1F3080101EE901AF8EE611A40EE51
:103FC000011A31EEA00A22EE000AADE741E016E048
:103FD00001EE901ADFED252A1968F8EE611A82EEDB
:103FE000A12AC1F3080101EE901AF8EE611A40EE21
:103FF000011A31EEA00A22EE000A95E713E001EE65
:10400000901A1968F8EE611AC2EE212AC1F308016C
:1040100001EE901AF8EE611A40EE011A31EEA00A94
:1040200022EE800A80E701EE901ADFED112A19686E
:10403000F8EE611A82EEA12AC1F3080101EE901A8E
:10404000F8EE611A40EE011A31EEA00A22EE000AE3
:104050006AE7002101604160816010BD2844025878
:10406000000000390024744A0090D0030024744CEE
:1040700020BCBE4B2DE9F04F89B0FD4CFB4A80F4CB
:104080008079DFF8E8834FF080572511F94BDFF88E
:10409000E8A3503A59EA0109A8F104064FF0005C80
:1040A00036D080F4007959EA01097FD0DFF8BC935B
:1040B00080F4806B5BEA010B09F108096FD080F492
:1040C000006B5BEA010B6BD080F4805B5BEA010B59
:1040D00067D080F4005B5BEA010B4FF4803A4FF449
:1040E000003E6ED080F4002B5BEA010B6AD080F4B6
:1040F000803B5BEA010B75D080F480460E4372D0A2
:1041000080F4004008436FD0002009B0BDE8F08F74
:10411000D8F8000000F00700052845D2DFE800F0DD
:10412000030D174221001068800104D506A8FFF78F
:1041300001FD0798E9E70020E7E71068000104D5D2
:1041400003A8FFF7D7FD0398DFE70020DDE710683D
:10415000800004D56846FFF7ADFE0098D5E7002043
:10416000D3E7306800F040501168490700D530B1FE
:104170001168C9050AD5B84208D12846C5E71068B4
:10418000C0F3C10024FA00F0BFE70FE01168890313
:1041900003D5604501D11846B7E70020B5E759E0DF
:1041A000AAE0FBE05046B0E70020AEE7D8F80000F8
:1041B00000F4E070802824D005DC58B1402807D1F5
:1041C00015E03DE18AE1C02842D0B0F5807F22D0E1
:1041D00000209AE71068800107D506A8FFF7AAFC1F
:1041E000079892E7B6E1D1E115E200208DE710686B
:1041F000000104D503A8FFF77DFD039885E70020A3
:1042000083E71068800004D56846FFF753FE0098E6
:104210007BE7002079E7306800F0405011684907DB
:1042200000D530B11168C90509D5B84207D1284673
:104230006BE71068C0F3C10024FA00F065E711686D
:10424000890303D5604501D118465EE700205CE78D
:1042500050465AE7D9F8000000F46000B0F5800F2E
:1042600021D004DC58B1B0F5001F06D111E0B0F543
:10427000C00F3FD0B0F5000F1FD0002045E71068F9
:10428000800104D506A8FFF755FC07983DE70020FC
:104290003BE71068000104D503A8FFF72BFD039846
:1042A00033E7002031E71068800004D56846FFF747
:1042B00001FE009829E7002027E7306800F0405011
:1042C0001168490700D530B11168C90509D5B84250
:1042D00007D1284619E71068C0F3C10024FA00F09E
:1042E00013E71168890303D5604501D118460CE72F
:1042F00000200AE7504608E7D9F8000000F0E06027
:10430000B0F1007F21D004DC58B1B0F1807F06D13C
:1043100011E0B0F1407F3FD0B0F1806F1FD000209E
:10432000F3E61068800104D506A8FFF703FC0798A0
:10433000EBE60020E9E61068000104D503A8FFF7CA
:10434000D9FC0398E1E60020DFE61068800004D580
:104350006846FFF7AFFD0098D7E60020D5E6306845
:1043600000F040501168490700D530B11168C90507
:1043700009D5B84207D12846C7E61068C0F3C10086
:1043800024FA00F0C1E61168890303D5604501D124
:104390001846BAE60020B8E65046B6E6D8F800005F
:1043A00000F4E040B0F5005F21D004DC58B1B0F576
:1043B000805F06D111E0B0F5405F3FD0B0F5804F8F
:1043C0001FD00020A1E61068800104D506A8FFF7E1
:1043D000B1FB079899E6002097E61068000104D524
:1043E00003A8FFF787FC03988FE600208DE610688E
:1043F000800004D56846FFF75DFD009885E6002043
:1044000083E6306800F040501168490700D530B1AC
:104410001168C90509D5B84207D1284675E6106864
:10442000C0F3C10024FA00F06FE61168890303D5D8
:10443000604501D1184668E6002066E6504664E60D
:10444000D8F8000000F4E020B0F5403F2DD015DC96
:10445000E0B150451DD0704516D11068800022D5BE
:104460006846FFF727FD01984FE6000050440258C8
:104470000090D00340787D010080BB00B0F5802F14
:104480001ED0B0F5A02F22D000203EE600F04CFF59
:104490003BE61068000104D503A8FFF72BFC049845
:1044A00033E6002031E600202FE61068400705D5EE
:1044B0001068C0F3C10024FA00F026E6002024E6CC
:1044C0001068C00501D528461FE600201DE61068CB
:1044D000800301D5184618E6002016E6D9F800003A
:1044E00000F4403088B1504519D0704530D1306863
:1044F00000F040501168490700D5D0B11168C905D6
:104500001DD5B8421BD12846FFE51068000104D52F
:1045100003A8FFF7EFFB0398F7E50020F5E5106827
:10452000800004D56846FFF7C5FC0298EDE5002041
:10453000EBE51068C0F3C10024FA00F0E5E511686E
:10454000890303D5604501D11846DEE50020DCE58E
:104550000020DAE5306800F4803048B1504513D1CE
:10456000106800010ED503A8FFF7C4FB0598CCE541
:104570001068800104D506A8FFF7DCFA0798C4E5A7
:104580000020C2E50020C0E50020BEE5D9F800000B
:1045900000F0E040B0F1405F24D00CDC98B1B842AC
:1045A00014D060450DD11068800019D56846FFF71A
:1045B00081FC0198A9E5B0F1804F1ED0B0F1A04F69
:1045C00022D00020A1E5FFF7A3FA9EE510680001C4
:1045D00004D503A8FFF78EFB049896E5002094E528
:1045E000002092E51068400705D51068C0F3C100AF
:1045F00024FA00F089E5002087E51068C00501D5A0
:10460000284682E5002080E51068800301D5184621
:104610007BE5002079E5D8F8000000F0405058B163
:10462000B84210D060451AD11068000115D503A812
:10463000FFF760FB049868E51068800301D5184611
:1046400063E5002061E51068800104D506A8FFF746
:1046500071FA079859E5002057E5002055E500203C
:1046600053E500002DE9FC5F044600250026F94FC4
:104670002068DFF8E483C043010104F108000190E1
:1046800004F1280000900DD4A06EB8B1B0F5801FE1
:1046900019D0B0F5001F1CD0B0F5401F00D0012587
:1046A000EDB12E462088C043C00535D4A06D052845
:1046B0002FD2DFE800F01D22282F2F00386840F4A9
:1046C00000303860ECE70198022104F07FFA0546DB
:1046D000E6E70098022104F00BFB0546E0E7D8F876
:1046E0000000A16E20F440100843C8F80000D9E78C
:1046F000386840F4003038600CE00198002104F084
:1047000065FA054606E00098002104F0F1FA054636
:1047100000E0012565B12E462088C043800518D4ED
:10472000E06D802831D00CDC20B340280ED126E08B
:10473000D8F80000A16D20F007000843C8F8000079
:10474000EAE7C02803D0B0F5807F00D0012515B37B
:104750002E462088DFF80493C04340052DD4D4F8BA
:10476000A800B0F5800F43D01EDCA8B3B0F5001F41
:1047700020D137E0386840F400303860E7E701982E
:10478000002104F023FA0546E1E70098002104F037
:10479000AFFA0546DBE7D8F80000E16D20F4E070E1
:1047A0000843C8F80000D4E7B0F5C00F03D0B0F557
:1047B000000F00D001250DB32E462088C043000510
:1047C0002FD4D4F8AC00B0F1007F54D020DCE8B393
:1047D000B0F1807F22D148E0FFE7386840F4003034
:1047E0003860E8E70198002104F0F0F90546E2E7B7
:1047F0000098002104F07CFA0546DCE7D9F80000B7
:10480000D4F8A81020F460000843C9F80000D4E7E9
:10481000B0F1407F03D0B0F1806F00D0012585B3A7
:104820002E462068C04380010AD4E06C30B11028C5
:1048300032D0202836D0302800D001258DB32E4626
:104840002088C043C00446D4206E00E008E0B0F5E4
:10485000005F5CD036DCA0B3B0F5805F38D150E0AB
:10486000386840F400303860D9E70198002104F03E
:10487000ADF90546D3E70098002104F039FA054662
:10488000CDE7FFE7D9F80000D4F8AC1020F0E060E5
:104890000843C9F80000C4E7386840F400303860C5
:1048A000CCE705E00198022104F090F90546C5E740
:1048B0006948001F0168E26C21F03001114301607A
:1048C000BEE719E0B0F5405F03D0B0F5804F00D0EF
:1048D000012515B32E462088C04380042FD4606E76
:1048E000B0F5403F29D021DC38B3B0F5803F38D057
:1048F000B0F5003F20D13AE0386840F4003038602D
:10490000E7E70198002104F061F90546E1E7009826
:10491000002104F0EDF90546DBE7D8F80000216E30
:1049200020F4E0400843C8F80000D4E7B0F5802F39
:1049300003D0B0F5A02F00D00125F5B12E46208878
:10494000C04340042BD4D4F8B000B0F1405F24D071
:104950001CDC10B3B0F1805F4ED0B0F1005F1BD112
:1049600051E00198012104F031F90546E5E700988E
:10497000012104F0BDF90546DFE7D8F80000616EBB
:1049800020F4E0200843C8F80000D8E7B0F1804FD9
:1049900003D0B0F1A04F00D001259DB32E46208852
:1049A000C04300040AD4206F30B1B0F1805F3CD026
:1049B000B0F1005F3ED00125ADB32E462068C04364
:1049C000C0010AD4A06C30B101284DD0022850D0CB
:1049D000032800D001253DB32E462068DFF880B0C3
:1049E000C043400261D41F48016841F480710160F6
:1049F000FEF7A0FD824652E00198012104F0E6F89E
:104A00000546CAE705E00098012104F071F9054662
:104A1000C3E7D9F80000D4F8B01020F0E040084314
:104A2000C9F80000BBE70BE029E0386840F400302B
:104A30003860C1E70198012104F0C8F80546BBE7DA
:104A4000D8F80000216F20F040500843C8F800005B
:104A5000B4E700002C44025850440258584402580D
:104A60001044025800480258386840F4003038605A
:104A7000B1E70198022104F0A9F80546ABE7FE482A
:104A80000168A26C21F0030111430160A5E7FEF764
:104A900051FDA0EB0A00642801D9032503E0F74883
:104AA0000068C005F3D53DB12E462078DFF8D0A3CD
:104AB000C043C00755D065E0F1481C300068B4F829
:104AC000B41000F4407001F4407188420DD0EC48FD
:104AD0001C30016821F44071026842F480320260A7
:104AE000026822F4803202600160D4F8B400B0F5AC
:104AF000807F12D1FEF71EFD824609E0FEF71AFD07
:104B0000A0EB0A0141F28830814201D9032504E07B
:104B1000DB481C3000688007F0D50DB12E46C4E795
:104B2000D4F8B400C0F3012103290FD0DBF8000052
:104B300020F47C50CBF80000D1481C300168B4F858
:104B4000B420C2F30B0211430160AEE7DBF80010A2
:104B5000CC4A21F47C51104041EA1010CBF80000FF
:104B6000EAE7E06F18280BD005DC48B1082815D01B
:104B7000102804D118E0202802D0282800D00125D0
:104B8000C5B12E462078C04380072BD4A06F0628DD
:104B900025D2DFE800F025181E25252501980121E2
:104BA00004F014F80546EBE70098012104F0A0F8A2
:104BB0000546E5E7DAF80000E16F20F03800084329
:104BC000CAF80000DEE70198012103F0FFFF054667
:104BD00006E00098012104F08BF8054600E001256D
:104BE0006DB12E462078C043400720D4D4F89400FD
:104BF000062819D2DFE800F0190C12191919DAF891
:104C00000000A16F20F007000843CAF80000E9E7A0
:104C10000198012103F0DAFF054606E00098012122
:104C200004F066F8054600E0012595B12E4620788F
:104C3000C043800620D4D4F89000B0F1405F19D072
:104C400011DCB8B1B0F1805F28D0B0F1005F10D1B5
:104C50002AE0D9F80000D4F8941020F007000843A7
:104C6000C9F80000E3E7B0F1804F03D0B0F1A04FE6
:104C700000D00125F5B12E462078C04340062CD443
:104C8000D4F89C00B0F5406F25D01DDC18B3B0F50A
:104C9000806F34D0B0F5006F1CD136E00198002150
:104CA00003F094FF0546E5E70098022104F020F8A0
:104CB0000546DFE7DAF80000D4F8901020F0E04075
:104CC0000843CAF80000D7E7B0F5805F03D0B0F51D
:104CD000A05F00D00125F5B12E462078C043000624
:104CE0002CD4D4F8A000B0F5C04F25D01DDC18B3EB
:104CF000B0F5005F2CD0B0F5804F1CD12EE00198AC
:104D0000002103F063FF0546E5E70098022103F068
:104D1000EFFF0546DFE7D9F80000D4F89C1020F437
:104D2000E0500843C9F80000D7E7B0F5004F03D0C2
:104D3000B0F5204F00D00125B5B12E462078C043F4
:104D400000072AD4D4F88400B0F5805F16D01BE0A9
:104D50000198002103F03AFF0546EDE70098022193
:104D600003F0C6FF0546E7E7D9F80000D4F8A01025
:104D700020F460400843C9F80000DFE700980221F2
:104D800003F0B6FF00B10126DAF80000D4F8841071
:104D900020F440500843CAF800002078C043C00601
:104DA00013D4D4F89800B0F5807F05D10098022183
:104DB00003F09EFF00B10126D9F80000D4F8981046
:104DC00020F440700843C9F800002068C043000385
:104DD0000BD4D4F8A400E8B3B0F5803F7DD0B0F593
:104DE000003F00D00125B5B32E462068C0434003E4
:104DF0000DD4D4F88800B0F5801F70D0B0F5001F36
:104E00006ED0B0F5401F00D00125EDB32E462068CE
:104E1000C043C00307D4206DB8B3B0F5803F7CD049
:104E200001259DB32E462068C043800005D400981C
:104E3000022103F05DFF00B101262068C04380031A
:104E400011D4D4F8800060B1B0F5807F66D0B0F5A1
:104E5000007F01E070E07BE003D0B0F5407F00D040
:104E60000125DDB32E462068C043C00213D4D8F814
:104E7000000020F000400AE04C440258004802586C
:104E800054440258FFFCFF0F77E080E08AE0616F36
:104E90000843C8F800002068C043C00008D4DBF80D
:104EA0000000D4F8B81020F480400843CBF800008C
:104EB0002068C043800207D4D8F80000E16E20F0DB
:104EC00080700843C8F800002068C043400011D437
:104ED000DBF8000020F4004003E033E06FE041E045
:104EE00045E0CBF80000DBF80000D4F8BC10084324
:104EF000CBF800002068C04306D45A480168626DB0
:104F000021F04051114301602068C04300020BD4DE
:104F1000DAF8000020F4400001E03DE04AE0D4F877
:104F20008C100843CAF8000020790025C04300F027
:104F3000010028434DD052E00198002103F046FEC5
:104F4000054650E70098022103F0D2FE05464AE7E5
:104F5000D9F80000D4F8A41020F440300843C9F870
:104F6000000042E7386840F4003038604DE70098B0
:104F7000012103F0BDFE054647E7DAF80000D4F84A
:104F8000881020F440100843CAF800003FE7386852
:104F900040F40030386044E70198022103F016FE27
:104FA00005463EE72F480168226D21F48031114308
:104FB000016038E7386840F40030386051E7DAF8CB
:104FC0000000D4F8801020F440700843CAF80000B4
:104FD00049E70198002103F0F9FD00B10646207968
:104FE000C04300F00200284305D10198012103F0DD
:104FF000EDFD00B106462079C04300F004002843CF
:1050000005D10198022103F0E1FD00B106462079A7
:10501000C04300F00800284305D10098002103F0A8
:1050200067FE00B106462079C04300F01000284317
:1050300005D10098012103F05BFE00B106462079FE
:10504000C04300F02000054305D10098022103F081
:105050004FFE00B1064616B10120BDE8FC9F0020BE
:10506000FBE700004C4402582DE9F05F04460D4672
:10507000002C17D0DFF84C82D8F8000000F00F00A9
:10508000A84211D2D8F8000020F00F002843C8F839
:105090000000D8F8000000F00F00A84204D0012062
:1050A000BDE8F09F0120FBE72078874E40070AD536
:1050B0002069316801F07001884204D9316821F01B
:1050C0007001014331602078804F00070AD5606984
:1050D000396801F07001884204D9396821F0700103
:1050E000014339602078C0060AD5A069396801F407
:1050F000E061884204D9396821F4E06101433960F4
:105100002078DFF8CC9180060DD5E069D9F8001041
:1051100001F07001884206D9D9F8001021F0700121
:105120000143C9F80010207880070AD5E06831688B
:1051300001F00F01884204D9316821F00F010143C9
:1051400031602078C00743D03068A16820F47060D7
:10515000084330605C4960681839022808D0032889
:105160000BD001280ED00968490710D4012097E719
:10517000096889030BD4012092E70968890106D4E4
:1051800001208DE70968C90501D4012088E7DFF80F
:1051900038A1AAF1080ADAF8001021F0070101434A
:1051A000CAF80010FEF7C6F9834609E0FEF7C2F917
:1051B000A0EB0B0141F28830814201D903206FE757
:1051C000DAF80000616800F03800B0EBC10FEDD1F3
:1051D000207880070AD5E068316801F00F01884225
:1051E00004D2316821F00F0101433160D8F800008A
:1051F00000F00F00A8420ED9D8F8000020F00F00F0
:105200002843C8F80000D8F8000000F00F00A842BA
:1052100001D0012044E7207840070AD52069316891
:1052200001F07001884204D2316821F0700101431D
:105230003160207800070AD56069396801F0700193
:10524000884204D2396821F0700101433960207826
:10525000C0060AD5A069396801F4E061884204D229
:10526000396821F4E06101433960207880060DD56A
:10527000E069D9F8001001F07001884206D2D9F82F
:10528000001021F070010143C9F8001000F070F81F
:105290003168C1F303220F498A5C02F01F02D0403B
:1052A000326802F00F02895C0B4A01F01F0120FAFC
:1052B00001F111600949086009480068BDE8F05F24
:1052C000FEF788B900200052184402581C440258C6
:1052D00020440258C85A0108DC000024D8000024E9
:1052E000D000002400B500F043F80B490A68C2F36F
:1052F00003230A4AD35C03F01F03D840096801F076
:105300000F01515C064A01F01F0120FA01F1116002
:10531000044A1060084600BD18440258C85A0108E3
:10532000DC000024D800002400B5FFF7DBFF0549AE
:105330000968054AC1F30211515C01F01F01C84020
:1053400000BD00001C440258C85A010800B5FFF710
:10535000C9FF05490968054AC1F30221515C01F002
:105360001F01C84000BD00001C440258C85A010873
:1053700030B564480068654C10F03801624808D0C8
:10538000021108290DD010290DD018290DD0104672
:1053900030BD21688906FBD52168C1F3C101C84031
:1053A00030BD104630BD5A4830BD564918310A68E4
:1053B00002F003020968C1F30511524B1C331B684C
:1053C00003F001034F4D24352D68C5F3CC0515FBC3
:1053D00003F300EE103AB8EE400A002977D0DFED73
:1053E0004D0A484BB7EE001A20333AB39FED4A2AD4
:1053F000012A58D0022A6CD001EE901A1868F8EEF3
:10540000611AC2EE212AC0F3080001EE900AF8EEFC
:10541000611A40EE201A31EE810A22EE800A1868E5
:10542000C0F34620401C00EE900AF8EE600A80EEC1
:10543000201ABCEEC10A10EE100A30BD2268920696
:105440001BD52268C2F3C102D04001EE900A186851
:10545000F8EE612A01EE901AF8EE611A82EEA12AA6
:10546000C0F3080001EE900AF8EE611A40EE201A2F
:1054700031EE810A22EE000AD1E701EE901ADFED4B
:10548000272A1868F8EE611A82EEA12AC0F30800F4
:1054900001EE900AF8EE611A40EE201A31EE810A10
:1054A00022EE000ABBE701EE901A1868F8EE611AC6
:1054B000C2EE212AC0F3080001EE900AF8EE611A4C
:1054C00040EE201A31EE810A22EE800AA7E716E0AC
:1054D000FFE701EE901ADFED122A1868F8EE611A64
:1054E00082EEA12AC0F3080001EE900AF8EE611ADC
:1054F00040EE201A31EE810A22EE000A8FE70020EA
:1055000030BD0000104402580090D00300440258FF
:1055100040787D01000000390024744A0024744C56
:1055200020BCBE4B2DE9F05F0446002C10D0207843
:10553000DFF8F883FE4EFF4DC0075DD0D8F80000BD
:1055400000F03800316810281FD0182803D006E07A
:105550000120BDE8F09F01F00300022815D060682B
:10556000B0F5803F18D0E0B1B0F5A02F22D0286868
:1055700020F480302860286820F48020286060684B
:1055800060B3FDF7D7FF074624E02868800333D5D2
:10559000606810BB0120DCE7286840F48030286098
:1055A000EDE7286820F480302860286820F4802007
:1055B0002860E4E7286840F480202860286840F4E8
:1055C00080302860DBE7FDF7B5FFC01B642801D9F8
:1055D0000320BEE728688003F5D50DE0FDF7AAFF9C
:1055E000074606E0FDF7A6FFC01B642801D903208B
:1055F000AFE728688003F5D4207841F2030ACE4F44
:1056000080073DD5D8F8000000F03800316870B14F
:10561000182801D188070AD0E06890B3296821F0E2
:10562000190101432960FDF785FF814641E02868A3
:10563000400701D5E06848B12868E16820F019000A
:1056400008432860FDF776FF814609E0012080E7E6
:10565000FDF770FFA0EB0900022801D9032078E7CD
:1056600028684007F4D5FDF75FFF504511D8206941
:10567000402807D0396821F47C3141EA0030386095
:105680004AE036E0386820F47C3040F4003038607E
:1056900042E03868217C20F0FE4040EA016038603A
:1056A0003AE0FDF747FFA0EB0900022801D90320EB
:1056B0004FE728684007F4D5FDF736FF504510D86E
:1056C0002069402806D0396821F47C3141EA003055
:1056D000386021E0386820F47C3040F400303860D5
:1056E0001AE03868217C20F0FE4040EA0160386012
:1056F00012E0286820F001002860FDF71BFF8146BA
:1057000007E0FDF717FFA0EB0900022801D90320ED
:105710001FE728684007F4D42078C0062FD5D8F8B2
:10572000000000F038003168DFF800B20828ABF163
:10573000040B0FD0182803D101F00300012809D071
:10574000E06978B3286840F080002860FDF7F2FE39
:10575000814630E02868C00504D5E069802801D082
:105760000120F6E6FDF7E0FE504510D8206A20281B
:1057700006D0396821F0F84141EA806038604FE096
:10578000386820F0F84040F08040386048E0DBF8AE
:10579000000094F8201020F07C5040EA0160CBF823
:1057A00000003DE02AE0FDF7C5FEA0EB090002285D
:1057B00001D90320CDE62868C005F4D5FDF7B4FE75
:1057C000504510D8206A202806D0396821F0F841C9
:1057D00041EA8060386023E0386820F0F84040F00B
:1057E000804038601CE0DBF8000094F8201020F0C6
:1057F0007C5040EA0160CBF8000011E0286820F0FE
:1058000080002860FDF796FE074606E0FDF792FE51
:10581000C01B022801D903209BE62868C005F5D4E7
:105820002078000730D5DFF80891606909F14C094C
:10583000A8B1D9F8000040F00100C9F80000FDF758
:1058400079FE074606E0FDF775FEC01B022801D968
:1058500003207EE6D9F800008007F4D514E0D9F8DB
:10586000000020F00100C9F80000FDF763FE0746C4
:1058700006E0FDF75FFEC01B022801D9032068E6A1
:10588000D9F800008007F4D42078800626D5A069D6
:1058900090B1286840F480502860FDF74BFE074621
:1058A00006E0FDF747FEC01B022801D9032050E6A1
:1058B00028688004F5D511E0286820F4805028601D
:1058C000FDF738FE074606E0FDF734FEC01B022850
:1058D00001D903203DE628688004F5D420784007EC
:1058E00068D5164F386840F480703860FDF722FEA6
:1058F000814607E0FDF71EFEA0EB0900642801D9F0
:10590000032026E63868C005F4D5094FA06848375B
:1059100001281DD008B3052828D0386820F00100E0
:105920003860386820F00400386009E010440258FC
:1059300028440258004402580444025800480258BF
:10594000A06841F2883A30B3FDF7F4FD81461EE0CD
:10595000386840F001003860E7E7386820F001005F
:105960003860386820F004003860DEE7386840F0BE
:1059700004003860386840F001003860D5E7FDF772
:10598000D9FDA0EB0900504501D90320E1E53868B5
:105990008007F4D50EE0FDF7CDFD814607E0FDF769
:1059A000C9FDA0EB0900504501D90320D1E53868B5
:1059B0008007F4D4616AE1B3D8F800004FF6F87BB1
:1059C000DFF8E0A1C0F3C20003280AF10409AAF13C
:1059D00004087DD0022907D0286820F08070286054
:1059E000FDF7A8FD04468BE0286820F08070286051
:1059F000FDF7A0FD074606E0FDF79CFDC01B022851
:105A000001D90320A5E528688001F5D4306840F26B
:105A1000F3318843E16A40EA0110A16A084330602B
:105A2000208E4FF6FF72616B401E491EC0F30800C6
:105A300000E0B5E002EA41210843218F4FF4FE0265
:105A4000491E02EA0141084394F83C10491E120223
:105A500002EA01610843CAF80000D8F8000020F00B
:105A60000100C8F80000D9F80000A16C20EA0B0082
:105A700040EAC100C9F80000D8F80000216C20F00D
:105A80000C000843C8F80000D8F80000616C20F052
:105A900002000843C8F80000D8F8000040F4803045
:105AA000C8F80000D8F8000040F40030C8F8000042
:105AB000D8F8000040F48020C8F80000D8F80000B2
:105AC00040F00100C8F80000286840F0807000E055
:105AD0001AE02860FDF72EFD044606E0FDF72AFDDA
