:020000040800F2
:10000000D8190024550300084B7A0008FB6C00083F
:10001000497A00080D0900082DAA00080000000018
:1000200000000000000000000000000059990008D6
:100030000D11000800000000BD800008219B000891
:100040006F0300086F0300086F0300086F030008C8
:100050006F0300086F0300086F0300086F030008B8
:100060006F0300086F0300086F030008E50B00082A
:10007000F10B0008190C00086F0300086F0300085B
:100080006F0300086F0300086F0300086F03000888
:100090006F0300086F0300086F0300086F03000878
:1000A0006F0300086F0300086F0300086F03000868
:1000B0006F0300086F0300086F0300086F03000858
:1000C0006F0300086F0300086F0300086F03000848
:1000D0006F0300086F0300086F0300086F03000838
:1000E0006F0300086F030008000000006F030008A2
:1000F0006F0300086F0300086F0300086F03000818
:100100006F030008DD8900086F0300086F03000813
:100110006F0300086F0300086F0300086F030008F7
:100120006F0300086F0300086F0300086F030008E7
:100130006F0300086F0300086F0300086F030008D7
:1001400000000000000000000000000000000000AF
:100150006F0300086F0300086F0300086F030008B7
:100160006F0300086F0300086F0300086F030008A7
:100170006F0300086F030008D90B00086F03000825
:100180006F0300086F0300086F0300086F03000887
:100190006F0300086F0300086F0300086F03000877
:1001A0006F0300086F0300086F0300086F03000867
:1001B0006F0300086F0300086F0300086F03000857
:1001C0006F0300086F0300086F0300086F03000847
:1001D0006F0300086F0300086F0300086F03000837
:1001E0006F0300086F0300086F0300086F03000827
:1001F0006F0300086F0300086F0300086F03000817
:100200006F0300086F0300086F0300086F03000806
:100210006F0300086F0300086F0300086F030008F6
:100220006F0300086F0300086F0300080000000060
:100230006F0300086F030008000000006F03000850
:100240006F0300086F0300086F0300086F030008C6
:100250006F0300086F0300086F0300086F030008B6
:100260006F0300086F0300086F0300086F030008A6
:100270006F0300086F0300086F0300080000000010
:100280006F0300086F0300086F0300080000000000
:10029000000000006F03000800F002F800F04AF8C8
:1002A0000AA090E8000C82448344AAF10107DA45D1
:1002B00001D100F03FF8AFF2090EBAE80F0013F0D9
:1002C000010F18BFFB1A43F00103184714E50000A3
:1002D00034E50000103A24BF78C878C1FAD8520734
:1002E00024BF30C830C144BF04680C6070470000B0
:1002F0000023002400250026103A28BF78C1FBD82F
:10030000520728BF30C148BF0B607047642900F016
:100310001D81752900F01A81782900F05381732915
:1003200000F0B582002070471FB50AF017FE1FBD10
:1003300010B510BD00F0B5FA1146FFF7F5FF0AF051
:1003400063FC00F0D3FA03B4FFF7F2FF03BC00F044
:10035000D7FA00000948804709480047FEE7FEE752
:10036000FEE7FEE7FEE7FEE7FEE7FEE7FEE7FEE765
:1003700004480549054A064B70470000019C0008E7
:1003800099020008D8090024D8190024D8110024A3
:10039000D811002453EA020C00F069802DE9F04BDB
:1003A0004FF00006002B1FBFB3FA83F503FA05F4E4
:1003B00024FA05F65E4012BF1643B2FA82F502FA3D
:1003C00005F4C5F120051EBF22FA05FC44EA0C0421
:1003D000203556EA044C4FEA144418BF641C4FF011
:1003E00000084FF00009904271EB030C39D300294B
:1003F00019BFB1FA81F701FA07F6B0FA80F700FAEF
:1004000007F6C7F120071EBF20FA07FC46EA0C06D4
:100410002037B6FBF4FCA7EB0507103F07F01F0BD6
:10042000CBF120060CFA0BFB2CFA06F644BFB346C0
:100430000026202FA4BF5E464FF0000B5BEA060C9F
:1004400008BF4FF0010B19EB0B09ABFB027C48EB2B
:100450000608C01B06FB02CC0BFB03CC71EB0C01A6
:10046000C1E70B46024641464846BDE8F08B13B54E
:100470004FF000004FF00001AFF30080BDE81C40DA
:10048000704700000FB41CB5074B06AA7B446946B1
:100490000090059800F0D1F90020694600F0E0F9DD
:1004A0001CBC5DF814FB0000D103000070B50446CD
:1004B00085690068C10601D5302600E02026C00706
:1004C00007D070BDD4E9012130469047206A401C16
:1004D00020626D1EF6D570BD70B504468569007842
:1004E000C00707D170BDD4E9012120209047206AC0
:1004F000401C20626D1EF6D570BD70B50C460546D9
:10050000012A05D02878800600D5EA69002302E098
:10051000012305E05B1C934202D2E05C0028F9D184
:10052000A869E618C01AA861286A184428622846F3
:10053000FFF7BCFF04E0D5E9012114F8010B904757
:10054000B442F8D32846FFF7C7FF70BD2DE9F0414C
:100550000646002410687529314616A510D0AFF361
:100560000080002802DA404213A507E031688A07BC
:1005700001D512A502E0490704D511A5012401E027
:10058000AFF3008000210A2206F1240709E0B0FB46
:10059000F2FCB0FBF2F302FB1C003030785418463A
:1005A000491C0028F3D123462A463046BDE8F041D5
:1005B00000F0E5B8000000002D0000002B00000056
:1005C0002000000070B504460D4621461068AFF3C8
:1005D00000802188090502D50F4A7A4402E00E4ABC
:1005E0007A440E32002104F1240305E000F00F06E6
:1005F0000009965D5E54491C0028F7D1207800233D
:10060000000704D5702D02D009B102231132204613
:10061000BDE8704000F0B3B880E100002DE9F0477C
:100620004FF0000A89460446C0F820A02046E16841
:100630008847002876D0252806D0D4E901219047A4
:10064000206A401C2062F1E7E168204600258847C7
:10065000C4F81CA006460027C4F818A02A2E09D00A
:1006600030460AF0C7FA38B304EB8708303EC8F8C2
:10067000186019E059F8041B204604EB87029161C9
:10068000E1688847012F064618D1E069002820DA82
:1006900025F020051DE0D8F8180000EB800006EBDF
:1006A00040003038C8F818002046E1688847064600
:1006B0000AF0A0FA0028EED1012F0AD02E2E08D180
:1006C0002046E16888477F1C0646022F45F020053A
:1006D000C4DBA069002803DA404245F00105A061AF
:1006E000E80701D025F01005B6B1A6F141001928A0
:1006F00002D8203645F400654A463146204625603A
:100700004D46FFF703FE58B1012806D0ED1D25F038
:10071000070000F1080989E704E005F1040985E70D
:1007200030468AE7206ABDE8F0874FF0000200B546
:10073000134694469646203922BFA0E80C50A0E804
:100740000C50B1F12001BFF4F7AF090728BFA0E8B2
:100750000C5048BF0CC05DF804EB890028BF40F87E
:10076000042B08BF704748BF20F8022B11F0804FC0
:1007700018BF00F8012B70477047704770472DE98C
:10078000F0470D4699469246044600F12408016858
:10079000880604D5E06921F01001216000E0012005
:1007A000A84201DD471B00E00027A1697A1902EB8E
:1007B0000900081AA0612078C00602D42046FFF77D
:1007C00075FE002608E0D4E901211AF806009047DA
:1007D000206A401C761C20624E45F4DB2078C0065F
:1007E0000AD52046FFF762FE06E0D4E90121302059
:1007F0009047206A401C2062381EA7F10107F4DCF4
:1008000007E0D4E9012118F805009047206A401C50
:100810002062281EA5F10105F3DC2046FFF75CFEEF
:100820002078000602D50220BDE8F0870120FBE712
:1008300001694A1C02610878704700B58FB0CDE9A4
:1008400001310021059105497944CDE90310114694
:100850006846FFF7E3FE0FB000BD0000E5FFFFFFB5
:100860000A6802F8010B0A60704710B5436913B1BA
:10087000AFF3008001E0FFF740FE012010BD1278C9
:1008800000F124010A7000224A700122EDE711688C
:100890004FF0FF32E9E70000004870477809002474
:1008A00070477546FFF7F8FFAE46050069465346A8
:1008B00020F00700854618B020B5FFF759FDBDE8C8
:1008C00020404FF000064FF000074FF000084FF0B7
:1008D000000B21F00701AC46ACE8C009ACE8C00948
:1008E000ACE8C009ACE8C0098D46704710B50446B5
:1008F000AFF300802046BDE81040FFF724BD0000A4
:1009000001491820ABBEFEE726000200FEE700000A
:10091000084A00204FF4803102E0536B1B0602D4DA
:10092000491EFAD200E011B10349916370470320D8
:100930007047000000700052FF0FE01F0E4A10B514
:10094000516B11F0450FFBD00C4B4C0704D5042024
:1009500090639363032010BDC90702D00120906308
:1009600010BD1169814201D0102010BD9363506900
:1009700000F0080010BD000000700052FF0FE01FE3
:1009800010B50F4C00204FF480320BE0616B11F07A
:10099000450F07D00AB14A0707D5A16B032041F0E4
:1009A00004010AE0521EF1D2F5E7C90704D0A16B99
:1009B000012041F00101A1630249A16310BD0000C3
:1009C00000700052FF0FE01F0849486B10F0450F00
:1009D000FBD0400705D5886B40F0040088630320F6
:1009E0007047034888630020704700000070005281
:1009F000FF0FE01F30B5174B054600205A6B12F071
:100A0000450FFBD0540705D5986B40F00400986360
:100A1000032030BDD20705D0986B40F001009863E9
:100A2000012030BD1A69AA420ED10B4A9A635A6955
:100A300012F4604F03D0910404D5132030BD120C82
:100A40000A8030BD510401D5102030BD1104FCD501
:100A50000F2030BD00700052FF0FE01F10B50E4C8C
:100A600000204FF480320BE0616B11F0450F07D08E
:100A70000AB14A0707D5A16B032041F0040108E041
:100A8000521EF1D2F5E7490604D5A16B002041F0D2
:100A90004001A16310BD0000007000522DE9F04339
:100AA0000D4F00241D4616468846814604EB04106F
:100AB00017F81010B14209D107EB40014878A8425D
:100AC00004D1891C4246484600F02AF8641CA4B2AE
:100AD000382CEBD3BDE8F083A4DC00082DE9F0430B
:100AE0000E4F00241D4616468846814604EB8400BE
:100AF00000EB441017F81010B14209D107EB400188
:100B00004878A84204D1891C4246484600F008F8BB
:100B1000641CA4B2092CE9D3BDE8F0837AE4000890
:100B2000002310B504E011F8014B5B1C00F8014BE9
:100B30009342F8D310BD10B5806B816C496D0229CA
:100B400006D0012180F83510C16C41F04001C1642C
:100B500000F000FE10BD10B5846BA26BA06C0168A4
:100B6000CAB10A68A36B02F40022DB0706D12AB1DE
:100B7000C968E26B01EBC201002207E00A681203B8
:100B800019D40969E26B01EBC201012201F01AF8E4
:100B9000A06B401E0EE00868000302D5606CC860C0
:100BA00009E00868000306D4E26B606C00EB820089
:100BB0000861206CA063A06B216C88420BD1206877
:100BC000C16841F00101C16020680068800702D55A
:100BD000012084F8350010BD014800F0CBBD0000B5
:100BE0007C030024014801F0FDBD00004404002402
:100BF000074810B501F0F2FD054801F0EDFD05488C
:100C000007F03EFDBDE81040014801F0EBBD0000DB
:100C1000CC0300247C030024014801F0E3BD000064
:100C2000F008002410B52A4A016891423AD0284AB7
:100C30001832914236D0264A3032914232D0244A7C
:100C4000483291422ED0224A603291422AD0204A24
:100C50007832914226D01E4A9032914222D01C4ACC
:100C6000A83291421ED01B4A91421BD0194A183219
:100C7000914217D0174A3032914213D0154A483268
:100C800091420FD0134A603291420BD0114A783210
:100C9000914207D00F4A9032914203D00D4AA832B8
:100CA000914211D1CAB20C4C1823103AB2FBF3F2A4
:100CB0006FF3090102F00703032AE35CC36500D95F
:100CC000091D8165084610BD21F0FF01F9E700000C
:100CD0001000024010040240A3C4000810B50168CF
:100CE0000123224CCAB2A1421BD0204C1434A14291
:100CF00017D01E4C2834A14213D01C4C3C34A142C6
:100D00000FD01A4C5034A1420BD0184C6434A1427D
:100D100007D0164C7834A14203D0144C8C34A14235
:100D20000FD11421083AB2FBF1F1114A02EB810212
:100D300002660F4A01F01F0180328B40C0E919237F
:100D400010BD1824103AB2FBF4F20A4C2144A82931
:100D500000D80832084901EB82010166064980315A
:100D6000416602F01F018B40836610BD0854025893
:100D700000580258F0FBFDBF0008024010B5027990
:100D8000531E072B30D8194C0168A1421BD0174CB9
:100D90001434A14217D0154C2834A14213D0134C5F
:100DA0003C34A1420FD0114C5034A1420BD00F4C17
:100DB0006434A14207D00D4C7834A14203D00B4CCF
:100DC0008C34A14206D10A4901EB8201C16608496F
:100DD000443105E0074901EB8201C1660549443110
:100DE000016701219940416710BD00000854025875
:100DF000FC580258FC080240014610B500208B69DF
:100E00004FF0C0748A6A53B1B3F5005F15D072B168
:100E1000012A0CD0022A0AD0032A09D104E01AB10F
:100E2000012A06D0022A03D1C96AC90100D50120CE
:100E300010BDC96AA142FAD010BD002AF7D0012A1C
:100E4000F2D0022AF3D0032AF3D010BD30B5254DDD
:100E50000468AC4238D0234D1835AC4234D0214D13
:100E60003035AC4230D01F4D4835AC422CD01D4DF2
:100E70006035AC4228D01B4D7835AC4224D0194D9A
:100E80009035AC4220D0174DA835AC421CD0164D41
:100E9000AC4219D0144D1835AC4215D0124D303536
:100EA000AC4211D0104D4835AC420DD00E4D6035DE
:100EB000AC4209D00C4D7835AC4205D00A4D903586
:100EC000AC4201D0084DA83563608368402B0368AD
:100ED00003D099600068C26030BD9A600068C1604C
:100EE00030BD000010000240100402402DE9F04F18
:100EF000834E834FDFF808C24836DFF80492DFF8EC
:100F000000A20CF1180CDFF8F8B109F13009DFF894
:100F1000F0E10AF1600A04680BF1780B856D0EF1BF
:100F2000900EBC426DD064456BD04C4569D0B44244
:100F300067D0544565D05C4563D0744561D0DFF817
:100F4000C08108F1A80844455BD0DFF8B88144456A
:100F500057D0DFF8B08108F11808444551D0DFF8C8
:100F6000A48108F1300844454BD0DFF8988108F19E
:100F70004808444545D0DFF88C8108F160084445B5
:100F80003FD0DFF8808108F17808444539D0DFF898
:100F9000748108F19008444533D0DFF8688108F186
:100FA000A80844452DD0DFF86081444529D0DFF8FA
:100FB000588108F11408444523D0DFF84C8108F12A
:100FC000280844451DD0DFF8408108F13C0844451D
:100FD00017D0DFF8348108F15008444511D0DFF80C
:100FE000288108F1640844450BD0DFF81C8108F122
:100FF0007808444505D0DFF8108108F18C08444595
:1010000009D1D0E91948C4F80480C46E1CB1D0E9F4
:101010001C48C4F804800468BC422ED064452CD01F
:101020004C452AD0B44228D0544526D05C4524D023
:10103000744522D0324EA836B4421ED0314EB4424E
:101040001BD0304E1836B44217D02E4E3036B44234
:1010500013D02C4E4836B4420FD02A4E6036B442DC
:101060000BD0284E7836B44207D0264E9036B44284
:1010700003D0244EA836B44215D190F85C4004F059
:101080001F063F24B440AC600468256825F4802521
:1010900025602EE09A600068C160BDE8F08F99601D
:1010A0000068C260F9E7184EB4421BD0164E1436E1
:1010B000B44217D0144E2836B44213D0124E3C36E8
:1010C000B4420FD0104E5036B4420BD00E4E6436A0
:1010D000B44207D00C4E7836B44203D00A4E8C3658
:1010E000B442DAD190F85C4004F01F060124B44009
:1010F0006C60046863608368402B0368CFD1C9E7E4
:1011000010000240100402400854025870470000CA
:10111000F0B51C46094B0A4F164685B04FF0000C3F
:1011200010251A885B883F88121A5B1A8DE8F01028
:1011300092B29BB200F001FA05B0F0BD680900243C
:101140008A0000242DE9FF411C46084B1646002763
:1011500010251A885B88121A5B1A8DE8F00092B28B
:101160009BB208F047FCBDE8FF810000680900243D
:1011700072B6FEE7F0B500240E46082207460121AC
:101180002546102007F048FF1020FFF7D7FB002866
:101190002ED13A040121372007F03EFF3720FFF718
:1011A000CDFB002824D1012303220821401E07F093
:1011B0003FFF00220121332007F02EFF3320FFF7ED
:1011C000BDFB002814D1174940F22A524B6B134241
:1011D00006D14B6B1B03F9D4D1F88040D1F8805075
:1011E0004A6B120705D5886B40F00800886304201D
:1011F000F0BD4A6B920705D5886B40F0020088630A
:101200000220F0BD4A6B920605D5886B40F02000A5
:1012100088630620F0BD044A8A6321BA716029BA46
:101220003160F0BD00700052FF0FE01F2DE9F0416A
:101230001546DFF85C8001220C460646404617033F
:10124000394602F0F8FB052000F0D5F9032006F03E
:1012500049F8C4F3074006F045F8C4F3072006F048
:1012600041F8E0B206F03EF8002405E0FF2006F069
:1012700039F83055641CA4B2AC42F7D30022394689
:10128000404602F0D8FBBDE8F041052000F0B3B9BC
:101290000004025830B40C460178202A1AD009DC28
:1012A0000C2A0DD0102A13D0182A17D10C4801FB94
:1012B000030108E0302A0FD0402A0FD10948F6E791
:1012C000594301F50021204630BC1A46FFF7AEBF56
:1012D0000548ECE70548EAE70548E8E730BC704711
:1012E000001208000092080000080800002608000C
:1012F0000048080030B40C460146007815464A788C
:10130000812809D3402A07D3FF2A05D0FF2803D01C
:101310007F2A0CD2403A0BE00022104603E0521C18
:1013200092B204F8010B9A42F9D330BC7047413AAB
:101330008138C0B2D1B2C0EB401202EB801001EB99
:10134000400159430C2D0CD0102D0CD0182D0DD070
:10135000202DEAD101F56011204630BC1A46FFF776
:1013600065BF044800E004480144F5E701F5ED11CC
:10137000F2E700000014090000DD1100AFF3008067
:1013800070B586B04FF6FF7005F01EFE00206C466B
:1013900005462554401CC0B21828FAD31122204615
:1013A0000021FFF743FF10216B464FF478460846B3
:1013B0003246FFF7ADFE00202554401CC0B218286D
:1013C000FAD3082268461421FFF730FF20216B462C
:1013D00010203246FFF79CFE00202554401CC0B26E
:1013E0001828FAD3082268461E21FFF71FFF302174
:1013F0006B4610203246FFF78BFEC82002F054F9EE
:1014000006B070BD2DE9F04FC1B01C4616460D4622
:1014100082468946580701D0012100E0002101EBF6
:10142000D40061080C2C10FB01F0834609D0102C6D
:1014300007D0182C05D0202C03D0302C01D0402C04
:101440002DD10346224669463046FFF723FF002090
:1014500022E01DF808700026380601D54A9A02E0FD
:101460004C9820B94B9A2946504605F00FFE780655
:101470006D1CADB2070EA5EB0900A04205D10AF123
:1014800001004D461FFA80FA03E0761CB6B2082E22
:10149000E2D308F1010080B258458046D9D341B06B
:1014A000BDE8F08F2DE9F04FA1B01F4615460C4660
:1014B00082468946580701D0012100E0002101EB56
:1014C000D7000C2F10FB07F0834605D0102F03D058
:1014D000182F01D0202F2DD103463A4669462846C1
:1014E000FFF708FF002022E01DF808600025300605
:1014F00001D52A9A02E02C9820B92B9A2146504611
:1015000005F0C4FD7006641CA4B2060EA4EB09002D
:10151000B84205D10AF101004C461FFA80FA03E0F7
:101520006D1CEDB2082DE2D308F10100C0B25845A0
:101530008046D9D321B0BDE8F08F2DE9FF4F83B0AD
:101540009B460E46044680468A46DDE9107500201B
:10155000814620E0B9F1000F23D005994FF0000932
:1015600008EB0100401BA04202DA7019444686B223
:101570000AEB0B00401BB04210DB12AB93E80700F4
:101580002B468DE807003A4631462046FFF78AFF92
:10159000601984B2BF1C38780028DBD107B0BDE8E1
:1015A000F08F802801D90120D2E7059A08EB0201CB
:1015B000A1EB5501A14202DA711944468EB20AEB41
:1015C0000B01491BB142E9DB0D280FD012AB93E8A8
:1015D00007002B468DE807003A4631462046FFF7C4
:1015E00011FF04EB550084B27F1CD4E77019444608
:1015F00086B27F1CF5E7002206E00021491CC9B233
:101600006429FBD3521CD2B28242F6D3704770B425
:10161000164602781D464378812A0C4610D3402B8B
:101620000ED3FF2B0CD0FF2A0AD00C2D11D0102D79
:1016300011D0182D0DD13146204670BCFFF74EBA9F
:101640000021084603E0491C04F8010BC9B2B1426D
:10165000F9D370BC70473146204670BCFFF71EBA04
:10166000F0B51F2305460020CC0717D001265B1ECE
:1016700005D303F01F0706FA07F40C42F7D07AB13E
:10168000082A09D0102A04D0182A07D1072B05D21E
:1016900006E0082B02D203E0102B01D30120F0BD9D
:1016A0000028FCD12B68596129688B6823F0180346
:1016B00013438B60F0BD000010B5040010D0607FB4
:1016C00020B900202077204600F030F80220607713
:1016D000207938B1D4E902122046FFF7C1FF48B1A2
:1016E000012010BD2168104848612068816821F000
:1016F000180181606079A0B12069216808612068C3
:101700008168626921F0600111438160206881680D
:10171000A26921F0800111438160012060770020DF
:1017200010BD4FF0FF30E8E7B71DC10408B50068F1
:101730000649884208D10648016841F40021016049
:10174000006800F40020009008BD0000004C025822
:10175000E04402587047000010B5044600F0FAF962
:10176000204600F0BDF902490120487010BD00007C
:10177000000000242DE9F0410446006805694FF09F
:101780000406234F69070BD54661E06C40F0020068
:10179000E06484F83560A06C0765A06C00F0F4FD8F
:1017A000A8070DD5216802204861E06C40F00100D7
:1017B000E06484F83560A06C0765A06C00F0E4FD7F
:1017C000E80605D5216810204861204600F06AF837
:1017D000280705D5216808204861204600F0F0F967
:1017E000E80712D020680168890703D5C16821F095
:1017F0001E01C1602068C16821F00101C16021683B
:10180000012048612046FFF7A7FFBDE8F0810000F6
:10181000370B000810B5040003D094F8350010B160
:1018200004E0012010BD204600F03EF8022084F8BC
:101830003500A069002200B1626220680168184B7F
:1018400019400160616860690143D4E903031843EA
:101850000143A0680143A0690143206A0143606A13
:101860000143A06A0143E06A0143206B0143206801
:101870000368194301606068102805D1E17FE069C1
:1018800061F31F60216888612068C16841F01E0112
:10189000C160E264012084F83500002010BD000022
:1018A00007F0E0FF704700002DE9F04186B0804668
:1018B00014216846FEF739FF4C49D8F800008842E9
:1018C0007ED14B48016841F001010160006800F0E1
:1018D000010005904648001D016841F010010160BB
:1018E000016801F010010591016841F001010160FA
:1018F000016801F001010591016841F004010160F6
:10190000016801F004010591016841F008010160DE
:10191000016801F008010591016841F002010160D0
:10192000006802240126694600F002000590732039
:101930000D278DE8510003252E48CDE9035701F00E
:101940007FFF502069468DE851002B48CDE90357B1
:1019500001F076FFC02069468DE851002748CDE9A7
:10196000035701F06DFF082069468DE851002448B7
:10197000CDE9035701F064FF802069468DE85100EE
:101980002048CDE9035701F05BFF202002F064F806
:101990001E4CB1021C4820604B2060600020A060FB
:1019A000C4E90301890061618900A1618911E161D4
:1019B0002904216204216162C4E90A50206300E025
:1019C00011E0204601F088FA08B1FFF7D1FBC8F812
:1019D000484000220121C4F838804E2002F0C2F8AD
:1019E0004E2002F0B1F806B0BDE8F08100000248D8
:1019F000DC44025800100258000002580008025847
:101A0000000C02580004025828000240CC030024B5
:101A1000F8B5044690F8340001282AD0012684F84D
:101A20003460022084F835002068056845F480455C
:101A300005602068056825F00205056020680568D6
:101A40000D430560A06C2449C163A56C2348E8647C
:101A50000025A06C0565A5632564E5633004402777
:101A60006564834207D22168A06C283101F0C2FC72
:101A700021E00220F8BDD4F848C0CCF84410A66399
:101A8000E363626405E0E16B4908E163A16B49002F
:101A9000A163E16B8142F6D2A06B801EA063A06BB4
:101AA0002064E06B02EB8003E06B00902168A06C87
:101AB000283100F0CFF830B1E76484F835600120B8
:101AC00084F83450F8BD2068016841F001010160DC
:101AD000002084F83450F8BD570B0008370B00087D
:101AE00070B504461A484FF4FA5100250068B0FB5F
:101AF000F1F0C910484394F8341001291FD0012691
:101B000084F83460022184F8351021680A6822F0D4
:101B100001020A602168401E13D00A68D207FAD178
:101B2000086820F480400860A06C343400F07CFA2F
:101B3000A069A061667000202070284670BD022058
:101B400070BDE06C40F02000E0640325E8E7000091
:101B50008000002419494FF4FA5230B50023096877
:101B6000B1FBF2F1D210514390F83420012A07D092
:101B7000012480F8344090F83520022A02D00FE08A
:101B8000022030BD052280F835200268156825F056
:101B900001051560491E08D002681268D207F9D104
:101BA000002180F83410184630BDC16C41F020018E
:101BB000C16480F835400323F2E700008000002470
:101BC000704700000068214B984238D01F4B1833F3
:101BD000984234D01D4B3033984230D01B4B4833A1
:101BE00098422CD0194B6033984228D0174B783349
:101BF000984224D0154B9033984220D0134BA833F1
:101C000098421CD0124B984219D0114B183398426D
:101C100015D00F4B3033984211D00D4B48339842BA
:101C20000DD00B4B6033984209D0094B7833984262
:101C300005D0074B9033984201D0054BA83312B121
:101C4000016100207047C160FBE700001000024006
:101C5000100402402DE9FF4F81B00446002000909F
:101C6000A068DDF838E0802811D094F8340001280D
:101C700012D0012184F8341094F8350001280DD0D9
:101C8000C80260650120009005B0BDE8F08F4FF4F8
:101C9000807060650120F7E70220F5E7022084F8F4
:101CA000350000206065DD4DDC4EDC4F1835DB4A29
:101CB0003036DFF868834837DFF86093DFF85CA3DD
:101CC00008F16008DFF854B309F1780920680AF1D7
:101CD000900A0BF1A80B90422CD0A8422AD0B04217
:101CE00028D0B84226D0404524D0484522D050457F
:101CF00020D058451ED0CA4A90421BD0C84A18323C
:101D0000904217D0C64A3032904213D0C44A48326B
:101D100090420FD0C24A603290420BD0C04A783213
:101D2000904207D0BE4A9032904203D0BC4AA832BB
:101D300090420ED1016841F4802101602068036166
:101D400094F85C10A06D01F01F023F21914081606A
:101D50000EE0026848F2200C42EA0C0202602068A1
:101D6000036194F85C20A06D02F01F029140416075
:101D70007346DDE902122046FFF768F8A949A94A2F
:101D8000DFF898C23C3120685032DFF898E26045B5
:101D900046D0A84244D0B04242D0B84240D040459C
:101DA0003ED048453CD050453AD0584538D09C4B61
:101DB000984235D09A4B1833984231D0984B3033F3
:101DC00098422DD0964B4833984229D0944B60339B
:101DD000984225D0924B7833984221D0904B903343
:101DE00098421DD08E4BA833984219D0704517D019
:101DF0008C4B1433984213D08A4B283398420FD01F
:101E000088420DD090420BD0864B6433984207D065
:101E1000844B7833984203D0824B8C33984207D15D
:101E2000D4E919034360E06E10B1D4E91C034360A8
:101E30006346206898423BD0A84239D0B04237D0A0
:101E4000B84235D0404533D0484531D050452FD0E9
:101E500058452DD0DFF8C8C1604529D0DFF8C0C192
:101E60000CF1180C604523D0DFF8B4C10CF1300C34
:101E700060451DD0DFF8A8C10CF1480C604517D0B3
:101E8000DFF89CC10CF1600C604511D0DFF890C107
:101E90000CF1780C60450BD0DFF884C10CF1900C8C
:101EA000604505D0DFF878C10CF1A80C604518D169
:101EB000D0F800C02CF01E0C4CF0160CC0F800C07E
:101EC0002068D0F814C04CF0800CC0F814C0206C0E
:101ED00008B9A06CC0B12068D0F800C04CF0080C64
:101EE00010E0D0F800C02CF00E0C4CF00A0CC0F83A
:101EF00000C0206C08B9A06C30B12068D0F800C0D8
:101F00004CF0040CC0F800C020689C46604546D0E8
:101F1000A84244D0B04242D0B84240D040453ED022
:101F200048453CD050453AD0584538D03C4B984273
:101F300035D03B4B1833984231D0394B303398422F
:101F40002DD0374B4833984229D0354B60339842D7
:101F500025D0334B7833984221D0314B903398427F
:101F60001DD02F4BA833984219D0704517D02D4B58
:101F70001433984213D02B4B283398420FD0884209
:101F80000DD090420BD027496431884207D02549B3
:101F90007831884203D023498C3188420DD1206E9C
:101FA0000168C90303D5016841F480710160E06EE6
:101FB00018B1016841F4807101602068604526D045
:101FC000A84224D0B04222D0B84220D040451ED0F2
:101FD00048451CD050451AD0584518D01049884261
:101FE00015D00F491831884211D00D49303188423F
:101FF0000DD00B494831884209D0094960318842E7
:1020000005D007497831884201D0054990310168EF
:1020100041F001010160009836E600001000024026
:1020200010040240085402582DE9F84F044601F00C
:102030000DFD009034B194F83500022805D08020C1
:102040006065EBE00120BDE8F88FCC4ECB4FCB496B
:102050001836DFF828833037DFF82093DFF81CA329
:1020600008F14808DFF814B309F1600920680AF1A3
:10207000780A0BF1900B88422ED0B0422CD0B84297
:102080002AD0404528D0484526D0504524D0584530
:1020900022D0BA4AA83290421ED0B94A90421BD0F0
:1020A000B74A1832904217D0B54A3032904213D016
:1020B000B34A483290420FD0B14A603290420BD0BE
:1020C000AF4A7832904207D0AD4A9032904203D066
:1020D000AB4AA832904209D1026822F01E02026087
:1020E0002068426922F08002426103E0026822F027
:1020F0000E02026025688D4228464DD0B0424BD07A
:10210000B84249D0404547D0484545D0504543D0D6
:10211000584541D0994AA83290423DD0984A9042C1
:102120003AD0974A1832904236D0954A303290428F
:1021300032D0934A483290422ED0914A6032904237
:102140002AD08F4A7832904226D08D4A90329042DF
:1021500022D08B4AA83290421ED08A4A90421BD08D
:10216000884A1432904217D0864A2832904213D0BF
:10217000844A3C3290420FD0824A503290420BD077
:10218000804A6432904207D07E4A7832904203D02F
:102190007C4A8C32954204D1206E026822F480720F
:1021A000026076492068884228D0B04226D0B842E2
:1021B00024D0404522D0484520D050451ED0584517
:1021C0001CD06E49A831884218D06D49884215D07C
:1021D0006B491831884211D06949303188420DD09D
:1021E00067494831884209D065496031884205D045
:1021F00063497831884201D061499031016821F00A
:10220000010101600EE001F021FC0099401A05284F
:1022100008D920206065032084F83500002084F868
:1022200034000FE72868C007EDD1544A0121206827
:1022300090422ED0B0422CD0B8422AD0404528D06F
:10224000484526D0504524D0584522D04B4BA83382
:1022500098421ED04A4B98421BD0494B18339842A3
:1022600017D0474B3033984213D0454B48339842F0
:102270000FD0434B603398420BD0414B7833984298
:1022800007D03F4B9033984203D03D4BA833984240
:1022900008D194F85C30A06D03F01F053F23AB40DC
:1022A000836007E094F85C30A06D03F01F0301FA2F
:1022B00003F34360206890424DD0B0424BD0B84207
:1022C00049D0404547D0484545D0504543D0584572
:1022D00041D02A4AA83290423DD0294A90423AD071
:1022E000274A1832904236D0254A3032904232D0B6
:1022F000234A483290422ED0214A603290422AD05E
:102300001F4A7832904226D01D4A9032904222D005
:102310001B4AA83290421ED01A4A90421BD0194A3A
:102320001432904217D0174A2832904213D0154ADF
:102330003C3290420FD0134A503290420BD0114A97
:102340006432904207D00F4A7832904203D00D4A4F
:102350008C3290420BD1D4E919024260E06E30B168
:10236000026822F480720260D4E91C02426084F8A0
:102370003510002084F8340065E6000010000240AB
:1023800010040240085402582DE9F05F28B190F87B
:102390003510022904D0802141650120BDE8F09F5D
:1023A000914A914B914D1832904E3033DFF838C23C
:1023B0001835DFF834E24836DFF83092DFF82CA227
:1023C0000EF1600EDFF824B209F1300901680AF15C
:1023D000600A864C0BF1A80B614529D0914227D0A9
:1023E000994225D0804F4837B94221D071451FD03E
:1023F0007D4F7837B9421BD07B4F9037B94217D009
:10240000794FA837B94213D0A14211D0A9420FD0B9
:1024100049450DD0B1420BD0514509D0734F7837A3
:10242000B94205D0714F9037B94201D059452FD1EB
:10243000042780F83570614525D0914223D0994218
:1024400021D06948483081421DD071451BD0664873
:102450007830814217D064489030814213D062486E
:10246000A83081420FD0A1420DD0A9420BD04945DE
:1024700009D0B14207D0514505D05C48783081423F
:1024800001D05A489030086820F001000860A8E0A8
:10249000D1F8008028F00E08C1F800800168E046FD
:1024A00041452BD0914229D0994227D0DFF838C13D
:1024B0000CF1480C614521D071451FD0DFF828C1CF
:1024C0000CF1780C614519D0DFF81CC10CF1900CAF
:1024D000614513D0DFF810C10CF1A80C61450DD097
:1024E000A1420BD0A94209D0494507D0B14205D03D
:1024F000514503D0DFF8F4C00CF1780CD1F800C0DE
:102500002CF0010CC1F800C001684FF0010C4145EE
:1025100046D0914244D0994242D0334A4832914207
:102520003ED071453CD0304A7832914238D02E4A64
:102530009032914234D02C4AA832914230D0A142FC
:102540002ED0A9422CD049452AD0B14228D051459D
:1025500026D0264A7832914222D0B94220D059451D
:102560001ED0234A91421BD0214A1432914217D0E7
:102570001F4A2832914213D01D4A3C3291420FD05B
:102580001B4A503291420BD0194A6432914207D013
:10259000174A7832914203D0154A8C32914218D1B1
:1025A000016E0A6822F480720A6090F85C20816DE6
:1025B00002F01F020CFA02F24A60D0E919124A60D6
:1025C000C16E31B10A6822F480720A60D0E91C122F
:1025D0004A6080F835C0002180F83410016D01B1E7
:1025E00088470020DAE60000100002401004024094
:1025F000085402582DE9F05F04007DD0734A734BF4
:10260000724E1832714F303370494836DFF8BCC112
:102610006037DFF8B881DFF8B4910CF1780CDFF89F
:10262000B0B108F19008DFF8A8E109F1A809206825
:102630000BF1180BDFF898A10EF1300E884221D073
:1026400090421FD098421DD0B0421BD0B84219D042
:10265000604517D0404515D0484513D0504511D09E
:1026600058450FD070450DD0594D4835A84209D076
:10267000574D6035A84205D0554D7835A84201D058
:10268000534D9035056825F001050560206800254B
:10269000884227D0904225D0984223D0B04221D002
:1026A000B8421FD060451DD040451BD0484519D0C9
:1026B000504517D0584515D0704513D0444948317E
:1026C00088420FD04249603188420BD0404978316E
:1026D000884207D03E499031884203D03C49A83116
:1026E000884218D1056020684560206885602068B0
:1026F000C5602068056100E065E02168212048612F
:102700002046FEF78FFA94F85C1001F01F023F217B
:102710009140816031E02F4988421BD02D4914310E
:10272000884217D02B492831884213D029493C319F
:1027300088420FD02749503188420BD02549643157
:10274000884207D023497831884203D021498C310F
:10275000884238D10560206845602068856020681F
:10276000C560206805612046FEF75CFA94F85C10AD
:1027700001F01F020121914041602046FEF7AEFAB0
:10278000206E18B10560D4E9190141606068401EEF
:10279000072807D82046FEF7F1FAE06E0560D4E975
:1027A0001C014160E56625676567E563256465642E
:1027B000A564E5642565656584F83550002084F8D6
:1027C0003450BDE8F09F0120FBE7000010000240FC
:1027D0001004024008540258406D704790F83500CC
:1027E000704700002DE9FC5F0446002000904FF484
:1027F0001651F9480068B0FBF1F00190A56D2E6804
:102800002A68F64FDFF8D483DFF8D0A3DFF8CCB323
:1028100008F1180820680AF1300ADFF8C4930BF1B8
:10282000480BB84238D04146884235D0504533D065
:10283000584531D0E949603188422DD0E749783197
:10284000884229D0E5499031884225D0E349A83112
:10285000884221D048451FD0E149183188421BD019
:10286000DF493031884217D0DD494831884213D0E2
:10287000DFF86CE30EF1600E70450DD0D84B783365
:10288000984209D0DFF858C30CF1900C604503D092
:10289000D349A83188427DD194F85C10082301F017
:1028A0001F0103FA01F232424CD0B84233D0404506
:1028B00031D050452FD058452DD0C849603188427D
:1028C00029D0C6497831884225D0C4499031884200
:1028D00021D0C249A83188421DD048451BD0C049EB
:1028E0001831884217D0BE493031884213D0BC49D4
:1028F000483188420FD0BA49603188420BD0B8497C
:102900007831884207D0B6499031884203D0B44923
:10291000A831884203D1016801F0040102E0016896
:1029200001F0080171B1016821F00401016094F81F
:102930005C0000F01F0003FA00F2AA60606D40F036
:102940000100606594F85C00012100F01F008140E7
:10295000314241D02068B84235D0404533D050454F
:1029600031D058452FD09D4A603290422BD09B4A9F
:102970007832904227D0994A9032904223D0974A99
:10298000A83290421FD048451DD0954A1832904237
:1029900019D000E0B3E1924A3032904213D0904A0D
:1029A000483290420FD08E4A603290420BD08C4A0F
:1029B0007832904207D08A4A9032904203D0884AB7
:1029C000A83290427ED1406910F0800F04D0A960F7
:1029D000606D40F00200606594F85C00042100F036
:1029E0001F00814031423FD02068B84233D040457B
:1029F00031D050452FD058452DD0784A6032904282
:102A000029D0764A7832904225D0744A903290424A
:102A100021D0724AA83290421DD048451BD0704A3E
:102A20001832904217D06E4A3032904213D06C4A1E
:102A3000483290420FD06A4A603290420BD0684AC6
:102A40007832904207D0664A9032904203D0644A6E
:102A5000A83290424FD1006810F0020F04D0A96054
:102A6000606D40F00400606594F85C00102100F097
:102A70001F008140314259D02068B84235D04045CE
:102A800033D0504531D058452FD0544A603290420F
:102A90002BD0524A7832904227D0504A90329042FE
:102AA00023D04E4AA83290421FD048451DD04C4AF0
:102AB0001832904219D04A4A3032904215D0484AD2
:102AC000483200E015E090420FD0454A6032904213
:102AD0000BD0434A7832904207D0414A903290421C
:102AE00003D03F4AA832904207D1006800F00800A6
:102AF00006E0006870E70068B6E7006800F00400D0
:102B0000A0B1A96020680168490304D500680003EA
:102B100008D5A16C07E00168C90503D4016821F05C
:102B200008010160216C09B12046884794F85C00D7
:102B3000202100F01F008140314278D02068B84247
:102B400033D0404531D050452FD058452DD0234A61
:102B50006032904229D0214A7832904225D01F4AD3
:102B60009032904221D01D4AA83290421DD0484553
:102B70001BD01B4A1832904217D0194A303290426B
:102B800013D0174A483290420FD0154A6032904213
:102B90000BD0134A7832904207D0114A90329042BB
:102BA00003D00F4AA832904203D1006800F0100011
:102BB00002E0006800F00200A0B3A96094F83500BC
:102BC0000428206801680DD049037CD50068000303
:102BD00029D4616C28E0000080000024100002402D
:102BE0001004024021F0160101602068416921F0C3
:102BF00080014161206C08B9A06C20B12068016897
:102C000021F00801016094F85C0000F01F013F20F2
:102C10008840A860012084F83500002084F8340042
:102C2000216D65E003E0E16B09B120468847606DE6
:102C300000287DD0606DC00759D0042084F835008D
:102C40002068B8422BD0404529D0504527D0584560
:102C500025D09E49884222D09C49183188421ED0F6
:102C60009A49303188421AD098494831884216D062
:102C7000484514D09649884211D095491831884268
:102C80000DD093493031884209D09149483188426A
:102C900005D08F496031884201D08D497831016873
:102CA00021F00101016021680098019A401C009008
:102CB000904202D80868C007F6D10868C00710D053
:102CC00003200FE0FFE70168C905ACD4016821F0DB
:102CD00010010160012084F83500002084F83400E0
:102CE000A1E7012084F83500002084F83400E16C6D
:102CF00000291DD002B02046BDE8F05F08477549A5
:102D000088421DD073491431884219D07149283145
:102D1000884215D06F493C31884211D06D495031FD
:102D200088420DD06B496431884209D0694900E07E
:102D300084E07831884203D066498C3188427DD165
:102D400001684FF0040894F85C6006F01F0608FA6A
:102D500006F818EA020FCDF8008047D05FEA417804
:102D600044D500986860080403D5C8033CD4A16C1E
:102D7000BEE7880638D42068B8422DD05349483978
:102D8000884229D0504527D0584525D04F49884200
:102D900022D04E49183188421ED04C4930318842E9
:102DA0001AD04A494831884216D0484514D048497B
:102DB000884211D04649183188420DD044493031FB
:102DC000884209D0704507D0984205D0604503D0AD
:102DD0003F499031884203D1016821F0080102E0A7
:102DE000016821F004010160216C81E74FF00208C5
:102DF00008FA06F818EA020FCDF800804FD05FEA13
:102E000081784CD500986860080403D5C80344D481
:102E1000616C6DE7880640D42068B8422FD02B49FA
:102E2000483988422BD0504529D0584527D02749CA
:102E3000884224D025491831884200E043E01ED062
:102E40002249303188421AD020494831884216D070
:102E5000484514D01E49884211D01D491831884276
:102E60000DD01B493031884209D0704507D09842B7
:102E700005D0604503D016499031884203D10168DE
:102E800021F0140102E0016821F00A010160012033
:102E900084F83500002084F83400E16B28E708232B
:102EA000B34013420FD009070DD5016821F00E0180
:102EB000016094F85C0000F01F01012000FA01F1AC
:102EC000696060650EE7BDE8FC9F0000700002408D
:102ED00028040240085402582DE9F05F044600F02F
:102EE000B5FD0646F4B3E24F0222DFF884830025E5
:102EF000DFF87C93DFF878A308F13008DFF870B3CF
:102F000009F1480920680AF1600A0BF1780BB84210
:102F100034D0D7491831884230D040452ED048456A
:102F20002CD050452AD0584528D0D14990318842DC
:102F300024D0CF49A831884220D0CE4988421DD024
:102F4000CC491831884219D0CA493031884215D04D
:102F5000C8494831884211D0C649603188420DD0F5
:102F6000C44900E042E07831884207D0C14990313D
:102F7000884203D0BF49A83188427CD184F83520EB
:102F8000B84284F834502CD0B9491831884228D03E
:102F9000404526D0484524D0504522D0584520D021
:102FA000B349903188421CD0B149A831884218D029
:102FB000B049884215D0AF491831884211D0AD4987
:102FC000303188420DD0AB494831884209D0A949F7
:102FD0006031884205D0A7497831884201D0A5499F
:102FE0009031016821F00101016009E00120BDE894
:102FF000F09F00F02BFD801B052801D9202015E152
:1030000020680068C007F4D1226811689A4801401E
:10301000D4E902031843D4E9043633431843A369BF
:103020001843E3691843236A18430843616A042973
:1030300003D1D4E90B1319430843904909686FF38E
:103040000F01B1F1005F0FD36168A1F12903052BD6
:1030500008D9163B032B05D9083B012B02D94F3960
:10306000032901D840F4801010602068406920F0E6
:103070000701606A00E01CE0042840EA01060BD169
:10308000A06A0643E06A38B12046FDF7B5FE18B1E4
:10309000402060650120CBE0206846612046FDF7B6
:1030A000C1FD94F85C1001F01F023F219140816046
:1030B00056E0734988421BD0714B1433984217D0A5
:1030C0006F4B2833984213D06D4B3C3398420FD04E
:1030D0006B4B503398420BD0694B6433984207D006
:1030E000674B7833984203D0654B8C3398427DD13F
:1030F000884201D06249143184F8352084F8345074
:10310000026860490A40A168402970D080296FD0C8
:103110000021E36841EAD301236941EAD3016369ED
:1031200041EAD301A36941EAD301E36941EAD3014A
:10313000236A41EA13111143016051492068494251
:1031400008441421B0FBF1F08000E0652046FDF753
:1031500069FD94F85C1001F01F020121914041606B
:103160002068B84255D042491831884251D0404574
:103170004FD048454DD050454BD0584549D03C499B
:103180009031884245D03A49A831884241D03949E6
:1031900088423ED03749183188423AD035493031DB
:1031A000884236D033494831884232D03149603183
:1031B00088422ED02F49783188422AD02D4990312B
:1031C000884226D02B49A831884222D02C498842F7
:1031D0001FD02B49143188421BD0294928318842FD
:1031E00017D027493C31884213D002E01DE017E098
:1031F00018E02349503188420BD02149643188427C
:1032000007D01F497831884203D01D498C3188424C
:1032100028D12046FDF762FDA06880280BD00BE086
:10322000102176E74FF4804173E74020606503206A
:1032300084F83500DAE66560216E20790860D4E90B
:10324000190141606068401E072808D82046FDF734
:1032500095FDE06E0560D4E91C01416002E0E56681
:10326000256765676565012084F835000020BEE6A6
:1032700010000240100402403F8010FE0010005C6D
:10328000085402580F00FEFF2DE9F05F04004FF0D4
:10329000000514D094F83400012812D0012084F8DD
:1032A000340094F835600020012E0CD04FF40061FA
:1032B0006165012584F834002846BDE8F09F0120AF
:1032C000FBE70220F9E7022684F835606065474F86
:1032D000464EDFF818811837DFF81091DFF80CA19F
:1032E00008F13008DFF804B109F1480920680AF153
:1032F000600A0BF1780BB0423BD0B84239D0404560
:1033000037D0484535D0504533D0584531D0DFF817
:10331000DCC00CF1900C60452BD0DFF8D0C00CF174
:10332000A80C604525D0DFF8C8C0604521D0DFF883
:10333000C0C00CF1180C60451BD0DFF8B4C00CF114
:10334000300C604515D0DFF8A8C00CF1480C604582
:103350000FD0DFF89CC00CF1600C604509D0DFF89D
:1033600090C00CF1780C604503D0DFF884C00CF1FC
:10337000900CD0F800C02CF0010CC0F800C0204622
:10338000FDF7B4FD2068B0422AD0B84228D04045AD
:1033900026D0484524D0504522D0584520D0134946
:1033A000903188421CD01149A831884218D0104968
:1033B000884215D00E491831884211D00C4930315D
:1033C00088420DD00A494831884209D00849603105
:1033D000884205D006497831884201D004499031AD
:1033E000016841F00101016066E700001000024041
:1033F000100402402DE9F84F04004FF00000009047
:1034000014D094F83400012812D0012084F834003C
:1034100094F835500020012D0CD04FF40061616507
:1034200084F8340001200090BDE8F88F0120FBE70C
:103430000220F9E7022584F835506065974D974ED4
:10344000964F1835DFF854C23036DFF850824837CF
:10345000DFF84892DFF844A208F16008DFF83CB2D8
:1034600009F1780920680AF1900A0BF1A80B604570
:1034700033D0A84231D0B0422FD0B8422DD04045F1
:103480002BD0484529D0504527D0584525D0DFF8C6
:1034900010C2604521D0DFF808C20CF1180C60455D
:1034A0001BD0DFF8FCC10CF1300C604515D0DFF803
:1034B000F0C10CF1480C60450FD0DFF8E4C10CF10D
:1034C000600C604509D0DFF8D8C10CF1780C60457C
:1034D00003D0DFF8CCC10CF1900CD0F800C02CF078
:1034E000010CC0F800C02046FDF700FD6B492068C4
:1034F00088422CD0A8422AD0B04228D0B84226D048
:10350000404524D0484522D0504520D058451ED0B3
:10351000634A90421BD0624A1832904217D0604AE8
:103520003032904213D05E4A483290420FD05C4A0B
:10353000603290420BD05A4A7832904207D0584AB3
:103540009032904203D0564AA83290420CD1026881
:1035500022F01E0242F016020260206C88B1206840
:10356000026842F008020BE0026822F00E0242F00C
:103570000A020260206C20B12068026842F0040256
:103580000260206888424BD0A84249D0B04247D060
:10359000B84245D0404543D0484541D050453FD042
:1035A00058453DD03E4A90423AD03D4A183290426A
:1035B00036D03B4A3032904232D0394A483290427B
:1035C0002ED0374A603290422AD0354A7832904223
:1035D00026D0334A9032904222D0314AA8329042CB
:1035E0001ED0304A90421BD02E4A1432904217D03F
:1035F0002C4A2832904213D02A4A3C3290420FD0B3
:10360000284A503290420BD0264A6432904207D06A
:10361000244A7832904203D0224A8C3290420DD113
:10362000206E0268D20303D5026842F48072026001
:10363000E06E18B1026842F480720260206888422D
:1036400026D0A84224D0B04222D0B84220D0404553
:103650001ED048451CD050451AD0584518D01049A6
:10366000884215D00E491831884211D00C493031AA
:1036700088420DD00A494831884209D00849603152
:10368000884205D006497831884201D004499031FA
:10369000016841F0010101600098C5E61000024098
:1036A000100402400854025870B5044600F0CEF9E8
:1036B0000546601C02D004480078044400F0C6F9B6
:1036C000401BA042FAD370BD740000242DE9F04FD6
:1036D000504C00224FF0010B4FF00F0A93E00BFA11
:1036E00002F818EA01037CD022F0030505F1B04589
:1036F000D5F808C49607370F0AFA07F606EA0C0948
:10370000DFF814C1604502D14FF0000C40E0DFF853
:103710000CC1604502D14FF0010C39E0DFF800C167
:10372000604502D14FF0020C32E0DFF8F8C060458E
:1037300002D14FF0030C2BE0DFF8ECC0604502D162
:103740004FF0040C24E0DFF8E4C0604502D14FF0F4
:10375000050C1DE0DFF8D8C0604502D14FF0060C23
:1037600016E0DFF8D0C0604502D14FF0070C0FE043
:10377000DFF8C4C0604502D14FF0080C08E0DFF864
:10378000BCC0604502D14FF0090C01E04FF00A0CBB
:103790000CFA07FCCC4518D127689F43276067685F
:1037A0009F4367604FF0B047D7F804C02CEA030C82
:1037B000C7F804C0D7F800C02CEA030CC7F800C053
:1037C000D5F80834B343C5F8083405685600032318
:1037D000B3401D430560D50800EB85052F6A5607E9
:1037E00000E00FE04FEAD66C0AFA0CF6B7432F62FE
:1037F000C5689D43C560456825EA0805456085683C
:103800009D438560521C31FA02F37FF468AFBDE836
:10381000F08F000080000058000002580004025899
:1038200000080258000C02580010025800140258F8
:1038300000180258001C02580020025800240258A8
:103840002DE9F84F694C00224FF0B04A4FF0010BC0
:103850004FF003084FF00F09C0E00BFA02F63340B7
:1038600073D00D7905F00305012D01D0022D15D17E
:103870008768550008FA05FC27EA0C07D1F80CC048
:103880000CFA05FC4CEA070CC0F808C04568B543C3
:103890000E79C6F3001696402E4346600D79ED432F
:1038A000AD0708D0C668550008FA05F7BE438F6813
:1038B000AF403743C7600D7905F00305022D11D1E4
:1038C000D50800EB85073E6A5507ED0E09FA05FCA1
:1038D00026EA0C06D1F810C00CFA05FC4CEA060CDE
:1038E000C7F820C00668550008FA05F7BE430F79EF
:1038F00007F00307AF40374307604D6815F4403FBA
:103900006BD03B4D2E6846F002062E602D6822F0EB
:10391000030606F1B04605F002050095D6F80874D6
:1039200095074FEA157C09FA0CF5AF43314DA842D3
:1039300001D100252EE0304DA84201D1012529E01A
:103940002E4DA84202D1022524E046E02C4DA8428B
:1039500001D103251EE02B4DA84201D1042519E019
:10396000294DA84201D1052514E0284DA84201D1D6
:1039700006250FE0264DA84201D107250AE0254D76
:10398000A84201D1082505E0234DA84201D109250F
:1039900000E00A2505FA0CF53D43C6F80854DAF8AC
:1039A000005056464F689D43FF0200D51D433560C9
:1039B00075684F689D43BF0200D51D4375606568FB
:1039C0004E689D43B60300D51D43656025684E686B
:1039D0009D43F60300D51D432560521C0B6833FA46
:1039E00002F57FF43AAFBDE8F88F00008000005880
:1039F000F44402580000025800040258000802581B
:103A0000000C025800100258001402580018025806
:103A1000001C025800200258002402580069084087
:103A200000D001207047426921EA02030A4043EABC
:103A30000241816170470AB1816170470904FBE767
:103A400001480068000C70470010005C0148806865
:103A50007047000074000024074908B50A6842F066
:103A600002020A60096801F00201009103490A6834
:103A700002430A6008BD0000F444025804040058E0
:103A80000248816802781144816070477400002404
:103A9000032010B500F086F801F048FC0F4A1168C9
:103AA0001268C1F303230E49CB5C03F01F03D84017
:103AB00002F00F02895C0B4A01F01F0120FA01F1AC
:103AC0001160094908600F2000F010F808B10120CA
:103AD00010BD00F02BF8002010BD00001844025863
:103AE000D4C40008840000248000002470B50D4D6B
:103AF00004462A78A2B14FF47A700B49B0FBF2F079
:103B00000968B1FBF0F002F011FE48B9102C07D2A1
:103B100000222146501E00F025F800206C6070BD88
:103B2000012070BD7400002480000024054808B501
:103B3000016841F002010160006800F0020000909D
:103B400008BD0000F4440258002809DB012100F000
:103B50001F0291404009800000F1E020C0F80011F0
:103B6000704700000E4BF0B41B68C3F30223C3F18F
:103B70000704042C00D904241D1D072D01D20023A5
:103B800000E0DB1E012606FA04F56D1E0D409D4087
:103B90009E40761E164045EA0601F0BC07F01AB8B2
:103BA0000CED00E0064A00F0070110684FF6FF0335
:103BB000184040EA012003490843106070470000A4
:103BC0000CED00E00000FA05124970B50A68D24316
:103BD000520705D5096801F00701814212D117E0AB
:103BE0000A6822F0070202430A60FFF72FFF094D1F
:103BF0004FF47A760446083D06E0FFF727FF001BE6
:103C0000B04201D9012070BD2868C0438004F4D4BB
:103C1000002070BD0C4802582DE9F84F17468B461E
:103C20000446FFF713FF824694F8400001280ED0A7
:103C3000012684F8406094F841004FF00008012804
:103C400007D0022584F840802846BDE8F88F02207E
:103C5000FBE7C4F844804FF0020984F84190002249
:103C6000202153462046009704F026FB0500E9D1A9
:103C700000225946204604F022FADBF8240058B905
:103C80000122534602212046009704F015FB05004F
:103C9000D8D12168C1F80C9084F84160D2E70000C7
:103CA00038B50446FFF7D2FE05461CB194F8410032
:103CB00010B107E0012038BD204600F041F841F284
:103CC0008830A064206801686FF0FF03A26821F4C7
:103CD000F85103EB022211430160A06C0022202165
:103CE0002B460090204604F0E7FA0028E3D1E26872
:103CF000E16923790A43216A41EA03610A432168A1
:103D00000B680D4D2B401A430A60D4E905210A4384
:103D100021684B68094D2B40258A43EA05431A4325
:103D20004A6021680A6842F001020A600021616469
:103D3000012184F8411038BD2FFFFF00FEF8E0FF9D
:103D40002DE9F043B7B00446142130A8FCF7EDFC90
:103D5000C0216846FCF7E9FC35492068884263D1F8
:103D6000002013904FF000710646CDE90010684620
:103D700000F08AFC08B1FDF7FBF92E48016841F418
:103D800080410160006800F48040359029480C3083
:103D9000016841F010010160016801F010013591E6
:103DA000016841F002010160016801F002013591F2
:103DB000016841F008010160006809274FF004081C
:103DC000CDF8C08000F00800022403253395CDE92A
:103DD0003470194830A9CDE93146FFF731FDDFF8DD
:103DE0005C9030A9CDE930844FF00108CDF8C8804F
:103DF000CDE933574846FFF723FD30A94FF4605013
:103E000081E851000E48CDE93357FFF719FD30A97D
:103E1000402081E811010A20CDE933504846FFF7E0
:103E20000FFD1020FFF718FE37B0BDE8F08300004B
:103E300000500052D44402580010025800040258A6
:103E4000000C02582DE9F84F16460F460446FFF7BE
:103E5000FDFD82462068816900F1200594F840202C
:103E6000012A0ED04FF0010884F8408094F84120D8
:103E70004FF00009012A06D0022084F84090BDE8E6
:103E8000F88F0220FBE7C4F844909FB3222284F805
:103E900041200269521CA2630269521C62632763BB
:103EA000426922F0406242F0806242612068816192
:103EB0000DE00621204604F0FFF9C0B92878216BF7
:103EC0000870206B401C2063A06B401EA063A06B99
:103ED00053464FF0010200960028EAD14FF002014C
:103EE000204604F0E9F910B922680221D16084F873
:103EF0004180C2E7FFE7606C40F008006064012089
:103F0000BBE72DE9F84F16460F460446FFF79EFD26
:103F10008246206894F8401000F1200501290ED057
:103F20004FF0010884F8408094F841104FF00009E8
:103F3000012906D0022084F84090BDE8F88F0220C5
:103F4000FBE7C4F844907FB3122184F84110016963
:103F5000491CE1620169491CA1626762416921F063
:103F6000406141610DE00421204604F0A5F9C0B98B
:103F7000606A00782870606A401C6062E06A401ED7
:103F8000E062E06A53464FF0010200960028EAD151
:103F90004FF00201204604F08FF910B92268022187
:103FA000D16084F84180C6E7FFE7606C40F008000C
:103FB00060640120BFE7000010B501F071F9054908
:103FC0000968054AC1F30211515C01F01F01C840A4
:103FD00010BD000020440258D4C400084F4910B559
:103FE0000A68096802F003024C4B1B1DC1F305115E
:103FF0001B684A4C03F001030C3424680029C4F305
:10400000CC0414FB03F300EE103AB8EE400A7FD064
:104010009FED431A9FED432A404BF7EE000A083309
:1040200022B1012A66D0022A22D16AE03B4A283A0C
:104030001468A4061CD51268C2F3C1043A4AE240CF
:1040400001EE902AF8EE612A01EE901AF8EE611A5C
:10405000196882EEA12AC1F3080101EE901AF8EE68
:10406000611A40EE011A31EEA00A22EE000A12E0B7
:1040700001EE901A1968F8EE611AC2EE212AC1F316
:10408000080101EE901AF8EE611A40EE011A31EEC5
:10409000A00A22EE800A1968C1F3462101EE101A27
:1040A000B8EE411A31EE201AC0EE011ABCEEE11A48
:1040B00080ED001A1968C1F3064101EE101AB8EE3E
:1040C000411A31EE201AC0EE011ABCEEE11A80ED61
:1040D000011A1968C1F3066101EE101AB8EE411A0F
:1040E00071EE200A80EE201ABCEEC10A80ED020AB1
:1040F00010BD0DE001EE901ADFED0C2AF8EE611A0A
:10410000A6E701EE901ADFED0A2AF8EE611A9FE7A2
:104110000021016041608160EAE700002844025804
:10412000000000390024744C0090D0030024744A2D
:1041300020BCBE4B484910B50A68096802F003026A
:10414000454B1B1DC1F305311B68434C1434C3F3AD
:1041500000132468C4F3CC0414FB03F300EE103AFC
:10416000B8EE400AE9B33C4B9FED3C1A1033F7EE32
:10417000000A62B1DFED3A1A012A01D0022A5ED0AC
:1041800002EE101AF8EE422A81EEA22A1AE0324A12
:10419000283A1468A4060DD51268C2F3C104314A46
:1041A000E24001EE902AF8EE612A01EE901AF8EE54
:1041B000611A05E001EE901ADFED2B2AF8EE611A84
:1041C00082EEA12A1968C1F3080101EE901A19685C
:1041D000F8EE611A40EE011A31EEA00A22EE000A52
:1041E00000E033E0C1F3462101EE101AB8EE411AA7
:1041F00031EE201AC0EE011ABCEEE11A80ED001A71
:104200001968C1F3064101EE101AB8EE411A31EEF9
:10421000201AC0EE011ABCEEE11A80ED011A1968ED
:10422000C1F3066101EE101AB8EE411A71EE200AD0
:1042300080EE201ABCEEC10A80ED020A10BD01EE2C
:10424000901ADFED0A2AF8EE611AB9E70021016041
:104250004160816010BD0000284402580000003910
:104260000024744A0090D0030024744C20BCBE4B40
:10427000484910B50A68096802F00302454B1B1D46
:10428000C1F305511B68434C1C34C3F3002324685D
:10429000C4F3CC0414FB03F300EE103AB8EE400A6A
:1042A000E9B33C4B9FED3C1A1833F7EE000A62B1BC
:1042B000DFED3A1A012A01D0022A5ED002EE101A6E
:1042C000F8EE422A81EEA22A1AE0324A283A14680D
:1042D000A4060DD51268C2F3C104314AE24001EED2
:1042E000902AF8EE612A01EE901AF8EE611A05E0C4
:1042F00001EE901ADFED2B2AF8EE611A82EEA12A68
:104300001968C1F3080101EE901A1968F8EE611AF4
:1043100040EE011A31EEA00A22EE000A00E033E07E
:10432000C1F3462101EE101AB8EE411A31EE201AFF
:10433000C0EE011ABCEEE11A80ED001A1968C1F353
:10434000064101EE101AB8EE411A31EE201AC0EE05
:10435000011ABCEEE11A80ED011A1968C1F3066179
:1043600001EE101AB8EE411A71EE200A80EE201A02
:10437000BCEEC10A80ED020A10BD01EE901ADFED1D
:104380000A2AF8EE611AB9E70021016041608160F4
:1043900010BD000028440258000000390024744A6F
:1043A0000090D0030024744C20BCBE4B2DE9F04F8C
:1043B000B24C80F48078B04A89B0DFF8BCA24FF0EC
:1043C00080572511AE4BDFF8BC92503A58EA0108ED
:1043D000AAF104064FF0005C33D080F4007858EA6C
:1043E00001085DD0DFF890B280F4806858EA0108D7
:1043F0000BF1080B66D080F4006858EA010878D009
:1044000080F4805858EA01086BD080F4005858EACC
:1044100001084FF480394FF4003E77D080F4002833
:1044200058EA010873D080F4803858EA01086FD048
:1044300080F480460E436CD080F40040084369D07D
:104440002AE0DAF8000000F00700052824D2DFE8AF
:1044500000F08FB97D25AE0006A8FFF7BFFD0798D5
:1044600009B0BDE8F08F6846FFF764FE0098F7E7F3
:1044700003A8FFF7FDFE0398F2E71068C0F3C10040
:1044800024FA00F0ECE71168C90572D5B84270D182
:104490002846E5E71846E3E70020E1E74846DFE77E
:1044A000DAF8000000F4E07080284FD004DC002827
:1044B0005ED04028F0D185E0C028EFD0B0F5807FF5
:1044C000EAD174E0DBF8000000F46000B0F5800F82
:1044D0003CD007DC00284BD0B0F5001FDCD171E0E8
:1044E00007E01FE0B0F5C00FD8D0B0F5000FD3D172
:1044F0005DE0DBF8000000F0E060B0F1007F25D067
:1045000009DCA8B3B0F1807FC6D15BE022E045E0D2
:104510006AE077E09AE0B0F1407FBFD0B0F1806F01
:10452000BAD144E0DAF8000000F4E040B0F5005FF2
:104530000CD004DCE0B1B0F5805FADD142E0B0F565
:10454000405FABD0B0F5804FA6D130E0106880005E
:10455000A2D58DE7DAF8000000F4E020B0F5403F86
:104560006BD007DC68B1484579D0704594D156E0EE
:104570007DE033E0B0F5802F63D0B0F5A02F8BD174
:1045800071E000F0AFFE6BE76846FFF7D3FD0198DE
:1045900066E703A8FFF76CFE049861E7DBF800000C
:1045A00010F440300ED0484510D0704588D13068A6
:1045B000116800F0405049077FF565AF00287FF48F
:1045C00062AF5AE710680001C2D54CE7106880005E
:1045D000BED503A8FFF74CFE059841E71168890393
:1045E000B6D5604590D155E7306810F480303ED0A4
:1045F000484589D110680001AAD56846FFF79AFDA1
:1046000002982DE7DBF8000000F0E040B0F1405FD9
:1046100013D008DC70B1B84221D060458DD110684C
:104620008000B6D438E7B0F1804F0AD0B0F1A04F87
:10463000F8D118E0FFF7C0FC12E710684007F1D589
:104640001BE71068C005EDD522E708E0DAF80000A6
:1046500010F0405007D0B84209D06045E2D1106850
:10466000000191D418E710688003DBD512E71068C9
:104670008001D7D5F0E60000504402580090D003E6
:1046800040787D010080BB002DE9FC5F0446006896
:104690000025FA4FC043DFF8E8832E46010104F1FC
:1046A0000800019004F1280000901DD4A06E50B1C4
:1046B000B0F5801F0CD0B0F5001F0ED0B0F5401F34
:1046C0001ED001250FE0386840F40030386017E054
:1046D0000198022103F014FE03E00098022103F088
:1046E00099FE05000CD02E462088C043C00523D477
:1046F000A06D05281ED2DFE800F00C11161B1B0070
:10470000D8F80010A26E21F440111143C8F800102F
:10471000EAE7386840F40030386009E00198002189
:1047200003F0EEFD03E00098002103F073FE054660
:1047300075B100E001252E462088C043800528D4AD
:10474000E06D80281ED00CDC90B140280ED114E022
:10475000D8F80010A26D21F007011143C8F800102D
:10476000EAE7C02813D0B0F5807F10D001250FE014
:10477000386840F40030386009E00198002103F007
:10478000BFFD03E00098002103F044FE05468DB113
:104790002E462088DFF8EC92C04340052CD4D4F894
:1047A000A800B0F5800F20D00DDCA0B1B0F5001F3F
:1047B0000FD115E0D8F80010E26D21F4E07111433B
:1047C000C8F80010E5E7B0F5C00F13D0B0F5000F42
:1047D00010D001250FE0386840F40030386009E05F
:1047E0000198002103F08CFD03E00098002103F004
:1047F00011FE05467DB12E462088C04300052DD40C
:10480000D4F8AC00B0F1007F21D00EDCA8B1B0F13B
:10481000807F10D116E0D9F80010D4F8A82021F438
:1048200060011143C9F80010E6E7B0F1407F13D0F2
:10483000B0F1806F10D001250FE0386840F40030EF
:10484000386009E00198002103F05AFD03E0009868
:10485000002103F0DFFD054675B12E462068C043F8
:1048600080011FD4E06CD8B110280FD0202812D0BE
:10487000302815D0012514E0D9F80010D4F8AC2068
:1048800021F0E0611143C9F80010E7E7386840F40F
:104890000030386004E00198022103F031FD054644
:1048A00075B12E462088C043C0042BD4206EB0F5CD
:1048B000005F20D00DDCA0B1B0F5805F0FD115E016
:1048C0006F48001F0168E26C21F030011143016064
:1048D000E8E7B0F5405F13D0B0F5804F10D0012568
:1048E0000FE0386840F40030386009E0019800219A
:1048F00003F006FD03E00098002103F08BFD054660
:104900008DB12E462088C043800429D4606EB0F556
:10491000403F23D010DC08B3B0F5803F14D0B0F591
:10492000003F0FD115E0D8F80010226E21F4E041CD
:104930001143C8F80010E5E7B0F5802F0ED0B0F5B0
:10494000A02F0BD001250AE00198012103F0D8FC2B
:1049500003E00098012103F05DFD054695B12E4668
:104960002088C04340042AD4D4F8B000B0F1405F9E
:1049700023D010DC08B3B0F1805F14D0B0F1005F39
:104980000FD115E0D8F80010626E21F4E021114338
:10499000C8F80010E4E7B0F1804F0ED0B0F1A04F9E
:1049A0000BD001250AE00198012103F0A9FC03E0E6
:1049B0000098012103F02EFD054675B12E46208892
:1049C000C04300041FD4206FD8B1B0F1805F0ED077
:1049D000B0F1005F10D0012514E0D9F80010D4F830
:1049E000B02021F0E0411143C9F80010E7E7386832
:1049F00040F40030386004E00198012103F080FCAD
:104A0000054675B12E462068C043C0011ED4A06C77
:104A1000D0B101280ED0022811D0032814D00125CE
:104A200013E0D8F80010226F21F040511143C8F86C
:104A30000010E8E7386840F40030386004E001987E
:104A4000022103F05DFC05467DB12E462068DFF8AB
:104A500038B0C043400256D40C48016841F480711C
:104A60000160FEF7F3FF824618E00548001F016869
:104A7000A26C21F0030111430160E7E72C440258C6
:104A800050440258584402581044025800480258F2
:104A9000FEF7DCFFA0EB0A0064282CD8FE48006873
:104AA000C005F5D545BBFD480068B4F8B41000F466
:104AB000407001F4407188420CD0F84801680268E7
:104AC00021F4407142F480320260026822F48032A4
:104AD00002600160D4F8B400B0F5807F1AD1FEF70F
:104AE000B5FF824609E0FEF7B1FFA0EB0A0141F2F3
:104AF0008830814201D9032504E0E8480068800736
:104B0000F1D53DB12E462078DFF894A3C043C0070D
:104B100020D03BE0D4F8B400C0F3012103290ED02B
:104B2000DBF8001021F47C51CBF80010DB48016861
:104B3000B4F8B420C2F30B0211430160E3E7DBF8E1
:104B40000020D84B22F47C5203EA10100243CBF829
:104B50000020EBE7E06F182816D005DCA0B108288C
:104B600008D0102804D10AE020280DD028280BD026
:104B700001250AE00198012103F0C2FB03E000983F
:104B8000012103F047FC054665B12E462078C0435D
:104B900080071ED4A06F062819D2DFE800F0160C9B
:104BA00011161616DAF80010E26F21F038011143E1
:104BB000CAF80010EAE70198012103F0A1FB03E025
:104BC0000098012103F026FC05467DB100E0012597
:104BD0002E462078C04340071FD4D4F894000628FE
:104BE00019D2DFE800F0160C11161616DAF80010CC
:104BF000A26F21F007011143CAF80010E9E70198FC
:104C0000012103F07DFB03E00098012103F002FC89
:104C10000546A5B100E001252E462078C043800658
:104C20002BD4D4F89000B0F1405F24D011DC10B345
:104C3000B0F1805F15D0B0F1005F10D116E0D9F867
:104C40000010D4F8942021F007011143C9F8001096
:104C5000E3E7B0F1804F0ED0B0F1A04F0BD00125AB
:104C60000AE00198002103F04BFB03E000980221C9
:104C700003F0D0FB054695B12E462078C043400690
:104C80002BD4D4F89C00B0F5406F24D011DC10B3C5
:104C9000B0F5806F15D0B0F5006F10D116E0DAF8DE
:104CA0000010D4F8902021F0E0411143CAF8001020
:104CB000E3E7B0F5805F0ED0B0F5A05F0BD0012523
:104CC0000AE00198002103F01BFB03E00098022199
:104CD00003F0A0FB054695B12E462078C0430006A0
:104CE0002BD4D4F8A000B0F5C04F24D011DC10B301
:104CF000B0F5005F15D0B0F5804F10D116E0D9F8AF
:104D00000010D4F89C2021F4E0511143C9F80010A0
:104D1000E3E7B0F5004F0ED0B0F5204F0BD00125E2
:104D20000AE00198002103F0EBFA03E00098022169
:104D300003F070FB054655B12E462078C0430007AE
:104D40001ED4D4F88400B0F5805F0AD00FE0D9F803
:104D50000010D4F8A02021F460411143C9F80010DC
:104D6000EBE70098022103F055FB00B10126DAF8C9
:104D70000010D4F8842021F440511143CAF80010E7
:104D80002078C043C00613D4D4F89800B0F5807FD3
:104D900005D10098022103F03DFB00B10126D9F8AE
:104DA0000010D4F8982021F440711143C9F8001084
:104DB0002068C043000316D4D4F8A40038B1B0F57D
:104DC000803F09D0B0F5003F0BD001250AE00198E3
:104DD000002103F095FA03E00098022103F01AFB8A
:104DE00005468DB12E462068C043400322D4D4F836
:104DF0008800B0F5801F11D0B0F5001F13D0B0F5BA
:104E0000401F15D0012514E0D9F80010D4F8A420D3
:104E100021F440311143C9F80010E4E7386840F448
:104E20000030386004E00098012103F0F3FA0546F1
:104E30005DB12E462068C043C0031CD4206D70B104
:104E4000B0F5803F10D0012514E0DAF80010D4F856
:104E5000882021F440111143CAF80010EAE73868AD
:104E600040F40030386004E00198022103F048FA71
:104E700005462DB32E462068C043800005D4009817
:104E8000022103F0C7FA00B101262068C043800365
:104E900024D4D4F8800007E0004802587044025837
:104EA00054440258CFFFFF00B0B1B0F5807F0FD05F
:104EB000B0F5007F10D0B0F5407F0DD001250CE09B
:104EC0005A480168226D21F4803111430160D2E714
:104ED000386840F400303860F5B32E462068C0438F
:104EE000C00207D4D8F80010626F21F000411143CE
:104EF000C8F800102068C043C00008D4DBF80010D8
:104F0000D4F8B82021F480411143CBF80010206878
:104F1000C043800207D4D8F80010E26E21F08071FF
:104F20001143C8F800102068C04340000CD4DBF8DF
:104F3000001021F40041CBF80010DBF80010D4F889
:104F4000BC201143CBF800102068C04308D4374878
:104F5000016821F0405100E017E0626D11430160EB
:104F60002068C043000208D4DAF80010D4F88C207E
:104F700021F440011143CAF8001020790025C043F4
:104F800000F0010028430AD00FE0DAF80010D4F84E
:104F9000802021F440711143CAF800109EE7019867
:104FA000002103F0ADF900B106462079C04300F0BE
:104FB0000200284305D10198012103F0A1F900B1B5
:104FC00006462079C04300F00400284305D101982B
:104FD000022103F095F900B106462079C04300F0A4
:104FE0000800284305D10098002103F013FA00B10E
:104FF00006462079C04300F01000284305D10098F0
:10500000012103F007FA00B106462079C04300F001
:105010002000054304D10098022103F0FBF900B9F8
:1050200016B10120BDE8FC9F0020FBE74C4402586C
:105030002DE9F05F04000D467ED0DFF84492D9F8E8
:10504000000000F00F00A8420CD2D9F8001021F0A7
:105050000F012943C9F80010D9F8000000F00F0033
:10506000A84269D12078874E40070AD52069316867
:1050700001F07001884204D9316821F070010143C8
:1050800031602078DFF8008200070CD56069414666
:10509000D8F8002002F07002904204D90A6822F089
:1050A000700202430A602078C0060CD5A069414610
:1050B000D8F8002002F4E062904204D90A6822F491
:1050C000E06202430A602078DFF8C0B180060CD5A8
:1050D000E0695946DBF8002002F07002904204D9E2
:1050E0000A6822F0700202430A60207880070AD51D
:1050F000E068316801F00F01884204D9316821F07D
:105100000F01014331602078C0073DD03068A168AD
:1051100020F47060084330605A49606818390228EA
:1051200018D0032819D00968012819D04907002987
:1051300049DADFF850A100E045E0AAF1080ADAF800
:10514000001021F007010143CAF80010FEF77EFCB1
:10515000074611E009688903E9E709688901E6E77C
:10516000C905E4E7FEF772FCC11B41F288308142B9
:1051700002D90320BDE8F09FDAF80000616800F072
:105180003800B0EBC10FEDD1207880070AD5E06878
:10519000316801F00F01884204D2316821F00F011B
:1051A00001433160D9F80010484601F00F01A942CF
:1051B0000BD9016821F00F0129430160006800F05C
:1051C0000F00A84201D00120D4E7207840070AD57B
:1051D0002069316801F07001884204D2316821F001
:1051E000700101433160207800070CD560694146A9
:1051F000D8F8002002F07002904204D20A6822F02F
:10520000700202430A602078C0060CD5A0694246AD
:10521000D8F8001001F4E061884204D2116821F44A
:10522000E06101431160207880060CD5E0695946A1
:10523000DBF8002002F07002904204D20A6822F0EB
:10524000700202430A6000F071F83168C1F3032272
:105250000F498A5C02F01F02D040326802F00F0250
:10526000895C0C4A01F01F0120FA01F111600A4922
:1052700008600A480068BDE8F05FFEF737BC000030
:1052800000200052184402581C440258204402587E
:10529000D4C4000884000024800000247800002486
:1052A00000B500F043F80B4A11681268C1F30323FC
:1052B0000949CB5C03F01F03D84002F00F02895C60
:1052C000064A01F01F0120FA01F11160044A106042
:1052D000084600BD18440258D4C4000884000024C5
:1052E0008000002400B5FFF7DBFF05490968054A87
:1052F000C1F30211515C01F01F01C84000BD000064
:105300001C440258D4C4000800B5FFF7C9FF054982
:105310000968054AC1F30221515C01F01F01C84030
:1053200000BD00001C440258D4C40008434830B5F6
:105330000068444C10F03801414808D00211082997
:1053400003D010290BD018290BD0104630BD21688E
:105350008906FBD52168C1F3C101C84030BD3A4878
:1053600030BD364918310A68096802F00302334B30
:105370001C33C1F305111B68304D03F001032435C4
:105380002D68C5F3CC0515FB03F300EE103AB8EE1B
:10539000400AE9B3294BDFED2D0A2033B7EE001A9E
:1053A00062B1DFED2B1A012A01D0022A3CD002EEB5
:1053B000101AF8EE422A81EEA22A17E0226892061D
:1053C0000CD52268C2F3C102D04001EE900AF8EE7B
:1053D000612A01EE901AF8EE611A05E001EE901ACA
:1053E000DFED1C2AF8EE611A82EEA12A1868C0F3DC
:1053F000080001EE900A1868F8EE611A40EE201AD3
:1054000031EE810A22EE000AC0F34620401C00E083
:1054100011E000EE900AF8EE600A80EE201ABCEE71
:10542000C10A10EE100A30BD01EE901ADFED0A2A13
:10543000F8EE611AD8E7002030BD00001044025891
:105440000090D0030044025840787D0100000039EC
:105450000024744A0024744C20BCBE4B2DE9F05F3C
:10546000040079D02078DFF8F8A3FE4EFE4DC00787
:1054700047D0DAF80000316800F03800102815D065
:10548000182803D101F0030002280FD06068B0F59E
:10549000803F12D010B1B0F5A02F18D0286820F4AA
:1054A00080302860286820F4802009E02868800384
:1054B00027D560680028D4D023E0286840F48030E5
:1054C0002860606888B1FEF7C1FA074609E02868DD
:1054D00040F480202860F0E7FEF7B8FAC01B64288B
:1054E00072D828688003F7D50BE0FEF7AFFA0746BD
:1054F00004E0FEF7ABFAC01B6428F1D828688003EB
:10550000F7D4207841F20309D84F800766D5DAF83E
:105510000000316810F038000ED0182801D188073B
:105520000AD0E06880B3296821F01901014329609D
:10553000FEF78CFA80462EE02868400702D5E06826
:1055400000288ED02868E16820F019000843286000
:10555000FEF77CFA804606E0D8E0FEF777FAA0EB8B
:1055600008000228BCD828684007F6D5FEF768FA7C
:1055700048451AD82069402811D0396821F47C3177
:1055800041EA0030386029E016E0FEF75FFAA0EB50
:1055900008000228A4D828684007F6D5E6E738684E
:1055A00020F47C3040F40030ECE73868217C20F0B7
:1055B000FE4040EA0160E5E7286820F0010028602D
:1055C000FEF744FA804606E000E1FEF73FFAA0EB62
:1055D0000800022884D828684007F6D42078C0063E
:1055E0005AD5DAF80000316800F03800DFF870B200
:1055F0000828ABF1040B10D0182803D101F00300E8
:1056000001280AD0E0690028286836D040F08000E0
:105610002860FEF71BFA804621E02868C00521D5E6
:10562000E069802872D11DE0206A20281FD03968E7
:1056300021F0F84141EA806038602DE0DBF800108D
:1056400094F8202021F07C5141EA0261CBF800104F
:1056500022E0FEF7FBF9A0EB080002289AD82868A0
:10566000C005F6D5FEF7ECF94845E7D8DCE7386821
:1056700020F0F84040F08040DEE720F08000286015
:10568000FEF7E4F9074604E0FEF7E0F9C01B022844
:10569000A0D82868C005F7D42078000728D571491C
:1056A00060694C31002888460846096810D041F0EE
:1056B00001010160FEF7CAF9074604E0FEF7C6F9EA
:1056C000C01B022886D8D8F800008007F6D50FE066
:1056D00021F001010160FEF7B9F9074604E0FEF789
:1056E000B5F9C01B022871D8D8F800008007F6D49D
:1056F0002078800623D5A0690028286810D040F4BF
:1057000080502860FEF7A2F9074605E038E1FEF771
:105710009DF9C01B022859D828688004F7D50EE0EF
:1057200020F480502860FEF791F9074604E0FEF768
:105730008DF9C01B022849D828688004F7D4207846
:1057400040074DD5DFF82881D8F8001041F480716A
:10575000C8F80010FEF77AF9074604E0FEF776F97C
:10576000C01B642832D8D8F80000C005F6D53D4FDC
:10577000A068483701280AD008B1052813D0386836
:1057800020F001003860386820F0040002E038683A
:1057900040F001003860A06841F2883990B1FEF70E
:1057A00055F980460AE0386840F004003860EEE7BA
:1057B000FEF74CF9A0EB0801494507D83868800787
:1057C000F6D50DE0FEF742F9804606E083E0FEF7ED
:1057D0003DF9A0EB080149457DD838688007F6D42B
:1057E000616AD9B3DAF800004FF6F87BDFF874800D
:1057F00008F10808C0F3C200032808F10409A8F161
:10580000040A69D02868022920F08070286003D03B
:10581000FEF71CF9044688E0FEF718F9074604E095
:10582000FEF714F9C01B02287CD828688001F7D441
:10583000306840F2F3318843E16A40EA0110A16A1E
:105840000843306094F83400218E4002491EA0F5D0
:10585000007080B2C1F3080108430BE0B3E0000020
:105860001044025828440258004402580444025884
:1058700000480258218F4FF4FE02491E02EA0141FE
:10588000084394F83C101202491E02EA01610843E1
:10589000C8F80000DAF80010504621F00101CAF8FB
:1058A0000010D9F80020A36C22EA0B0242EAC302DE
:1058B000C9F80020DAF80010226C21F00C01114325
:1058C000CAF80010DAF80010626C21F002011143EE
:1058D0000160016801E025E02BE041F480310160C6
:1058E000016841F400310160016841F480210160E8
:1058F000016841F001010160286840F08070286073
:10590000FEF7A4F8044604E0FEF7A0F8001B022806
:1059100008D828688001F7D555E0FEF797F8001BF6
:10592000022802D90320BDE8F09F28688001F4D442
:1059300049E03268D8F80000012921D0A36A02F0BA
:10594000030199421CD1E16AC2F30512914217D1B9
:10595000216BC0F30802491E8A4211D1616BC0F36A
:105960004622491E91420BD1A16BC0F30642491E4B
:10597000914205D1E16BC0F30660491E814201D01E
:105980000120D0E7D9F800004F46A16CC0F3CC004D
:10599000814218D0DAF80000564620F00100CAF81B
:1059A0000000FEF753F80546FEF750F8A842FBD07A
:1059B0003868A16C20EA0B0040EAC100386030680A
:1059C00040F0010030600020ADE700002DE9F0411B
:1059D00004001D4616460F4603D0D4F8880018B1BF
:1059E00008E00120BDE8F081002084F88400204612
:1059F00000F0F0FF2420C4F888002068016821F03E
:105A000001010160204604F039FD0128EAD0A06AB6
:105A100010B1204604F084F92068816841F4804187
:105A200081602068816821F40041394381607005FC
:105A300040EA054120680268064B1A400A430260AA
:105A40002068016841F0010101602046BDE8F04195
:105A500004F0CAB9FFFF00FC7047704770477047F9
:105A60002DE9FC5F04460D460026032084F8300033
:105A7000A06B03285AD0B5F5004F57D00027B5F5D5
:105A8000804F4FF400684FF0806904D005B3606B1D
:105A900040F000603FE0009700210197206803F08C
:105AA0008BFA80011CD46946204603F0FFFA70BBD4
:105AB000019840032DD5B4F844000104206802F099
:105AC0009DFF20BB206802211DE0606B384322E06F
:105AD000009700210197206803F06EFA800101D53C
