:020000040800F2
:1000000048130024390300082B350008BD340008CC
:10001000293500087D050008D939000800000000D6
:10002000000000000000000000000000C5370008CC
:10003000B1070008000000002D350008C737000890
:100040005303000853030008530300085303000838
:100050005303000853030008530300085303000828
:100060005303000853030008530300088D050008DC
:100070005303000853030008530300085303000808
:1000800053030008530300085303000853030008F8
:1000900053030008530300085303000853030008E8
:1000A00053030008530300085303000853030008D8
:1000B00053030008530300085303000853030008C8
:1000C00053030008530300085303000853030008B8
:1000D00053030008530300085303000853030008A8
:1000E00053030008530300080000000053030008F6
:1000F0005303000853030008530300085303000888
:1001000053030008B93700085303000853030008DD
:100110005303000853030008530300085303000867
:100120005303000853030008530300085303000857
:100130005303000853030008530300085303000847
:1001400000000000000000000000000000000000AF
:100150005303000853030008530300085303000827
:100160005303000853030008530300085303000817
:1001700053030008530300088105000853030008D7
:1001800053030008530300085303000853030008F7
:1001900053030008530300085303000853030008E7
:1001A00053030008530300085303000853030008D7
:1001B00053030008530300085303000853030008C7
:1001C00053030008530300085303000853030008B7
:1001D00053030008530300085303000853030008A7
:1001E0005303000853030008530300085303000897
:1001F0005303000853030008530300085303000887
:100200005303000853030008530300085303000876
:100210005303000853030008530300085303000866
:1002200053030008530300085303000800000000B4
:1002300053030008530300080000000053030008A4
:100240005303000853030008530300085303000836
:100250005303000853030008530300085303000826
:100260005303000853030008530300085303000816
:100270005303000853030008530300080000000064
:100280005303000853030008530300080000000054
:10029000000000005303000800F002F800F03CF8F2
:1002A0000AA090E8000C82448344AAF10107DA45D1
:1002B00001D100F031F8AFF2090EBAE80F0013F0E7
:1002C000010F18BFFB1A43F0010318470038000064
:1002D00020380000103A24BF78C878C1FAD85207F5
:1002E00024BF30C830C144BF04680C6070470000B0
:1002F0000023002400250026103A28BF78C1FBD82F
:10030000520728BF30C148BF0B6070471FB503F0CC
:10031000CBFB1FBD10B510BD00F0ADF81146FFF7C7
:10032000F5FF03F06BFB00F0CBF803B4FFF7F2FF2F
:1003300003BC00F0CEF80000094880470948004798
:10034000FEE7FEE7FEE7FEE7FEE7FEE7FEE7FEE785
:10035000FEE7FEE704480549054A064B70470000E2
:10036000FD380008990200084803002448130024BF
:10037000480B0024480B002453EA020C00F069806B
:100380002DE9F04B4FF00006002B1FBFB3FA83F5A9
:1003900003FA05F424FA05F65E4012BF1643B2FADA
:1003A00082F502FA05F4C5F120051EBF22FA05FC0C
:1003B00044EA0C04203556EA044C4FEA144418BFB2
:1003C000641C4FF000084FF00009904271EB030CE1
:1003D00039D3002919BFB1FA81F701FA07F6B0FA4B
:1003E00080F700FA07F6C7F120071EBF20FA07FCC6
:1003F00046EA0C062037B6FBF4FCA7EB0507103FD6
:1004000007F01F0BCBF120060CFA0BFB2CFA06F6BB
:1004100044BFB3460026202FA4BF5E464FF0000B1A
:100420005BEA060C08BF4FF0010B19EB0B09ABFBA5
:10043000027C48EB0608C01B06FB02CC0BFB03CC7E
:1004400071EB0C01C1E70B46024641464846BDE848
:10045000F08B13B54FF000004FF00001AFF30080B8
:10046000BDE81C40704770477047704700487047B0
:10047000E402002470477546FFF7F8FFAE4605001A
:100480006946534620F00700854618B020B5FFF7AF
:1004900061FFBDE820404FF000064FF000074FF02D
:1004A00000084FF0000B21F00701AC46ACE8C00992
:1004B000ACE8C009ACE8C009ACE8C0098D4670479B
:1004C00010B50446AFF300802046BDE81040FFF7AA
:1004D0002CBF40F2510CC9F2000C604740F2352CA1
:1004E000C9F2000C604740F2015CC9F2000C6047A1
:1004F00040F21D5CC9F2000C604740F2010CC9F2E9
:10050000000C604741F28D1CC9F2000C604741F2BB
:10051000411CC9F2000C604741F2F50CC9F2000C15
:10052000604741F2B50CC9F2000C604740F66D2CF3
:10053000C9F2000C604741F2912CC9F2000C6047EF
:1005400041F2652CC9F2000C604741F2B13CC9F29E
:10055000000C604741F2292CC9F2000C604741F2BF
:10056000E93CC9F2000C604741F2F91CC9F2000CE9
:10057000604741F21D4CC9F2000C6047FEE70000E5
:100580000148FFF7ABBF000038000024014800F02D
:1005900055BA000088000024294A016891423AD0E7
:1005A000274A1832914236D0254A3032914232D011
:1005B000234A483291422ED0214A603291422AD0B9
:1005C0001F4A7832914226D01D4A9032914222D061
:1005D0001B4AA83291421ED01A4A91421BD0194A96
:1005E0001832914217D0174A3032914213D0154A2F
:1005F000483291420FD0134A603291420BD0114AD7
:100600007832914207D00F4A9032914203D00D4A7E
:10061000A832914211D1CAB21823103AB2FBF3F2B8
:100620006FF30901032A02F00703074AD25CC2658F
:1006300000D9091D81650846704721F0FF01F9E7DF
:100640001000024010040240B23A000830B5224ABD
:10065000012301689142CAB21BD01F4C1434A1423D
:1006600017D01D4C2834A14213D01B4C3C34A1425E
:100670000FD0194C5034A1420BD0174C6434A14216
:1006800007D0154C7834A14203D0134C8C34A142CE
:100690000CD11421114C083AB2FBF1F10F4A80320F
:1006A00001F01F0504EB8101AB4010E00C4D182454
:1006B000103A0D44B2FBF4F1A82D00D80831094AD4
:1006C00001F01F0402EB8101064AA3408032603032
:1006D00080E80E0030BD000008540258005802584F
:1006E000F0FBFDBF0008024010B50279531E072B36
:1006F0002DD8174C0168A1421BD0154C1434A142CF
:1007000017D0134C2834A14213D0114C3C34A142D1
:100710000FD00F4C5034A1420BD00D4C6434A14289
:1007200007D00B4C7834A14203D0094C8C34A14241
:1007300003D10849074C443102E00749064C4431D3
:1007400004EB8202C0E91B2101219940416710BDE1
:1007500008540258FC580258FC08024010B583693E
:100760004FF0C074826A0146002053B1B3F5005FB8
:1007700015D072B1012A0CD0022A0AD0032A09D15D
:1007800004E01AB1012A06D0022A03D1C96AC901BC
:1007900000D5012010BDC96AA142FAD010BD002ABF
:1007A000F7D0012AF2D0022AF3D0032AF3D010BDE9
:1007B000704772B6FEE700002DE9F05F28B190F8AF
:1007C0003510022904D0802141650120BDE8F09F49
:1007D000904C904B0168183C18338E4ADFF83C92DD
:1007E000A1428D4CDFF838E28E4FDFF83CB2DFF8E3
:1007F0003CA28F4D8F4E31D091422FD099422DD0B7
:10080000A1422BD0494529D0714527D0B94225D0E6
:10081000DFF810C20CF1180C61451FD0DFF808C2D8
:10082000ACF1600C614519D0DFF8FCC1ACF1480CAB
:10083000614513D0DFF8F0C1ACF1300C61450DD04B
:10084000DFF8E4C1ACF1180C614507D0594505D07B
:10085000514503D0A94201D0B1422CD1DFF8B4C137
:100860004FF0040880F83580ACF1180C61451DD0BC
:1008700091421BD0994219D0A14217D0494515D0B9
:10088000714513D0B94211D06648183081420DD05D
:1008900065486038814209D063484838814205D0B4
:1008A00061483038814201D05F481838086820F02C
:1008B00001000860ABE0D1F800C02CF00E08DFF8B2
:1008C00054C1C1F80080ACF1180C0168614527D013
:1008D000914225D0994223D0A14221D049451FD031
:1008E00071451DD0B9421BD0DFF838C10CF1180C8E
:1008F000614515D0DFF830C1ACF1600C61450FD017
:10090000DFF824C1ACF1480C614509D0DFF818C10B
:10091000ACF1300C614503D0DFF80CC1ACF1180C20
:10092000D1F800C02CF0010CC1F800C0DFF8E48061
:100930004FF0010C0168A8F11808414546D09142DA
:1009400044D0994242D0A14240D049453ED0714561
:100950003CD0B9423AD0334A1832914236D0324A6A
:10096000603A914232D0304A483A91422ED02E4AD3
:10097000303A91422AD02C4A183A914226D0594511
:1009800024D0514522D0A94220D0B1421ED02A4ABB
:1009900091421BD0284A1432914217D0264A28325D
:1009A000914213D0244A3C3291420FD0224A503215
:1009B00091420BD0204A6432914207D01E4A7832CD
:1009C000914203D01C4A8C32914218D1016E0A68C0
:1009D00022F480720A6090F85C20816D02F01F02A0
:1009E0000CFA02F24A60D0E919124A60C16E31B1C4
:1009F0000A6822F480720A60D0E91C124A60002260
:100A0000016D80F835C080F8342001B1884700209E
:100A1000DCE600002800024058000240700002405E
:100A200088000240A0000240700402408804024096
:100A3000A0040240B8040240085402582DE9FC5FAB
:100A40000446F74E0020DFF8D88300904FF416528A
:100A5000F44808F11808A56DDFF8C493DFF8C0A3C7
:100A6000016809F1300920680AF1480AB1FBF2F186
:100A7000B04201912F68D5F800C0DFF8ACB335D093
:100A80004146884232D0484530D050452ED0584556
:100A90002CD0E5491831884228D0E34930318842CA
:100AA00024D0E1494831884220D0E04988421DD015
:100AB000DE491831884219D0DC493031884215D0DE
:100AC000DA494831884211D0DFF860E30EF1600E58
:100AD00070450BD0D54A7832904207D0D34B903333
:100AE000984203D0D149A83188427DD194F85C2046
:100AF000082102F01F0201FA02F23A424AD0B04243
:100B000032D0404530D048452ED050452CD05845A5
:100B10002AD0C54A1832904226D0C34A3032904279
:100B200022D0C14A483290421ED0C04A90421BD0C7
:100B3000BE4A1832904217D0BC4A3032904213D08D
:100B4000BA4A483290420FD0B84A603290420BD035
:100B5000B64A7832904207D0B44A9032904203D0DD
:100B6000B24AA832904203D1026802F0040202E0C5
:100B7000026802F008026AB1026822F00402026010
:100B800094F85C0000F01F008140A960606D40F0A7
:100B90000100606594F85C00012100F01F008140B5
:100BA000394240D02068B04234D0404532D0484528
:100BB00030D050452ED058452CD09B4A1832904208
:100BC00028D0994A3032904224D0974A48329042F5
:100BD00020D0964A90421DD0944A1832904219D0A3
:100BE000924A3032904200E0AFE113D08F4A48324F
:100BF00090420FD08D4A603290420BD08B4A7832AF
:100C0000904207D0894A9032904203D0874AA83256
:100C100090427DD1406910F0800F04D0A960606DD2
:100C200040F00200606594F85C00042100F01F00B1
:100C3000814039423ED02068B04232D0404530D069
:100C400048452ED050452CD058452AD0764A1832E7
:100C5000904226D0744A3032904222D0724A4832B2
:100C600090421ED0714A90421BD0704A1832904276
:100C700017D06E4A3032904213D06C4A48329042BC
:100C80000FD06A4A603290420BD0684A7832904264
:100C900007D0664A9032904203D0644AA83290420C
:100CA0004ED1006810F0020F04D0A960606D40F0D2
:100CB0000400606594F85C00102100F01F00814082
:100CC000394258D02068B04234D0404532D04845EF
:100CD00030D050452ED058452CD0534A183290422F
:100CE00028D0514A3032904224D04F4A4832904264
:100CF00020D04E4A90421DD04C4A1832904219D012
:100D00004A4A3032904215D0484A4832904200E078
:100D100014E00FD0454A603290420BD0434A7832FB
:100D2000904207D0414A9032904203D03F4AA832C5
:100D3000904207D1006800F0080006E0006872E702
:100D40000068B7E7006800F00400A0B1A96020685F
:100D50000168490304D50068000308D5A16C07E0C9
:100D60000168C90503D4016821F008010160216C04
:100D700009B12046884794F85C00202100F01F004C
:100D80008140394279D02068B04232D0404530D0DD
:100D900048452ED050452CD058452AD0224A1832EA
:100DA000904226D0204A3032904222D01E4A483209
:100DB00090421ED01D4A90421BD01C4A18329042CD
:100DC00017D01A4A3032904213D0184A4832904213
:100DD0000FD0164A603290420BD0144A78329042BB
:100DE00007D0124A9032904203D0104AA832904263
:100DF00003D1006800F0100002E0006800F002007B
:100E0000B0B3A96094F835000428206801680FD0B9
:100E100049037ED5006800032BD4616C2AE00000F2
:100E2000100002400C000024700002401004024038
:100E300021F0160101602068416921F080014161C3
:100E4000206C08B9A06C20B12068016821F008016D
:100E5000016094F85C303F21012003F01F03002261
:100E60009940A96084F8350084F83420216D65E04C
:100E700003E0E16B09B120468847606D00287DD012
:100E8000606DC00759D02068042184F83510B04245
:100E90002BD0404529D0484527D0504525D058452E
:100EA00023D09D49884220D09B49183188421CD0CC
:100EB00099493031884218D09849884215D09749CD
:100EC0001831884211D09549303188420DD093496C
:100ED0004831884209D091496031884205D08F4914
:100EE0007831884201D08D499031016821F00101AB
:100EF000016020680099019A491C0091914202D832
:100F00000168C907F6D10068C00710D003200FE0C0
:100F1000FFE70168C905ACD403680121002223F072
:100F20001003036084F8351084F83420A1E7012011
:100F300084F83500002084F83400E16C00291DD0CD
:100F400002B02046BDE8F05F0847754988421DD0D1
:100F500073491431884219D071492831884215D01B
:100F60006F493C31884211D06D49503188420DD0D3
:100F70006B496431884209D0694900E084E07831E6
:100F8000884203D066498C3188427DD194F85C80D8
:100F90000427016808F01F0807FA08F717EA0C0F82
:100FA000009746D04F0744D500980F04686003D5DA
:100FB000C8033CD4A16CC1E7880638D42068B0428D
:100FC0002DD055496039884229D0484527D0504511
:100FD00025D0584523D05049884220D04E49183159
:100FE00088421CD04C493031884218D04B49884245
:100FF00015D04A491831884211D0484930318842C9
:101000000DD046494831884209D0704507D09042FA
:1010100005D0984203D04149A831884203D10168E4
:1010200021F0080102E0016821F004010160216C57
:1010300084E7022707FA08F717EA0C0F00974ED04B
:101040008F074CD500980F04686003D5C80344D4BB
:10105000616C73E7880640D42068B0422FD02E49D7
:10106000603988422BD0484529D0504527D0584573
:1010700025D02949884222D02749183188421ED0DC
:1010800025493031884200E044E018D023498842A5
:1010900015D022491831884211D020493031884278
:1010A0000DD01E494831884209D0704507D0904282
:1010B00005D0984203D01949A831884203D101686C
:1010C00021F0140102E0016821F00A010160012110
:1010D00084F83510002084F83400E16B2EE70822F4
:1010E00002FA08F212EA0C0F14D0090712D50168AF
:1010F00021F00E01016094F85C100120002201F043
:101100001F0100FA01F16960606584F8350084F818
:10111000342012E7BDE8FC9F880002401004024022
:10112000085402582DE9F05F044600F011FB002C32
:1011300007467DD0E34E022120684FF00308DFF818
:1011400088934FF00005DFF884A3B042DFF880B346
:1011500034D0DC4A1832904230D048452ED0504529
:101160002CD058452AD0DA4A1832904226D0D84A94
:101170003032904222D0D64A483290421ED0D54AD0
:1011800090421BD0D34A1832904217D0D14A303205
:10119000904213D0CF4A483290420FD0CD4A6032AD
:1011A00090420BD0CB4A7832904207D0C94A903255
:1011B000904203D0C74AA83290427DD184F83510BE
:1011C000B04284F834502ED0BE49183188422AD01B
:1011D000484528D0504526D0584524D0BC49183120
:1011E000884220D0BA49303188421CD0B8494831B1
:1011F000884218D0B749884215D0B649183188427C
:1012000011D0B449303188420DD0B24948318842BA
:1012100009D0B0496031884205D0AE497831884262
:1012200001D0AC499031016821F00101016008E072
:1012300027E100BF00F08CFAC01B052801D920214E
:101240001CE120680068C007F4D104F1080021689F
:10125000D4E9053C8E4685C809681043D4E90728BF
:101260001F43636A38439C4F40EA0C0010433940E7
:1012700040EA0800042B40EA010003D1D4E90B1234
:1012800011430843954909686FF30F01B1F1005FFD
:101290000FD36168A1F12902052A08D9163A032A59
:1012A00005D9083A012A02D94F39032901D840F457
:1012B0008010CEF8000000E023E02068676A4069F3
:1012C000042F20F0070047EA00070DD1D4E90A01F6
:1012D000074349B12046FFF741FA28B14020606535
:1012E000012184F83510CCE0206847612046FFF7E3
:1012F00053F994F85C203F2102F01F029140816075
:1013000054E0774A90421BD0754B1433984217D063
:10131000734B2833984213D0714B3C3398420FD013
:101320006F4B503398420BD06D4B6433984207D0CB
:101330006B4B7833984203D0694B8C3398427DD104
:1013400084F8351084F83450664B0168A26801EACD
:10135000030E402A73D0802A72D00022D4E9037889
:10136000D4E9053142EAD70242EAD8085C4AD4E916
:10137000077C48EAD30848EAD10141EAD701524242
:1013800041EA1C11142341EA0E0101602068104457
:10139000B0FBF3F08000E0652046FFF7FDF894F81D
:1013A0005C20012102F01F02914041602068B042A0
:1013B00057D044491831884253D0484551D0504500
:1013C0004FD058454DD042491831884249D0404904
:1013D0003031884245D03E494831884241D03D496C
:1013E00088423ED03B49183188423AD039493031A1
:1013F000884236D037494831884232D03549603149
:1014000088422ED03349783188422AD031499031F0
:10141000884226D02F49A831884222D030498842BC
:101420001FD02F49143188421BD02D4928318842C2
:1014300017D02B493C31884213D002E01DE017E061
:1014400018E02749503188420BD025496431884241
:1014500007D023497831884203D021498C31884212
:1014600029D12046FFF7F2F8A06880280CD00CE0C4
:10147000102273E74FF4804270E74021616584F8E1
:1014800035800120BDE8F09F6560216E20790860FD
:10149000D4E9190141606068401E072808D8204639
:1014A000FFF722F9E06E0560D4E91C01416002E01B
:1014B000E566256765670120656584F835000020CD
:1014C000E0E70000100002404000024058000240E7
:1014D00070000240100402403F8010FE0010005CCB
:1014E000085402580F00FEFF70B5044600F030F9B2
:1014F0000546601C02D004480078044400F028F936
:10150000401BA042FAD370BD000000242DE9F84F23
:1015100003247D4D00234FF001094FF0B04B4FF0F5
:101520000F0AE9E009FA03F73A4076D00E7906F09F
:101530000306012E01D0022E18D1D0F808C04FEAC0
:10154000430ECE6804FA0EF82CEA080C06FA0EF6E2
:1015500046EA0C068660D0F804C00E792CEA070C27
:10156000C6F300169E4046EA0C0646600E79F64326
:10157000B6070BD0C6684FEA43088F6804FA08FC28
:1015800026EA0C0607FA08F73743C7600E7906F01B
:101590000306022E12D1DE080F694FEA437C00EBEE
:1015A0008606B646366A4FEADC6C0AFA0CF807FA89
:1015B0000CF726EA08063743CEF820700F79066844
:1015C0004FEA430807F0030704FA08FC07FA08F794
:1015D00026EA0C06374307604E6816F4403F1CD0DD
:1015E0004A4E376847F00207376036689F0706F0B3
:1015F0000206009623F0030606F1B046B6463F0FFA
:10160000D6F80864DFF808810AFA07FC404526EAA4
:101610000C0603D14FF0000C41E06CE0DFF8F4C0A1
:10162000604502D14FF0010C39E0DFF8ECC06045B5
:1016300002D14FF0020C32E0DFF8E0C0604502D189
:101640004FF0030C2BE0DFF8D8C0604502D14FF01B
:10165000040C24E0DFF8CCC0604502D14FF0050C4B
:101660001DE0DFF8C4C0604502D14FF0060C16E063
:10167000DFF8B8C0604502D14FF0070C0FE0DFF88B
:10168000B0C0604502D14FF0080C08E0DFF8A4C0FC
:10169000604502D14FF0090C01E04FF00A0C0CFA42
:1016A00007FC4CEA060CCEF808C44F68DBF8006073
:1016B000FF0226EA020600D516435F46CBF800601B
:1016C000D1F804C0DBF804605FEA8C2C26EA02063D
:1016D00000D516437E606E684F6826EA0206BF0397
:1016E00000D516436E602E684F6826EA0206FF0397
:1016F00000D516432E605B1C0A6832FA03F67FF4AD
:1017000011AFBDE8F88F000080000058F444025883
:10171000000002580004025800080258000C025849
:10172000001002580014025800180258001C0258F9
:1017300000200258002402580AB181617047090450
:10174000FBE7000001480068000C70470010005CD7
:10175000014880687047000000000024024881684A
:10176000027811448160704700000024032010B506
:1017700000F078F801F0EEFA0F4A10491468136887
:10178000C4F3032203F00F038A5CC95C02F01F025A
:1017900001F01F01D0400A4A20FA01F11160094905
:1017A00008600F2000F010F808B1012010BDFEF70E
:1017B0009AFE002010BD000018440258BA3A0008F2
:1017C000100000240C00002470B50D4D044628784C
:1017D000A0B14FF47A71B1FBF0F00A490968B1FB8E
:1017E000F0F001F014FE48B9102C07D20022214677
:1017F000501E00F017F800206C6070BD012070BD15
:10180000000000240C000024002809DB410900F03E
:101810001F028900012001F1E0219040C1F8000180
:10182000704700000E4BF0B41B680D46C3F3022353
:10183000C3F10706042E00D90426191D072901D279
:10184000002300E0DB1E012404FA06F19C40491E3F
:101850002940641E994014402143F0BC02F0BDB8F9
:101860000CED00E0064900F0070210B54FF6FF044A
:101870000868044B204040EA02201843086010BD6D
:101880000CED00E00000FA05134970B50A68D24378
:10189000520705D5096801F00701814213D118E00C
:1018A0000A6822F0070202430A60FFF751FF0A4D5F
:1018B0004FF47A760446083D07E000BFFFF748FF83
:1018C000001BB04201D9012070BD2868C0438004CC
:1018D000F4D4002070BD00000C4802580248016892
:1018E00041F480710160704700480258F8B5044621
:1018F000FFF72EFF05461CB194F8410010B107E038
:101900000120F8BD2046FEF7F3FD41F28830A064C7
:1019100020686FF0FF02A168036802EB012223F444
:10192000F85111430160A06C002220212B46009049
:10193000204601F0FCFD0028E3D12268D4E90735F8
:101940002679E168176845EA0665DFF844C019435F
:10195000104B29430025012607EA0C073943116083
:101960002268D4E90517B4F810C0D2F804E039436E
:101970000EEA030E4EEA0C431943516021680A68CF
:1019800042F001020A60656484F84160F8BD00001D
:101990002FFFFF00FEF8E0FF70B50446174801680E
:1019A00041F002010160016821F002010160FFF7CE
:1019B000C9FE41F20301884203D86068B0F1405F7C
:1019C00017D094E80700084310430D49258AE268C0
:1019D0000B1D024342EA054018600868626920F462
:1019E0007C5040EA02200860086840F0600008600F
:1019F00070BDA16820680843E7E7000094440258DE
:101A00000084004010B501F05FF905490968054AF6
:101A1000C1F30211515C01F01F01C84010BD00006C
:101A200020440258BA3A00084A4930B5494C0B1DC7
:101A30000A680C3409681D68246802F0030305F085
:101A40000102C1F30511C4F3CC04002914FB02F216
:101A500000EE102AF8EE400A76D0414A9FED3E1A79
:101A6000DFED3E1AB7EE000A23B1012B5AD0022B4C
:101A700018D15CE0374C283C23689B0612D5394BC3
:101A8000246801EE901A1168C4F3C104F8EE612ACB
:101A9000E34001EE903AC1F30801F8EE611A81EEDD
:101AA000A22A07E002EE101A1168F8EE422A81EE2F
:101AB000A22A45E001EE901A1168F8EE611A40EE94
:101AC000811A71EE800A62EE200AC1F3462101EE0E
:101AD000101AB8EE411A31EE001AC0EE811ABCEEAF
:101AE000E11A80ED001A1168C1F3064101EE101AE7
:101AF000B8EE411A31EE001AC0EE811ABCEEE11ABE
:101B000080ED011A1168C1F3066101EE101AB8EEFA
:101B1000411A31EE000A80EE801ABCEEC10A80ED57
:101B2000020A30BD01EE901ADFED0F2A03E001EE4C
:101B3000901ADFED0E2A1168F8EE611A82EEA12AE2
:101B4000C1F30801B6E7FFE7002101604160816051
:101B500030BD000028440258000000390024744CB5
:101B6000304402580090D0030024744A20BCBE4B7D
:101B7000494930B5484C0B1D0A68143409681D6882
:101B8000246802F00303C5F30012C1F30531C4F366
:101B9000CC04002914FB02F200EE102AF8EE400AF1
:101BA00075D03F4A9FED3D1AB7EE000A6BB1DFEDED
:101BB0003D1A012B01D0022B64D002EE101A1168DD
:101BC000F8EE422A81EEA22A21E0334C283C236819
:101BD0009B0612D5344B246801EE901A1168C4F3A9
:101BE000C104F8EE612AE34001EE903AC1F3080126
:101BF000F8EE611A81EEA22A0BE001EE901ADFEDF9
:101C00002B2A00BFF8EE611A116882EEA12AC1F3F7
:101C1000080101EE901A1168F8EE611A40EE811A7F
:101C200071EE800A62EE200AC1F3462101EE101A1D
:101C3000B8EE411A31EE001AC0EE811ABCEEE11A7C
:101C400080ED001A1168C1F3064101EE101AB8EEDA
:101C5000411A31EE001AC0EE811ABCEEE11A80ED95
:101C6000011A1168C1F3066101EE101AB8EE411AAB
:101C700031EE000A80EE801ABCEEC10A80ED020A45
:101C800030BD04E001EE901ADFED092ABAE7002129
:101C9000016041608160F3E7284402580000003988
:101CA000384402580024744A0090D0030024744C35
:101CB00020BCBE4B494930B5484C0B1D0A681C344A
:101CC00009681D68246802F00303C5F30022C1F30C
:101CD0000551C4F3CC04002914FB02F200EE102AD3
:101CE000F8EE400A75D03F4A9FED3D1AB7EE000A64
:101CF0006BB1DFED3D1A012B01D0022B64D002EE57
:101D0000101A1168F8EE422A81EEA22A21E0334C23
:101D1000283C23689B0612D5344B246801EE901AA8
:101D20001168C4F3C104F8EE612AE34001EE903A71
:101D3000C1F30801F8EE611A81EEA22A0BE001EE70
:101D4000901ADFED2B2A00BFF8EE611A116882EEBF
:101D5000A12AC1F3080101EE901A1168F8EE611A88
:101D600040EE811A71EE800A62EE200AC1F346212C
:101D700001EE101AB8EE411A31EE001AC0EE811AC7
:101D8000BCEEE11A80ED001A1168C1F3064101EEC4
:101D9000101AB8EE411A31EE001AC0EE811ABCEEEC
:101DA000E11A80ED011A1168C1F3066101EE101A03
:101DB000B8EE411A31EE000A80EE801ABCEEC10A7C
:101DC00080ED020A30BD04E001EE901ADFED092A31
:101DD000BAE70021016041608160F3E728440258BE
:101DE00000000039404402580024744A0090D00397
:101DF0000024744C20BCBE4B2DE9F04FAC4A054684
:101E0000DFF8A8A280F48070DFF8AC9289B01311DB
:101E1000AA4C0843A748AAF104064FF0805C4FF093
:101E200000582CD085F400770F4357D0DFF87CB2F0
:101E300085F480670F430BF1080B61D085F40067D0
:101E40000F4374D085F480570F436ED085F400574C
:101E50000F434FF480394FF4003E67D085F40027DC
:101E60000F4371D085F480370F436ED085F48046E0
:101E70000E436BD085F400420A4368D02AE0DAF8BA
:101E8000001001F00701052924D2DFE801F075BC3C
:101E90007D25B10006A8FFF7C7FD079809B0BDE88A
:101EA000F08F6846FFF764FE0098F7E703A8FFF796
:101EB00001FF0398F2E72068C0F3C10022FA00F0A6
:101EC000ECE72268D20571D561456FD11846E5E788
:101ED0004145E3D00020E1E74846DFE7DAF80010AB
:101EE00001F4E07180294FD004DC002944D040295E
:101EF000F0D188E0C029EFD0B1F5807FEAD177E05A
:101F0000DBF8001001F46001B1F5800F3CD004DC77
:101F100091B3B1F5001FDDD175E0B1F5C00FDBD095
:101F2000B1F5000FD6D163E001E018E030E0DBF856
:101F3000001001F0E061B1F1007F25D008DCD9B1DB
:101F4000B1F1807FC6D15EE049E06CE079E09CE0D1
:101F5000B1F1407FC0D0B1F1806FBBD148E0DAF879
:101F6000001001F4E041B1F5005F0DD005DC19B1BE
:101F7000B1F5805FAED146E094E0B1F5405FABD003
:101F8000B1F5804FA6D133E020688000A2D58DE75F
:101F9000DAF8001001F4E021B1F5403F6CD006DC26
:101FA00061B149457AD0714594D157E037E0B1F538
:101FB000802F65D0B1F5A02F8CD10CE000F0A6FEEB
:101FC0006CE76846FFF7D4FD019867E703A8FFF7C1
:101FD00071FE049862E721688903F1D47AE7DBF89F
:101FE000001011F440310ED0494510D07145F5D1A3
:101FF0003168256801F040516D077FF562AF002917
:102000007FF45FAF57E720680001E7D549E7206814
:102010008000E3D503A8FFF74DFE05983EE7226850
:102020009203DBD554E7306810F480303AD048454D
:10203000D4D120680001D1D56846FFF799FD0298F8
:102040002CE7DBF8001001F0E041B1F1405F13D064
:1020500008DC71B1614521D04145BFD120688000C5
:10206000B4D437E7B1F1804F0AD0B1F1A04FB2D06C
:1020700030E7FFF7C7FC11E720684007AED51AE745
:102080002068C005AAD521E708E0DAF8001011F0B1
:102090004051A0D0614505D041459FD12068000145
:1020A0008FD417E72068800198D5F3E65044025892
:1020B0000090D00340787D010080BB0000440258AE
:1020C0002DE9FE4F0546DFF8E48350F8081B002495
:1020D000F64FC943019005F12800264608F124086F
:1020E000009008011DD4A86E50B1B0F5801F0CD02F
:1020F000B0F5001F0ED0B0F5401F1ED001240FE038
:10210000386840F40030386017E00198022101F08F
:1021100033FA03E00098022101F0BEFA04000CD06B
:1021200026462888C043C00523D4A86D05281ED2A2
:10213000DFE800F00C11161B1B00AA6ED8F8001087
:1021400021F440111143C8F80010EAE7386840F460
:102150000030386009E00198002101F00DFA03E039
:102160000098002101F098FA044674B100E00124BF
:1021700026462888C043800528D4E86D80281ED0D4
:102180000CDC90B140280ED114E0AA6DD8F80010F4
:1021900021F007011143C8F80010EAE7C02813D066
:1021A000B0F5807F10D001240FE0386840F4003093
:1021B000386009E00198002101F0DEF903E00098A1
:1021C000002101F069FA04469CB126462888DFF810
:1021D000DC92C04309F12C0940052CD4D5F8A800A5
:1021E000B0F5800F20D00DDCA0B1B0F5001F0FD1ED
:1021F00015E0EA6DD8F8001021F4E0711143C8F839
:102200000010E3E7B0F5C00F13D0B0F5000F10D009
:1022100001240FE0386840F40030386009E001988C
:10222000002101F0A9F903E00098002101F034FA3F
:1022300004467CB126462888C04300052DD4D5F835
:10224000AC00B0F1007F21D00EDCA8B1B0F1807FEE
:1022500010D116E0D5F8A820D9F8001021F46001BB
:102260001143C9F80010E6E7B0F1407F13D0B0F198
:10227000806F10D001240FE0386840F400303860DF
:1022800009E00198002101F077F903E000980021AE
:1022900001F002FA044674B126462868C043800162
:1022A0001FD4E86CD8B110280FD0202812D03028C5
:1022B00015D0012414E0D5F8AC20D9F8001021F095
:1022C000E0611143C9F80010E7E7386840F40030D6
:1022D000386004E00198022101F04EF9044674B11F
:1022E00026462888C043C0042BD4286EB0F5005F72
:1022F00020D00DDCA0B1B0F5805F0FD115E06B48A8
:10230000EA6C2030016821F0300111430160E8E7F8
:10231000B0F5405F13D0B0F5804F10D001240FE02E
:10232000386840F40030386009E00198002101F07D
:1023300023F903E00098002101F0AEF904468CB1C6
:1023400026462888C043800429D4686EB0F5403FF3
:1023500023D010DC08B3B0F5803F14D0B0F5003FB7
:102360000FD115E02A6ED8F8001021F4E041114396
:10237000C8F80010E5E7B0F5802F0ED0B0F5A02F1B
:102380000BD001240AE00198012101F0F5F803E0E7
:102390000098012101F080F9044694B1264628886E
:1023A000C04340042AD4D5F8B000B0F1405F23D038
:1023B00010DC08B3B0F1805F14D0B0F1005F0FD132
:1023C00015E06A6ED8F8001021F4E0211143C8F836
:1023D0000010E4E7B0F1804F0ED0B0F1A04F0BD069
:1023E00001240AE00198012101F0C6F803E00098F9
:1023F000012101F051F9044674B126462888C043F2
:1024000000041FD4286FD8B1B0F1805F0ED0B0F1B6
:10241000005F10D0012414E0D5F8B020D9F80010E6
:1024200021F0E0411143C9F80010E7E7386840F4B3
:102430000030386004E00198012101F09DF8044665
:1024400074B126462868C043C0011ED4A86CD0B120
:1024500001280ED0022811D0032814D0012413E043
:102460002A6FD8F8001021F040511143C8F800102D
:10247000E8E7386840F40030386004E00198022151
:1024800001F07AF80446ACB126462868DFF81CB0A3
:10249000C043ABF11C0B400252D40548016841F423
:1024A00080710160FFF754F9824611E02C44025814
:1024B00000480258FA48AA6C016821F00301114350
:1024C0000160E2E7FFF744F9A0EB0A00642835D881
:1024D000F4480068C005F5D58CBBDFF8C4A3B5F897
:1024E000B4100AF1240ADAF8000001F4407100F493
:1024F0004070884211D0DAF80010DAF8002021F498
:10250000407142F48032CAF80020DAF8002022F448
:102510008032CAF80020CAF80010D5F8B400B0F52F
:10252000807F1AD1FFF714F9029012E0FFF710F93B
:102530000299411A41F2883081420AD90324264681
:102540002878DFF85CA3C0430AF1080AC00721D04D
:102550003CE0DAF800008007E8D5D5F8B410C1F304
:102560000120032858460DD0016821F47C510160F8
:10257000B5F8B420DAF80010C2F30B021143CAF820
:102580000010DDE7C84A036802EA111223F47C5107
:102590001143ECE7E86F182816D005DCA0B1082835
:1025A00008D0102804D10AE020280DD028280BD00C
:1025B00001240AE00198012100F0DEFF03E0009809
:1025C000012101F069F8044664B126462878C04329
:1025D00080071ED4A86F062819D2DFE800F0160C79
:1025E00011161616EA6FDAF8001021F038011143BF
:1025F000CAF80010EAE70198012100F0BDFF03E0EE
:102600000098012101F048F804467CB100E0012463
:1026100026462878C04340071FD4D5F894000628E2
:1026200019D2DFE800F0160C11161616AA6FDAF8A8
:10263000001021F007011143CAF80010E9E70198E2
:10264000012100F099FF03E00098012101F024F836
:102650000446A4B100E0012426462878C043800641
:102660002BD4D5F89000B0F1405F24D011DC10B32A
:10267000B0F1805F15D0B0F1005F10D116E0D5F851
:102680009420D9F8001021F007011143C9F8001077
:10269000E3E7B0F1804F0ED0B0F1A04F0BD0012492
:1026A0000AE00198002100F067FF03E00098022192
:1026B00000F0F2FF044694B126462878C043400655
:1026C0002BD4D5F89C00B0F5406F24D011DC10B3AA
:1026D000B0F5806F15D0B0F5006F10D116E0D5F8C9
:1026E0009020DAF8001021F0E0411143CAF8001000
:1026F000E3E7B0F5805F0ED0B0F5A05F0BD001240A
:102700000AE00198002100F037FF03E00098022161
:1027100000F0C2FF044694B126462878C043000664
:102720002BD4D5F8A000B0F5C04F24D011DC10B3E5
:10273000B0F5005F15D0B0F5804F10D116E0D5F898
:102740009C20D9F8001021F4E0511143C9F8001081
:10275000E3E7B0F5004F0ED0B0F5204F0BD00124C9
:102760000AE00198002100F007FF03E00098022131
:1027700000F092FF044654B126462878C043000773
:102780001ED4D5F88400B0F5805F0AD00FE0D5F8EC
:10279000A020D9F8001021F460411143C9F80010BD
:1027A000EBE70098022100F077FF00B10126D5F891
:1027B0008420DAF8001021F440511143CAF80010C7
:1027C0002878C043C00613D4D5F89800B0F5807FB0
:1027D00005D10098022100F05FFF00B10126D5F875
:1027E0009820D9F8001021F440711143C9F8001065
:1027F0002868C043000316D4D5F8A40038B1B0F55A
:10280000803F09D0B0F5003F0BD001240AE00198C9
:10281000002100F0B1FE03E00098022100F03CFF2F
:1028200004468CB126462868C043400322D4D5F81C
:102830008800B0F5801F11D0B0F5001F13D0B0F59F
:10284000401F15D0012414E0D5F8A420D9F80010B9
:1028500021F440311143C9F80010E4E7386840F42E
:102860000030386004E00098012100F015FF0446B4
:102870005CB126462868C043C00323D4286DA8B1A4
:10288000B0F5803F17D001241BE0D5F88820DAF896
:10289000001021F440111143CAF80010EAE70000CB
:1028A0004C44025800480258CFFFFF00386840F4FB
:1028B0000030386004E00198022100F05DFE04461B
:1028C000E4B126462868C043800005D40098022160
:1028D00000F0E2FE00B101262868C04380031BD44B
:1028E000D5F88000B0B1B0F5807F0FD0B0F5007F93
:1028F00010D0B0F5407F0DD001240CE05A482A6D6D
:10290000016821F4803111430160DBE7386840F44D
:1029100000303860ECB326462868C043C00207D4B4
:102920006A6FD8F8001021F000411143C8F8001078
:102930002868C043C00008D4D5F8B820DBF80010E0
:1029400021F480411143CBF800102868C043800275
:1029500007D4EA6ED8F8001021F080711143C8F84E
:1029600000102868C04340000CD4DBF8001021F4AC
:102970000041CBF80010DBF80010D5F8BC20114363
:10298000CBF800102868C04308D437486A6D016846
:1029900000E018E021F04051114301602868C04375
:1029A000000208D4D5F88C20DAF8001021F4400198
:1029B0001143CAF8001028790024C04300F0010038
:1029C00020430AD00FE0D5F88020DAF8001021F477
:1029D00040711143CAF800109EE70198002100F0F1
:1029E000CBFD00B106462879C04300F00200204329
:1029F00005D10198012100F0BFFD00B106462879FC
:102A0000C04300F00400204305D10198022100F0EA
:102A1000B3FD00B106462879C04300F0080020430A
:102A200005D10098002100F037FE00B10646287954
:102A3000C04300F01000204305D10098012100F0B0
:102A40002BFE00B106462879C04300F02000044365
:102A500004D10098022100F01FFE00B916B1012038
:102A6000BDE8FE8F0020FBE74C4402582DE9F05FE3
:102A700004000F467ED0DFF83882D8F8000000F05E
:102A80000F00B8420CD2D8F8001021F00F013943E2
:102A9000C8F80010D8F8000000F00F00B84269D163
:102AA0002078844D40070AD52069296801F070011B
:102AB000884204D9296821F07001014329602078F7
:102AC0007C4E361D00070AD56069316801F070013F
:102AD000884204D9316821F07001014331602078C7
:102AE000C0060AD5A069316801F4E061884204D9C2
:102AF000316821F4E061014331602078DFF8B4B13E
:102B000080060BF1080B0CD5E1695846DBF8002074
:102B100002F07002914204D9026822F070020A4366
:102B20000260207880070AD5E068296801F00F016B
:102B3000884204D9296821F00F01014329602078D7
:102B4000C0073ED05B49A2682868183920F470603D
:102B5000104328606068022818D0032819D009683B
:102B6000012819D0490700294ADADFF848A1AAF15B
:102B7000080A00E044E0DAF8002022F007020243ED
:102B8000CAF80020FEF7E4FD814612E009688903D7
:102B9000E9E709688901E6E7C905E4E7FEF7D8FD3A
:102BA000A0EB090141F28830814202D90320BDE83F
:102BB000F09F6168DAF8000000F03800B0EBC10F58
:102BC000ECD1207880070AD5E068296801F00F0170
:102BD000884204D2296821F00F0101432960D8F806
:102BE0000010404601F00F01B9420BD9016821F0F5
:102BF0000F0139430160006800F00F00B84201D0B6
:102C00000120D4E7207840070AD52069296801F01F
:102C10007001884204D2296821F0700101432960C3
:102C2000207800070AD56069316801F07001884298
:102C300004D2316821F07001014331602078C00670
:102C40000AD5A069316801F4E061884204D2316894
:102C500021F4E06101433160207880060CD5E16900
:102C60005846DBF8002002F07002914204D202685C
:102C700022F070020A43026000F06CF80E492A68E4
:102C80002B68C2F3032203F00F038A5CC95C02F0D5
:102C90001F0201F01F01D040084A20FA01F1116023
:102CA0000749086007480068BDE8F05FFEF78CBD83
:102CB0000020005218440258BA3A000810000024BC
:102CC0000C0000240400002430B500F043F80B4A47
:102CD0000B490C4B15681468C5F3032204F00F046C
:102CE0008A5C095D02F01F0201F01F01D040064A14
:102CF00020FA01F119601060084630BD18440258EE
:102D0000BA3A0008100000240C00002400B5FFF7B8
:102D1000DBFF05490968054AC1F30211515C01F066
:102D20001F01C84000BD00001C440258BA3A000808
:102D300000B5FFF7C9FF05490968054AC1F302213B
:102D4000515C01F01F01C84000BD00001C44025846
:102D5000BA3A0008454970B545480968434B103BED
:102D600011F0380208D00111082A03D0102A0BD024
:102D7000182A0BD0084670BD19688906FBD519685A
:102D8000C1F3C101C84070BD3A4870BD3749374DE5
:102D900018310C1D24350A68096826682D6802F070
:102DA000030406F00102C1F30511C5F3CC0515FBC0
:102DB00002F200EE102AB8EE400AE9B32F4ADFED26
:102DC0002E0AB7EE001A6CB1DFED2D1A012C01D0DE
:102DD000022C43D002EE101A1068F8EE422A81EE5F
:102DE000A22A1EE01C68A40611D51B6801EE901AE9
:102DF0001168C3F3C103F8EE612AD84001EE900ACE
:102E0000C1F30800F8EE611A81EEA22A0BE001EE90
:102E1000901ADFED1C2A00BFF8EE611A106882EEEE
:102E2000A12AC0F3080001EE900AF8EE611A40EE04
:102E3000201A31EE810A00E015E022EE000A106847
:102E4000C0F34620401C00EE900AF8EE600A80EEC7
:102E5000201ABCEEC10A10EE100A70BD01EE901AE5
:102E6000DFED092AD8E7002070BD000010440258A9
:102E70000090D00340787D010000003930440258B2
:102E80000024744A0024744C20BCBE4B2DE9F05F32
:102E900004007DD0FF4F2078FE4D1837DFF8F49303
:102EA000103DC00748D0D9F80000396800F038005C
:102EB000102815D0182803D101F0030002280FD0E4
:102EC0006068B0F5803F12D010B1B0F5A02F18D0D7
:102ED000286820F480302860286820F4802009E0E9
:102EE0002868800328D560680028D2D024E02868AC
:102EF00040F480302860606888B1FEF729FC0646FF
:102F000009E0286840F480202860F0E7FEF720FC04
:102F1000801B64286FD828688003F7D50CE0FEF783
:102F200017FC064605E000BFFEF712FC801B642874
:102F3000F0D828688003F7D4207841F20308D54EF2
:102F40000C3E800769D5D9F80000396810F03800C8
:102F50000ED0182801D188070AD0E06890B32968FC
:102F600021F0190101432960FEF7F2FB824631E0AE
:102F70002868400702D5E06800288AD0E168286800
:102F800020F0190008432860FEF7E2FB824607E0C4
:102F9000DFE000BFFEF7DCFBA0EB0A000228B9D897
:102FA00028684007F6D500BFFEF7CCFB40451BD88C
:102FB0002069402812D0316821F47C3141EA003088
:102FC00030602AE018E000BFFEF7C2FBA0EB0A0069
:102FD00002289FD828684007F6D5E5E7306820F436
:102FE0007C3040F40030EBE7207C316821F0FE417A
:102FF00041EA0060E4E70DE1286820F00100286064
:10300000FEF7A6FB824605E0FEF7A2FBA0EB0A0056
:1030100002288DD828684007F6D42078C0065DD5F0
:10302000D9F80000DFF86CB2396800F03800ABF175
:10303000040B082810D0182803D101F00300012840
:103040000AD0E0690028286838D040F08000286065
:10305000FEF77EFB824623E02868C00523D5E069A1
:10306000802876D11FE0206A202821D0316821F005
:10307000F84141EA8060306030E000BF94F82010F1
:10308000DBF8002022F07C5242EA0161CBF800100C
:1030900024E000BFFEF75CFBA0EB0A00022898D8F2
:1030A0002868C005F6D5FEF74DFB4045E6D8DAE7BF
:1030B000306820F0F84040F08040DCE720F08000ED
:1030C0002860FEF745FB064605E000BFFEF740FB23
:1030D000801B02289DD82868C005F7D420780007F7
:1030E00029D56C486169643000298046016811D097
:1030F00041F001010160FEF72BFB064605E000BF31
:10310000FEF726FB801B0228C9D8D8F800008007EC
:10311000F6D510E021F001010160FEF719FB06462B
:1031200005E000BFFEF714FB801B022872D8D8F818
:1031300000008007F6D42078800623D5A0690028F7
:10314000286810D040F480502860FEF701FB064646
:1031500005E036E1FEF7FCFA801B02285AD8286801
:103160008004F7D50EE020F480502860FEF7F0FAD6
:10317000064604E0FEF7ECFA801B02284AD82868CD
:103180008004F7D4207840074FD5DFF80C81D8F8B9
:10319000001041F48071C8F80010FEF7D9FA064615
:1031A00005E000BFFEF7D4FA801B642832D8D8F8B7
:1031B0000000C005F6D5374EA068603601280AD059
:1031C00008B1052813D0306820F001003060306865
:1031D00020F0040002E0306840F001003060A06898
:1031E00041F2883A90B1FEF7B3FA80460AE03068BF
:1031F00040F004003060EEE7FEF7AAFAA0EB080109
:10320000514507D830688007F6D50EE0FEF7A0FAE2
:10321000804607E084E000BFFEF79AFAA0EB0801C1
:1032200051457DD830688007F6D4606AB0B3DFF8C6
:103230006480D9F8001008F120084FF6F87B08F1F7
:103240000409C1F3C2010329A8F1040A69D00228C4
:10325000286820F08070286003D0FEF779FA0446D1
:1032600084E0FEF775FA064605E000BFFEF770FA47
:10327000801B022877D828688001F7D4E26A40F2E0
:10328000F331386854F8283F884340EA0210184365
:10329000386004E01044025800480258B5E0217B31
:1032A000434622894FF4FE0C208A4FF0FE47490224
:1032B000267D521E401EA1F50071C2F308088AB295
:1032C000761E0CEA004042EA08020243504607EA32
:1032D00006610A431A60DAF8002022F00102CAF8F7
:1032E0000020D9F80020266A22EA0B0242EAC60230
:1032F000C9F80020DAF80010A26921F00C0111438E
:10330000CAF800100168E26921F00201114301606E
:10331000016841F480310160016841F4003101E04D
:1033200021E027E00160016841F48021016001682B
:1033300041F001010160286840F080702860FEF7CC
:1033400007FA044605E000BFFEF702FA001B022858
:1033500009D828688001F7D557E000BFFEF7F8F9D3
:10336000001B022802D90320BDE8F09F28688001D5
:10337000F4D44AE039680128D8F8000021D0A26AC4
:1033800001F0030393421CD1E26AC1F305118A42A2
:1033900017D1216BC0F30802491E8A4211D1616B1B
:1033A000C0F34622491E91420BD1A16BC0F30642E5
:1033B000491E914205D1E16BC0F30660491E81426E
:1033C00001D00120D0E7A16C4E46D9F80000C0F32F
:1033D000CC00814219D0DAF80000554620F00100F7
:1033E000CAF80000FEF7B4F94FEA0007FEF7B0F99B
:1033F000B842FBD0A26C306820EA0B0040EAC20061
:103400003060286840F0010028600020ACE7401ED2
:10341000B0F1807F10B501D3012010BD4FF0E02442
:1034200060610F21601700F0D8FA0020A061072129
:10343000216110BD10B5B6B00446142130A8FDF7C7
:103440005CF8C0216846FDF758F8194920688842A1
:103450002BD100201F9001210446CDE900106846C1
:10346000FEF72EFE08B1FDF7A4F91248016841F0FD
:1034700010010160006800F0100035900D48103810
:10348000016841F001010160006830AB022100F0E9
:10349000010035904FF4C060072283E8130006480E
:1034A00030A9CDE93342FEF731F836B010BD000047
:1034B00000100140F044025800000258FEE70000EE
:1034C0001848002110B5164C0C224FF4E13304606B
:1034D000C0E90131C160C0E904128161C1610162CA
:1034E00041628162FDF70EF808B1FDF762F90D48FF
:1034F0000021FDF70CF808B1FDF75BF90948002140
:10350000FDF70AF808B1FDF754F90648FDF709F888
:10351000002803D0BDE81040FDF74BB910BD0000F6
:103520000010014050020024FEE7FEE770472DE93D
:10353000F041984616460F460446069D08E0681C72
:1035400006D0FEF705F9A0EB0800A8420AD84DB155
:1035500020688068384000D00120B042EFD10020C0
:10356000BDE8F081042084F84100606C40F0010067
:1035700060640120F4E700002DE9F047454D044662
:1035800089464FF0000A2868C04380070AD0414EA0
:10359000283E306820F080603060FEF7D9F807469A
:1035A000B04608E00120BDE8F08700BFFEF7D0F884
:1035B000C01B022867D8D8F800000001F6D42068A4
:1035C00029684FF4FE0721F47C313E0241EA0030C5
:1035D0002860207AA389B4F804C040022D4D2D49FB
:1035E0005B1E227CACF1010C1035091DA0F50070AA
:1035F00080B2521ECCF3080C07EA034340EA0C00E9
:10360000184306EA0262104328600868626920F0E5
:10361000C000104308600A68A06922F0200202433B
:103620000A60281D0A6822F010020A6002684FF63C
:10363000F873E4699A4342EAC40202600868B9F187
:10364000000F40F010020A6011D00868B9F1010FB4
:1036500011D040F400100860D8F80000444640F053
:103660008060C8F80000FEF773F805460DE00868B2
:1036700040F40020EFE740F48010ECE7FEF768F834
:10368000401B022801D903208DE720680001F5D5F1
:10369000504688E7284402582DE9F047454D044636
:1036A00089464FF0000A2868C04380070AD0414E7F
:1036B000283E306820F080503060FEF749F8074619
:1036C000B04608E00120BDE8F08700BFFEF740F8F3
:1036D000C01B022867D8D8F800008000F6D42088E4
:1036E00029684FF4FE0721F07C713E0241EA005048
:1036F0002860207AA389B4F804C040022D4D2D49DA
:103700005B1E227CACF1010C1835091DA0F5007080
:1037100080B2521ECCF3080C07EA034340EA0C00C7
:10372000184306EA0262104328600868626920F4C0
:103730004060104308600A68A06922F400720243E6
:103740000A60281D0A6822F480720A6002684FF637
:10375000F873E4699A4342EAC40202600868B9F166
:10376000000F40F480720A6011D00868B9F1010FAF
:1037700011D040F080700860D8F80000444640F056
:103780008050C8F80000FDF7E3FF05460DE008682B
:1037900040F48000EFE740F40000ECE7FDF7D8FFCD
:1037A000401B022801D903208DE720688000F5D551
:1037B000504688E7284402580148FCF7B7BE00008D
:1037C0004C0100247047FDF7C9BF0000F0B5A3B05D
:1037D0004C216846FCF791FE202113A8FCF78DFED2
:1037E00018211BA8FCF789FE0220FEF74DF840497E
:1037F000002440480A6822F001020A600A68026850
:1038000042F440420260026802F44042219202689F
:103810009204FCD5384A136843F00203136012681F
:1038200002F002022192026842F440420260026801
:103830000A6842F001020A60096801F00101219161
:1038400001688904FCD5FEF749F8FDF77BFF2A499A
:10385000843901220E68022005230825252726F039
:1038600018060E604FF4A02C0097CDE901C2069215
:10387000C021CDE90A03CDE90C100990CDE90E3045
:10388000CDE9105468461294FFF700FB08B172B6F8
:10389000FEE740201A903F210301CDE91650032294
:1038A000CDE9180313AB13A883E816000421FFF732
:1038B000DDF808B172B6FEE70F480838016841F03C
:1038C0000201016000681EAD222240F2B75100F0F3
:1038D000020021904FF080502023CDE91B401D9421
:1038E0001BA885E80E00FEF757F823B0F0BD0000D6
:1038F0002C04005818480258F44402582C48F0B5DB
:103900002C4A016841F470010160106800F00F005A
:10391000072804D2106820F00F00C01D106026494F
:103920000020254C10340B68244D43F001030B603C
:1039300020600B682B400B60136803F00F03072B0C
:1039400004D9136823F00F03DB1D13601A4C1C4AC3
:1039500018341C4B261D371D2060174C1A4D283477
:103960003060261D3860371D23603B1D35601C1DEF
:103970003A60251D2E1D1860331D226028603260BC
:1039800018600A680C4B114C22F4802260330A60E4
:10399000186020686FF30F00B0F1005F03D20C498C
:1039A0000120C1F8080143F2D2000A490860F0BDC5
:1039B00088ED00E000200052004402587FEDF6EA56
:1039C00080020101000202020000FF010010005C01
:1039D0000080005100400052FEE7090700284FEA2E
:1039E000116104DB00F1E02080F80014704700F062
:1039F0000F0000F1E02080F8141D7047284B0020D4
:103A00001968890311D4BFF34F8FBFF36F8F254916
:103A10000860BFF34F8FBFF36F8F196841F4003117
:103A20001960BFF34F8FBFF36F8F1968C90322D49A
:103A30001B4970310860BFF34F8F081F43F6FF74B6
:103A40000068184D1035C0F34E31C0F3C90204EAC6
:103A50004116104646EA80772F60401EFAD2491E72
:103A6000F5D2BFF34F8F186840F480301860BFF371
:103A70004F8FBFF36F8FFDF779FEFFF7A7FEFCF7BF
:103A80005AFDFCF75DFDFCF760FDFCF763FDFCF7FC
:103A900066FDFFF715FDFCF767FDFCF76AFDFEE725
:103AA00014ED00E050EF00E04FF04070E1EE100A3E
:103AB00070470006101600061016000000000102F4
:103AC000030401020304060708090000EC3A000899
:103AD0000000002414000000D4020008003B00088D
:103AE0001400002434130000F0020008010000005C
:103AF00010000000000000000090D0030090D003F0
:0200000490006A
:100000004FF0000200B5134694469646203922BFB1
:10001000A0E80C50A0E80C50B1F12001BFF4F7AFFC
:10002000090728BFA0E80C5048BF0CC05DF804EBDE
:10003000890028BF40F8042B08BF704748BF20F84C
:10004000022B11F0804F18BF00F8012B7047000001
:1000500001491820ABBEFEE72600020040F2B97C41
:10006000C0F6000C604741F20D5CC0F6000C604722
:1000700041F2251CC0F6000C604740F2B37CC0F68C
:10008000000C604741F6250CC0F6000C604741F6B5
:10009000090CC0F6000C604742F2C10CC0F6000C1F
:1000A000604741F6F95CC0F6000C604741F2517CB4
:1000B000C0F6000C604741F2E94CC0F6000C604706
:1000C00043F2354CC0F6000C604741F2397CC0F673
:1000D000000C604741F6ED0CC0F6000C604741F69D
:1000E000052CC0F6000C604741F6713CC0F6000CD0
:1000F000604741F6B54CC0F6000C604740F2793CD1
:10010000C0F6000C604742F60D5CC0F6000C60477C
:1001100042F6315CC0F6000C604710B5806B816C14
:10012000496D022906D0012180F83510C16C41F0DB
:100130004001C16400F07CF810BDF0B50446C8076A
:100140004FF0000010D01E23012603F01F0706FA0F
:1001500007F50D4201D15B1EF7D27AB1082A0BD008
:10016000102A06D0182A01D00120F0BD072BFBD29F
:1001700004E0082BF8D201E0102BF5D22368596176
:1001800021688B6823F0180313438B60F0BD0000D7
:1001900010B5040010D0607F20B9002020772046E1
:1001A00000F032F821790220607739B1D4E90212E7
:1001B0002046FFF7C2FF48B1012010BD2168114859
:1001C00048612068816821F0180181606079A0B1E0
:1001D000216820690861012220686369816821F033
:1001E0006001194381602068A369816821F0800162
:1001F000194381606277002010BD21684FF0FF3005
:10020000E8E70000B71DC10408B500680649884248
:1002100008D10648016841F400210160006800F43B
:100220000020009008BD0000004C0258E044025835
:10023000704770472DE9F04104460068234F0426BB
:10024000056969070BD54661E06C40F00200E06487
:1002500084F83560A06C0765A06CFFF7FFFEA80767
:100260000DD5216802204861E06C40F00100E06497
:1002700084F83560A06C0765A06CFFF7EFFEE80618
:1002800005D5216810204861204600F06FF8280746
:1002900005D5216808204861204600F01BF9E807D1
:1002A00012D020680168890703D5C16821F01E01BA
:1002B000C16020680121C26822F00102C26020688A
:1002C00041612046FFF7B5FFBDE8F0811B010090BA
:1002D0002DE9F041040003D094F8350018B105E091
:1002E0000120BDE8F081204600F042F8A16902201B
:1002F0004FF0000E84F8350009B1C4F824E02068FE
:10030000194A016811400160D4E90452E168D4E956
:10031000010C29431043A269084354F8201B40EA0A
:100320000C001043B4E8E8100A681843284330432F
:10033000384340EA0C001043086054F8300C343C59
:10034000102805D12268E17FE06961F31F609061A8
:1003500020680121C26842F01E02C260C4F84CE06D
:1003600084F835100020BCE707F0E0FF704700007C
:100370002DE9F04186B0804614216846FFF740FE23
:100380004B49D8F8000088427DD14A48016841F0C5
:1003900001010160006800F0010005904548001D62
:1003A000016841F010010160016801F01001059140
:1003B000016841F001010160016801F0010105914E
:1003C000016841F004010160016801F00401059138
:1003D000016841F008010160016801F00801059120
:1003E000016841F0020101600068022401266946AB
:1003F00000F00200059073200D278DE851000325C1
:100400002D48CDE90357FFF72EFE502069468DE8B1
:1004100051002A48CDE90357FFF725FEC020694661
:100420008DE851002648CDE90357FFF71CFE082050
:1004300069468DE851002348CDE90357FFF713FEC5
:10044000802069468DE851001F48CDE90357FFF72A
:100450000AFE202000F040F81D4E00201B4C4B27C8
:10046000311504F10C0C8A002660C4E901700B01FF
:100470008E1004278CE84F00C4E90807C4E90A502D
:100480002063204600E010E0FFF7F2FD08B1FFF71F
:10049000F4FD0022C8F848404E201146C4F83880C8
:1004A000FFF7F0FD4E20FFF7F2FD06B0BDE8F0814A
:1004B00000000248DC4402580010025800000258B4
:1004C00000080258000C025800040258880000245A
:1004D0001000024070470000074908B50A6842F062
:1004E00002020A60096801F00201009103490A68EA
:1004F00002430A6008BD0000F44402580404005896
:10050000054808B5016841F002010160006800F08B
:100510000200009008BD0000F44402582DE9F043A9
:10052000B7B00446142130A8FFF76AFDC021684621
:10053000FFF766FD36492068884265D10020139098
:100540004FF000710446CDE900106846FFF7A4FDA6
:1005500008B1FFF792FD2F48016841F48041016026
:10056000006800F4804035902A480C30016841F062
:1005700010010160016801F010013591016841F03E
:1005800002010160016801F002013591016841F04A
:1005900008010160006809274FF00408CDF8C08009
:1005A00000F00800022503263396CDE934701A487E
:1005B00030A9CDE93154FFF756FDCDE93085DFF89C
:1005C0005C804FF00109CDF8C89030A9CDE93367C0
:1005D0004046FFF748FD4FF4605032AACDE93005A0
:1005E0000F4830A982E8D000FFF73DFD30A8402138
:1005F0000A2280E82202CDE9336230A94046FFF7A3
:1006000032FD1020FFF768FF37B0BDE8F08300002F
:1006100000500052D44402580010025800040258FE
:10062000000C025870477047704770472DE9FC5F17
:100630000446806B0E46032184F8301000270328FF
:100640005CD0B6F5004F59D0B6F5804F4FF000059D
:100650004FF400684FF0806904D006B3606B40F03F
:1006600000603FE0009500210195206801F0EEF95F
:1006700080011CD46946204601F020FA70BB019825
:1006800040032DD5B4F844102068090400F0FAFEA8
:1006900020BB206802211DE0606B284322E000950A
:1006A00000210195206801F0D1F9800101D545466E
:1006B000F2E76946204601F001FA78B90198C003D3
:1006C0000ED5B4F844102068090400F0DBFE28B908
:1006D0002068002100F020FF0028DDD00546DBE780
:1006E0004D46D9E76063606B4FF4007BDFF8B8A03C
:1006F00040B121680127C1F838A042E0606B40F0AA
:100700008050EFE700214FF48030FFF7CAFC010072
:1007100032D0264D3346D4E904C0B1FBF5F8D4E914
:100720000192804510D9A66D5E450DD0B6F5807F4B
:1007300011D04FEA6506E0B14FEA4008B1FBF8F886
:10074000B04501D9B1FBF5F04946CDE900C02068BC
:1007500001F080F915E0164E30B14FEA4008B1FBC8
:10076000F8F8A84502D8EFE7A942EDD9B1FBF6F0B9
:10077000EAE7B142E6D8E7E7606B012740F00060A6
:1007800060632068594600F0AEFE30B12268012750
:10079000C2F838A0616B01436163012084F8300026
:1007A0003846BDE8FC9F0000FF0FE01F80F0FA0212
:1007B00000E1F50570470000F0B5C26D920F0A70B8
:1007C000C26DC2F383624A70C26DC2F301628A7065
:1007D000C26D120CCA70B0F85C20120A0A7190F84F
:1007E0005C204A71026E120DCA80026EC2F303428F
:1007F0000A72B0F86020C2F3C0324A72B0F86020CA
:10080000C2F380328A72B0F86020C2F34032CA72FA
:10081000B0F860200026C2F300320A734E73012242
:10082000836B4FF4007463B1012B3AD003685049D5
:100830009963416B41F08051416380F83020012081
:10084000F0BDB0F86030456E9B051B0D43EA957313
:100850000B61436EC3F3C2630B75436EC3F3026354
:100860004B75436EC3F342538B75436EC3F38243A0
:10087000CB75436EC3F3C2330B760D696D1C856473
:100880000B7E03F007039B1C9D4085640B7A446537
:1008900003F00F0302FA03F35F0A7D43C0E9133547
:1008A0000EE090F86050436EAD06AD0A45EA134382
:1008B0000B610B695B1C9B028364C0E913434465B5
:1008C000B0F86430C3F380334B76B0F86430C3F3D0
:1008D000C6138B7690F8643003F07F03CB76836E7B
:1008E000DB0F0B77836EC3F341734B77836EC3F3D8
:1008F00082638B77836EC3F38353CB77836EC3F3AB
:10090000405381F8203081F82160836EC3F30043A7
:1009100081F82230B0F86830C3F3C03381F8233057
:10092000B0F86830C3F3803381F82430B0F8683011
:10093000C3F3403381F82530B0F86830C3F3003397
:1009400081F82630B0F86830C3F3812381F827306E
:10095000B0F86830C3F3012381F8283090F86800BC
:10096000C0F3460081F8290081F82A200020F0BD5C
:10097000FF0FE01F70B5B0F8441000250446006872
:10098000090400F082FE18B1616B0143616304E069
:100990002068002101F05AF80546C5F3432070BDD8
:1009A0002DE9F041054690F8300090B00C46002645
:1009B000032810D06946284601F0C8F92A4F4FF0A5
:1009C000010860B12A68012697636A6B02436A6373
:1009D00085F830803AE0012010B0BDE8F081009940
:1009E0004FF47F40C1F3811121700099C1F3401190
:1009F000617000990A4600EA112141EA12616180A2
:100A0000019909BA6160029921720299090A617219
:100A10000299C1F30351A172DDE9022100EA1240FB
:100A2000C9B20843A0810398C0F38520A07303983E
:100A3000C0F30120E0730398C0F3031020740398FF
:100A400000F00F0060740498000EA07428684FF442
:100A5000007100F048FD28B12A6801269763686399
:100A600085F830803046B7E7FF0FE01F2DE9F843E7
:100A700004460068E56A416B09041BD5290719D5AE
:100A8000D4E90950202813D30026206800F0F8FF8D
:100A9000020A2870010C6A70030EA970761CEB70B4
:100AA000082E05F10405F0D3A06A2038C4E90950E6
:100AB000BDE8F883416B0127DFF8EC810026C9050A
:100AC00051D539024CF23A12816329072068C16B73
:100AD00021EA0201C1632068C16B21F08051C1632A
:100AE0002068C16821F04001C16018D515F0220FBF
:100AF00009D0206800F016FE28B1616B01436163E4
:100B00002046FFF757FE2168AA07C1F8388084F80D
:100B10003070E66223D1204600F0C9F9C8E7280604
:100B2000C6D5206815F0220F86622068C66220684C
:100B3000066509D0206800F0F5FD28B1616B01431E
:100B400061632046FFF736FE15F0300F84F83070F1
:100B5000E66202D0204600F0AAF9A807A8D02046F5
:100B600000F0A4F9A4E7416B490421D529071FD55A
:100B7000D4E9075020289BD3002628780090697874
:100B800040EA01200090A97840EA01400090E9780D
:100B90002D1D40EA016000902068694600F088FF42
:100BA000761C082EE9D3206A2038C4E907507FE775
:100BB000416B11F03A0F416B58D0890703D5616B37
:100BC00041F002016163416B090703D5616B41F09C
:100BD00008016163416B890603D5616B41F0200117
:100BE0006163416BC90603D5616B41F0100161631C
:100BF000C0F838802068C16B21F49D71C163206802
:100C0000C16821F04001C1602068C16A41F400510F
:100C1000C1622068C16841F08001C160206800F0B5
:100C200081FD626B2B074FF4006140EA02006063B4
:100C30002068C26822F08002C2602068816303D508
:100C400084F83070E6620DE028068BD5606B0028D2
:100C500088D02068C16B21F08051C163206806658F
:100C600084F830702046FFF7A5FD21E7C9009ED526
:100C70004FF0805181632068006D40074FEA856026
:100C800008D40028204602DAFFF7CFFC10E7FFF770
:100C9000CAFC0DE70028204602DAFFF7C5FC07E78B
:100CA000FFF7C0FC04E700003A0F0018F0B504009D
:100CB00085B020D094F83000002518B9204625765C
:100CC00000F098F8042084F83000204600F03CF84A
:100CD00088B969462046FFF763FE60B99DF8101099
:100CE000A26B9DF81100012A08D0A5652046E16895
:100CF000FFF79CFC58B1012005B0F0BD014302D0C4
:100D00004FF4007001E04FF48070A065EEE7FFF74C
:100D1000CDF90127064604E0FFF7C8F9801B401C07
:100D20000AD02046FFF726FE0428F5D16563E56268
:100D300084F830700020DFE74FF00040606384F8F3
:100D400030700320D8E700002DE9FC414FF0000887
:100D500004464FF480304146FFF7A3F905004FF0F9
:100D6000010723D02048434642464146B5FBF0F6F2
:100D7000CDE90086206800F06DFE206800F07AFE64
:100D80001EB17000B5FBF0F52DB11848B0FBF5F0C1
:100D9000401CFFF790F9204600F07EFF60B100BFD5
:100DA00084F83070616B0143616319E04FF00060BB
:100DB00084F83070606313E0204600F0F1FE0028F4
:100DC000EED120684FF4007100F08DFB002808D0B0
:100DD000226807499163616B0143616384F8307055
:100DE0000120BDE8FC81000000350C00102101004D
:100DF000FF0FE01FF0B5B7B00446142130A8FFF78D
:100E0000FFF8C0216846FFF7FBF8244920688842B4
:100E100041D1002014904FF48031CDE90010684694
:100E2000FFF73AF908B1FFF728F91D48016841F4C6
:100E300080310160006800F48030359018480C3033
:100E4000016841F004010160016801F0040135917D
:100E5000016841F008010160006830A9022400F037
:100E600008003590012503260C274FF4F85081E83F
:100E7000F1000C48FFF7F7F830A9042081E8F100F1
:100E80000948FFF7F0F8002231201146FFF7FAF881
:100E90003120FFF7FCF837B0F0BD000000700052C1
:100EA000D444025800080258000C0258704770479A
:100EB0002DE9F047040029D0594A4FF00009206875
:100EC000584B594D9042C4F8289006D0984204D00F
:100ED000A84202D0E1680F2918D8E1684FF0010A52
:100EE000E76B0831C9080AEB57167143904205D0E9
:100EF000984203D0A84201D0082907D8904203D0D5
:100F0000984201D0A84204D1102902D90120BDE89D
:100F1000F08794F8810020B9204684F8809000F092
:100F200085F8022084F881002068016821F0010121
:100F300001602068A1698268B1F1806F02F4F81144
:100F400010D16268B2F5800F01D01AB10AE0A26B2D
:100F500022B107E0A26BB2F1805F03D1026842F4D4
:100F6000805202606068400209D5E068072806D315
:100F70002068236D026822F480721A4303E020681F
:100F8000026822F480720260A66AE069E26B25685A
:100F90003043E3680A4310431843A860D4E90D02C4
:100FA000D4E90581636A25691843D4F820C00A434F
:100FB000266810432843A56DD4E90172D4E91231A3
:100FC00040EA080040EA0C00384308431043184345
:100FD0002843F060606868B92068816821F4C051D6
:100FE00041F4006181602068816821F4C06141F4AE
:100FF000806181602068016D21F0010101656068F8
:10100000400206D52068626DC16821F0004111439D
:10101000C160C4F8849084F881A0002077E70000C4
:101020000030014000380040003C004010B5B6B030
:101030000446142130A8FEF7E3FFC0216846FEF7FE
:10104000DFFF1949206888422BD1811400201890B5
:10105000CDE900106846FFF71FF808B1FFF70DF85B
:101060001248016841F480410160006800F480404A
:1010700035900E480838016841F0020101600068AF
:101080000DF1C00C022100F0020035900122032373
:1010900005244FF460408CE81F00054830A9FEF796
:1010A000E2FF36B010BD000000380040E8440258AE
:1010B0000004025830B590F88410012918D001229C
:1010C00080F884202421C0F88810002220240168A0
:1010D0000B680D6823F0005325F001050D60426692
:1010E00001680B60C0F8884080F88420104630BD4D
:1010F000022030BD70B5044690F8840001281DD050
:10110000012284F884202420C4F88800206805681F
:10111000026822F0010202602068826822F06062A8
:101120000A438260204600F083FE226820210020CE
:101130001560C4F8881084F8840070BD022070BD6A
:1011400070B5044690F8840001281DD0012284F86F
:1011500084202420C4F8880020680568026822F0F2
:10116000010202602068826822F060420A438260C5
:10117000204600F05DFE2268202100201560C4F8A2
:10118000881084F8840070BD022070BD10B5040082
:1011900003D0D4F8880010B107E0012010BD002072
:1011A00084F884002046FEF78BFF2420C4F88800D2
:1011B0002068016821F001010160204600F03EFF37
:1011C0000128EBD0A06A10B1204600F053FE206841
:1011D000416821F4904141602068816821F02A0132
:1011E00081602068016841F0010101602046BDE88E
:1011F000104000F0A3BE00000A480021084B012265
:1012000010B5036001714171416102628161FEF7B5
:10121000BFFF002803D0BDE81040FEF72EBF10BD71
:10122000004C0258140000240D4800210B4B0822EA
:1012300010B5C0E900318160C16001614161816127
:10124000C0E908218162C1620163FFF741F800280B
:1012500003D0BDE81040FEF710BF10BD00000248EB
:1012600038000024094808B5016841F00101016017
:1012700000680022114600F0010000900B20FEF7EC
:1012800001FFBDE808400B20FEF701BFD84402581B
:101290002DE9F04387B014216846FEF7B1FE3F48C0
:1012A000016841F010010160016801F01001059131
:1012B000016841F004010160016801F00401059139
:1012C000016841F080010160016801F08001059131
:1012D000016841F001010160016801F0010105911F
:1012E000016841F002010160016801F0020105910D
:1012F000016841F00801016000680022284F2221A6
:1013000000F0080005903846FEF7DFFEDFF8948015
:10131000002210214046FEF7D8FEDFF88C9041F6FF
:101320000306002231464846FEF7CFFE00246946F8
:1013300008200294CDE900041C48FEF794FE012524
:10134000694622200090CDE9015438460394FEF707
:101350008AFE10200090CDE901546946404603946E
:10136000FEF781FE20206946CDE900044046029444
:10137000FEF779FE00966946CDE90154484603948C
:10138000FEF771FEA8024FF488118DE8130069463C
:101390004846FEF768FE07B0BDE8F083E044025817
:1013A00000000258000802580004025800100258B9
:1013B0000C48002110B50122094CFF23C0E902218D
:1013C000C0E904218161C1610162C0E90043FEF707
:1013D00081FE002803D0BDE81040FEF74EBE10BDD0
:1013E00000500052000100240B4800214FF48043BC
:1013F00010B5084C0422C0E90041C0E90213C0E95D
:101400000412FFF753FC002803D0BDE81040FEF79C
:1014100034BE10BD007000524C0100242DE9F04193
:101420004FF4800716480726DFF850C0FD00002162
:101430006C100561C0E90216A30000F144069A0091
:10144000C0E90721416204228162C0E90543C1620B
:101450004023416394018163C163016486E81E00F7
:1014600041658165C0E900C7FFF722FD002803D070
:10147000BDE8F041FEF701BEBDE8F0810038004054
:10148000C801002430B585B0044637204FF480727F
:101490000DF1080CCDE90010002369461501204626
:1014A0008CE82C0000F0F0FA372141F28832204617
:1014B00000F076F905B030BD30B585B0044629207E
:1014C0004FF480720DF1080CCDE90010002369463D
:1014D000150120468CE82C0000F0D6FA204600F0DA
:1014E0001BFA05B030BD30B50446102085B00DF1B3
:1014F000080C02010502CDE90010002369468CE8C2
:101500002C00204600F0C0FA102141F2883220461B
:1015100000F046F905B030BD30B585B00446062070
:101520004FF480720DF1080CCDE9001000236946DC
:10153000150120468CE82C0000F0A6FA062141F2A5
:101540008832204600F02CF905B030BD30B585B0AA
:101550000546002469464FF480500094019402949B
:10156000CDE90340284600F08FFA0B4A4FF4FA50B9
:1015700041F288311268B2FBF0F04843401E03D2BA
:101580004FF0004005B030BD696B0906F6D5034940
:101590002046A963F6E700000C000024C5002000E7
:1015A00030B50821044685B04FF4D5704A010023B8
:1015B0004D028DE82F006946204600F065FA20466E
:1015C00000F014FA05B030BD30B585B004460720F0
:1015D0004FF480720DF1080CCDE90010002369462C
:1015E000150120468CE82C0000F04EFA072141F24C
:1015F0008832204600F0D4F805B030BD10B585B073
:101600000446002102204FF44072C3020493CDE946
:101610000010CDE902216946204600F035FA204647
:1016200000F050F905B010BD30B585B00446092072
:101630000DF1080C0023CDE900104FF4407269460B
:101640004FF4805520468CE82C0000F01DFA20460F
:1016500000F038F905B030BD10B585B00446002162
:1016600033204FF48072CDE90221CDE9001013013F
:1016700069462046049300F007FA332141F288328C
:10168000204600F08DF805B010BD30B585B0044699
:101690000D204FF480720DF1080CCDE900100023ED
:1016A0006946150120468CE82C0000F0EDF90D216B
:1016B00041F28832204600F073F805B030BD30B5F5
:1016C00085B00C460021054603204FF48072CDE919
:1016D0000221CDE90010130169462846049300F069
:1016E000D3F903212246284600F03AF905B030BD6F
:1016F00010B585B0044600210D204FF48072CDE96D
:101700000221CDE90010130169462046049300F040
:10171000BBF90D2141F28832204600F041F805B0B6
:1017200010BD000010B585B004464FF48072002053
:101730000C2113018DE80700CDE90303E06840F0B8
:101740008000E060E06820F04000E06069462046EC
:1017500000F09AF9074A0C21204600F021F8E168D0
:10176000B0F1007F21F08001E16000D1002005B0E0
:1017700010BD000000E1F50570B50A6842624A68D4
:101780008262C46AD1E90225D1E9043624F0FF015E
:101790002A4333431A431143C162002070BD000045
:1017A00030B5464D4FF4FA53434C2D68B5FBF3F377
:1017B00053435B1E02D24FF0004030BD426B2242C9
:1017C000F7D09204F5D4426B520703D5042181630C
:1017D000084630BD426BD20702D00121816306E08A
:1017E000354A803282630269D2B28A4201D0012036
:1017F00030BD002100F02AF93149084201D1002012
:1018000030BD002802DA4FF0007030BD410001D534
:10181000402030BD810001D5802030BDC10002D5FF
:101820004FF4807030BD010102D54FF4007030BD1F
:10183000410102D54FF4806030BDC10102D54FF4A3
:10184000006030BD010202D54FF4805030BD41022E
:1018500002D54FF4005030BD810202D54FF48040D4
:1018600030BDC10202D54FF4004030BD410302D566
:101870004FF4003030BD810302D54FF4802030BDDD
:10188000C10302D54FF4002030BD010402D54FF44E
:10189000801030BD410402D54FF4001030BD8104EA
:1018A00002D54FF4800030BD000702D54FF4000090
:1018B00030BD4FF4803030BD450020000C000024C6
:1018C00008E0FFFD124B4FF4FA5141F288321B68D9
:1018D000B3FBF1F15143491E02D24FF00040704773
:1018E000426B12F0450FF6D09204F4D4416B4907D5
:1018F00003D50421816308467047416BC90703D0B3
:1019000001218163084670470249816300207047C6
:101910000C000024C50020000F4B4FF4FA5141F297
:1019200088321B68B3FBF1F15143491E02D24FF0DC
:1019300000407047426B12F0450FF6D09204F4D489
:10194000416B490703D50421816308467047034969
:1019500081630020704700000C000024C5002000B7
:1019600030B5204D4FF4FA5341F288342D68B5FB61
:10197000F3F363435B1E02D24FF0004030BD446B73
:1019800014F0450FF6D0A404F4D4436B5B0703D5E1
:1019900004218163084630BD436BDB0702D001217F
:1019A000816303E00369DBB28B4201D0012030BDCB
:1019B0000D498163002100F049F810F4604F04D014
:1019C000410406D54FF4005030BD000C10800020BB
:1019D00030BD000402D54FF4805030BD4FF480304C
:1019E00030BD00000C000024C5002000144B4FF453
:1019F000FA5141F288321B68B3FBF1F15143491EA1
:101A000002D24FF000407047426B12F0450FF6D003
:101A10009204F4D4416B490703D50421816308463D
:101A20007047416BC90703D00121816308467047A5
:101A3000416B490601D540218163002070470000B9
:101A40000C000024006800F003007047084440695F
:101A50007047000030B511434268DDE903542B4361
:101A6000034D194321432A400A434260002030BD00
:101A7000002CC0FF016841F00301016000207047A5
:101A8000D0F880007047000070B5084D0A68826089
:101A9000C368D1E90126D1E903412B4032430C430D
:101AA00022431343C360002070BD0000C0E0FEFF6E
:101AB0000968C0F880100020704700002DE9F04F41
:101AC00087B00D460446FEF7F1FA0026069020681E
:101AD0000821B3463746FFF706FD002833D1B4F896
:101AE000441020680904FFF7CDFC00282BD1431EC9
:101AF0004FF008094FF0020A4FF0300C4FF0010888
:101B0000CDF80CA08DE80812CDE90468206869467C
:101B1000FFF732FE2068FFF79FFD002813D140F247
:101B20002A582068416B11EA080F06D1416B09035E
:101B300015D4BBF1000F09D011E0416B090717D58F
:101B4000C0F83890082007B0BDE8F08FFFF798FF85
:101B500006462068FFF794FF07464FF0010BFEF79B
:101B6000A5FA0699401A401CDBD14FF00040EAE785
:101B7000416B890703D5C0F838A00220E3E7416B29
:101B8000890603D5202181630846DCE7034A39BA78
:101B900033BA82630020C5E90013D4E73A0F001876
:101BA00070B58CB004460020ADF82C00FEF77EFA2C
:101BB00005462068FFF746FF002853D0A06B032896
:101BC00041D02068FFF71AFD002849D12068002184
:101BD000FFF73CFFE06604212068FFF737FF20672E
:101BE00008212068FFF732FF60670C212068FFF7AB
:101BF0002DFFA16BA067032925D041F2883600BFD5
:101C0000BDF82C0088B3A06B03281CD0BDF82C10A5
:101C1000616420680904FFF707FD002820D12068CF
:101C20000021FFF713FFE06504212068FFF70EFF96
:101C3000206608212068FFF709FF60660C212068F4
:101C4000FFF704FFA06604212068FFF7FFFE000DE8
:101C5000694620642046FEF7AFFDA8B14FF08050E2
:101C60000CB070BD4FF08060FAE7FFE720680BA969
:101C7000FFF725FD0028F3D1FEF718FA401BB0420C
:101C8000BED34FF00040EBE7B4F8441020680904DD
:101C9000FFF79AFCE4E700002DE9F84F0026044620
:101CA0003546B04600960068FFF750FC002829D161
:101CB0002068FFF775FCB0F1004F4FF001094FF0BD
:101CC000805B4FF6FF7702D0C4F83C9008E0E663F3
:101CD0002068FFF73BFC002814D1E06B01281ED1DF
:101CE00020680021FFF7CEFB58B918E020680021DA
:101CF000FFF7C8FB002805D120685146FFF7DCFB41
:101D000010B15846BDE8F88F20680021FFF79EFE0D
:101D10004FEAD07805460098401C009002E0DFF8BA
:101D200028A00098B84202D2B8F1000FDED0009887
:101D3000B84202D34FF08070E4E76800A66301D593
:101D4000C4F838900020DDE7000010C12DE9F04113
:101D500086B00D460446FEF7A9F900210746206823
:101D6000FFF774FE800104D54FF4006006B0BDE8B3
:101D7000F08120684021FFF7B6FBC0B9B4F84410E9
:101D800020680904FFF77EFB88B940214FF0FF303F
:101D900060224FF0010C022300268DE84F102068CE
:101DA0006946FFF7E9FC2068FFF7A2FC98B1616B78
:101DB0006163DBE7406B000407D500262068FFF76E
:101DC0005FFE761C082E01C5F8D3FEF76FF9C01B25
:101DD000401C02D127E04FF000482068416B11F40D
:101DE000957FE7D0416B090701D50820BEE7416B1D
:101DF000890701D50220B9E7406B80060AD520206B
:101E0000B4E700BFFFF73CFE01C5FEF74FF9C01B6A
:101E1000401C08D02068416BC904F3D40146034834
:101E200088630020A2E74046A0E700003A0F0018B0
:101E300030B5416EB9B101680D4B03F108048A68F1
:101E40008968C2F34262490F5D5C615C2D01B5FB9C
:101E5000F1F1A0F86A10995CA25C0901B1FBF2F102
:101E6000A0F8681030BD0121A0F86A10F8E7000062
:101E70008C24009090F82810C90706D00168C36A26
:101E80004A6822F400321A434A6090F82810890701
:101E900006D50168036B4A6822F480321A434A600F
:101EA00090F82810490706D50168436B4A6822F468
:101EB00080221A434A6090F82810090706D5016865
:101EC000836B4A6822F400421A434A6090F8281053
:101ED000C90606D50168C36B8A6822F480521A438A
:101EE0008A6090F82810890606D50168036C8A6814
:101EF00022F400521A438A6090F82810490611D53E
:101F00000168436C4A6822F480121A434A60416CAB
:101F1000B1F5801F06D10168836C4A6822F4C002C3
:101F20001A434A6090F82810090606D50168C26C69
:101F3000486820F400201043486070472DE9F843BA
:101F400000250446C0F89050FEF7B0F8804620689F
:101F500020266FF07E470068000713D50022434615
:101F600031042046009700F03FFA58B1216851E84B
:101F7000000F20F0800041E80002002AF6D1C4F8EA
:101F8000886021E020680068400722D5002243468F
:101F90004FF480012046009700F026FAC8B120686F
:101FA00050E8001F21F4907140E80012002AF6D199
:101FB0002068083050E8001F21F0010140E80012BD
:101FC000002AF5D1C4F88C60032084F88450BDE861
